:020000040001F9
:10D00000A03D0020B5D10100CFD10100D1D1010058
:10D010000000000000000000000000000000000010
:10D02000000000000000000000000000D3D101005B
:10D030000000000000000000D5D10100D7D10100A0
:10D04000D9D10100D9D10100D9D10100D9D1010034
:10D0500093E601000000000023E60100DBE7010089
:10D06000D9D10100D9D10100D9D10100D9D1010014
:10D07000D9D10100D9D10100D9D10100D9D1010004
:10D08000D9D1010017490200D9D10100D9D101003D
:10D0900031490200515402003D610200D9D1010022
:10D0A000D9D10100D9D1010000000000000000002A
:10D0B0000000000000000000000000000000000070
:10D0C00000F002F800F03AF80CA030C80838241834
:10D0D0002D18A246671EAB4654465D46AC4201D1B0
:10D0E00000F02CF87E460F3E0FCCB64601263342A8
:10D0F00000D0FB1AA246AB463343184744A90000B0
:10D1000064A900000023002400250026103A01D362
:10D1100078C1FBD8520700D330C100D50B607047EF
:10D1200010B5782902D109F073F810BD002010BDA8
:10D130001FB5C046C0461FBD10B510BD0AF0EDFAC0
:10D140001146FFF7F5FF01F066FD0AF005FB03B499
:10D15000FFF7F2FF03BC0AF009FB0000401E00BF0E
:10D1600000BF00BF00BF00BF00BF00BF00BF00BFC7
:10D1700000BF00BF00BFF1D17047000070B5054689
:10D180000C46164602E00FCC0FC5103E102EFAD208
:10D19000082E02D303CC03C5083E042E07D301CCCE
:10D1A00001C5361F03E021782970641C6D1C761EB2
:10D1B000F9D270BD03210C4802680A4302600B4893
:10D1C00002680A4302600A4880470A480047FEE7AF
:10D1D000FEE7FEE7FEE7FEE7FEE700000648074938
:10D1E000054A074B704700002405004054050040E5
:10D1F0007DD20100C1D00100A0330020A03D00205D
:10D20000A03300202748018CC9B201290BD1818CA1
:10D21000090708D1018D0906090F042903D1808D62
:10D220000006000F01D000207047012070471D4903
:10D23000088CC0B201281DD1888C00071AD1088D36
:10D240000006020F03D18A8D1206120F03D0000FC1
:10D25000012802D005E0012070478A8D1206120FC6
:10D2600002D0032802D005E001207047888D000617
:10D27000000F01D0002070470120704710B5FFF764
:10D28000D6FF002805D0094907484860C813084957
:10D290008861FFF7B7FF002802D0064901208860A7
:10D2A00010BD0000C00F00F0DFFF07C00005004008
:10D2B000006C00400006004002465D49087D0028E1
:10D2C00008D000200B181B79934204D0401CC0B238
:10D2D0000828F7D3FF20704718B404466946204653
:10D2E000E7DF694608788007800F009002280BD39B
:10D2F0002046C5DF69462046E7DF6846007881079B
:10D30000890F00910229F3D218BC704770B5002034
:10D31000FFF7D2FF0546FF2D11D0454C208840086D
:10D320004000208000206074A074E0742846FFF75D
:10D33000D3FFFF2061190871207D401C207570BD4E
:10D3400082B002783B49515C082905D110216A4618
:10D35000117000780821C7DF02B0704701783548A6
:10D36000085C002800D1D1E7704770B483B0044650
:10D370002178E0784E2803D04F2801D0502849D199
:10D380002B4D68180079002844D1687C00260028BD
:10D3900019D0C8B26B4601AA02A9D4DF6846008939
:10D3A000002810D024494A8B824207D068804883E5
:10D3B0002248012201681203114301606E7428881B
:10D3C000012108432880287B617A884211D1687B3B
:10D3D000A17A88420DD1A87BE17A884209D1287CC4
:10D3E00000280ED0401EC0B22874002809D1EE7368
:10D3F00007E0207BE873F02801D9F020E8731020C3
:10D400002874607A2873A07A6873E07AA8730A2077
:10D41000A874EE7403B070BC70474178012904D041
:10D42000032903D0802902D19FE797E788E7704757
:10D43000C8250020CC2500203426002018240020F8
:10D440000021FE4801600121FD4A8905916000210B
:10D45000C9438160C16001617047F84A0023D3610C
:10D46000F8488168012903D000BF81680129FBD1F8
:10D4700083609069C0B27047F04AD061F14881681A
:10D48000012903D000BF81680129FBD100218160FF
:10D4900090697047E948192181601821C1601721FE
:10D4A0000161012109074162E74A06215161012119
:10D4B000E34B8A05DA600160704700B5FFF7EAFFC9
:10D4C0000520FFF7D9FFFFF7C8FF0346FFF7B8FFB6
:10D4D000184600BD00B5FFF7F0FFC007C00F00BD44
:10D4E00070B504460E461546FFF7F4FF002804D039
:10D4F00000BFFFF7EFFF0028FAD1FFF7CBFF0320B3
:10D50000FFF7BAFF2002000EFFF7B6FF2004000E5F
:10D51000FFF7B2FFE0B2FFF7AFFF0024002D05D9FF
:10D52000FFF79BFF3055641CAC42F9D3FFF788FF2F
:10D5300070BD08B504226946C448FFF7D1FF0098C2
:10D5400008BD0922C249C348CAE710B584B002A881
:10D550006C4671DF6846807A01026846407A41185D
:10D560000A05120DBCA1204608F016FE204604B0A4
:10D5700010BDBB4880224169114300224271C27133
:10D58000032282710122120311434161704700B5E9
:10D59000FFF780FF0620FFF76FFFFFF751FFFFF750
:10D5A0008CFF8007F4D500BD70B50024FF25F5354C
:10D5B000FFF790FF002805D0012000F0E1FD641C7A
:10D5C000AC42F5D370BD10B50403FFF7EDFFFFF7D4
:10D5D000DEFFFFF75FFF2020FFF74EFF2002000E67
:10D5E000FFF74AFF2004000EFFF746FFE0B2FFF707
:10D5F00043FFFFF725FF10BD70B506460D461446E4
:10D60000FFF7D2FFFFF7C3FFFFF744FF0220FFF74A
:10D6100033FF3002000EFFF72FFF3004000EFFF73C
:10D620002BFFF0B2FFF728FF0023002C05D9E85CA0
:10D63000FFF722FF5B1CA342F9D3FFF701FF70BD88
:10D6400010B588490C20086001217D48890581605A
:10D65000C900816049108160C910C1608248418D54
:10D660000422114341857E4903208870052000F083
:10D6700087FD10BD10B584B07B48408D4007002861
:10D6800003DA77490320887001E0FFF7D9FF00F043
:10D6900059FB0020FFF797FF082202A90020FFF79F
:10D6A0001FFF002002AC215CFF2902D0002004B043
:10D6B00010BD401CC0B20828F5D300202054401CE7
:10D6C000C0B20828FAD3082202A90020FFF794FF6D
:10D6D000082269460020FFF703FF00206946225C0C
:10D6E0000B5C9A4202D0002004B010BD401CC0B2B6
:10D6F0000828F4D3012004B010BD5C48002101606B
:10D7000041608160C160016141618161C16101620B
:10D7100041628162C162704710B55821544808F0D7
:10D72000C4FF5448524902880A8082788A70C078BF
:10D73000C8704D48418D78229143418510BD4849BC
:10D740000872FF2248690132104300224A71032205
:10D750008A71CA79521ECA710122120310434861AC
:10D7600070473F4AD079411CC9B2072802D2507293
:10D77000D1717047507A062804D0401C5072D17184
:10D78000507ADCE700205072F9E730B438490A8853
:10D7900002808A788270CA78C270374B5A684260B9
:10D7A0001A6882609A68C260DA6802614A684261F7
:10D7B0008A688261CA68C2610A6902624A69426211
:10D7C0008A698262CA69C2624A6A4263CA6A8263B9
:10D7D0000A6BC2634A6B02648A6B4264CA6B8264DE
:10D7E000096CC164254A0146148940310C82548970
:10D7F0004C8294888C82D488CC82147B0C76527BA9
:10D800004A7600228A76184A548D2407002C01DAC1
:10D8100001248C76548DE40603D58C7E02252C439E
:10D820008C76548DA40603D58C7E04252C438C76EF
:10D83000528D520626D58A7E202421E000350040F4
:10D84000000500500031004040350040FCF03F0032
:10D8500008280020C0F03F002530335800000000A9
:10D86000042400205C070050142A0020F02A002025
:10D87000982A00204E24002034260020D82A002098
:10D8800022438A769A7FCA76DA7F0A77FA4A137831
:10D890004B7753788B779378CB77D1786030017062
:10D8A00011794170517981709179C17030BC7047A4
:10D8B00030B4F2490A463CCA3CC00A4610323CCA5F
:10D8C000103810303CC04A6A2038096A426201624E
:10D8D00030BC7047F0B5A7B0E94EEA4D706900283A
:10D8E00007D0688D400702D50320B07001E0FFF734
:10D8F000A7FE7069012701060024FF02002918DA3B
:10D90000FFF7E8FD002812D17179DF480818FFF70A
:10D910005AFE7079401CC0B270710321B1710728A2
:10D9200005D1706980218843B4713843706127B094
:10D93000F0BDD64EC10517D5FFF7CCFD0028F6D1B6
:10D94000CF4DD148297A0818FFF73DFE6879401C71
:10D95000C0B268710321A9710128E8D16869B04398
:10D960006861AC7127B0F0BD410535D5FFF7B2FD58
:10D970000028F7D1C6480579002D00D118256D1E65
:10D98000BF4EC449707A000340194718012201A90B
:10D990003846FFF7A5FD68460079FF2813D10194AA
:10D9A000012201A93846FFF727FEA801717A090371
:10D9B0000818B949441802A8FFF77AFF282202A9DB
:10D9C0002046FFF719FE01217069890288437061C2
:10D9D000FFF793FE27B0F0BD81051BD5FFF77AFD59
:10D9E0000028F7D164210CA808F05FFE0CA8FFF70F
:10D9F000CCFEA34CA949607A0003401864220CA90C
:10DA0000FFF7FAFD012160694902884338436061EC
:10DA100027B0F0BD01050BD5FFF7A3FEFFF77CFE95
:10DA2000FFF76BFE96484169B943416127B0F0BDED
:10DA3000934AC107202700297ED0D17815460029B6
:10DA40000DD0FFF747FD00280ED028790028EDD132
:10DA50006869400840006861EC7027B0F0BD40087C
:10DA60004000686127B0F0BDE87801281CD002288A
:10DA700021D0C10642D50407240F200288492590F1
:10DA80004018FF2201328749FFF72AFD00217C4818
:10DA9000854E4289834D6B1858786F5C0002C0191F
:10DAA00090420ED1304611E08048FFF78CFD1020E7
:10DAB000E87027B0F0BD7E48FFF785FDEF7027B016
:10DAC000F0BD904202D9B04200D0401E6854000A16
:10DAD0005870891CFF29DED9764A25988018FF22C4
:10DAE00069180132FFF788FD6548C178491CC1708B
:10DAF000082CE4D10221C17027B0F0BD810624D5E5
:10DB000005072D0F6B482F02381832466549FFF77D
:10DB1000E7FC6348381832466249FFF76DFD584804
:10DB20005749C078401CC870082DE5D108464169A6
:10DB300049084900C47000E00EE00222114341612F
:10DB4000418A491E418227B0F0BD68694008400003
:10DB50006861EC7027B0F0BD1446C1060CD5FFF724
:10DB6000B9FC0028F6D16069102188436061A06982
:10DB7000FFF729FD27B0F0BD810613D5FFF7AAFCFA
:10DB80000028F7D1A0696178000349014018FF30EF
:10DB900001306169B943616114224749FFF72CFDE7
:10DBA00027B0F0BD410624D5FFF794FC0028F7D13B
:10DBB000A06900036169402291436161404A3F4985
:10DBC000134678CB483178C11346103378CB583997
:10DBD000583178C1956A546A136A6839D26A0D67F8
:10DBE000CC668B664A6730224831FFF705FD27B0C7
:10DBF000F0BD410710D5FFF76DFC0028F7D1606933
:10DC0000042188436061E069FFF7DDFC6069082159
:10DC10000843606127B0F0BD010717D5FFF75AFC34
:10DC20000028F7D1E0690103E0891038C217120F0C
:10DC3000101800110002401832462249FFF7DCFCA0
:10DC4000616908208143616127B0F0BDC1043DD501
:10DC5000FFF740FC0028F7D10121606909038843E0
:10DC600060611948FFF7AFFC01216069490308436F
:10DC7000606127B0F0BD000054260020F02A00208B
:10DC800004240020142A0020F603000000010000F4
:10DC90004E240020E0603F0000613F0000603F0034
:10DCA00000E03F00A8260020FFFF0000FD03000069
:10DCB000FE03000000D03F00E8270020602600207F
:10DCC000E0250020A8270020FF03000081041ED5C6
:10DCD000FFF700FC0028CCD101216069490388438B
:10DCE00060613422FD49FE48FFF748FAFD48FE49CD
:10DCF00008F084FBFD48FE490160FE48FE490160D2
:10DD00003246F749FD48FFF777FC27B0F0BD4004E5
:10DD1000FBD5FFF7AFFC01280ED0688DF84908400D
:10DD2000688501216069890388436061F549087845
:10DD30003843087027B0F0BD688D0121890208437F
:10DD40006885EEE770B5F04D287DC0070DD0002442
:10DD50007D26F600FFF7BEFD287DC00705D00A200E
:10DD600000F00EFA641CB442F4D3FFF71DFC70BD42
:10DD700010B5E648408DE44C4007002802DA032045
:10DD8000A07001E0FFF75CFCFFF7DCFFE048FFF765
:10DD90001AFC00206082DF48A0810121606909032C
:10DDA0000843606110BDF0B5D74D6869810700294F
:10DDB0002DDAC0072BD1FFF78DFB002827D168692A
:10DDC0000221884368610020A881FFF763FB0320DC
:10DDD000FFF752FB3F20FFF74FFBE020FFF74CFB24
:10DDE0000020FFF749FB0024CA4EFFF736FB074629
:10DDF000FFF733FB0002C019C749884202D1A88946
:10DE0000401CA881641CB442EFD3FFF719FBF0BD9E
:10DE100070B50646BD48408D03254007BA4C002822
:10DE200001DAA57001E0FFF70BFC0121E1706681CA
:10DE3000606908436061257170BDF8B504460E46FF
:10DE4000FFF780FFB54960004518FFF723FB03206B
:10DE5000FFF712FB2802000EFFF70EFB2804000E4E
:10DE6000FFF70AFBE8B2FFF707FBAA4FBC420BD251
:10DE7000FFF7F3FA0546FFF7F0FA00024019B04247
:10DE800002D0641CBC42F3D3FFF7DAFABC4201D3E0
:10DE9000A148F8BD2046F8BDF8B500269B48408D46
:10DEA0004007002803DA98490320887001E0FFF753
:10DEB000C7FBFFF747FFFFF7EDFA0320FFF7DCFA98
:10DEC0003F20FFF7D9FAE020FFF7D6FA0020FFF74E
:10DED000D3FA0024904FFFF7C0FA0546FFF7BDFACA
:10DEE00000024519BD4203D06D1CB54200D92E4633
:10DEF000641C88488442EED3FFF7A2FA3046F8BD8E
:10DF0000F8B5FFF7C9FF804D80B26882002815D0B0
:10DF10000024002812D9804EA1B20020FFF78DFF07
:10DF2000B04207D0000304226946FFF7D9FA0098EF
:10DF3000401C04D0641C688A8442EDD3F8BDA0B2B2
:10DF4000FFF766FF6869002806D0FFF7C3FCFFF7FC
:10DF50002AFF68690028F8D1688A8442DCD3F8BDBA
:10DF6000F8B56A48408D684F4007002802DA032060
:10DF7000B87001E0FFF764FB0020F871FF207872B1
:10DF80000024674E2003801904226946FFF7A8FA8F
:10DF90000098401C03D0F879401CF87103E0787AAF
:10DFA000FF2800D17C72641C072CEBD3787AFF2801
:10DFB00005D0F979891CF971FFF7C1FB1EE0002536
:10DFC000ED4300242003801904226946FFF788FAF4
:10DFD00000980104020AFF231B021A400A43000EA4
:10DFE0001043A84201D205467C72641C072CE9D379
:10DFF000F879401CF871787AFFF7A1FBFFF78CFBEA
:10E00000FFF77BFBF8BD0121464849058160464A80
:10E010000321116001218905C160C900C160891017
:10E02000C1604900C1603948418D04229143418556
:10E0300070473E4903200860091D08603C4908609C
:10E04000091F0860DFE710B5FFF7F3FFFFF7F8FAE5
:10E05000FFF76FFA2849884210D1FFF772FA34228D
:10E060001E492648FFF73CFAFFF77AFFFFF748FF03
:10E070002548022241691143416110BD17492D48CD
:10E0800008602D4848602D4A8A602D4ACA600861A0
:10E09000492088827A20C8826920088300224A8326
:10E0A00023208877AF20C87726484D23037042701D
:10E0B000BA2383703C23C370822303714B234371C3
:10E0C000FF238371C271082303721E23437282727D
:10E0D000FE2088838005C862086335E0342600206E
:10E0E000A82600206827002008280020A02700205C
:10E0F00078563412A42700200112152000F03F00AA
:10E10000FFFB00007024002004240020142A0020BB
:10E11000FE030000F6030000FFFF000000E03F00E8
:10E1200000603F00000500505C070050540700509D
:10E130006407005040420F00581B000080841E00FE
:10E14000302A000054260020FFF712FEFFF711FAD4
:10E15000074808A10A8802854A88428589888185FE
:10E16000FFF7F3F90146054808F0E0F910BD00009B
:10E17000E02700204E65766F200000000828002070
:10E180001921C9014843002802D0401E0028FCD1B3
:10E190007047F8B5F7490C2008600422081D02609A
:10E1A000F54904200860091D0860F4480421016055
:10E1B000F34904200860091D0860F2490860091D40
:10E1C0000860091D0860F04804210160EF4904203F
:10E1D0000860EF490860091D0860EE4804210160ED
:10E1E000ED4803250560ED4C8020E0602069C00506
:10E1F000C30FEB4EEB490020002B07D0738DEA4F85
:10E200003B4073850D604021E16007E0738D01277D
:10E210003F033B43738508607B010B60D54BE349AB
:10E220001D6001231E02E6600D60A3600B1D1860D7
:10E230001B1D1D60A2601A1D1060DD4B10221D60A9
:10E24000A2601A1D1060DB4A10604861C86002F0CD
:10E25000ACFBD9480560001F05603002A06040108B
:10E26000A06000F0C7FDF8BD10B4D04B03228400BD
:10E27000E41822608C00E3181A6001231A468240D9
:10E28000C64882608B408360C260C36010BC704728
:10E2900010B4C64C032283001B191A6001231A46CE
:10E2A0008240BE48C2608B408360826010BC704771
:10E2B00010B4BE4C032283001B191A6001221346BE
:10E2C0008340B64883608A408260C26010BC704759
:10E2D00010B4B64C032283001B191A6001221346A6
:10E2E0008340AE48C3608A408260C26010BC704701
:10E2F00070B40446AD4B0C20A200D2181060002070
:10E30000002201252B46A54E8B404006000EB3602F
:10E310003169E140C907C90F002900D02843F360E3
:10E32000521CD2B2082AF0D370BC7047F0B49C469D
:10E330009E4C032385002F193B60002501242646AF
:10E340008640964B8C40DE60110600D59E601946D3
:10E350009C60CC6051060A0E6D1CEDB2082DF2D304
:10E36000614600290DD10C2139609C601969C140BA
:10E37000C807C00F002803D0DC60F0BC0120704744
:10E38000DC60F0BC00207047FFB50B9F099E0A9D22
:10E390001C4601990098FFF767FF0023029A019934
:10E3A0000098FFF7C3FF01281DD0002322460199E2
:10E3B0000098FFF7BBFF01281CD00024002D0BD9CB
:10E3C000325D3B4601990098FFF7B0FF012818D055
:10E3D000641CE4B2AC42F3D301990098FFF758FFF4
:10E3E000012004B0F0BD01990098FFF751FF002013
:10E3F00004B0F0BD01990098FFF74AFF002004B077
:10E40000F0BD01990098FFF743FF002004B0F0BD74
:10E41000FFB50A9E099D14461F4601990098FFF713
:10E4200023FF0023224601990098FFF77FFF012870
:10E4300025D00023324601990098FFF777FF012885
:10E4400024D001990098FFF70FFF012004432246D2
:10E45000002301990098FFF769FF01281DD00024CF
:10E46000002D29D96E1E01990098FFF741FF3855FC
:10E47000B44219D001990098FFF72AFF18E00199DA
:10E480000098FFF705FF002004B0F0BD0199009847
:10E49000FFF7FEFE002004B0F0BD01990098FFF7E1
:10E4A000F7FE002004B0F0BD01990098FFF700FFCF
:10E4B000641CE4B2AC42D6D301990098FFF7E8FEA1
:10E4C000012004B0F0BD08B5002003223B4B1146EB
:10E4D000009006F02EFA002804D0FF2138A2023165
:10E4E00000F017FA08BD70B5394E012100228903EA
:10E4F000306806F0D0FA002804D0FF2130A21A318B
:10E5000000F007FA264C608DC00411D401256D037C
:10E5100000222946706806F0BEFA002804D0FF21C8
:10E5200027A2203100F0F5F9608D2843608570BD89
:10E53000608D28490840608570BD10B5264A0121CC
:10E54000234806F051FA002804D0FF211CA20A310A
:10E5500000F0DFF9214A0121214806F045FA0028A0
:10E5600004D0FF2116A2103100F0D3F9FFF7BBFF52
:10E5700010BD000020070050280700503007005051
:10E5800034070050440700505007005068070050FF
:10E5900070070050780700501C070050000500501D
:10E5A000142A002018070050FFEF00000007005059
:10E5B000100700506C07005040070050142800203E
:10E5C0002E2E5C68617264776172652E63000000B4
:10E5D00030240020FFDF0000A7070200F708020038
:10E5E0003424002070B5914C206806F07DFA002894
:10E5F00004D0FF218E4A373100F08BF98D4D688DA4
:10E6000080040DD5606806F06FFA002804D0FF2161
:10E61000874A3D3100F07DF9688D8749084068855B
:10E6200070BD70B58548C16B00292CD00021C16335
:10E63000834C6069834D8003800F11D1E0688003B3
:10E64000800F0DD02869C006C00F002808D17E4871
:10E650000078C00702D002F0EEF901E002F028FADB
:10E66000A0698003800F0ED028694006C00F0028E3
:10E670000AD0A069032109040843A06173488022DD
:10E6800001891143018170BDA06971490840A061F1
:10E6900070BD10B56F488069C0B26F4A00219160AB
:10E6A00069490978C90702D002F0FAF910BD02F0F1
:10E6B000A1FA10BDF8B55F4DA88D08210840674943
:10E6C000674C097808430ED0A88DC10705200029A2
:10E6D00005D0A98D49084900A985E07003E0E178DB
:10E6E000052900D2E070A88D0126C007002815D0AA
:10E6F0005C4F3868C00711D1A88D80088000A885BC
:10E700001A20786058484660012107202BDF072037
:10E7100026DF3E60554806603C20E070A88D8007EB
:10E7200017D5A88D02218843A885A88D400711D44C
:10E73000288D61794900491948866079401CC0B22A
:10E740006071082806D0A88D3043A8850520FFF702
:10E7500017FDF8BD0022EA850020411C0B46490048
:10E7600049194000498E40194186E88D4018E885D6
:10E77000D8B20728F1D3298D400040194186E98D90
:10E78000408E081880B2C008E885394920260B78E9
:10E7900033430B70A98D490704D5298E884206D2D0
:10E7A000288604E0A98D04231943A9852886314BC6
:10E7B000102198420CD2A88DC006CAD42079401CE2
:10E7C000C0B220710328C4D1A88D0843A885F8BD24
:10E7D000A88D8843A8852271F8BD30B4264B1868EF
:10E7E000002821D02048012484601248818D022213
:10E7F000114381851B4DA9680185018D8905890D0E
:10E80000018500211960194B5C6069602960818D68
:10E8100008231940114B1B78194305D0818D914372
:10E82000818505214030C17030BC70473024002004
:10E83000C0E50100142A0020FFDF00004061004015
:10E8400000070050000500505B240020202B002012
:10E85000FFFF020000450040004100400624002068
:10E86000542A0020007500400073004000700040F2
:10E8700068240020FF0200000071004010B548200D
:10E88000FE4900240C70491C401E80B20028F9D1BA
:10E890001620FB490C70491C401E80B20028F9D19B
:10E8A0003420F8490C70491C401E80B20028F9D170
:10E8B000F34908220A75FF220B181A71401C80B216
:10E8C0000B7D8342F8D88720EF4940010880002063
:10E8D000EE49C0430880EE4801F0E1FEFFF7B3FBCC
:10E8E000EC480480EC4803218171EC483C21017024
:10E8F000E248818D012211438185E9484471E9494B
:10E90000402208781043087010BD10B506F0DCFAFC
:10E9100010BD704708B500235022E349082007F0D6
:10E92000D7FB002803D0E1A26021FFF7F2FF00200F
:10E9300000900090684660DF002803D0DBA26721CA
:10E94000FFF7E7FFDC4807F0E1FB002803D0D7A280
:10E950006B21FFF7DEFFD94807F0E0FB002803D06A
:10E96000D2A26F21FFF7D5FFD54807F0DFFB0028C3
:10E9700003D0CEA27321FFF7CCFF08BD10B5BF4A6C
:10E98000508D8005002823DA8020CE4B5968090677
:10E99000C90F00291AD0D860508DCB490840508546
:10E9A000CA480021C16003210904416101F0F6FF5A
:10E9B0000020C749C0438860C64910200860FFF79F
:10E9C00011FE0A20FFF7DCFB34DF10BD9860E3E79F
:10E9D00040DF0028F9D0B5A28E21FFF79AFF10BDC5
:10E9E0000A460146BC4894E700B583B0BB480A21FB
:10E9F000007807F0A1FE30306A4610703031517057
:10EA000002200290B6486B46008802AA0021A4DFCB
:10EA1000002803D0A5A2CD21FFF77BFF03B000BDE6
:10EA2000F8B5A8490869C006C00FFD269D4D00280D
:10EA300073D0AC48007800286FD12878C20711D075
:10EA4000A9480078002868D128784008400028703C
:10EA500002F0BEF92878C007F6D101F0DFFF01F01F
:10EA6000BAFF5AE0820609D5DF210840287002F07B
:10EA7000DAF901F0D3FF01F0AEFF4EE0420609D50E
:10EA8000BF210840287002F0DEF901F0C7FF01F055
:10EA9000A2FF42E0820708D53040287002F0E0F97A
:10EAA00001F0BCFF01F097FF37E0904800680028B4
:10EAB00006D002F03BFA01F0B1FF01F08CFF2CE030
:10EAC0008B488C4A00881288904206D002F0E3F806
:10EAD00001F0A4FF01F07FFF1FE008698006C00F6E
:10EAE00000281AD18449087882070BD5834A844BC1
:10EAF00012781B78D21A9206920E202A0DD8304036
:10EB000008700AE040084000087000216F48416129
:10EB100003210904C16001F05EFF2878010707D5D1
:10EB2000F72108402870774802210170FFF75CFF49
:10EB30002878410769D5FB210840287072484F4C5E
:10EB40000078002809D0714F01280FD0022825D065
:10EB5000032847D004284ED057E0608D000501D42B
:10EB600002F0EBF8012003F0EFFE4EE0012003F08D
:10EB7000EBFE608DC0050CD53889410604D500F048
:10EB80004FFA01F034FB40E000073ED401F02FFBC8
:10EB90003BE000F02FF901F02AFB36E0608D000623
:10EBA0000BD4608D802108436085012003F0C6F8F6
:10EBB0005748584A018811400180608DC0050CD526
:10EBC0003889410604D500F02BFA01F03AFA1CE02E
:10EBD00000071AD501F035FA17E000F00BF901F043
:10EBE00030FA12E03889010702D53821884338818C
:10EBF00000F010FA09E0012003F0A6FE00F058FA38
:10EC0000608D01214902084360856878810701D53C
:10EC100030406870F8BD41493F484860404980171E
:10EC20008860C2074A602A49886004204860FFF76C
:10EC300071FEFFF748FC02F036FBFFF71FFEFFF7FF
:10EC4000A8FAFFF77AFC01F0FCF903F07EFB06203E
:10EC50002ADF04202ADF012106202BDF002804D030
:10EC6000FF2112A29731FFF754FE012104202BDF70
:10EC7000002859D0FF210DA2993153E0142A002019
:10EC8000C8250020342600204C24002076240020B3
:10EC90004E24002042240020002C0020402400208C
:10ECA000542A002068240020C42900202E2E5C6DE8
:10ECB00061696E2E63000000FF2802001BD4010072
:10ECC0000BE9010000050050FFFD000000070050A7
:10ECD0000043004080E100E0EFBEADDE5A2400209A
:10ECE000002500205C240020C52400206C24002086
:10ECF00064240020662400205B240020622400207D
:10ED0000602400203B24002058240020202B0020D9
:10ED1000C8240020BFEF0000DFFF07C0000500404F
:10ED200000630040FFF7F5FD062026DF002804D031
:10ED3000FF2125A29B31FFF7ECFD042026DF0028F0
:10ED400004D0FF2120A29D31FFF7E3FD62B601F060
:10ED50005AFE204D204E214F214C02F0B2FA286875
:10ED600000282ED13088398888422AD11D48006871
:10ED7000002826D11C4801881C480088814220D1E7
:10ED80001B4800698006C00F00281AD0FFF7F6FD67
:10ED9000FFF746FE01F0E0FA01F013FD01F0B1FDCE
:10EDA00003F0F3FE6078410604D5BF21084060708F
:10EDB00002F077F9FEF78EFDFEF7F5FFFFF77AFC1C
:10EDC000CBE700BFE4E700002E2E5C6D61696E2E7C
:10EDD000630000001824002062240020602400202A
:10EDE0007024002068240020642400206624002071
:10EDF0000005005070B584B00F211020FFF748FACD
:10EE00000F2001250146019003AB3222009510200E
:10EE1000FFF7FEFA472168460173002403AE202362
:10EE200032220F211020009601950294FFF7ACFAD0
:10EE300068460473212332220F2110200096019589
:10EE40000294FFF7A1FA68460473222332220F21AD
:10EE50001020009601950294FFF796FA6846047315
:10EE6000232332220F211020009601950294FFF7F0
:10EE70008BFA68460473242332220F211020009657
:10EE800001950294FFF780FA684604732523322225
:10EE90000F211020009601950294FFF775FA68463D
:10EEA00004732E2332220F21102000960195029424
:10EEB000FFF76AFA68460473302332220F211020CC
:10EEC000009601950294FFF75FFA684604733223B7
:10EED0001A460F211020009601950294FFF754FA6C
:10EEE00068460473332332220F21102000960195C7
:10EEF0000294FFF749FA68460473382332220F213F
:10EF00001020009601950294FFF73EFA58216846BA
:10EF100001733A2332220F211020009601950294AA
:10EF2000FFF732FA0221684601733B2332220F2198
:10EF30001020009601950294FFF726FA07216846F3
:10EF400001733C2332220F21102000960195029478
:10EF5000FFF71AFA1421684601733D2332220F216C
:10EF60001020009601950294FFF70EFAFD48418D9E
:10EF70002A021143418504B070BDF0B585B000246C
:10EF800068460474012504AE242332220F21102088
:10EF9000009601950294FFF7F7F9684604742E2352
:10EFA00032220F211020009601950294FFF7ECF910
:10EFB000EC4F788DC0040AD56846047425233222AC
:10EFC0000F211020009601950294FFF7DDF917201C
:10EFD00069460874202332220F21102000960195E3
:10EFE0000294FFF7D1F9E0488470E0480482788DFC
:10EFF00080040DD5DE48006805F076FD002803D0BA
:10F00000DCA26F21FFF785FC788DDE49084078850A
:10F0100005B0F0BDD5484022018911430181ACE71C
:10F02000F0B585B0D14D41212889884328814720FA
:10F03000694608740024012604AF202332220F21E0
:10F040001020009701960294FFF79EF9C64884703D
:10F050002C82CD48C4700472C24D688D4004400CAF
:10F060006885688DC0040DD5402069460874252345
:10F0700032220F211020009701960294FFF784F9A5
:10F0800005B0F0BD688D8004FAD40124B84864034B
:10F0900000222146006805F0FEFC002803D0B5A23E
:10F0A0009521FFF736FC688D2043688505B0F0BDDB
:10F0B000F0B585B0AB4C608DB44908406085608D7B
:10F0C0000025C004012704AE00280ADA684605744A
:10F0D000252332220F211020019700960295FFF779
:10F0E00053F968460574202332220F21102001971E
:10F0F00000960295FFF748F9608D80040DD59C4875
:10F10000006805F0F1FC002803D09AA2B621FFF7B1
:10F1100000FC608D9B490840608505B0F0BDF0B4EF
:10F1200099490F789A49012F4A7ACB7F8C79CD790A
:10F130000E7A0FD0022F2FD01F0752D5A64207D923
:10F140000B469C791B7A1B1B012847D098184872E4
:10F15000F0BC7047DF060ED5AC42F9D98C4BDC7998
:10F160009B791B1B012803D098184872F0BC70478C
:10F170004B72F0BC70479B06FBD5B442F9D9844B67
:10F180001C7A9B791B1B012803D098184872F0BC8D
:10F1900070474B72F0BC70471F070ED5A542F9D9D6
:10F1A0007B4B9C79DB791B1B012803D09818487294
:10F1B000F0BC70474B72F0BC70479B06FBD5B54264
:10F1C000F9D9734B1C7ADB791B1B012803D09818E3
:10F1D0004872F0BC70474B72F0BC70474B72F0BC89
:10F1E0007047DB06FBD5AE42F9D9694BDC791B7A57
:10F1F0001B1B012803D098184872F0BC70474B7253
:10F20000F0BC70476348418A491C4182018A0183EE
:10F210007047F3B581B00D46002D7DD05E4F5A4C3E
:10F220005048408D000478D50020E0715B480168AB
:10F23000491C01605A494868401C48604B4A117A91
:10F24000C90707D05649CB685B1CCB60798A491C3B
:10F25000798206E052498B685B1C8B60398A491CB5
:10F2600039825049496800290ED03E4B5E8D3607E1
:10F270000AD4884208D3588D0821084358854A4843
:10F28000402301781943017048483C2101710198DD
:10F29000002801D1FFF7B6FF1689B0070DD5414808
:10F2A0005168808A0918516008F0BEF93D49C96A61
:10F2B00008F088FA08F074F926E070070DD539488F
:10F2C0005168C08A0918516008F0AEF93549096BD8
:10F2D00008F078FA08F064F916E0F0070AD031482F
:10F2E000C08A08F0A1F92F49096B08F06BFA08F001
:10F2F00057F909E02B48808A08F096F92949C96A2C
:10F3000008F060FA08F04CF924494A6812184A607B
:10F31000234A5169091801E000E149E05161F3070E
:10F3200006D0D3691B18D3617A6812187A6005E099
:10F3300093691B1893613A6812183A601B4AD38884
:10F340001818D0801748006800287DD0054A538DD2
:10F35000DB0679D4814277D3508D10210843508544
:10F36000D7E00000142A0020C02B0020202B002012
:10F37000342400202E2E5C73656E736F7233672EFB
:10F3800063000000FFDF0000002C0020FFFE0000F3
:10F39000E02B0020A02B0020F02A00205C2A002077
:10F3A000982A0020342600206C2400203C240020D1
:10F3B000E078401CC0B2E070012804D1FE4903028D
:10F3C0000A891A430A810021E1710C283CD1FB48CB
:10F3D000418D0122D20311434185F94801680C3166
:10F3E0000160F84948680C30486088310E89F1079F
:10F3F00007D0F449CA680C32CA60798A0C31798224
:10F4000006E0F0498A680C328A60398A0C31398208
:10F41000ED49496800290ED0E84A538D1B070AD4EC
:10F42000884208D3508D082108435085E748402280
:10F43000017811430170E6493C200871DE49B007AC
:10F4400011D5E148808A00E063E00C2250434A680D
:10F4500012184A6008F0E8F8DB49C96A08F0B2F906
:10F4600008F09EF82CE070070FD5D7480C22C08A10
:10F4700050434A6812184A6008F0D6F8D249096B1E
:10F4800008F0A0F908F08CF81AE0F0070CD0CE488C
:10F490000C21C08A484308F0C7F8CB49096B08F033
:10F4A00091F908F07DF80BE0C7480C21808A4843A9
:10F4B00008F0BAF8C449C96A08F084F908F070F88D
:10F4C000BF494A6812184A60BE4A51690918516119
:10F4D000F30706D0D3691B18D3617A6812187A60D3
:10F4E00005E093691B1893613A6812183A60B84AAC
:10F4F000D3881818D080B4480068002809D0AF4AD3
:10F50000538DDB0605D4814203D3508D102108436F
:10F5100050856D1EEDB2002D00D081E603B0F0BD28
:10F5200030B4AC48AC4B017C427C891AC9B29972A8
:10F53000827CC47C121BD2B2DA72047D407D201A18
:10F54000C4B21C73A5488379C579007AAB421FD138
:10F55000834210D1914204D3A14202D330BC012096
:10F5600070478A4204D3A24202D330BC02207047C3
:10F5700030BC03207047834207D9914202D330BC8C
:10F580000120704730BC0220704730BC0320704718
:10F59000AB4211D9834207D1A14202D330BC012032
:10F5A000704730BC03207047834202D930BC012031
:10F5B000704730BC03207047854207D1A24202D376
:10F5C00030BC0220704730BC03207047854202D90E
:10F5D00030BC0220704730BC032070477F48C07F9A
:10F5E0000107002901DA01207047C00601D5022079
:10F5F000704703207047884202D3401A00B2704718
:10F60000081A00B27047F0B585B07548018A491CE8
:10F610000182694C6E48228A017840786E4E002A39
:10F6200015D0521E92B22282002A10D1634A538D05
:10F630005B045B0C53850022F2703272A318C03356
:10F64000997218749875521CD2B2062AF6D3634D7B
:10F65000AA78652A01D2521CAA70EA78652A01D2DA
:10F66000521CEA702A79652A01D2521C2A716A79E1
:10F67000652A01D2521C6A714F4B5A89803292B26C
:10F680009C898034A4B2A446DB8980339BB2039367
:10F69000504CA3780493042B7ED3029101904C48E4
:10F6A0008078009061792171A0796071E379A3710C
:10F6B000D2B2E271081899184018810844480170C4
:10F6C000637A2372A77A6772BE46E07AA0726246B6
:10F6D000D2B2E2727344801818183D4A8008507004
:10F6E000627B2273A37B63739E46E37BA3739C467A
:10F6F000039BDBB2E373174662467744D218BA180D
:10F70000334B92089A70049B042B6BD0304A0298BA
:10F71000FFF771FF052801DA0298107051780198FF
:10F72000FFF769FF052801DA019850709178009879
:10F73000FFF761FF052801DA00989070217C1078AE
:10F74000814200D22074A37C51788B4200D2A174F4
:10F75000237D9278934200D22275637C834200D944
:10F760006074E37C8B4200D9E174617D914200D9E1
:10F7700062750022E97FCB077ED02B7F834249D27E
:10F7800048084000E877607F2077297F6177FFF79E
:10F7900032FF617E884200E0B8E13BDB0020064F8B
:10F7A0003918C031CB7A8B72401CC0B20528F7D310
:10F7B0003818297FC03016E0202B0020142A0020A2
:10F7C0005C2A0020982A0020342600206C24002087
:10F7D0003C240020C02B0020002C0020E02B002027
:10F7E000A02B002017E08172607F217F88420DD21C
:10F7F000A37D83420AD98B4208D2E8780C38582876
:10F8000002D8A879401CA8710020E870FFF7E6FE36
:10F81000012846D04EE00523A3700027E770AF71A2
:10F82000EF712F726F722774FF236374A774E374F0
:10F8300027756375A775E77527760F236376A3761B
:10F84000E37621776177A077E0772A706A7029776D
:10F850006877A8770823EB773378002B1CD0B37038
:10F860007370FE4B5C8D6404640C5C85F7703772BA
:10F870000023FB4FFC1800E015E0C034A172207497
:10F88000A2755B1CDBB2062BF4D36520A870E87070
:10F890002871687105B0F0BD012333707370B370C7
:10F8A000DFE7012206E02B7F834203D901200143D9
:10F8B000E97768E7E87F810736D5EA496B7F4978C1
:10F8C0008B423AD2FD210840E877E07FA077697F3C
:10F8D000E177FFF790FEA17E88422EDB0020E04F0B
:10F8E0003918C0314B7C0B74401CC0B20528F7D3CB
:10F8F00038186B7FC0300374E07FA17F88420DD23F
:10F90000E37D83420AD98B4208D228790C385828E3
:10F9100002D8E879401CE87100202871FFF75EFEEC
:10F9200002280AD1022208E0CE496B7F49788B4237
:10F9300003D902210843E877C7E7E87F410736D5B6
:10F94000C849AB7F89788B423AD2FB210840E877DF
:10F9500068782870A97F6970FFF74DFEE17E8842C4
:10F960002EDB0020BE4F3918C031CB7D8B75401C7B
:10F97000C0B20528F7D33818AB7FC03083756878DC
:10F98000297888420DD2237E83420AD98B4208D23D
:10F9900068790C38582802D8287A401C2872002030
:10F9A0006871FFF71BFE03280AD1032208E0AD4966
:10F9B000AB7F89788B4203D904210843E877C7E7F6
:10F9C000A84801782977417869778078A877012A53
:10F9D00004D0022A28D0032A30D038E0607F217F6B
:10F9E000884234D2A27D824231D98A422FD2A8786D
:10F9F0000C38582807D89A48962101820121002006
:10FA0000FFF707FC0DE0307A401CC0B230720328CB
:10FA100007D19248418D4904490C41850020F0707E
:10FA200030720020A87012E0E07FA17F88420ED2E1
:10FA3000E27D82420BD98A42D9D308E069782878DE
:10FA4000814204D2227E8A4201D98242CFD3E07819
:10FA5000401CC0B2E070322800D01BE78049088902
:10FA6000C20505D5804A10400881F0784000F0704A
:10FA70000027E770207C617C40184008A075A07CBE
:10FA8000E17C40184008E075207D617D4018400809
:10FA900020760F206076A076E0767078B0703078AF
:10FAA0007070FFF73DFD3070717881421FD1B178E1
:10FAB000814206D00220FFF732FB697A0120FFF76E
:10FAC000A8FB6F72E87FC7210840E87731780129E9
:10FAD00005D0022907D020210843E8770AE0082151
:10FAE0000843E87706E010210843E87702E00120A8
:10FAF000FFF715FBAF71EF712F722774FF20607451
:10FB0000A774E0742775607505B0F0BD5749049877
:10FB10004254A278564960465054A27855490398F9
:10FB20005054A078401CA07005B0F0BDF0B4002186
:10FB300051484B4A0A23C67ED35E24250224ED4356
:10FB40000022002E04D0012E0ED0022E16D01EE070
:10FB5000252B02DDC476012119E01A26F643B342B3
:10FB600015DB0121C17612E0AB4202DAC276012137
:10FB70000DE0252B0BDDC476012108E0AB4202DA53
:10FB8000C276012103E01B2B01DA0121C176344F3B
:10FB9000037F0C26BE5F002B04D0012B0ED0022B5E
:10FBA00016D01EE0252E02DD0477012119E01A236C
:10FBB000DB439E4215DB0121017712E0AE4202DAFF
:10FBC000027701210DE0252E0BDD0477012108E0ED
:10FBD000AE4202DA0277012103E01B2E01DA012195
:10FBE00001771F4F437F0E26BE5F002B04D0012BF1
:10FBF0000ED0022B16D01EE0252E02DD4477012107
:10FC000019E01A23DB439E4215DB0121417712E004
:10FC1000AE4202DA427701210DE0252E0BDD44775A
:10FC2000012108E0AE4202DA4277012103E01B2EF7
:10FC300001DA012141770948408DC0040AD5084BFB
:10FC4000D88A401C80B2D8820C4CA04202D1DA8201
:10FC5000332098820A481924437913E0142A00209B
:10FC6000202B00203C240020FFFE0000C42B00209D
:10FC7000C82B0020CC2B0020A02B0020B80B0000AC
:10FC8000002C0020002B05D0012900D144714379BC
:10FC90005B1E4371012908D1C2714179002904D149
:10FCA000FE498A8A521C8A824471F0BC704709025C
:10FCB000014308B200110105002903DA0F210903ED
:10FCC000084300B2C117090F081800117047F0B5BA
:10FCD000B7B02F200126019004AB32220F210096ED
:10FCE0001020FEF795FB6946087CC006C00E049004
:10FCF00006225043A8210191009006AB32220F2129
:10FD00001020FEF785FB002400256946087CE34FA0
:10FD1000002820D906A802195178005DFFF7C7FF17
:10FD20007881D1789078FFF7C2FFB8815179107946
:10FD3000FFF7BDFFF881387A000702D5FFF7F6FE1E
:10FD400001E0FFF760FCA41DE4B26D1CEDB2684653
:10FD5000007C8542DED3D248408DC00444D5D14CCE
:10FD6000E079401CC0B2E0710C283DD1CB480025A1
:10FD7000C5826846057505AF242332220F21102065
:10FD8000009701960295FEF7FFFA684605752E2347
:10FD900032220F211020009701960295FEF7F4FA07
:10FDA000402168460175252332220F21102000973B
:10FDB00001960295FEF7E8FAB94E708D80040DD5D4
:10FDC000B948006804F090FE002803D0B74AF1213A
:10FDD000FEF79FFD708DB64908407085E571AF480C
:10FDE000802201899143018137B0F0BDF0B583B025
:10FDF000AA4BB0491F894A8A7B08C88A5B00A94C74
:10FE00000293A379824263D001263604824203D949
:10FE1000101A80B2019003E0301A801880B201906D
:10FE20000D8B888A854202D9281A80B202E0301AE6
:10FE3000401980B2032B00D196208D82CA8207F030
:10FE4000A8F905460E46019807F0A3F900229A4B3F
:10FE500007F0A2F92A46334606F04AFF06F064FD91
:10FE60008E4B18600021A27A0125502A00D301216F
:10FE7000E27A502A01D3491CC9B2227B502A01D30D
:10FE8000491CC9B2874A8D4E527A521CD2B2B04236
:10FE900001DA02290CD3F80702D00020607213E0C7
:10FEA0006272032A10D12F431F81002060720BE081
:10FEB000F80707D06272032A06D102981881002041
:10FEC000607201E0002060720020A07103B0F0BDFC
:10FED000032BFBD05B1CD8B2A0710328F6D16F486E
:10FEE0000299018100216172016003B0F0BDF8B593
:10FEF000734CE078401CC0B2E0700A287ED1002527
:10FF0000E570E08800287AD0FF21693148436D49C7
:10FF100006F012FC07F088FB07F06AFA6A4A6B4B9E
:10FF200007F03AF906F000FD0127BF07684EB84216
:10FF300049DD6249674F884245DDB84201DC664FC2
:10FF400041E06649884201DC654F3CE08122D205F0
:10FF50006449904201DC0F4635E0634A904201DC7F
:10FF6000624F30E041273F0688422CDD604A6149FC
:10FF7000904201DC0F4626E05F4AB04201DC1746A2
:10FF800021E05E4B984201DC5D4F1CE05D4B9842E6
:10FF900001DC5D4F17E05D4B984201DC5C4F12E0E5
:10FFA000B84201DC5B4F0EE05B4B984201DA5B4FDD
:10FFB00009E0884201DC5A4F05E0904202DC8327C9
:10FFC000FF0500E0574F5848007807F02DFB3946F1
:10FFD00007F0F8FB07F00CFA544A554B07F0DCF831
:10FFE00006F0A2FC314607F02BFA07F001FA514A5D
:10FFF000514B06F050FE06F097FC01E020E01EE0B9
:020000040002F8
:100000004E4907F0DFFB07F0CBFA4D498A688218AA
:100010008A604C4A516A411851624B4AD368C018F1
:10002000D0604A488068002809D01D4A538D9B063D
:1000300005D4814203D3508D202108435085E580AB
:10004000F8BDF0B585B01648408D0125C0044027A5
:10005000002404AE00287BDA68460474242332228C
:100060000F211020009601950294FEF78DF9684645
:1000700004742E2332220F21102000960195029441
:10008000FEF782F968460774252332220F211020DB
:10009000009601950294FEF777F95AE0202B002094
:1000A000142A0020002C00203424002074F30100C6
:1000B000FFDF0000A02B002000004940000020408E
:1000C0003C240020A08601006E6E4C4F58E2E33FB6
:1000D0000000C04000004040333353400000604007
:1000E000333373400000A040000090409A99C9400B
:1000F0006666A64000001041000020416666D640BA
:10010000000030410000E040000038410000F040B5
:1001100000004841000058419A990941000060419F
:10012000000070410000904154260020EC51B81EA0
:1001300085EB913FFCA9F1D24D62403F00007A442B
:100140005C2A0020982A0020F02A00203426002073
:1001500023E07F2168460174302332220F211020D2
:10016000009601950294FEF70FF968460474242363
:1001700032220F211020009601950294FEF704F917
:1001800021216846017432231A460F21102000965F
:1001900001950294FEF7F8F816E0684607742423E8
:1001A00032220F211020009601950294FEF7ECF800
:1001B0004C21684601742E2332220F211020009614
:1001C00001950294FEF7E0F8EF4938220889904340
:1001D00008814C828C82ED48047100204200521844
:1001E0001483401CC0B23C28F8D305B0F0BDF0B574
:1001F00085B0E54908220889104330229043E34F37
:100200000322BA7140084000088100240C60E048D5
:10021000408D0126C00404AD002845DA6846047408
:10022000242332220F211020019600950294FEF71C
:10023000ABF8684604742E2332220F211020019659
:1002400000950294FEF7A0F840216846017425232A
:1002500032220F211020019600950294FEF794F8A7
:100260007F2168460174302332220F21102001962D
:1002700000950294FEF788F868460474242332221D
:100280000F211020019600950294FEF77DF82121A0
:100290006846017432231A460F21102001960095FA
:1002A0000294FEF771F817E0402168460174242398
:1002B00032220F211020019600950294FEF764F877
:1002C0004C21684601742E2332220F211020019602
:1002D00000950294FEF758F8AB493C2048823C71E7
:1002E0008C820020420052181483401CC0B23C286B
:1002F000F8D3A848048044808480C480A6488476CB
:100300000A89A64B1A400A810A228A5E2425ED43F7
:100310000223AA4201DAC47604E0252A01DDC3766D
:1003200000E0C6760C228A5EAA4201DA047704E075
:10033000252A01DD037700E006770E228A5EAA42B5
:1003400002DA447705B0F0BD252A02DD437705B017
:10035000F0BD467705B0F0BDF0B585B08A4F387A6C
:100360000006002840DA002469460C74012504AE1A
:10037000252332220F211020009601950294FEF7CA
:1003800003F8402069460874242332220F211020EC
:10039000009601950294FDF7F7FF4C20694608741A
:1003A0002E2332220F211020009601950294FDF792
:1003B000EBFF774D688D800410D4012678487603D2
:1003C00000223146006804F066FB002803D0754A1D
:1003D0007549FEF79EFA688D304368856B48C47195
:1003E000388980218843388105B0F0BDF8B5664C66
:1003F0006E4E207A6E4F0007644D002872DAB86B9B
:10040000401CB863F069401CF061608A00285FD02E
:10041000401E80B2608200285AD15E488188491C03
:1004200081803046818D491C818562490889401C44
:100430000881614A9078401C90703C2767823B207D
:10044000431E5E0036194000368B00190683D8B271
:100450000028F5D1A38A00262383A6822B795B1C72
:10046000DBB22B713C2B00D92F712B79494DED88D4
:100470006D1CAEB24D4DED8D6D1CADB2AC464D4D0B
:100480006D896D1CADB2AE464B4DED786D1CEFB273
:10049000032B37D3002345002D192D8B002D01D0C0
:1004A0005B1CDBB2401CC0B20328F4D3032B10D07A
:1004B000002B18D0374803885B1C03803B48038D12
:1004C0005B1C03858888401C88801079401C107153
:1004D000F8BD3048C68035486346C38570464881BC
:1004E000D770F8BD17E02B4843885B1C43802F482A
:1004F000438D5B1C4385C888401CC8805079401CD4
:100500005071F8BD2348C68028486346C3857046AD
:100510004881D770F8BDFFF769FCA87903282BD074
:10052000F068401CF060B86A401CB8622349C96892
:10053000002909D0164A538D5B0605D4884203D39F
:10054000508D402108435085207A1D49C00709D0AD
:10055000F86A401CF8623069401C3061088B401C0E
:100560000883F8BD386B401C38637069401C7061AB
:10057000C88A401CC882F8BDB86B401CB863F069DB
:10058000401CF061F8BD31E7202B0020002C00203A
:10059000142A002044240020A02B0020FFFD00008E
:1005A0003424002074F30100510500005C2A00206F
:1005B000982A0020D82A0020102B00203426002062
:1005C000F02A002010B50446FF219131204606F0A4
:1005D000B3F8002909D06421204606F0ADF80029BF
:1005E00001D0A00701D0002010BD012010BD10B522
:1005F00086B0CEA14A68096805920491CDA18C68A5
:100600004B680A68C9680294019300920391002222
:100610000388591E89B2FF241934A14204D3FF393B
:10062000193989B2A142FAD21C2903D31C3989B2E3
:100630001C29FBD2042905D3091F89B2521C92B28E
:100640000429F9D204ACA25C511889B2072901D35C
:10065000C91F89B282786C46A45C611889B20729E7
:1006600001D3C91F89B2C078401884B2072C03D3C4
:10067000E41FA4B2072CFBD2032A07D31846FFF7C6
:10068000A1FF002802D0E0B206B010BD002C04D0BB
:10069000641EA0B2C0B206B010BD0620FAE710B5C5
:1006A00004460020A071607120710120E070A070EC
:1006B000A44820802046FFF79AFFE07110BD70B576
:1006C00088B00246A048034678CB0496039502946E
:1006D000019344690369806906940593079050006B
:1006E00001AB1C5A022A06D10846FFF76BFF00280F
:1006F00001D0641CA4B2E0B208B070BD10B50446CD
:100700002188A078FFF7DBFF0146E078814202D024
:10071000401CE0700BE00121E170A078401CC0B2E9
:10072000A0700D2803D1A1702088401C2080204695
:10073000FFF75DFFE07110BD10B58179491CC9B2AA
:1007400081713C292CD1002383714179491CC9B2A4
:1007500041713C2913D17D4C012221689202114341
:10076000216043710279521CD2B20271182A06D15B
:1007700003710122520211432160FFF7BFFF744948
:10078000088800280CD0401E80B20880002807D1BD
:100790008720400108806F491022087810430870B4
:1007A000FFF7A5FB10BD6C498878401C8870C00716
:1007B00001D000BF70476949488D01221043488528
:1007C0007047F8B5654E708DC0077DD0708D4008BC
:1007D000400070856048C178491EC170C07801250D
:1007E000002802D1B08D2843B0855D48FFF7A4FFF3
:1007F000FFF7C9FE5B4808220178114301705A498E
:100800005A4C087800280AD0401EC0B20870002850
:1008100005D12088800502D5002002F0CAF854498D
:100820000878002801D0401E08702078400712D5B3
:100830005048007806280ED14F4F387800280AD04B
:10084000401EC0B23870002805D14C48C08801F065
:1008500066FA0A2038704A490878002811D0401EEC
:10086000C0B2087000280CD142480078062808D190
:100870002078400705D4002002F066F8208828433D
:100880002080708D000615D520880221C207014006
:10089000D20F114301D041060CD5C00403D501206D
:1008A00001F04CFA02E0002001F048FA20883549B6
:1008B0000840208034490878002801D0401E087084
:1008C00032490878002800E014E008D0401EC0B289
:1008D0000870002803D12E480178294301702D4962
:1008E0000878002806D0401EC0B20870002801D148
:1008F000FDF789FBF8BD1948418D0222114341855E
:10090000704710B51548418D890700290CDA418DD3
:10091000022291434185408DC00505D51E48007ACD
:10092000400601D4FFF7D3F910BD00000005030114
:10093000060402000000030306010406020500038A
:1009400005000000DF070000747802001824002072
:100950004C2400206C240020542A0020142A00205B
:100960004E24002070240020C2240020C82400202F
:100970008B2400208824002089240020A824002023
:100980008A240020BFEF0000C52400203B24002063
:100990006824002006240020202B0020FD49102080
:1009A0008860FD49002008607047FD490320FB4A2C
:1009B000086000211060101D0160F748022282606B
:1009C000C1600122026192064262F64A072050612C
:1009D000F5488160E2E7F44900208860EE4908604C
:1009E00001200860EB491020C8607047EB480021E7
:1009F000C160032212044261EC48C27852085200DE
:100A0000C2700171CAE7E9480021C1708171C171EA
:100A10004171018141818181C181E7E7DF48002186
:100A2000416103221204C260E0480123C2781A43E4
:100A3000C2700171704730B4DC4C01212079D64D71
:100A4000002814D0224651799279012815D0FE2829
:100A50001AD0D74B1B18203B9B7FEB614B40637137
:100A6000521C904218D9FE20207130BC7047A4203F
:100A7000E8616071217130BC7047EA615140617179
:100A80000220207130BC7047C24A10209060E9619A
:100A9000FF20207130BC7047401C207130BC704773
:100AA000C2480179FF2902D1002181719EE7704778
:100AB000BE490879FF2808D0401C08710979B6485A
:100AC000012906D0FF21C1617047B24A1020906011
:100AD000F4E7A521C1617047F0B4142900D31421B3
:100AE0008407A40FB14E70893789C31B9D06AD0ED4
:100AF00040235B1B4D1CAB4203D8F0BC0020C0431D
:100B000070478B069B0EA4012343AA4C2354401C20
:100B10008006800E70810020002909D97389155C38
:100B2000E5545B1C9B069B0E7381401C8842F5D3E9
:100B3000B07AC01B8106890E4020401A142803D8C1
:100B4000F0BC0020C0437047F0BC00207047F0B5F7
:100B5000994A1778994E9A4B1146103F934C30782A
:100B600049781D78082F0ED23B007B441B79DB1897
:100B70009F44030F090A132F2133042318433070B5
:100B8000217090786070F0BDA1700821084330702A
:100B9000F0BD012108433070F0BD032DFCD3521C81
:100BA00014210020FFF798FF0028F5D0E0780221FB
:100BB0000843E070F0BD032DFCD3521C142101202A
:100BC000FFF78AFF0028F5D0E07802210843E070A3
:100BD000F0BD022108433070F0BD7A48002904D0EE
:100BE000828D08210A438285F0BD818D08229143C0
:100BF0008185F0BD00B56D4B1979012912D01A46D7
:100C00005279022911D0FF2913D042405A716A4A01
:100C10005218203A5077D879801C814201D9FF20A0
:100C2000187100BDA520587100BD42405A71D8719D
:100C300000BD904201D1FFF78AFFFFF7D7FE00BD4C
:100C400070B45A4C8026E389257B5D1B6D066D0EC2
:100C5000761B851CAE4203D870BC0020C043704791
:100C6000594D461CEE545B1C5B065B0EE9545B1C45
:100C70005906490EE1810021002809D9E389565C13
:100C8000EE545B1C5B065B0EE381491C8142F5D38D
:100C900070BC00207047F0B4444CA089E689B04293
:100CA0001FD0494F395C491EC9B2A171401C400692
:100CB000400EA081142901D31420A0710020A57931
:100CC000691C00290DD93A4A6D1CA1897B5C13541B
:100CD000491C4906490EA181B14202D0401CA842DC
:100CE000F3D3F0BC7047F0B40446304B19895889EF
:100CF000814202D10020F0BC70472E4E705C491C2E
:100D00008906890E19818206920E142A02D91422AC
:100D1000D42108400021002AEDD91D89755D655454
:100D20001D7A6D1CAD06AD0E1D815F89BD42E2D0FE
:100D3000491C9142F1D3F0BC704730B585B0002416
:100D40000094019402940394049469460C70012564
:100D50004D7000A807221D49023005F0F3FB6A46DA
:100D600081211420FFF76CFF0094019402940394F6
:100D70000494FF20694608704D706A468121142052
:100D8000FFF75EFF0F48418DEA021143418505B030
:100D900030BD000000050050004500400007005035
:100DA0000807005040450040004100405824002002
:100DB000102C00203A2C0020252C00206824002034
:100DC00038240020142A00207A2C00204E240020F1
:100DD00070B47A4903208871794980200870794875
:100DE000007848707848408D784B0606012202242E
:100DF00000251888002E05DAC60701D04A7002E0E7
:100E00004C7000E04D708D70050400D58A7042046E
:100E100002D58A7822438A708004800C1880FF20D3
:100E2000C87070BC70476548012181716448852293
:100E30000270654A928DD206002A01DA417070472D
:100E400000214170704710B55C49082088715C48EA
:100E50008621017008225E49401C05F073FB10BD1D
:100E6000F8B5564909208871554E8220307059488E
:100E7000C0797070584F594C786800284ED061681E
:100E800000294BD06422504305F056FC06F0CCFB01
:100E9000534DA84200DD284606F082FBB070000AE0
:100EA000F070786900283BD02168002938D064228E
:100EB000504305F041FC06F0B7FBA84200DD284690
:100EC00006F06EFB3071000A7071786A002829D034
:100ED000A168002926D06422504305F02DFC06F0BD
:100EE000A3FBA84200DD284606F05AFBB071000AB9
:100EF000F071B86A002817D0E168002914D0642284
:100F0000504305F019FC06F08FFBA84200DD28468F
:100F100006F046FB3072000A7072F8BD0020B7E799
:100F20000020CAE70020DCE70020EEE7234A042087
:100F3000907123498320087050694870030A8B70B0
:100F4000030CCB70000E087100205061704770B523
:100F500004462078194D00280FD10422214920464B
:100F600005F01EFA002804D0E878FB210840E8705C
:100F700003E0E87804210843E870E878400704D5E6
:100F80002178032903D0FF290CD0012070BD142241
:100F90001549204605F004FA002801D0002070BD54
:100FA000012070BD14221149204605F0F9F90028EE
:100FB00001D0002070BD012070BD00005824002029
:100FC000102C002038240020142A0020C8240020DF
:100FD0004E24002054260020982A00203426002089
:100FE000000096438E78020092780200A6780200F4
:100FF00070B50C462278112A16D0142A14D0152A5E
:1010000002D0212A25D10FE0C848042102880A43D2
:101010000280C7480170C74900200870C6480122F5
:1010200001781143017014E0C44A0178917141784C
:10103000D17181781172C0785072C14DFF2902D0F0
:10104000084601F0A0F9A878FF2802D0BB49207813
:101050008880002070BD10B51046002803D0B9A2CA
:101060005D21FDF756FC10BD70B50023FC22B94987
:10107000B94804F041F9B94CB94D002802D1A06B30
:10108000A8420CD0FF22FC21B34805F0E7FAA56383
:10109000B4484022417811434170012070BD0020C6
:1010A00070BD10B50023FC22AB49AA4804F0D3F868
:1010B000002803D0A3A27921FDF72BFCA949BF2268
:1010C00048781040487010BDF8B5002000909B484B
:1010D00069460078087000259F4F00260024385D7F
:1010E000A84201D1012602E0641C052CF7D3284652
:1010F00004F04AFF002815D0002E0FD00420021B58
:101100003819411C05F082FAFF20387130206843FD
:10111000C019801DFF22302105F0A0FA6D1C052D9D
:10112000DBD3F8BD002EF9D16846857004F080FC51
:10113000002803D083A2A121FDF7EBFB30206843F8
:10114000C019801DFF22302105F088FAE6E7F8B5C6
:101150000446002100917949684609780170052C00
:101160001FD27D4E7F4F355D052D17D268468570A5
:1011700004F05EFC002803D072A2CB21FDF7C9FB6E
:1011800030204543A819801DFF22302105F066FA62
:10119000FF2030557978402001437970641C052C7C
:1011A000E1D3F8BD70B586B00124654804F075FA46
:1011B000002803D063A2E321FDF7ABFB03F0FCFEA4
:1011C000002803D05FA2E721FDF7A3FB6648426930
:1011D0006649521C02D00969406900E0486901264D
:1011E0006946CE80FC208880614800905949684655
:1011F00003F021FF002803D052A2F021FDF789FB64
:10120000FFF732FF0025002801D0059600E0059584
:1012100005A804F00DFB00281AD0059605A804F0D7
:1012200007FB002804D0FF2146A20931FDF771FB1E
:10123000FF220521484805F011FAFF22F0214D4810
:1012400005F00CFA474840224178114341700024D0
:1012500069460D824D821E20C881087C3043FD21E5
:101260000840E32108400C30DF210840694608743B
:1012700007204874102088743F4802900E7302A91A
:101280002E4804F07AFB002804D0FF212DA2213142
:10129000FDF73FFBFFF718FF002C02D00420FFF7FB
:1012A00056FF06B070BD10B50121344A084604F05F
:1012B000D9F8002804D0FF2122A23231FDF729FB02
:1012C00010BD70B51A48007804282DD12C4D2D4E34
:1012D00028781A4C06280CD13078062809D3607873
:1012E000410706D404210843607000F010FD00F0AF
:1012F00012FD3078062817D12878062814D3607894
:10130000010711D408210843607002F092FC02F03A
:1013100094FC1D4C0222A088002102F092FCA088BF
:101320000222012102F08DFC70BD0000C8240020C3
:10133000382400208A2400206824002074240020FF
:101340007A2400202E2E5C6D61696E5F626C652EC2
:101350006300000080240020FC2C0020BC2D002015
:101360001608142070240020001000100000001047
:1013700057100200022D0020F10F02004554020018
:10138000882400202025002038250020FE49072041
:101390000870704738B5022069468870FB4808809D
:1013A000F94C6A460121608990DF002802D0FFF7DE
:1013B000EDFF38BD0320207038BD38B50020F4495A
:1013C000F44ACB88F04C934207D188886946401C88
:1013D00008804880608993DF0AE0EF49CB88934218
:1013E00006D188886946401C08804880608993DF60
:1013F000002802D0FFF7CAFF38BD0520207038BD95
:1014000030B4E6498978E04C80886081052923D290
:1014100030204143E24808182146C5880D840589DB
:101420004D84831C45898D840A4680892032C88476
:1014300098891081D8895081188A9081588AD081E2
:10144000988A1082D88A5082188B9082588BD082CA
:101450000120207030BC704730BC9BE730B4CA4CD0
:101460000146608992DF002801D030BC8EE704205D
:10147000207030BC704708B5C18800290ED1818921
:1014800000290BD0C04A418A9181808AD0816A4666
:10149000118050806846FFF7E1FF08BDFFF776FF37
:1014A00008BDF8B5C1880A46FF3A0B3A01D00932A7
:1014B00011D1B748808800280AD0BA48808800280F
:1014C00006D0B5488088002802D0FFF776FFF8BD27
:1014D000FFF75CFFF8BD002902D0FFF757FFF8BD0A
:1014E000002200238189002921D9AF4DAF4EB04F92
:1014F0000A2159430A180E3200211488AC4201D146
:10150000A34906E0B44201D1A64902E0BC4200D1A1
:10151000A149002907D00C8054884C8014898C8004
:101520000024E443CC805B1C81899942E0D8964832
:10153000002A09D011896A46491C1180C08950804F
:101540006846FFF78BFFF8BD81896A461180C08924
:1015500050806846FFF782FFF8BD10B5C1880A4683
:10156000FF3A0B3A03D0093201D0002902D0FFF72D
:101570000DFF10BD8189864A874B00290FD00E30A0
:1015800041888C4CA1420AD100889488411E8C422B
:1015900001D1D08003E09C888C4200D1D880D188D2
:1015A0007C48814202D0D988814202D1FFF705FFF1
:1015B00010BD7548062101700321C1700A214170D8
:1015C00081707D494878C209F2D180221043487069
:1015D000724804F001FA002800D000BF0028E7D0CC
:1015E000FF2176A25131FDF794F910BD00B589B005
:1015F00065480078062802D0082009B000BD002107
:101600006B461971734842785A7182789A71C27820
:10161000DA710079187259726248808858820620FF
:10162000D88299820120187401A8069004A801F0BC
:10163000EDFE09B000BD00B589B05349097806290F
:1016400002D0082009B000BD00216A461171837ADA
:101650005371C37A9371037BD371407B1072012065
:10166000507220239372D1724E4A93886A465382F5
:101670000823D3829182107401A8069004A801F077
:10168000C5FE09B000BDF0B585B0054652A0416861
:10169000006802910190A88800900024009800281A
:1016A00070DD4C4E30462830049020380390364F81
:1016B000786909283FD203007B441B79DB189F44DB
:1016C000040A10161C22282E3B002819807930703D
:1016D00001207861E1E0281980797070022078613A
:1016E000DBE028198079B07003207861D5E02819F3
:1016F0008079F07004207861CFE02819807930710A
:1017000005207861C9E02819807970710620786118
:10171000C3E028198079F08007207861BDE029199D
:101720008979F08809020843F080082078610398DD
:10173000B86100203882B0E0B8690499884221D2AB
:10174000039988421ED3291989790170401CB86118
:10175000398A491C89B23982F2888A427ED10021B5
:101760000170401CB8610520786178793A8A41019E
:101770001B480818039904F0E5FE7879401CC0B2B4
:1017800078712FE08EE000008824002031F4000002
:10179000A8240020FFFF0000B82400207A240020A5
:1017A000FC2C0020B02400200D120000F3D8000013
:1017B000E9C6000002290000702400202E2E5C7370
:1017C0006572766963655C626C655F616E63732EDA
:1017D00063000000382E0020E5BEAEE4BFA100008B
:1017E000F82D0020012853D10822F949F9A004F06E
:1017F0004DFE002858D00622F549F9A004F046FE17
:1018000000285ED00622F24901A804F0C9FD002894
:1018100057D00822EE49F4A004F038FE00285DD02D
:101820000922EB49F3A004F031FE002863D007221F
:10183000E749F3A004F02AFE002869D00522E44914
:10184000F1A004F023FE002865D00A22E049F0A0B0
:1018500004F01CFE002861D0052200E01DE0DC49F8
:10186000EEA004F013FE002865D00222D849EDA0B6
:1018700004F00CFE00286BD01322D549EAA004F036
:1018800005FE002872D0FFF7B1FE00207861787164
:101890007879012801D900207871641C009884426D
:1018A00000DA04E705B0F0BD05203871E348802276
:1018B000417811434170E24802224178114341705E
:1018C000E3E706203871DD488022417811434170FA
:1018D000DB480222417811434170D6E70720387176
:1018E000D6484022417811434170D54802224178C0
:1018F00011434170C9E70B203871D048402241782C
:1019000011434170CE480222417811434170BCE737
:1019100008203871B9E709203871B6E70D20387111
:10192000C6482022417811434170C54802224178BF
:1019300011434170A9E70E203871C0482022417838
:1019400011434170BE4802224178114341709CE727
:101950000F203871B9488022417811434170B8484E
:1019600002224178114341708FE7FFE70A20387166
:10197000B2480822017811430170B148022241782F
:101980001143417081E7F8B500210C30AD4B02885E
:101990009B889A4259D18388022B56D38279002A98
:1019A00052D1A94CA271C279E271077A2772467AA4
:1019B00066720023E361520746D4A04A9F4B127817
:1019C0005D78072F39D23B007B441B79DB189F449D
:1019D00020030C341C152400984B01252A431A704F
:1019E0009A4B03221A70257120E0944B02252A435A
:1019F0001A70964B04221A70257117E08F4A102333
:101A00001D4355700322227110E00121904A167087
:101A100013E00C212171012108E004222271874A80
:101A200020231D435570894A09231370884A167074
:101A3000834A022553782B435370012904D1FFF7C1
:101A4000FAFD002060616071F8BD824989888A4290
:101A5000FAD181880229F7D3FFF715FEF8BD38B512
:101A600002210091784900240C70002825D0694695
:101A7000794863DF002803D0784A7949FCF749FFA9
:101A80006D46691C774863DF002803D0734A7649A6
:101A9000FCF73FFFA91C754863DF002804D0A7218D
:101AA0006E4A8900FCF735FFE91C714863DF0028A6
:101AB00003D06A4A6F49FCF72CFF6348048401464F
:101AC0004484203184840C814C818C810C824C8232
:101AD0008C826A496848C8800839C8801031C8803B
:101AE0006749FB2208781040087038BDC188624AF7
:101AF000914208D000886349884202D062498842F6
:101B000001D1012070470020704710B501885F4A5D
:101B1000937811290CD04C4C2278072A3CD2130020
:101B20007B441B79DB189F44383D37BBC0C5CA00D6
:101B3000052B2ED24348FFF7D9FF002829D045486E
:101B4000FFF7D4FF002824D03020434350483E49BB
:101B500018180C8CC4804C8C04810A468C8C4481EF
:101B6000831CC98C20328181108998815089D88149
:101B700090891882D0895882108A9882508AD88297
:101B8000908A1883D08A5883424840224178114372
:101B900041700020FFF763FF10BD1029FCD1FFF753
:101BA0002FFC10BD172901D01429FAD12548FFF7C1
:101BB0009DFF002871D02748FFF798FF00286CD0C0
:101BC000062020700320E0700A206070A07010BD15
:101BD000F82D002057686174734170700000000098
:101BE000576543686174000046616365626F6F6B9F
:101BF000000000004D657373656E6765720000003C
:101C00005477697474657200536B797065000000D5
:101C10005961686F6F204D61696C0000476D6169A3
:101C20006C00000051510000636F6D2E6170706C8C
:101C3000652E4D6F62696C65534D53006C24002016
:101C400068240020A82400208824002039240020B3
:101C50003A240020B8240020BA780200BC17020001
:101C600096020000CA78020099020000DA780200A9
:101C7000EA7802009F020000FFFF0000B02400206D
:101C8000752400200D120000E9C600007A2400200F
:101C9000FC2C002070240020FFE7FFF77BFB10BD29
:101CA0003029FCD1FFF7E7FB10BD3229FCD1FFF74B
:101CB000F8FB10BD3329FCD1FFF74FFC10BD3829CC
:101CC000FCD1E1780029F9D1FFF75DFE10BD00B528
:101CD00087B0164A1278062A02D0082007B000BD45
:101CE00001230022002902D069460B7101E06946F8
:101CF0000A7169464A7148810220C8818A810B7243
:101D000001A8049002A801F081FB07B000BD0848BB
:101D10000121C088DBE707480121C088D7E70146D9
:101D200005480022008895DF7047000088240020C5
:101D3000A8240020B82400207624002030B585B0E7
:101D4000002400940194029403940494FE49012514
:101D50000D7069460C700C72002802D02820088291
:101D600002E0FA48694608821E20694648826846B1
:101D700073DF002804D04B21F5A20901FCF7C9FD4F
:101D8000F94A108928431081F848017829430170E5
:101D9000147005B030BD10B5FF21EDA2EB31FCF79A
:101DA000B8FD10BD10B50068002803D0012800D18F
:101DB00000BF10BDEE483B21008876DF002804D02C
:101DC000FF21E3A2D631FCF7A4FDE748E94A0189E7
:101DD0001140412211430181E74A00211170E74A75
:101DE0001170E24A0124137823431370017081704B
:101DF00010BD00B589B000200090019020216A46F6
:101E000011804021518090804B21C900D1800590E4
:101E1000069069460291DA490391049103211175F4
:101E2000D8494989D1821076D7480790D748089079
:101E300002A802F0E6F9002804D0FF21C4A2C331B1
:101E4000FCF767FD09B000BD00B5A1B00620029007
:101E5000CF4801680191406800903C2112A804F02D
:101E600024FC3C2103A804F020FC02201290002056
:101E700010A948730120088202A9159110A988852C
:101E800001A91C916946088568460B9003A912A810
:101E900002F043F9002803D0ADA28D21FCF739FDF3
:101EA00021B000BD10B48FB0002108910A910B91B0
:101EB0000C910D910E9108AB1A7804231A4308ABCC
:101EC0001A70B4A2099209226B461A855A85062215
:101ED0009A72B34A1A8101919A79F9231A40921C95
:101EE0006B461B7900231C07240F6B461C715B7922
:101EF00001231C07240F10346B465C7152085200FA
:101F00009A7105910691079102AA039201AA04927F
:101F100014229A82D9821A83848803461E3303AA24
:101F200008A92046A2DF0FB010BC704730B490B0B3
:101F30000022089208AD2B7801231B071B0F1033DA
:101F40002B706B7801231B071B0F10336B70AB7862
:101F5000F92423409B1CAB7009920B920C920D92BA
:101F60000F922B7904252B4310252B4308AD2B71A1
:101F70008CA30A930D236D46AB85EB8508AB0E93BE
:101F80000623AB728B4B2B810192AB7923409B1CB8
:101F90002C7900242407240F2C716C790124240748
:101FA000240F10346C715B085B00AB7105920692D4
:101FB00002AA039201AA04921422AA822A8312314D
:101FC000079184880346163303AA09A92046A2DF95
:101FD00010B030BC704710B48FB0002108910A9146
:101FE0000B910C910D910E9108AB1A7804231A43B2
:101FF00008AB1A7070A2099207226B461A855A859F
:1020000006229A726E4A1A8101919A79F9231A402E
:10201000921C6B461B7900231C07240F6B461C7116
:102020005B7901231C07240F20346B465C71520836
:1020300052009A7105910691079102AA039201AA92
:10204000049214229A82D9821A83848803460E331A
:1020500003AA08A92046A2DF0FB010BC704770B4D5
:102060008FB0002207926E46337F01231B071B0FA0
:1020700010333377737F01231B071B0F20337377D4
:10208000B37FF9252B409B1CB37708920A920B92E1
:102090000C920E9208AE337810242343337049A378
:1020A000099307236E463385738507AB0D9306238B
:1020B000B371464BB3800092B4782C40A41C3378A3
:1020C00000231B071B0F3370737800231B071B0FA4
:1020D000737063085B00B3700492059201AA0292C8
:1020E0006A46039214223282B282123106918488A7
:1020F000831D02AA08A92046A2DF0FB070BC70475A
:1021000030B585B004460D46286820600020C043E5
:10211000E0842946204614221231283004F012FAB5
:102120000620694688742A480882194B08330FCB69
:10213000039302920191009004A90231684663DF83
:10214000002864D1221D45E038240020320300001D
:102150002E2E5C736572766963655C626C655F697F
:102160006D617A652E630000C02400206824002081
:1021700076240020711A0000892400208A2400207F
:1021800000710200602E0020A51D0200971D0200B4
:10219000FC7802004E657720416C65727400000087
:1021A000243000004E65766F204669726D7761724B
:1021B00065000000233000004E65766F20527800E5
:1021C000223000004E65766F2054780021300000E8
:1021D0002030000004A90120A0DF002817D12946E3
:1021E0002046FFF73CFF002811D129462046FFF783
:1021F000F2FE00280BD129462046FFF797FE002863
:1022000005D129462046FFF74DFE0028FFD105B035
:1022100030BD00B58BB0002000900190029003907B
:1022200004900590069007900890099001200007FF
:10223000000F10306946087201200007000F1030AF
:10224000487201200007000F1030087300200007BB
:10225000000FC87201200007000F103048730120E2
:102260000007000F1030887301200007000F1030A6
:10227000487400200007000F0874F848FFF740FF7B
:10228000002803D0F64AC121FCF743FB0BB000BD88
:1022900000B591B04021684604F007FAF1A1684604
:1022A00001F06EFFF1A104A801F06AFFF1A108A8F6
:1022B00001F066FFF0A10AA801F062FF012000070B
:1022C000000F103008A9087700200007000F48779A
:1022D000684601F072F9002803D0E14AA521FCF715
:1022E00018FB11B000BD00B585B001200007000F3C
:1022F00020300190E14804F0A7F882B2DF4901A83C
:102300007CDF002803D0D64A5621FCF702FBC1200F
:1023100078DF002803D0D24A5A21FCF7FAFA0020CD
:102320000290039020216A461181402151819081C1
:102330004B20C000D08102A87ADF002803D0C84A11
:102340006521FCF7E6FA05B000BD10B50020FEF7E8
:1023500029FF00F0D9FF0120FFF781FB01F068FBA6
:10236000FFF7C1FFFFF794FFFFF753FFFFF76CFD87
:10237000FFF73FFDC248418D802211434185012076
:10238000FFF7DCFC10BD70B50446BE4D2878A042B6
:102390001AD00020295CA14208D1042809D20421C6
:1023A0000A1A2818411C04F031F902E0401C0528E3
:1023B000F0D30422B349681C04F028F92C70B24809
:1023C000402241781143417070BDF0B58BB0014699
:1023D0000024AE4EAE4A377813890888012217438D
:1023E00015287DD00ADCA84D01282A7879D010283C
:1023F0000DD011282AD0122872D1A5E0172871D04B
:10240000192870D035286FD0372869D1A9E0A148A4
:1024100089880180A0480178032901D20321017035
:10242000580840009D4908439949088137709848E9
:10243000002141711E21817068784006400E68704D
:10244000FB200240DF2002402A70A6E0904F8879EE
:10245000B871082801D10420787191488078FF284C
:1024600001D0FFF790FF87480079FF2802D00420B1
:10247000FEF76DFE8A4803F010F904462046002856
:1024800003D0774A8749FCF744FA00F03DFF00216A
:102490008048C94301803989834A38461140412226
:1024A00011430181814900270F7081490F703178F4
:1024B0000122114331702978FB221140DF221140A3
:1024C00007708770FD200140297068784006400E33
:1024D00068700820019001A902A87DDF694604E028
:1024E0005BE033E036E042E03EE088880126714D53
:1024F0003603082816D90F7402A9604803F07EFF3E
:1025000001200007000F20300A905C4803F09CFF78
:1025100082B25A490AA87CDF286830432860FFF756
:1025200093FC3AE002A90F54544902A804F0C0F801
:10253000002832D002A9514803F060FF28683043D8
:102540002860FFF781FC28E000BF26E0FD20024064
:102550002A7022E0887900281FD15749032008708B
:102560001BE000F0F9FE18E000F0F6FE15E08879B7
:10257000002802D001280FD00FE04B484449034007
:10258000412003430B81494A00201070484A1070D3
:1025900037700870887000E000BF2046002803D024
:1025A0002F4A4649FCF7B5F90BB0F0BD70B5384C71
:1025B0001E20A070088B142817D108461A30054633
:1025C000FEF7C5FC002810D02A4684211420FEF70F
:1025D00037FB002809D02089012189030843208185
:1025E0002A48012201781143017070BDF0B40846F9
:1025F0001A30098B142926D14178602923D101781A
:10260000002920D1C17800291DD0204D81782D4C82
:10261000687802272A4E62783843012915D023466C
:102620001B78032950D0042956D005295BD00729EF
:1026300061D00A2967D00B2905D12E213170802164
:102640000A4362706870F0BC704728213170202105
:102650000A4362706870F0BC70470000602E002072
:1026600050210200446179746F6E000032333435BA
:10267000360000003333000030300000082800200E
:10268000142A0020FC2C0020702400206824002044
:10269000C0240020762400203824002002120000EC
:1026A0007A2400208F020000711A00008924002083
:1026B0008A240020182400208B240020F902000026
:1026C0008C2400206C2400202921317001210B432F
:1026D00023706870F0BC70472A2131703B4323702F
:1026E0006870F0BC70472B21317008210B432370B8
:1026F0006870F0BC70472C21317010210A43627061
:102700006870F0BC70472D21317040210A4362701F
:102710006870F0BC704770B50446F74D20262A89D2
:102720001046D1063043002901DA28813EE02178A5
:10273000002903D093060BD5002070BD002028711E
:10274000B2432A8114222146EC4803F0FBFE1DE02F
:10275000FF2908D0EA78FE2A09D0521C91420BD0FA
:102760002881012070BD102002432A8104E0012944
:1027700002D02881012070BD287912214843DF4909
:1027800012224018801CA11C03F0DCFE2078E870A7
:102790002879401CC0B22871042807D12078FF286E
:1027A00004D0288930432881012070BD002070BDED
:1027B000F8B508461A300090CF4C1E22A270098B43
:1027C000142919D14178F22914D0F32912D0F4290F
:1027D00010D00A46203A212A0FD301290DD0012614
:1027E000891EB703C64D1E2913D2FFF794FF012897
:1027F00006D00BE0FFF78FFFF8BDFFF78CFFF8BDA9
:10280000208938432081287830432870207A800638
:10281000F5D481211420009AFEF712FA0028EED098
:10282000208938432081287830432870F8BD088BF0
:1028300002280AD1B04A8B7E1089012B02D1C97EB1
:10284000002903D0AF490840108170470121490396
:1028500008431081AC48FD22017811400170704797
:1028600010B4088B02280AD1A34A8C7E0823108951
:10287000012C02D1C97E002903D09843108110BCDD
:10288000704718431081A048FD2201781140017063
:1028900010BC704710B5984A891D11610A88438998
:1028A0009A4202D1FFF7DCFF10BD438B9A4202D15E
:1028B000FFF7BDFF10BDC3899A4202D1FFF778FF31
:1028C00010BDC38B9A4202D1FFF790FE10BDC38AA0
:1028D0009A42FBD1FFF76AFE10BD0021C943C184B3
:1028E00070478988C18470470A88102A04D0112A49
:1028F00003D0502A02D1CDE7F3E7EEE7704710B5D9
:102900000446204603F03AF921468048FFF7ECFFE1
:10291000204601F01FFD2046FFF7F7F8204601F0A2
:10292000B4F82046FFF751FD10BD10B578481321CB
:10293000008876DF04462046002803D0754A764991
:10294000FBF7E7FFE0B210BD70B506466A4C21897F
:10295000C80701D074DF03E0880701D5FFF7E5FF62
:102960000025002E06D06D4805706D48418D8022EF
:102970009143418500F0C8FC00206549C0430880B0
:1029800020896849084020815D480122017811436F
:1029900001705D48FB2201781140DF221140257053
:1029A000A570FD221140017041784906490E417021
:1029B00070BD00B585B056495B4A0988914222D066
:1029C0000022029203926B4619814B4B0028198911
:1029D00008D06846428101204002014319811E202F
:1029E000987005E00C206A465081504801401981DA
:1029F00001A8039002A9202068DF002803D0454ADF
:102A00004B49FBF786FF05B000BDF0B58BB03A4DE2
:102A100028894105002912DB3B49097889070ED432
:102A200044490A7844490B78D21A920607D0AA780A
:102A3000002A06D0800504D40120FFF7BAFF0BB0AE
:102A4000F0BD012694E000210091019169468E704D
:102A500004A9029105A90391810911D069460C7D51
:102A6000298989046CD51E21A970284A6B46D18A10
:102A700019808006800E0490D08C6946A6DF60E045
:102A80006846047D287A000709D51E20A8701F49D2
:102A90006A46C8881080C88C6946A6DF00E000201E
:102AA00000280BD0254988421AD1234807801648B0
:102AB00002220178114301700BB0F0BDFF2C57D1F9
:102AC00028890122C10BC9039203024011434FD050
