:020000040001F9
:10D00000903C0020B5D10100CFD10100D1D1010069
:10D010000000000000000000000000000000000010
:10D02000000000000000000000000000D3D101005B
:10D030000000000000000000D5D10100D7D10100A0
:10D04000D9D10100D9D10100D9D10100D9D1010034
:10D050008BE30100000000001FE30100EBE401008E
:10D06000D9D10100D9D10100D9D10100D9D1010014
:10D07000D9D10100D9D10100D9D10100D9D1010004
:10D08000D9D101003F4A0200D9D10100D9D1010014
:10D09000594A02009955020031630200D9D10100BA
:10D0A000D9D10100D9D1010000000000000000002A
:10D0B0000000000000000000000000000000000070
:10D0C00000F002F800F03AF80CA030C80838241834
:10D0D0002D18A246671EAB4654465D46AC4201D1B0
:10D0E00000F02CF87E460F3E0FCCB64601263342A8
:10D0F00000D0FB1AA246AB463343184738AB0000BA
:10D1000058AB00000023002400250026103A01D36C
:10D1100078C1FBD8520700D330C100D50B607047EF
:10D1200010B5782902D109F06DF910BD002010BDAD
:10D130001FB5C046C0461FBD10B510BD0AF0E7FBC5
:10D140001146FFF7F5FF01F09EFC0AF0FFFB03B468
:10D15000FFF7F2FF03BC0AF003FC0000401E00BF13
:10D1600000BF00BF00BF00BF00BF00BF00BF00BFC7
:10D1700000BF00BF00BFF1D17047000070B5054689
:10D180000C46164602E00FCC0FC5103E102EFAD208
:10D19000082E02D303CC03C5083E042E07D301CCCE
:10D1A00001C5361F03E021782970641C6D1C761EB2
:10D1B000F9D270BD03210C4802680A4302600B4893
:10D1C00002680A4302600A4880470A480047FEE7AF
:10D1D000FEE7FEE7FEE7FEE7FEE700000648074938
:10D1E000054A074B704700002405004054050040E5
:10D1F000B9D20100C1D0010090320020903C002043
:10D20000903200203D49088CC0B2012814D1888C8E
:10D21000000711D1088D0006000F0A2803D18A8D5E
:10D220001206120F02D00D2802D005E0012070472F
:10D23000888D0006000F01D0002070470120704744
:10D240002E48018CC9B201290BD1818C090708D164
:10D25000018D0906090F042903D1808D0006000FF6
:10D2600001D000207047012070472449088CC0B2CB
:10D2700001281DD1888C00071AD1088D0006020FE5
:10D2800003D18A8D1206120F03D0000F012802D09D
:10D2900005E0012070478A8D1206120F02D0032884
:10D2A00002D005E001207047888D0006000F01D0F4
:10D2B000002070470120704710B5FFF7D6FF002807
:10D2C00005D010490E484860C8130F498861FFF720
:10D2D000B7FF002802D00D4901208860FFF792FFB8
:10D2E00000280AD00A480168012904D009490160D0
:10D2F00001680129FCD1C021416110BDC00F00F0BF
:10D30000DFFF07C000050040006C00400006004041
:10D3100000EC06407593000002465D49087D002838
:10D3200008D000200B181B79934204D0401CC0B2D7
:10D330000828F7D3FF20704718B4044669462046F2
:10D34000E7DF694608788007800F009002280BD33A
:10D350002046C5DF69462046E7DF6846007881073A
:10D36000890F00910229F3D218BC704770B50020D4
:10D37000FFF7D2FF0546FF2D11D0454C208840080D
:10D380004000208000206074A074E0742846FFF7FD
:10D39000D3FFFF2061190871207D401C207570BDEE
:10D3A00082B002783B49515C082905D110216A46B8
:10D3B000117000780821C7DF02B070470178354846
:10D3C000085C002800D1D1E7704770B483B00446F0
:10D3D0002178E0784E2803D04F2801D0502848D13A
:10D3E0002B4D68180079002843D1687C002600285E
:10D3F00018D0C8B26B4601AA02A9D4DF68460089DA
:10D4000000280FD024494A8C824206D06880488484
:10D41000224820220178114301706E74288801216E
:10D4200008432880287B617A884211D1687BA17AE1
:10D4300088420DD1A87BE17A884209D1287C002856
:10D440000ED0401EC0B22874002809D1EE7307E048
:10D45000207BE873F02801D9F020E87310202874AD
:10D46000607A2873A07A6873E07AA8730A20A87497
:10D47000EE7403B070BC70474178012904D00329D1
:10D4800003D0802902D1A0E798E789E77047000020
:10D49000AC250020B0250020C42500200C2400204D
:10D4A0000021FE4801600121FD4A890591600021AB
:10D4B000C9438160C16001617047F84A0023D361AC
:10D4C000F8488168012903D000BF81680129FBD198
:10D4D00083609069C0B27047F04AD061F1488168BA
:10D4E000012903D000BF81680129FBD1002181609F
:10D4F00090697047E948192181601821C16017219E
:10D500000161012109074162E74A062151610121B8
:10D51000E34B8A05DA600160704700B5FFF7EAFF68
:10D520000520FFF7D9FFFFF7C8FF0346FFF7B8FF55
:10D53000184600BD00B5FFF7F0FFC007C00F00BDE3
:10D5400070B504460E461546FFF7F4FF002804D0D8
:10D5500000BFFFF7EFFF0028FAD1FFF7CBFF032052
:10D56000FFF7BAFF2002000EFFF7B6FF2004000EFF
:10D57000FFF7B2FFE0B2FFF7AFFF0024002D05D99F
:10D58000FFF79BFF3055641CAC42F9D3FFF788FFCF
:10D5900070BD08B504226946C448FFF7D1FF009862
:10D5A00008BD70B50024FF25F535FFF7C3FF00283F
:10D5B00005D0012000F062FC641CAC42F5D370BDC4
:10D5C00010B5BB490C2008600121B5488905816070
:10D5D000C900816049108160C910C160B548418DA2
:10D5E000042211434185B44903200870052000F04E
:10D5F00045FC10BD08B5AF48408D4007002803DA50
:10D60000AD490320087001E0FFF7DAFFFFF7C9FF1B
:10D6100004226946A948FFF793FF01206946087074
:10D62000009808BD0922A649A64889E710B584B02C
:10D6300002A86C4671DF6846807A01026846407A2B
:10D6400041180A05120DA0A1204608F09FFE2046B1
:10D6500004B010BD9E4B0121187808439649002262
:10D660004A708A7020210843187070479948002139
:10D67000016041608160C160016141618161C1619E
:10D68000016241628162C162704710B558219248BF
:10D6900009F005F99148904902880A8082788A70D9
:10D6A000C078C8708348418D78229143418510BD70
:10D6B0008149C870864B02221878104300224A70B4
:10D6C0008A78521E8A702021084318707047F0B57E
:10D6D00083B07848408D784E4007002802DA032056
:10D6E000307001E0FFF76CFF0020B070FF20307158
:10D6F00000247B4D20034019042202A9FFF720FFDC
:10D700000298401C03D0B078401CB07003E0307920
:10D71000FF2800D13471641C072CEAD33079FF282C
:10D7200005D0B178891CB170FFF7C2FF1FE0002758
:10D73000FF430024FF252D02694821030818042215
:10D7400002A9FFF7FDFE02980204010A29401143D5
:10D75000000E0843B84201D207463471641C072CFE
:10D76000EAD3B078401CB0703079FFF7A1FF307970
:10D77000002816D0401E010359480422081802A9A7
:10D78000FFF7DEFE0298411C1DD06A461080010C96
:10D790009170000ED070684602F0DFFE012802D0C2
:10D7A00011E00620E7E7684602F084FE69464B4830
:10D7B000098801806946897881706946C978C17095
:10D7C0006946C979C171FFF760FFFFF74FFF03B0EA
:10D7D000F0BD0121324849058160354A03211160BD
:10D7E00001218905C160C900C1608910C16049007B
:10D7F000C1603048418D04229143418570473949C9
:10D8000003200860091D086037490860091F086087
:10D81000DFE710B5FFF7F3FFFFF7D2FEFFF7B9FE22
:10D820003249884209D1FFF7FDFE342230493148A0
:10D83000FFF786FEFFF74BFF10BD2D492E4888608D
:10D840002E48C8602E4A0A612E4A4A6188614920E2
:10D8500088837A20C8836920088400224A842A4861
:10D8600023238371AF23C3714D2303724272BA2302
:10D8700083723C23C372822303734B234373FF23BE
:10D880008373C273082303741E2343748274FE20BF
:10D89000888480050860486038E00000003500405A
:10D8A000000500500031004040350040FCF03F00D2
:10D8B0005C070050042900200424002000303F00B1
:10D8C000F8260020C0F03F0025303358000000004B
:10D8D0000C240020E0290020882900203824002082
:10D8E00000603F00540700506407005007041620F2
:10D8F000C425002000F03F0040420F00581B0000EC
:10D9000080841E00302A0000E4250020FFF7A2FEDC
:10D91000F648F7A10A8882864A88C28689880187E4
:10D92000FFF784FE0146F44808F0FAFE10BD00B58A
:10D93000FFF7E0FD0620FFF7CFFDFFF7B1FDFFF792
:10D94000ECFD8007F4D500BD10B50403FFF729FEF8
:10D95000FFF7EDFFFFF7CEFD2020FFF7BDFD200212
:10D96000000EFFF7B9FD2004000EFFF7B5FDE0B291
:10D97000FFF7B2FDFFF794FD10BD70B506460D46EA
:10D980001446FFF70EFEFFF7D2FFFFF7B3FD0220AC
:10D99000FFF7A2FD3002000EFFF79EFD3004000EDF
:10D9A000FFF79AFDF0B2FFF797FD0023002C05D991
:10D9B000E85CFFF791FD5B1CA342F9D3FFF770FD14
:10D9C00070BD10B584B0CD48408D4007002803DA03
:10D9D000CB490320087001E0FFF7F2FDFFF7E1FDFE
:10D9E0000020FFF7B1FF082202A90020FFF7A8FDE1
:10D9F000002002AC215CFF2902D0002004B010BD41
:10DA0000401CC0B20828F5D300202054401CC0B2EE
:10DA10000828FAD3082202A90020FFF7AEFF082247
:10DA200069460020FFF78CFD00206946225C0B5CF4
:10DA30009A4202D0002004B010BD401CC0B2082899
:10DA4000F4D3012004B010BD00B5AD4A9078411C5C
:10DA5000C9B2072802D21071917000BD1079062852
:10DA600006D0401C107191701079FFF721FE00BDA7
:10DA700000201071F7E710B4A2490A8802808A7862
:10DA80008270CA78C270A04AD3684360936883608A
:10DA90001369C360526902614A6842618A6882619F
:10DAA000CA68C2610A6902624A6942628A6982621C
:10DAB0000A6A0263CA69C2624A6A4263CA6A8263C4
:10DAC0000A6BC2634A6B02648A6B4264CA6B8264EB
:10DAD000096CC1648D4A0146138940310B82538918
:10DAE0004B8293888B82D388CB82137B0B76527BBD
:10DAF0004A7600228A76814A538D1B07002B01DA71
:10DB000001238B76538DDB0603D58B7E02242343C2
:10DB10008B76538D9B0603D58B7E042423438B7613
:10DB2000528D520603D58A7E20231A438A76784A7C
:10DB30009379CB76D3790B77137A4B77537A8B77AC
:10DB4000937ACB77D17A60300170117B4170517B31
:10DB50008170917BC17010BC704730B46D490A462A
:10DB60003CCA3CC00A4610323CCA103810303CC097
:10DB70004A6A2038096A4262016230BC7047F0B5D7
:10DB8000A5B05F4C5D4EA068002807D0708D40079F
:10DB900002D50320207001E0FFF712FD5E4D5F4FBC
:10DBA0002878C10715D0FFF7C5FC00280FD1607891
:10DBB000C019FFF7C9FE6078401CC0B2607007282A
:10DBC00005D128784008400010210843287025B06E
:10DBD000F0BD810713D5FFF7ADFC0028F7D1E07841
:10DBE000C019FFF7B1FE6078401CC0B26070012818
:10DBF000EDD12878FD210840287025B0F0BD01073F
:10DC000034D5FFF797FC0028F7D145480679002E58
:10DC100000D11826761E2079424900038019471842
:10DC2000012201A93846FFF78BFC68460079FF28DE
:10DC300014D100200190012201A93846FFF79DFE72
:10DC4000B00121790903091837480C1802A8FFF719
:10DC500084FF282202A92046FFF78FFE2878F721AB
:10DC600008402870FFF702FD25B0F0BD4107FB27F3
:10DC7000002919DAFFF75EFC0028F5D164210CA811
:10DC800008F00DFE0CA8FFF7F6FE207927490003E7
:10DC9000401864220CA9FFF770FE28783840102144
:10DCA0000843287025B0F0BDC1060BD5FFF7CCFEA8
:10DCB000FFF7EBFCFFF7DAFC2878EF21084028702B
:10DCC00025B0F0BD6978CA0732D0FFF733FC0028D1
:10DCD000F6D1FD208000FFF737FE6878400840004D
:10DCE00002210843687025B0F0BD0000C426002062
:10DCF0004E65766F20000000F826002004290020E1
:10DD00000424002088290020C4250020C8290020E0
:10DD1000E4250020E02900200C240020F603000068
:10DD200038240020E0603F0000613F0000603F00B9
:10DD30008A0714D5FFF7FEFB0028D4D1FC223F4907
:10DD40003F48FFF71BFAFD20FC223D498003FFF707
:10DD500014FE6878FD210840687025B0F0BD4A07C0
:10DD60000DD5FFF7E7FB0028F7D13648FFF7ECFDAC
:10DD70006878384008210843687025B0F0BD09076D
:10DD80000ED5FFF7D7FB0028F7D104222E492F48E4
:10DD9000FFF7F3FD6878F7210840687025B0F0BD03
:10DDA000810610D5FFF7C6FB0028F7D12878DF21C0
:10DDB000084028702648FFF7C7FD2878402108430F
:10DDC000287025B0F0BD41061DD5FFF7B3FB002834
:10DDD000F7D12878BF21084028701E4934228818BE
:10DDE000FFF7CCF91C481D4908F002FC1C481D49EE
:10DDF00001601D481D4901604A1511491C48FFF783
:10DE0000BCFD25B0F0BDC009FBD0FFF7DAFD01284D
:10DE10000ED0708D17490840708528784006400E56
:10DE200028701548202201781143017025B0F0BDFB
:10DE3000708D0121890208437085EEE7EC2B0020EC
:10DE4000F8250020F30300001024002000303F00DC
:10DE5000FF030000C4250020B8260020F82600207B
:10DE6000F026002078563412F426002007041620ED
:10DE700000F03F00FFFB0000582400201921C901D9
:10DE80004843002802D0401E0028FCD17047F8B556
:10DE9000F7490C2008600422081D0260F54904209F
:10DEA0000860091D0860F44804210160F34904205A
:10DEB0000860091D0860F2490860091D0860091D15
:10DEC0000860F04804210160EF4904200860EF4930
:10DED0000860091D0860EE4804210160ED48032533
:10DEE0000560ED4C8020E0602069C005C30FEB4E5B
:10DEF000EB490020002B07D0738DEA4F3B40738520
:10DF00000D604021E16007E0738D01273F033B4333
:10DF1000738508607B010B60D54BE3491D600123CD
:10DF20001E02E6600D60A3600B1D18601B1D1D60C6
:10DF3000A2601A1D1060DD4B10221D60A2601A1D28
:10DF40001060DB4A10604861C86002F02CFCD948C0
:10DF50000560001F05603002A0604010A06000F066
:10DF600027FEF8BD10B4D04B03228400E4182260D1
:10DF70008C00E3181A6001231A468240C64882606A
:10DF80008B408360C260C36010BC704710B4C64C45
:10DF9000032283001B191A6001231A468240BE48DF
:10DFA000C2608B408360826010BC704710B4BE4C6E
:10DFB000032283001B191A60012213468340B648CE
:10DFC00083608A408260C26010BC704710B4B64C57
:10DFD000032283001B191A60012213468340AE48B6
:10DFE000C3608A408260C26010BC704770B404464F
:10DFF000AD4B0C20A200D218106000200022012599
:10E000002B46A54E8B404006000EB3603169E140BF
:10E01000C907C90F002900D02843F360521CD2B2AF
:10E02000082AF0D370BC7047F0B49C469E4C032382
:10E0300085002F193B600025012426468640964B1B
:10E040008C40DE60110600D59E6019469C60CC6055
:10E0500051060A0E6D1CEDB2082DF2D3614600295F
:10E060000DD10C2139609C601969C140C807C00FEF
:10E07000002803D0DC60F0BC01207047DC60F0BCFD
:10E0800000207047FFB50B9F099E0A9D1C46019911
:10E090000098FFF767FF0023029A01990098FFF7A5
:10E0A000C3FF01281DD00023224601990098FFF7E5
:10E0B000BBFF01281CD00024002D0BD9325D3B464C
:10E0C00001990098FFF7B0FF012818D0641CE4B252
:10E0D000AC42F3D301990098FFF758FF012004B038
:10E0E000F0BD01990098FFF751FF002004B0F0BD8A
:10E0F00001990098FFF74AFF002004B0F0BD019994
:10E100000098FFF743FF002004B0F0BDFFB50A9E62
:10E11000099D14461F4601990098FFF723FF00232D
:10E12000224601990098FFF77FFF012825D00023A0
:10E13000324601990098FFF777FF012824D0019912
:10E140000098FFF70FFF01200443224600230199A6
:10E150000098FFF769FF01281DD00024002D29D960
:10E160006E1E01990098FFF741FF3855B44219D04F
:10E1700001990098FFF72AFF18E001990098FFF72E
:10E1800005FF002004B0F0BD01990098FFF7FEFEE6
:10E19000002004B0F0BD01990098FFF7F7FE0020C1
:10E1A00004B0F0BD01990098FFF700FF641CE4B2D1
:10E1B000AC42D6D301990098FFF7E8FE012004B0E5
:10E1C000F0BD08B5002003223B4B1146009006F03D
:10E1D00044FC002804D0FF2138A2043100F031FAB9
:10E1E00008BD70B5394E012100228903306806F060
:10E1F000E6FC002804D0FF2130A21C3100F021FAF7
:10E20000264C608DC00411D401256D0300222946DF
:10E21000706806F0D4FC002804D0FF2127A2223128
:10E2200000F00FFA608D2843608570BD608D28492D
:10E230000840608570BD10B5264A0121234806F0CC
:10E2400067FC002804D0FF211CA20C3100F0F9F972
:10E25000214A0121214806F05BFC002804D0FF215F
:10E2600016A2123100F0EDF9FFF7BBFF10BD000060
:10E270002007005028070050300700503407005096
:10E2800044070050500700506807005070070050C6
:10E29000780700501C07005000050050042900209A
:10E2A00018070050FFEF0000000700501007005053
:10E2B0006C07005040070050042700202E2E5C6899
:10E2C000617264776172652E63000000142400207F
:10E2D000FFDF000095050200E70602001824002079
:10E2E00070B5984C206806F093FC002804D0FF21FC
:10E2F000954A393100F0A5F9944D688D80040DD50B
:10E30000606806F085FC002804D0FF218E4A3F316A
:10E3100000F097F9688D8E490840688570BD70B52A
:10E320008C48C16B00292AD00021C1638A4C6069E6
:10E330008A4D8003800F11D1E0688003800F0DD0DB
:10E340002869C006C00F002808D185480078C0079A
:10E3500002D002F07AFA01E002F0B4FAA069800378
:10E36000800F0CD028694006C00F002808D0A06993
:10E37000032109040843A0617A490120087070BD97
:10E38000A06979490840A06170BD10B577488069DF
:10E39000C0B2774A0021916071490978C90702D05B
:10E3A00002F088FA10BD02F056FB10BDF8B5674DBB
:10E3B000A88D082108406F49022609786E4C084351
:10E3C000002807D16D480088000503D46C48007808
:10E3D00000280CD0A88DC00705D0A88D40084000AB
:10E3E000A885E67003E0E078022800D2E670A88DE8
:10E3F0000127C007002819D062490868C00715D155
:10E40000A88DB843A885604A002010701A220846DB
:10E4100042605E484760012107202BDF072026DF8E
:10E42000584807605A4807603C20E0705648017819
:10E43000002940D000220270A88D400741D5EA850E
:10E440000020411C0B46490049194000498E4019E3
:10E450004186E88D4018E885D8B20728F1D3298D88
:10E46000400040194186E98D408E081880B2C008EE
:10E47000E885484920260B7833430B70A98D49075E
:10E4800004D5298E884206D2288604E0A98D04236B
:10E490001943A9852886404B102198420CD2A88D9B
:10E4A000C00608D42079401CC0B22071032802D1D4
:10E4B000A88D0843A885F8BDA88D8843A88522713A
:10E4C000F8BD288D61794900491948866079401C5A
:10E4D000C0B26071082806D0A88D3843A8850520F1
:10E4E000FFF7CCFCF8BD2671A9E730B42B4A1068C1
:10E4F000002825D0254801238360234C2370214D1B
:10E50000A96812480185018D8905890D01850021C1
:10E5100011601F4A536069602960808D0822104095
:10E52000144A1278104307D114480088000503D418
:10E5300013480078002803D021700F480221C170D1
:10E5400030BC704714240020BCE2010004290020E4
:10E55000FFDF000040610040000700500005005050
:10E560004324002020240020FFFF0200004500403B
:10E57000004100400424002044290020B024002051
:10E58000AA240020007500402124002000730040D0
:10E590000070004050240020FF0200000071004085
:10E5A00010B54820F84900240C70491C401E80B268
:10E5B0000028F9D11620F5490C70491C401E80B284
:10E5C0000028F9D13420F2490C70491C401E80B259
:10E5D0000028F9D1ED4A08211175FF21131819718E
:10E5E000401C80B2137D8342F8D88720E94940015E
:10E5F00008800020E849C0430880E84801F02BFF6C
:10E60000FFF707F9E6480480E64803218171E649EF
:10E610003C200870DC49888D012210438885E3483E
:10E620004471E3494022087810430870E14844707F
:10E630008470C4700471447110BD10B506F0D8FC2C
:10E6400010BD704708B500235022DB49082007F0B1
:10E6500039FE002803D0D9A26B21FFF7F2FF00207A
:10E6600000900090684660DF002803D0D3A272219A
:10E67000FFF7E7FFD44807F043FE002803D0CFA2FE
:10E680007621FFF7DEFFD14807F042FE002803D0D5
:10E69000CAA27A21FFF7D5FFCD4807F041FE002836
:10E6A00003D0C6A27E21FFF7CCFF042077DF00282D
:10E6B00003D0C2A28121FFF7C4FF08BD38B5B24C18
:10E6C000608D8005002837DA684606F04AFF00288A
:10E6D00003D0BAA28D21FFF7B4FF0098002828D1FB
:10E6E000608D400703D5FEF75CFFFFF772F88020CE
:10E6F000B84A51680906C90F00291BD0D060608D47
:10E70000B54908406085B5480021C1608161032199
:10E710000904416102F040F80020B149C04388601B
:10E72000B04910200860FFF7DBFD0A20FFF7A6FBC9
:10E7300034DF38BD9060E2E740DF0028F9D09FA2C7
:10E74000A721FFF77EFF38BD0A460146A64878E7B5
:10E7500000B583B0A5480A21007808F0E7F830300A
:10E760006A4610703031517002200290A0486B460A
:10E77000008802AA0021A4DF002803D08FA2E6218E
:10E78000FFF75FFF03B000BDF8B592490869C00606
:10E79000C00F7D4C864D002847D096480078002851
:10E7A00043D12878C20711D09348007800287CD143
:10E7B000287840084000287002F03BFA2878C0070B
:10E7C000F6D102F034F802F004F86EE0820609D5C2
:10E7D000DF210840287002F057FA02F028F801F013
:10E7E000F8FF62E0C20909D04006400E287002F02E
:10E7F0005BFA02F01CF801F0ECFF56E0420609D586
:10E80000BF210840287002F05AFA02F010F801F017
:10E81000E0FF4AE0820709D5FD210840287002F098
:10E820005BFA02F004F801F0D4FF3EE073480022E6
:10E830000368002B0BD0A18DC90601D5026034E01E
:10E8400002F0B0FA01F0F3FF01F0C3FF2DE06C48D5
:10E850006C4B00881B88984206D002F04DF901F0FD
:10E86000E6FF01F0B6FF20E008698006C00F00282F
:10E870001BD16549087883070CD5644A644B12782C
:10E880001B78D21A9206920E202A0ED8FD22104032
:10E8900008700AE0400840000870504842618261F8
:10E8A00003210904C16001F094FF2878010707D50E
:10E8B000F721084028703F4802210170FFF748FF08
:10E8C0002878544F410749D5FB2108402870524809
:10E8D0000078002809D0514E01280FD0022825D0F9
:10E8E000032846D004284DD0A6E0608D000501D451
:10E8F00002F073F9012004F083F89DE0012004F098
:10E900007FF8608DC0050CD53089410604D500F034
:10E9100065FA01F04AFB8FE000071FD401F045FBC8
:10E920008AE000F045F901F040FB85E0608D0006CB
:10E930000AD4608D802108436085012003F01EFA0F
:10E940003888374908403880608DC0050CD530893B
:10E95000410604D500F042FA01F04FFA6CE00007DE
:10E960006AD501F04AFA67E000F022F901F045FAB1
:10E9700062E03089010702D538218843308100F0F8
:10E9800027FA59E04EE057E004290020AC2500208A
:10E99000C4250020362400205E24002038240020D6
:10E9A0002C240020F02A00202A24002044290020C2
:10E9B000502400201F240020B42800202E2E5C6D3F
:10E9C00061696E2E63000000B729020079D401004E
:10E9D0003BE6010000050050FFFD0000000700506D
:10E9E0000043004080E100E0EFBEADDE42240020A5
:10E9F000E424002044240020AD24002054240020DE
:10EA00004C2400204E240020432400204A240020CF
:10EA100048240020B024002040240020102A002098
:10EA2000BFEF0000012003F0EBFF00F01FFA608D44
:10EA30000121490208436085A08D40061CD5A08DA8
:10EA4000000609D53878800716D4A08D8021884328
:10EA5000A08502F06DFA0FE03878800706D503F044
:10EA6000C0FFA08D80210843A08505E0A08D402136
:10EA70008843A08502F05CFA6878810702D5FD2101
:10EA800008406870F8BD3D493B4848603C498017E4
:10EA90008860C2074A603B49886004204860FFF7ED
:10EAA000D1FDFFF78EFB02F05BFBFFF779FDFFF76F
:10EAB000EEF9FFF7C0FB01F0A0F903F073FC0620AC
:10EAC0002ADF04202ADF012106202BDF002804D0C2
:10EAD000FF212DA2D631FFF7B4FD012104202BDF49
:10EAE000002804D0FF2128A2D831FFF7AAFD062074
:10EAF00026DF002804D0FF2123A2DA31FFF7A1FD91
:10EB0000042026DF002804D0FF211FA2DC31FFF7FC
:10EB100098FD62B601F080FE1E4C1F4D1F4E204F27
:10EB200002F02CFB2068002823D1288831888842F5
:10EB30001FD1386800281CD11A4801881A4800885B
:10EB4000814216D1194800698006C00F002810D0F4
:10EB5000FFF7B4FDFFF718FE01F0DCFA01F026FD27
:10EB600001F0C5FD04F03BF8FFF709F8FFF71EFCC4
:10EB7000D6E700BFEEE70000DFFF07C0000500405A
:10EB800000630040004300402E2E5C6D61696E2ED4
:10EB9000630000000C2400204A24002048240020A8
:10EBA000502400204C2400204E240020000500505A
:10EBB00070B584B00F211020FFF7E8F90F20012570
:10EBC0000146019003AB322200951020FFF79EFA18
:10EBD0004F2168460173002403AE202332220F2107
:10EBE0001020009601950294FFF74CFA68460473D2
:10EBF000212332220F211020009601950294FFF765
:10EC000041FA68460473222332220F211020009615
:10EC100001950294FFF736FA6846047323233222E3
:10EC20000F211020009601950294FFF72BFA6846F9
:10EC30000473242332220F211020009601950294A0
:10EC4000FFF720FA68460473252332220F21102093
:10EC5000009601950294FFF715FA684604732E2377
:10EC600032220F211020009601950294FFF70AFA34
:10EC700068460473302332220F211020009601953C
:10EC80000294FFF7FFF96846047332231A460F21F6
:10EC90001020009601950294FFF7F4F9684604737A
:10ECA000332332220F211020009601950294FFF7A2
:10ECB000E9F968460473382332220F2110200096A8
:10ECC00001950294FFF7DEF95821684601733A2353
:10ECD00032220F211020009601950294FFF7D2F9FD
:10ECE0000221684601733B2332220F211020009637
:10ECF00001950294FFF7C6F90721684601733C238A
:10ED000032220F211020009601950294FFF7BAF9E4
:10ED10001421684601733D2332220F2110200096F2
:10ED200001950294FFF7AEF9FD48418D2A02114387
:10ED3000418504B070BDF0B585B000246846047408
:10ED4000012504AE242332220F21102000960195C4
:10ED50000294FFF797F9684604742E2332220F219C
:10ED60001020009601950294FFF78CF9EC4F788DF6
:10ED7000C0040AD568460474252332220F211020CE
:10ED8000009601950294FFF77DF91F2069460874EB
:10ED9000202332220F211020009601950294FFF7C4
:10EDA00071F9E0488470E0480482788D80040DD5C4
:10EDB000DE48006805F02CFF002803D0DCA271219A
:10EDC000FFF73FFC788DDE490840788505B0F0BD3F
:10EDD000D5484022018911430181ACE7F0B585B0E7
:10EDE000D14D41212889884328814F2069460874E4
:10EDF0000024012604AF202332220F211020009787
:10EE000001960294FFF73EF9C64884702C82CD48E3
:10EE1000C4700472C24D688D4004400C6885688DD2
:10EE2000C0040DD5402069460874252332220F21E5
:10EE30001020009701960294FFF724F905B0F0BD69
:10EE4000688D8004FAD40124B84864030022214666
:10EE5000006805F0B4FE002803D0B5A29821FFF7A2
:10EE6000F0FB688D2043688505B0F0BDF0B585B036
:10EE7000AB4C608DB44908406085608D0025C004AE
:10EE8000012704AE00280ADA6846057425233222D9
:10EE90000F211020019700960295FFF7F3F86846BE
:10EEA0000574202332220F2110200197009602952D
:10EEB000FFF7E8F8608D80040DD59C48006805F0E8
:10EEC000A7FE002803D09AA2B921FFF7BAFB608DF4
:10EED0009B490840608505B0F0BDF0B499490F78B2
:10EEE0009A49012F4A7ACB7F8C79CD790E7A0FD04F
:10EEF000022F2FD01F0752D5A64207D90B469C7967
:10EF00001B7A1B1B012847D098184872F0BC704729
:10EF1000DF060ED5AC42F9D98C4BDC799B791B1BF3
:10EF2000012803D098184872F0BC70474B72F0BCAF
:10EF300070479B06FBD5B442F9D9844B1C7A9B7968
:10EF40001B1B012803D098184872F0BC70474B7205
:10EF5000F0BC70471F070ED5A542F9D97B4B9C79B1
:10EF6000DB791B1B012803D098184872F0BC70474E
:10EF70004B72F0BC70479B06FBD5B542F9D9734B79
:10EF80001C7ADB791B1B012803D098184872F0BC4F
:10EF900070474B72F0BC70474B72F0BC7047DB0699
:10EFA000FBD5AE42F9D9694BDC791B7A1B1B0128D2
:10EFB00003D098184872F0BC70474B72F0BC704791
:10EFC0006348418A491C4182018A01837047F3B535
:10EFD00081B00D46002D7DD05E4F5A4C5048408D7B
:10EFE000000478D50020E0715B480168491C01608D
:10EFF0005A494868401C48604B4A117AC90707D0F3
:10F000005649CB685B1CCB60798A491C798206E043
:10F0100052498B685B1C8B60398A491C3982504984
:10F02000C96800290ED03E4B5E8D36070AD488424F
:10F0300008D3588D0821084358854A484023017851
:10F040001943017048483C2101710198002801D101
:10F05000FFF7B6FF1689B0070DD541485168808B80
:10F060000918516008F0DAFB3D49096808F0A4FC72
:10F0700008F090FB26E070070DD539485168C08B29
:10F080000918516008F0CAFB3549496808F094FC3A
:10F0900008F080FB16E0F0070AD03148C08B08F07A
:10F0A000BDFB2F49496808F087FC08F073FB09E0B5
:10F0B0002B48808B08F0B2FB2949096808F07CFCDA
:10F0C00008F068FB24494A6812184A60234A5169CB
:10F0D000091801E000E149E05161F30706D0D36966
:10F0E0001B18D3617A6812187A6005E093691B18BF
:10F0F00093613A6812183A601B4AD3881818D08076
:10F100001748806800287DD0054A538DDB0679D4E6
:10F11000814277D3508D102108435085D7E00000FD
:10F1200004290020B02A0020102A002018240020E2
:10F130002E2E5C73656E736F7233672E6300000052
:10F14000FFDF0000F02A0020FFFE0000D02A002090
:10F15000902A0020E02900204C2900208829002046
:10F16000C42500205424002026240020E078401CE0
:10F17000C0B2E070012804D1FE4903020A891A4393
:10F180000A810021E1710C283CD1FB48418D01220C
:10F19000D20311434185F94801680C310160F849F7
:10F1A00048680C30486088310E89F10707D0F4496F
:10F1B000CA680C32CA60798A0C31798206E0F0495B
:10F1C0008A680C328A60398A0C313982ED49C96803
:10F1D00000290ED0E84A538D1B070AD4884208D371
:10F1E000508D082108435085E7484022017811439B
:10F1F0000170E6493C200871DE49B00711D5E148AD
:10F20000808B00E063E00C2250434A6812184A6089
:10F2100008F004FBDB49096808F0CEFB08F0BAFAF5
:10F220002CE070070FD5D7480C22C08B50434A689A
:10F2300012184A6008F0F2FAD249496808F0BCFB9B
:10F2400008F0A8FA1AE0F0070CD0CE480C21C08BC9
:10F25000484308F0E3FACB49496808F0ADFB08F0F1
:10F2600099FA0BE0C7480C21808B484308F0D6FA86
:10F27000C449096808F0A0FB08F08CFABF494A6845
:10F2800012184A60BE4A516909185161F30706D045
:10F29000D3691B18D3617A6812187A6005E0936904
:10F2A0001B1893613A6812183A60B84AD388181844
:10F2B000D080B4488068002809D0AF4A538DDB065F
:10F2C00005D4814203D3508D1021084350856D1E13
:10F2D000EDB2002D00D081E603B0F0BD30B4AC48F3
:10F2E000AC4B017C427C891AC9B29972827CC47C85
:10F2F000121BD2B2DA72047D407D201AC4B21C7394
:10F30000A5488379C579007AAB421FD1834210D1D9
:10F31000914204D3A14202D330BC012070478A42FB
:10F3200004D3A24202D330BC0220704730BC032079
:10F330007047834207D9914202D330BC0120704705
:10F3400030BC0220704730BC03207047AB4211D95B
:10F35000834207D1A14202D330BC0120704730BCA8
:10F3600003207047834202D930BC0120704730BC73
:10F3700003207047854207D1A24202D330BC02204D
:10F38000704730BC03207047854202D930BC022050
:10F39000704730BC032070477F48C07F01070029B9
:10F3A00001DA01207047C00601D502207047032012
:10F3B0007047884202D3401A00B27047081A00B260
:10F3C0007047F0B585B07548018A491C0182694CC7
:10F3D0006E48228A017840786E4E002A15D0521E5F
:10F3E00092B22282002A10D1634A538D5B045B0CD7
:10F3F00053850022F2703272A318C03399721874C8
:10F400009875521CD2B2062AF6D3634DAA78652AA3
:10F4100001D2521CAA70EA78652A01D2521CEA7005
:10F420002A79652A01D2521C2A716A79652A01D289
:10F43000521C6A714F4B5A89803292B29C89803437
:10F44000A4B2A446DB8980339BB20393504CA378CB
:10F450000493042B7ED3029101904C488078009055
:10F4600061792171A0796071E379A371D2B2E271FF
:10F47000081899184018810844480170637A23726B
:10F48000A77A6772BE46E07AA0726246D2B2E27292
:10F490007344801818183D4A80085070627B2273AC
:10F4A000A37B63739E46E37BA3739C46039BDBB203
:10F4B000E373174662467744D218BA18334B920862
:10F4C0009A70049B042B6BD0304A0298FFF771FFAF
:10F4D000052801DA0298107051780198FFF769FF4A
:10F4E000052801DA0198507091780098FFF761FFC4
:10F4F000052801DA00989070217C1078814200D2B2
:10F500002074A37C51788B4200D2A174237D927821
:10F51000934200D22275637C834200D96074E37CFD
:10F520008B4200D9E174617D914200D9627500225D
:10F53000E97FCB077ED02B7F834249D24808400029
:10F54000E877607F2077297F6177FFF732FF617E60
:10F55000884200E0BAE13BDB0020064F3918C03199
:10F56000CB7A8B72401CC0B20528F7D33818297F9C
:10F57000C03016E0102A0020042900204C29002069
:10F5800088290020C425002054240020262400209F
:10F59000B02A0020F02A0020D02A0020902A002043
:10F5A00017E08172607F217F88420DD2A37D834264
:10F5B0000AD98B4208D2E8780C38582802D8A879A2
:10F5C000401CA8710020E870FFF7E6FE012846D035
:10F5D0004EE00523A3700027E770AF71EF712F7223
:10F5E0006F722774FF236374A774E37427756375C0
:10F5F000A775E77527760F236376A376E3762177E1
:10F600006177A077E0772A706A7029776877A877A2
:10F610000823EB773378002B1CD0B3707370FE4B4C
:10F620005C8D6404640C5C85F77037720023FB4FBB
:10F63000FC1800E015E0C034A1722074A2755B1CB8
:10F64000DBB2062BF4D36520A870E87028716871CE
:10F6500005B0F0BD012333707370B370DFE7012292
:10F6600006E02B7F834203D901200143E97768E755
:10F67000E87F810736D5EA496B7F49788B423AD2D9
:10F68000FD210840E877E07FA077697FE177FFF709
:10F6900090FEA17E88422EDB0020E04F3918C03159
:10F6A0004B7C0B74401CC0B20528F7D338186B7F15
:10F6B000C0300374E07FA17F88420DD2E37D834296
:10F6C0000AD98B4208D228790C38582802D8E87910
:10F6D000401CE87100202871FFF75EFE02280AD165
:10F6E000022208E0CE496B7F49788B4203D9022180
:10F6F0000843E877C7E7E87F410736D5C849AB7FBD
:10F7000089788B423AD2FB210840E87768782870E4
:10F71000A97F6970FFF74DFEE17E88422EDB002055
:10F72000BE4F3918C031CB7D8B75401CC0B2052847
:10F73000F7D33818AB7FC030837568782978884252
:10F740000DD2237E83420AD98B4208D268790C38C5
:10F75000582802D8287A401C287200206871FFF7C8
:10F760001BFE03280AD1032208E0AD49AB7F89784C
:10F770008B4203D904210843E877C7E7A8480178FA
:10F780002977417869778078A877012A04D0022AFE
:10F790002AD0032A32D03AE0607F217F884236D2D5
:10F7A000A27D824233D98A4231D2A8780C385828B7
:10F7B00009D8002030729948962101820121002049
:10F7C000FFF705FC0DE0307A401CC0B23072032810
:10F7D00007D19148418D4904490C41850020F070C2
:10F7E00030720020A87012E0E17FA27F91420ED219
:10F7F000E07D88420BD99042D7D308E06978287819
:10F80000814204D2227E8A4201D98242CDD3E0785D
:10F81000401CC0B2E070322800D019E77F49088947
:10F82000C20505D57F4A10400881F0784000F0708D
:10F830000027E770207C617C40184008A075A07C00
:10F84000E17C40184008E075207D617D401840084B
:10F8500020760F206076A076E0767078B0703078F1
:10F860007070FFF73BFD3070717881421FD1B17825
:10F87000814206D00220FFF730FB697A0120FFF7B2
:10F88000A6FB6F72E87FC7210840E877317801292D
:10F8900005D0022907D020210843E8770AE0082193
:10F8A0000843E87706E010210843E87702E00120EA
:10F8B000FFF713FBAF71EF712F722774FF20607495
:10F8C000A774E0742775607505B0F0BD56490498BB
:10F8D0004254A278554960465054A278544903983E
:10F8E0005054A078401CA07005B0F0BDF0B40021C9
:10F8F00050484A4A0A23C67ED35E24250224ED439B
:10F900000022002E04D0012E0ED0022E16D01EE0B2
:10F91000252B02DDC476012119E01A26F643B342F5
:10F9200015DB0121C17612E0AB4202DAC276012179
:10F930000DE0252B0BDDC476012108E0AB4202DA95
:10F94000C276012103E01B2B01DA0121C176334F7E
:10F95000037F0C26BE5F002B04D0012B0ED0022BA0
:10F9600016D01EE0252E02DD0477012119E01A23AE
:10F97000DB439E4215DB0121017712E0AE4202DA41
:10F98000027701210DE0252E0BDD0477012108E02F
:10F99000AE4202DA0277012103E01B2E01DA0121D7
:10F9A00001771E4F437F0E26BE5F002B04D0012B34
:10F9B0000ED0022B16D01EE0252E02DD4477012149
:10F9C00019E01A23DB439E4215DB0121417712E047
:10F9D000AE4202DA427701210DE0252E0BDD44779D
:10F9E000012108E0AE4202DA4277012103E01B2E3A
:10F9F00001DA012141770848408DC0040AD5074B40
:10FA0000D88A401C80B2D8820B4CA04202D1DA8244
:10FA100033209882094813E004290020102A00208E
:10FA200026240020FFFE0000B42A0020B82A00206F
:10FA3000BC2A0020902A0020B80B0000F02A0020E9
:10FA400043791924002B05D0012900D14471437951
:10FA50005B1E4371012908D1C2714179002904D18B
:10FA6000FD498A8A521C8A824471F0BC704709029F
:10FA7000014308B200110105002903DA0F2109032F
:10FA8000084300B2C117090F081800117047F0B5FC
:10FA9000B7B02F200126019004AB32220F2100962F
:10FAA0001020FEF733FB6946087CC006C00E0490A8
:10FAB00006225043A8210191009006AB32220F216B
:10FAC0001020FEF723FB002400256946087CE24F46
:10FAD000002820D906A802195178005DFFF7C7FF5A
:10FAE0007881D1789078FFF7C2FFB8815179107989
:10FAF000FFF7BDFFF881387A000702D5FFF7F6FE61
:10FB000001E0FFF75EFCA41DE4B26D1CEDB2684697
:10FB1000007C8542DED3D148408DC00440D5D04C16
:10FB2000E079401CC0B2E0710C2839D10025FD827B
:10FB30006846057505AF242332220F211020009757
:10FB400001960295FEF79EFA684605752E2332222D
:10FB50000F211020009701960295FEF793FA40219D
:10FB600068460175252332220F2110200097019647
:10FB70000295FEF787FAB94E708D80040DD5B9480D
:10FB8000006805F045F8002803D0B74AF421FEF7D5
:10FB900058FD708DB54908407085E571B448057011
:10FBA00037B0F0BDF0B583B0AB4BB2491F894A8A7C
:10FBB0007B08C88A5B00AA4C0293A379824263D077
:10FBC00001263604824203D9101A80B2019003E064
:10FBD000301A801880B201900D8B888A854202D934
:10FBE000281A80B202E0301A401980B2032B00D1EB
:10FBF00096208D82CA8207F0C6FB05460E46019804
:10FC000007F0C1FB00229C4B07F0C0FB2A4633469D
:10FC100007F068F906F082FF8F4B18600021A27A86
:10FC20000125502A00D30121E27A502A01D3491C30
:10FC3000C9B2227B502A01D3491CC9B2884A8F4ECF
:10FC4000527A521CD2B2B0420EDB02290CD3F80712
:10FC500002D00020607213E06272032A10D12F4399
:10FC60001F81002060720BE0F80707D06272032A40
:10FC700006D1029818810020607201E000206072B5
:10FC80000020A07103B0F0BD032BFBD05B1CD8B2E9
:10FC9000A0710328F6D17048029901810021617298
:10FCA000016003B0F0BDF8B5754CE078401CC0B2FF
:10FCB000E0700A287ED10025E570E08800287AD01F
:10FCC000FF21693148436F4906F030FE07F0A6FD79
:10FCD00007F088FC6C4A6D4B07F058FB06F01EFFDE
:10FCE0000127BF076A4EB84249DD6449694F88421F
:10FCF00045DDB84201DC684F41E06849884201DCDB
:10FD0000674F3CE08122D2056649904201DC0F46F4
:10FD100035E0654A904201DC644F30E041273F0600
:10FD200088422CDD624A6349904201DC0F4626E09E
:10FD3000614AB04201DC174621E0604B984201DC89
:10FD40005F4F1CE05F4B984201DC5F4F17E05F4B59
:10FD5000984201DC5E4F12E0B84201DC5D4F0EE0DC
:10FD60005D4B984201DA5D4F09E0884201DC5C4F4F
:10FD700005E0904202DC8327FF0500E0594F5A4816
:10FD8000007A07F04BFD394607F016FE07F02AFC13
:10FD9000564A574B07F0FAFA06F0C0FE314607F014
:10FDA00049FC07F01FFC534A534B07F06EF806F06E
:10FDB000B5FE01E020E01EE0504907F0FDFD07F030
:10FDC000E9FC4F498A6882188A604E4A516A411894
:10FDD00051624D4AD368C018D0604C480069002871
:10FDE00009D01E4A538D9B0605D4814203D3508D02
:10FDF000202108435085E580F8BDF0B585B017484F
:10FE0000408D0125C0044027002404AE00287FDA7D
:10FE100068460474242332220F2110200096019595
:10FE20000294FEF72FF9684604742E2332220F2124
:10FE30001020009601950294FEF724F96846077495
:10FE4000252332220F211020009601950294FEF7FF
:10FE500019F97F2168465CE0102A0020042900205F
:10FE6000F02A00201824002030F10100FFDF0000FC
:10FE700020240020902A002000004940000020405B
:10FE800026240020A08601006E6E4C4F58E2E33F0E
:10FE90000000C04000004040333353400000604049
:10FEA000333373400000A040000090409A99C9404D
:10FEB0006666A64000001041000020416666D640FC
:10FEC000000030410000E040000038410000F040F8
:10FED00000004841000058419A99094100006041E2
:10FEE0000000704100009041E4250020EC51B81E54
:10FEF00085EB913FFCA9F1D24D62403F00007A446E
:10FF00004C29002088290020E0290020C425002059
:10FF100021E00174302332220F2110200096019538
:10FF20000294FEF7AFF868460474242332220F21AE
:10FF30001020009601950294FEF7A4F8212168464E
:10FF4000017432231A460F21102000960195029465
:10FF5000FEF798F816E068460774242332220F2132
:10FF60001020009601950294FEF78CF84C2168460B
:10FF700001742E2332220F21102000960195029445
:10FF8000FEF780F8ED4938220889904308814C82B9
:10FF90008C82EB4804710020420052181483401CEC
:10FFA000C0B23C28F8D305B0F0BDF0B585B0E34948
:10FFB00008220889104330229043E14F0322BA718E
:10FFC00040084000088100240C60DE48408D012676
:10FFD000C00404AD002845DA6846047424233222A4
:10FFE0000F211020019600950294FEF74BF8684609
:10FFF00004742E2332220F211020019600950294C2
:020000040002F8
:10000000FEF740F8402168460174252332220F2173
:100010001020019600950294FEF734F87F2168467F
:100020000174302332220F21102001960095029492
:10003000FEF728F868460474242332220F2110208A
:10004000019600950294FEF71DF82121684601747F
:1000500032231A460F211020019600950294FEF7D4
:1000600011F817E0402168460174242332220F2141
:100070001020019600950294FEF704F84C21684682
:1000800001742E2332220F21102001960095029434
:10009000FDF7F8FFA9493C2048823C718C82002082
:1000A000420052181483401CC0B23C28F8D3A64822
:1000B000048044808480C480A44884760A89A44B48
:1000C0001A400A810A228A5E2425ED430223AA42AD
:1000D00001DAC47604E0252A01DDC37600E0C676A5
:1000E0000C228A5EAA4201DA047704E0252A01DDA7
:1000F000037700E006770E228A5EAA4202DA44778E
:1001000005B0F0BD252A02DD437705B0F0BD467786
:1001100005B0F0BDF0B585B08E4F387800283DD0E1
:10012000002469460C74012504AE252332220F21D8
:100130001020009601950294FDF7A4FF4020694627
:100140000874242332220F21102000960195029476
:10015000FDF798FF4C20694608742E2332220F21A8
:100160001020009601950294FDF78CFF754D688D67
:10017000800410D4012678487603002231460068B6
:1001800004F01DFD002803D0744A7549FEF759FAA2
:10019000688D304368856A48C4713C7005B0F0BD15
:1001A000F8B5664C6F4E207A6F4F0007644D0028FB
:1001B00072DAB86B401CB863F069401CF061608A69
:1001C00000285FD0401E80B2608200285AD15E486D
:1001D0008188491C81803046818D491C8185634915
:1001E0000889401C0881624A9078401C90703C2726
:1001F00067823B20431E5E0036194000368B001993
:100200000683D8B20028F5D1A38A00262383A682CC
:100210002B795B1CDBB22B713C2B00D92F712B7916
:10022000494DED886D1CAEB24E4DED8D6D1CADB2DD
:10023000AC464E4D6D896D1CADB2AE464C4DED7861
:100240006D1CEFB2032B37D3002345002D192D8BE6
:10025000002D01D05B1CDBB2401CC0B20328F4D3DC
:10026000032B10D0002B18D0374803885B1C038069
:100270003C48038D5B1C03858888401C888010796E
:10028000401C1071F8BD3048C68036486346C385AF
:1002900070464881D770F8BD17E02B4843885B1C37
:1002A00043803048438D5B1C4385C888401CC88010
:1002B0005079401C5071F8BD2348C68029486346D8
:1002C000C38570464881D770F8BDFFF76BFCA879ED
:1002D00003282BD0F068401CF060B86A401CB8625C
:1002E00024494969002909D0164A538D5B0605D473
:1002F000884203D3508D402108435085207A1E49FF
:10030000C00709D0F86A401CF8623069401C3061AF
:10031000088B401C0883F8BD386B401C386370693B
:10032000401C7061C88A401CC882F8BDB86B401C74
:10033000B863F069401CF061F8BD31E7102A002075
:10034000F02A0020042900202E240020902A0020DA
:10035000FFFD0000202400201824002030F10100BF
:10036000550500004C29002088290020C8290020BC
:10037000002A0020C4250020E029002010B50446F2
:10038000FF219131204606F0D1FA002909D06421DD
:10039000204606F0CBFA002901D0A00701D00020AA
:1003A00010BD012010BD10B586B0DAA14A680968F9
:1003B00005920491D9A18C684B680A68C9680294B7
:1003C00001930092039100220388591E89B2FF24F1
:1003D0001934A14204D3FF39193989B2A142FAD2A2
:1003E0001C2903D31C3989B21C29FBD2042905D34B
:1003F000091F89B2521C92B20429F9D204ACA25C42
:10040000511889B2072901D3C91F89B282786C4675
:10041000A45C611889B2072901D3C91F89B2C078C9
:10042000401884B2072C03D3E41FA4B2072CFBD2DC
:10043000032A07D31846FFF7A1FF002802D0E0B235
:1004400006B010BD002C04D0641EA0B2C0B206B02D
:1004500010BD0620FAE710B504460020A0716071B7
:1004600020710120E070A070B04820802046FFF786
:100470009AFFE07110BD70B588B00246AC480346E3
:1004800078CB0496039502940193446903698069CB
:10049000069405930790500001AB1C5A022A06D11E
:1004A0000846FFF76BFF002801D0641CA4B2E0B23D
:1004B00008B070BD10B504462188A078FFF7DBFFB7
:1004C0000146E078814202D0401CE0700BE001213F
:1004D000E170A078401CC0B2A0700D2803D1A170BB
:1004E0002088401C20802046FFF75DFFE07110BD92
:1004F00010B58179491CC9B281713C292AD10023E8
:1005000083714179491CC9B241713C2911D1894C8F
:10051000082221781143217043710279521CD2B212
:100520000271182A05D10371042211432170FFF7CB
:10053000C1FF8149088800280CD0401E80B2088085
:10054000002807D18720400108807C4910220878C4
:1005500010430870FFF7A7FB10BD10B504462188B3
:100560007D200001081AC82801D3002010BDA07802
:10057000002801D00C2801D9002010BDFFF77BFF17
:100580000146E078002801D0884201D9002010BD42
:10059000012010BD6A498878401C8870C00701D0CE
:1005A00000BF70476749012008707047F8B565487B
:1005B0000178002970D0002101706148C178491E7E
:1005C000C170C078604D0124002802D1A88D20435D
:1005D000A8855E48FFF78CFFFFF7AFFE5C48082256
:1005E0000178114301705B490878002801D0401E52
:1005F000087059490878002801D0401E0870574EED
:100600003078400712D55648007806280ED1554F4D
:10061000387800280AD0401EC0B23870002805D1B2
:100620005148C08801F090FB0A2038704F49087883
:10063000002811D0401EC0B2087000280CD14848D4
:100640000078062808D13078400705D4002002F051
:10065000D7F9308820433080688D000624D5308853
:100660000221C2070140D20F114301D040061BD521
:10067000684604F076FF002804D0FF213CA2183120
:10068000FDF7DFFF009800280ED13088C00404D5A4
:10069000012001F073FB03E024E0002001F06EFB79
:1006A000308836490840308035490878002801D024
:1006B000401E087033490878002808D0401EC0B298
:1006C0000870002803D130490878204308702F496A
:1006D0000878002806D0401EC0B20870002801D15A
:1006E000FDF777F8F8BD2A4901200870704710B56A
:1006F0002748017800290BD0002101701248408D55
:10070000C00505D52348007A400601D4FFF7BFF99C
:1007100010BD0000000503010604020000000303F1
:10072000060104060205000305000000DF070000C3
:10073000687A02000C240020362400205424002073
:1007400044290020222400200429002038240020ED
:1007500058240020AA24002073240020B024002064
:100760007024002071240020902400207224002096
:100770002E2E5C74696D652E63000000BFEF0000D3
:10078000AD2400201F240020502400200424002039
:1007900023240020102A0020FE4910208860FE49F2
:1007A000002008607047FE490320FC4A08600021D1
:1007B0001060101D0160F84802228260C1600122B1
:1007C000026192064262F74A07205061F648816052
:1007D000E2E7F54900208860EF49086001200860E1
:1007E000EC491020C8607047EC480023C360E94919
:1007F00009694906CA0F03210904002A01D0816151
:1008000002E00122520482614161E848C17849084E
:100810004900C1700371BFE7E4480021C1708171D4
:10082000C1714171018141818181C181DCE7DB4975
:1008300000204861886103221204CA60DB49012359
:10084000CA781A43CA700871704730B4D74C012176
:100850002079D14D002814D022465179927901286F
:1008600015D0FE281AD0D24B1B18203B9B7FEB6182
:100870004B406371521C904218D9FE20207130BC4D
:100880007047A420E8616071217130BC7047EA6153
:10089000514061710220207130BC7047BD4A102068
:1008A0009060E961FF20207130BC7047401C2071CE
:1008B00030BC7047BD480179FF2902D10021817108
:1008C00092E77047B9490879FF2808D0401C0871A1
:1008D0000979B148012906D0FF21C1617047AD4AAD
:1008E00010209060F4E7A521C1617047F0B414298D
:1008F00000D314218407A40FAC4E70893789C31B21
:100900009D06AD0E40235B1B4D1CAB4203D8F0BCD3
:100910000020C04370478B069B0EA4012343A54CC7
:100920002354401C8006800E70810020002909D9C4
:100930007389155CE5545B1C9B069B0E7381401C00
:100940008842F5D3B07AC01B8106890E4020401A38
:10095000142803D8F0BC0020C0437047F0BC00202E
:10096000704700B5944800781038112818D2030059
:100970007B441B79DB189F44081E13142446355E04
:100980004C5213131313131358008C48042201788C
:10099000114301708848854942780A708078487010
:1009A00000BD8548814940788870844808220178D4
:1009B0001143017000BD814801220178114301708B
:1009C00000BD7F4800780328FAD37E4A1421002016
:1009D000FFF78CFF0028F3D074480222C17811433E
:1009E000C17000BD764800780328FAD3754A1421F7
:1009F0000120FFF77BFF0028F3D06C490222C87862
:100A00001043C87000BD6D48022201781143017087
:100A100000BD6D48818D20221143818500BD6A484B
:100A2000818D40221143818500BD64488022017878
:100A30001143017000BD60484078002805D062482D
:100A4000818D08221143818500BD5F48818D082278
:100A50009143818500BD00B5544B1979012912D00D
:100A60001A465279022911D0FF2913D042405A71F7
:100A7000514A5218203A5077D879801C814201D9C6
:100A8000FF20187100BDA520587100BD42405A7169
:100A9000D87100BD904201D1FFF763FFFFF7A4FEBC
:100AA00000BD70B4414C8026E389257B5D1B6D063B
:100AB0006D0E761B851CAE4203D870BC0020C0436F
:100AC0007047424D461CEE545B1C5B065B0EE954BE
:100AD0005B1C5906490EE1810021002809D9E389F0
:100AE000565CEE545B1C5B065B0EE381491C814245
:100AF000F5D370BC00207047F0B42C4CA089E68977
:100B0000B0421FD0314F395C491EC9B2A171401C9F
:100B10004006400EA081142901D31420A0710020AA
:100B2000A579691C00290DD9214A6D1CA1897B5C1E
:100B30001354491C4906490EA181B14202D0401C00
:100B4000A842F3D3F0BC7047F0B40446174B1989A0
:100B50005889814202D10020F0BC7047154E705C6C
:100B6000491C8906890E19818206920E142A02D91F
:100B70001422D42108400021002AEDD91D89755D79
:100B800065541D7A6D1CAD06AD0E1D815F89BD4299
:100B9000E2D01DE000050050004500400007005075
:100BA000080700504045004000410040402400201C
:100BB000002B00202A2B0020152B00205024002081
:100BC0001C240020162B0020042900206A2B002062
:100BD000491C9142D2D3F0BC704730B585B0002497
:100BE0000094019402940394049469460C700125C6
:100BF0004D7000A807228F49023005F09DFD6A461E
:100C000081211420FFF74DFF009401940294039476
:100C10000494FF20694608704D706A4681211420B3
:100C2000FFF73FFF8448418DEA021143418505B03B
:100C300030BD70B4814903208871814980200870DB
:100C40008048007848707C48408D7F4B0606012222
:100C5000022400251888002E05DAC60701D04A7044
:100C600002E04C7000E04D708D70050400D58A7074
:100C7000420402D58A7822438A708004800C18804E
:100C8000FF20C87070BC70476C48012181716C48AE
:100C900085220270684A928DD206002A01DA4170DC
:100CA000704700214170704710B564490120887178
:100CB000634C8720207000F02EF9607010BD10B5D5
:100CC0005E49082088715E488621017008225949D2
:100CD000401C05F031FD10BDF8B558490920887158
:100CE000574E822030705948C07B7070584F594C15
:100CF000786800284ED0E16800294BD06422504328
:100D000005F014FE06F08AFD534DA84200DD28468A
:100D100006F040FDB070000AF070786900283BD002
:100D2000A168002938D06422504305F0FFFD06F089
:100D300075FDA84200DD284606F02CFD3071000A42
:100D40007071786A002829D02169002926D0642290
:100D5000504305F0EBFD06F061FDA84200DD28469A
:100D600006F018FDB071000AF071B86A002817D0BB
:100D70006169002914D06422504305F0D7FD06F0C4
:100D80004DFDA84200DD284606F004FD3072000A41
:100D90007072F8BD0020B7E70020CAE70020DCE74A
:100DA0000020EEE7254A0420907125498320087031
:100DB00050694870030A8B70030CCB70000E0871E9
:100DC00000205061704770B5044620781B4D002804
:100DD0000FD104222149204605F0DCFB002804D075
:100DE000E878FB210840E87003E0E8780421084334
:100DF000E870E878400704D52178032903D0FF295B
:100E00000CD0012070BD14221549204605F0C2FB0C
:100E1000002801D0002070BD012070BD14221149AE
:100E2000204605F0B7FB002801D0002070BD01204E
:100E300070BD000038240020042900204024002038
:100E4000002B00201C240020B0240020E4250020DA
:100E500088290020C425002000009643827A0200E1
:100E6000867A02009A7A020070B50C462278112A1E
:100E700016D0142A14D0152A02D0212A25D10FE029
:100E8000D848042102880A430280D7480170D74914
:100E900000200870D648012201781143017014E047
:100EA000D44A017891714178D17181781172C078FA
:100EB0005072D14DFF2902D0084601F091FAA8786E
:100EC000FF2802D0CB4920788880002070BD10B563
:100ED0001046002803D0C9A25D21FDF7B2FB10BD6A
:100EE00070B5FD20FC22C9498003FCF729FBC84CE2
:100EF000C84DA06BA8420CD0FF22FC21C34805F0CE
:100F0000A7FCA563C4480122417811434170012028
:100F100070BD002070BD0020BC490A5CFF2A01D0D2
:100F200001207047401C80B20528F6D3002070478E
:100F3000F8B500200090AF4869460078087000249A
:100F4000B24EB54F355D052D17D26846857004F059
:100F500016FE002803D0A9A28E21FDF772FB3020D7
:100F60004543A819801DFF22302105F071FCFF20A8
:100F700030557878012108437870641C052CE1D342
:100F8000F8BDF8B5002000909A48694600780870CE
:100F900000259E4F00260024385DA84201D101267D
:100FA00002E0641C052CF7D3284605F0E3F800287E
:100FB00015D0002E0FD00420021B3819411C05F05B
:100FC0001FFCFF20387130206843C019801DFF22AC
:100FD000302105F03DFC6D1C052DDBD3F8BD002E46
:100FE000F9D16846857004F0CAFD002803D083A2B9
:100FF000B921FDF726FB30206843C019801DFF2270
:10100000302105F025FCE6E7F8B504460021009103
:101010007849684609780170052C1FD27B4E7E4FB7
:10102000355D052D17D26846857004F0A8FD0028AF
:1010300003D072A2E321FDF704FB30204543A81939
:10104000801DFF22302105F003FCFF203055797808
:10105000012001437970641C052CE1D3F8BD70B503
:1010600086B00124644804F0BCFB002803D063A2CE
:10107000FB21FDF7E6FA04F033F8002803D05FA265
:10108000FF21FDF7DEFA654842696549521C02D02E
:101090000969406900E0486901266946CE80FC2064
:1010A0008880604800906049684604F058F800283D
:1010B00004D0FF2151A20931FDF7C3FAFFF710FF59
:1010C0000025002801D0059600E0059505A804F04C
:1010D00052FC002819D0059605A804F04CFC002805
:1010E00004D0FF2145A22131FDF7ABFAFF220521F3
:1010F000464805F0ADFBFF22F0214C4805F0A8FB67
:101100004548417831434170002469460D824D8243
:101110001E20C881087C3043FD210840E32108409F
:101120000C30DF21084069460874072048741020FD
:1011300088743F4802900E7302A92E4804F0C4FC44
:10114000002804D0FF212DA23931FDF77AFAFFF7EC
:1011500018FF002C02D00420FFF756FF06B070BD28
:1011600010B50121334A084604F020FA002804D0C3
:10117000FF2122A24A31FDF764FA10BD70B51A486A
:10118000007804282DD12C4D2C4E2878194C062897
:101190000CD13078062809D36078410706D40421A1
:1011A0000843607000F0C8FD00F0CAFD30780628E2
:1011B00017D12878062814D36078010711D40821A4
:1011C0000843607002F0C9FD02F0CBFD1C4C022206
:1011D000A088002102F0C9FDA0880222012102F0AE
:1011E000C4FD70BDB02400201C2400207224002007
:1011F000502400205C240020622400202E2E5C6DF0
:1012000061696E5F626C652E63000000EC2B00204C
:10121000AC2C0020160814200C2400200010001014
:1012200000000010CF0E020068240020F22B0020E6
:10123000690E02008D550200702400200425002054
:101240001C250020FE4907200870704738B5022091
:1012500069468870FB480880F94C6A46012160891C
:1012600090DF002802D0FFF7EDFF38BD032020708B
:1012700038BD38B50020F449F44ACB88F04C93428D
:1012800007D188886946401C08804880608993DFC0
:101290000AE0EF49CB88934206D188886946401C12
:1012A00008804880608993DF002802D0FFF7CAFFDA
:1012B00038BD0520207038BD30B4E6498978E04C4F
:1012C00080886081052923D230204143E2480818F4
:1012D0002146C5880D8405894D84831C45898D84EC
:1012E0000A4680892032C88498891081D889508123
:1012F000188A9081588AD081988A1082D88A508220
:10130000188B9082588BD0820120207030BC70479F
:1013100030BC9BE730B4CA4C0146608992DF00289C
:1013200001D030BC8EE70420207030BC704708B577
:10133000C18800290ED1818900290BD0C04A418A79
:101340009181808AD0816A46118050806846FFF77B
:10135000E1FF08BDFFF776FF08BDF8B5C1880A4672
:10136000FF3A0B3A01D0093211D1B74880880028E2
:101370000AD0BA488088002806D0B548808800285E
:1013800002D0FFF776FFF8BDFFF75CFFF8BD00293C
:1013900002D0FFF757FFF8BD002200238189002902
:1013A00021D9AF4DAF4EB04F0A2159430A180E3222
:1013B00000211488AC4201D1A34906E0B44201D116
:1013C000A64902E0BC4200D1A149002907D00C8007
:1013D00054884C8014898C800024E443CC805B1CAE
:1013E00081899942E0D89648002A09D011896A4635
:1013F000491C1180C08950806846FFF78BFFF8BDFB
:1014000081896A461180C08950806846FFF782FF53
:10141000F8BD10B5C1880A46FF3A0B3A03D009322D
:1014200001D0002902D0FFF70DFF10BD8189864A47
:10143000874B00290FD00E3041888C4CA1420AD135
:1014400000889488411E8C4201D1D08003E09C88A2
:101450008C4200D1D880D1887C48814202D0D98882
:10146000814202D1FFF705FF10BD754806210170CA
:101470000321C1700A21417081707D494878C209F9
:10148000F2D1802210434870724804F04CFB0028CF
:1014900000D000BF0028E7D0FF2176A25731FDF72A
:1014A000D0F810BD00B589B065480078062802D094
:1014B000082009B000BD00216B46197173484278BD
:1014C0005A7182789A71C278DA71007918725972F9
:1014D0006248808858820620D88299820120187438
:1014E00001A8069004A802F021F809B000BD00B5DB
:1014F00089B053490978062902D0082009B000BDF7
:1015000000216A461171837A5371C37A9371037B08
:10151000D371407B10720120507220239372D172DC
:101520004E4A93886A4653820823D382918210746C
:1015300001A8069004A801F0F9FF09B000BDF0B5BC
:1015400085B0054652A04168006802910190A888C4
:10155000009000240098002870DD4C480146283196
:101560000830022604910390354F7869092846D245
:1015700003007B441B79DB189F44040B11181F26C2
:101580002D34420028194149807908700120786182
:1015900012E128193D49807948707E610CE12819D3
:1015A0003A49807988700320786105E12819374924
:1015B0008079C87004207861FEE028193349807969
:1015C000087105207861F7E0281930498079487161
:1015D00006207861F0E028192C498079C88007201E
:1015E0007861E9E029482A199279C18812021143E9
:1015F000C180082078610398B86100203882DBE060
:10160000B8690499884219D20399884216D32919D6
:1016100089790170401CB861398A491C89B23982C4
:101620001A4AD2888A427DD100210170401CB861DB
:10163000052078617879184940012FE0C5E0000065
:101640007024002031F4000090240020FFFF0000EF
:10165000A024002062240020EC2B002098240020ED
:101660000D120000F3D80000E9C6000002290000B6
:10167000582400202E2E5C736572766963655C6267
:101680006C655F616E63732E63000000282D00207F
:10169000E5BEAEE4BFA10000E82C002040183A8A65
:1016A000039905F049F87879401CC0B27871012897
:1016B0007DD10822FD49FEA004F0E2FF00287DD084
:1016C0000622FA49FDA004F0DBFF002877D00622AD
:1016D000F64901A804F05EFF002870D00822F34903
:1016E000F8A004F0CDFF00286AD00922EF49F8A045
:1016F00004F0C6FF002876D00722EC49F7A004F0DA
:10170000BFFF002870D00522E849F6A004F0B8FF1A
:1017100000286AD00A22E549F4A004F0B1FF0028AD
:1017200070D000E048E00522E049F3A004F0A8FFF3
:10173000002868D00222DD49F1A004F0A1FF0028B2
:101740007AD01322D949EFA004F09AFF002874D070
:101750001522D649F0A004F093FF00286ED016227F
:10176000D249F3A004F08CFF002868D01522CF499D
:10177000F5A004F085FF002874D00F22CB49F8A013
:1017800004F07EFF00286ED00F22C849F8A004F0B4
:1017900077FF002868D01422C449F9A004F070FF34
:1017A00000286ED0FFF77EFE00207861787178798E
:1017B000012801D900207871641C02E007E015E0DF
:1017C00022E00098844200DACEE605B0F0BD0520A4
:1017D0003871F1488022417811434170EF484178D7
:1017E00031434170E0E71BE02AE02CE0062038712D
:1017F000E9488022417811434170E84841783143FB
:101800004170D1E722E030E007203871E248402201
:10181000417811434170E148417831434170C3E759
:101820000B203871DC484022417811434170DB487D
:10183000417831434170B7E724E02FE03AE045E0DA
:1018400008203871B0E709203871ADE70D203871F4
:10185000D1482022417811434170D048417831432A
:101860004170A1E73EE049E054E00E203871CA48DB
:101870002022417811434170C8484178314341707A
:1018800092E753E00F203871C3488022417811431A
:101890004170C24841783143417085E70A20387170
:1018A000BD480822017811430170BC48417831439A
:1018B000417079E719203871B74880224178114387
:1018C0004170B6484178314341706DE71B20387153
:1018D000B1484022417811434170B04841783143CA
:1018E000417061E71B203871AB48402241781143B9
:1018F0004170AA4841783143417055E71A20387148
:10190000A5488022417811434170A4484178314371
:10191000417049E7182038719F488022417811436F
:1019200041709E484178314341703DE7182038713D
:101930009948802241781143417098484178314359
:10194000417031E7F8B500210C30954B02889B8837
:101950009A4259D18388022B56D38279002A52D1D8
:10196000904CA271C279E271077A2772467A667248
:101970000023E361520746D4874A874B12785D788B
:10198000072F39D23B007B441B79DB189F4420038F
:101990000C341C152400804B01252A431A70824BFD
:1019A00003221A70257120E07B4B02252A431A700E
:1019B0007D4B04221A70257117E0774A10231D43CE
:1019C00055700322227110E00121784A167013E04D
:1019D0000C212171012108E0042222716E4A20238A
:1019E0001D435570704A09231370704A16706B4A74
:1019F000022553782B435370012904D1FFF777FD5B
:101A0000002060616071F8BD694989888A42FAD115
:101A100081880229F7D3FFF792FDF8BD38B502217E
:101A20000091604900240C70002825D06946614867
:101A300063DF002804D00B215F4A8901FCF701FE17
:101A40006D46691C5D4863DF002803D05A4A5C4933
:101A5000FCF7F7FDA91C5B4863DF002803D0564A5A
:101A60005949FCF7EEFDE91C584863DF002803D014
:101A7000514A5749FCF7E5FD4A480484014644842D
:101A8000203184840C814C818C810C824C828C822C
:101A900051495048C8800839C8801031C8804F4922
:101AA000FB2208781040087038BD0000E82C0020A8
:101AB0005768617473417070000000005765436897
:101AC0006174000046616365626F6F6B0000000027
:101AD0004D657373656E67657200000054776974B5
:101AE00074657200536B7970650000005961686F0E
:101AF0006F204D61696C0000476D61696C000000EA
:101B000051510000636F6D2E6170706C652E4D6FCA
:101B100062696C65534D53006E65742E776861740D
:101B2000736170702E5768617473417070000000AB
:101B3000636F6D2E66616365626F6F6B2E4D6573AB
:101B400073656E6765720000636F6D2E6661636515
:101B5000626F6F6B2E46616365626F6F6B00000092
:101B6000636F6D2E74656E63656E742E78696E009A
:101B7000636F6D2E74656E63656E742E6D7171008A
:101B8000636F6D2E74656E63656E742E6D6F626922
:101B90006C65717100000000542400205024002066
:101BA00090240020702400201D2400201E240020EA
:101BB000A0240020AE7A020074160200BE7A020051
:101BC000C3020000CE7A0200C6020000DE7A0200E4
:101BD000C9020000FFFF0000982400205D240020BF
:101BE000C1885C4A914208D000885B49884202D093
:101BF0005A49884201D1012070470020704710B532
:101C00000188574A937811290CD0564C2278072A1C
:101C10003CD213007B441B79DB189F44383D375678
:101C20005B606500052B2ED24F48FFF7D9FF0028D7
:101C300029D04E48FFF7D4FF002824D0302043435A
:101C40004B48484918180C8CC4804C8C04810A46B7
:101C50008C8C4481831CC98C2032818110899881AD
:101C60005089D88190891882D0895882108A9882A8
:101C7000508AD882908A1883D08A58833D4801229E
:101C80004178114341700020FFF7C8FE10BD1029B4
:101C9000FCD1FFF711FB10BD172901D01429FAD18F
:101CA0003148FFF79DFF00280CD03048FFF798FF20
:101CB000002807D0062020700320E0700A20607002
:101CC000A07010BDFFF7C2FA10BD3029FCD1FFF79C
:101CD0002EFB10BD3229FCD1FFF73FFB10BD33298D
:101CE000FCD1FFF796FB10BD3829FCD1E178002923
:101CF000F9D1FFF727FE10BD00B587B0194A127859
:101D0000062A02D0082007B000BD012300220029C6
:101D100002D069460B7101E069460A7169464A7151
:101D200048810220C8818A810B7201A8049002A810
:101D300001F0FCFB07B000BD0B480121C088DBE7C8
:101D40000A480121C088D7E701460B4800220088D5
:101D500095DF7047FFFF00000D120000E9C600008C
:101D6000622400207024002090240020A024002061
:101D7000EC2B00200C2400205E24002070B586B0DF
:101D8000002401940294039404940594FE490126CE
:101D90000E7069460C710C73FC4D0028298906D021
:101DA00028206A469082F0020143298105E0F84824
:101DB0006A469082F748014029811E206946C88200
:101DC00001A873DF002803D0F3A2F949FCF739FC1E
:101DD000288930432881F7480178314301702C70FD
:101DE00006B070BD10B5FF21EBA2EB31FCF729FC6A
:101DF00010BD10B50068002803D0012800D100BF35
:101E000010BDED483B21008876DF002804D0FF217B
:101E1000E1A2D631FCF715FCDC48E84A0189114003
:101E2000412211430181E64A00211170E54A1170F7
:101E3000E04A01241378234313700170817010BDB0
:101E400000B589B000200090019028216A461180D9
:101E500050215180042191804B21C900D1800590EF
:101E6000069069460291D8490391049103211175A6
:101E7000D6494989D1821076D5480790D54808902F
:101E800002A802F052FA002804D0FF21C2A2C331F6
:101E9000FCF7D7FB09B000BD00B5A1B00620029049
:101EA000CD4801680191406800903C2112A804F0DF
:101EB000F6FC3C2103A804F0F2FC02201290002062
:101EC00010A948730120088202A9159110A98885DC
:101ED00001A91C916946088568460B9003A912A8C0
:101EE00002F0AFF9002803D0ABA28D21FCF7A9FBCB
:101EF00021B000BD10B48FB0002108910A910B9160
:101F00000C910D910E9108AB1A7804231A4308AB7B
:101F10001A70B2A2099209226B461A855A850622C6
:101F20009A72B14A1A8101919A79F9231A40921C46
:101F30006B461B7900231C07240F6B461C715B79D1
:101F400001231C07240F10346B465C7152085200A9
:101F50009A7105910691079102AA039201AA04922F
:101F600014229A82D9821A83848803461E3303AAD4
:101F700008A92046A2DF0FB010BC704730B490B063
:101F80000022089208AD2B7801231B071B0F10338A
:101F90002B706B7801231B071B0F10336B70AB7812
:101FA000F92423409B1CAB7009920B920C920D926A
:101FB0000F922B7904252B4310252B4308AD2B7151
:101FC0008AA30A930D236D46AB85EB8508AB0E9370
:101FD0000623AB72894B2B810192AB7923409B1C6A
:101FE0002C7900242407240F2C716C7901242407F8
:101FF000240F10346C715B085B00AB710592069284
:1020000002AA039201AA04921422AA822A831231FC
:10201000079184880346163303AA09A92046A2DF44
:1020200010B030BC704710B48FB0002108910A91F5
:102030000B910C910D910E9108AB1A7804231A4361
:1020400008AB1A706EA2099207226B461A855A8550
:1020500006229A726C4A1A8101919A79F9231A40E0
:10206000921C6B461B7900231C07240F6B461C71C6
:102070005B7901231C07240F20346B465C715208E6
:1020800052009A7105910691079102AA039201AA42
:10209000049214229A82D9821A83848803460E33CA
:1020A00003AA08A92046A2DF0FB010BC704770B485
:1020B0008FB0002207926E46337F01231B071B0F50
:1020C00010333377737F01231B071B0F2033737784
:1020D000B37FF9252B409B1CB37708920A920B9291
:1020E0000C920E9208AE337810242343337047A32A
:1020F000099307236E463385738507AB0D9306233B
:10210000B371444BB3800092B4782C40A41C337854
:1021100000231B071B0F3370737800231B071B0F53
:10212000737063085B00B3700492059201AA029277
:102130006A46039214223282B28212310691848856
:10214000831D02AA08A92046A2DF0FB070BC704709
:1021500030B585B004460D46286820600020C04395
:10216000E0842946204614221231283004F0E4FA93
:1021700006206946887428480882174B08330FCB1D
:1021800003930292019149E01C240020A82400201E
:1021900064060000FFF700002E2E5C7365727669FE
:1021A00063655C626C655F696D617A652E630000D2
:1021B000B5040000502400205E24002071120000AD
:1021C000712400207224002000710200502D002094
:1021D000F31D0200E51D0200F07A02004E65772033
:1021E000416C657274000000243000004E65766F0B
:1021F000204669726D77617265000000233000002F
:102200004E65766F20527800223000004E65766F62
:10221000205478002130000020300000009004A9F4
:102220000231684663DF00281DD1221D04A9012068
:10223000A0DF002817D129462046FFF738FF0028E5
:1022400011D129462046FFF7EEFE00280BD1294682
:102250002046FFF793FE002805D129462046FFF7C8
:1022600049FE0028FFD105B030BD00B58BB000207D
:1022700000900190029003900490059006900790C2
:102280000890099001200007000F1030694608727D
:1022900001200007000F1030487201200007000FD6
:1022A0001030087300200007000FC87201200007DB
:1022B000000F1030487301200007000F10308873A2
:1022C00001200007000F1030487400200007000FA5
:1022D0000874F848FFF73CFF002803D0F64AC121F4
:1022E000FCF7AFF90BB000BD00B591B040216846D6
:1022F00004F0D5FAF1A1684601F0D6FFF1A104A8D7
:1023000001F0D2FFF1A108A801F0CEFFF0A10AA8C8
:1023100001F0CAFF01200007000F103008A908775C
:1023200000200007000F4877684601F0D6F9002822
:1023300003D0E14AA521FCF784F911B000BD00B536
:1023400085B001200007000F20300190E14804F023
:1023500075F982B2DF4901A87CDF002803D0D64A94
:102360005621FCF76EF9C12078DF002803D0D24A4D
:102370005A21FCF766F90020029003902820694654
:10238000088150204881042088814B20C000C881EA
:1023900002A87ADF002803D0C74A6521FCF751F96B
:1023A00005B000BD10B50020FEF759FE01F03CF865
:1023B0000120FFF733FB01F0CCFBFFF7C0FFFFF775
:1023C00093FFFFF752FFFFF767FDFFF739FDC248A4
:1023D000418D8022114341850120FFF7CFFC10BDC4
:1023E00070B50446BD4D2878A0421AD00020295C63
:1023F000A14208D1042809D204210A1A2818411C34
:1024000004F0FEF902E0401C0528F0D30422B34991
:10241000681C04F0F5F92C70B14801224178114391
:10242000417070BDF0B58BB001460024AD4EAE4A90
:1024300037780888012312891F4315287ED00ADCCB
:10244000AA4D01282B787AD010280DD0112829D038
:10245000122873D1A3E0172872D0192871D035281B
:1024600070D037286AD1A7E0A14889880180A149A6
:102470000878032801D2032008709F499A480A402F
:102480009E490A4302813770002141710A218170FF
:1024900068784006400E6870FB200340DF20034050
:1024A0002B70A5E0904F8879B871082801D10420DD
:1024B000787193488078FF2801D0FFF791FF874813
:1024C0000079FF2802D00420FEF79EFD8C4803F01F
:1024D00088F904462046002803D0774A8949FCF74A
:1024E000B0F800F0A1FF00218148C943018039897B
:1024F000854A384611404122114301818349002712
:102500000F7083490F70317801221143317029789F
:10251000FB221140DF22114007708770FD2001402F
:10252000297068784006400E68700820019001A963
:1025300002A87DDF69468888694D04E058E030E0F4
:1025400033E03FE03BE02026082816D90F7402A9AB
:10255000604804F04DF801200007000F20300A9079
:102560005C4804F06BF882B25A490AA87CDF2878EC
:1025700030432870FFF790FC3AE002A90F54554908
:1025800002A804F08FF9002832D002A9514804F0C3
:102590002FF8287830432870FFF77EFC28E000BF32
:1025A00026E0FD2003402B7022E0887900281FD10F
:1025B0005849032008701BE000F05EFF18E000F0AF
:1025C0005BFF15E08879002802D001280FD00FE0CA
:1025D0004D4845490240412002430A814B4A0020B0
:1025E00010704B4A107037700870887000E000BFA0
:1025F0002046002803D0304A4749FCF722F80BB0A8
:10260000F0BD70B5384CA078022801D20220A0702D
:10261000088B142817D108461A300546FEF7D3FB5D
:10262000002810D02A4684211420FEF73AFA002808
:1026300009D02089012189030843208129480122EA
:1026400001781143017070BDF0B408461A30264A73
:1026500002279378022B00D29770098B142926D178
:102660004178602923D10178002920D1C17800293F
:102670001DD01C4D81782A4C68780223274E627841
:10268000184301294ED023461B78032952D0042930
:1026900058D005295DD0072963D00A2969D00B29B4
:1026A00005D12E21317080210A4362706870F0BC20
:1026B00070470000502D0020982102004461797479
:1026C0006F6E0000323334353600000033380000BE
:1026D00030300000F826002004290020EC2B0020D8
:1026E0000C24002050240020A8240020582400207E
:1026F0005E2400201C240020FEF7000002120000CF
:10270000622400208F02000071120000712400205A
:102710007224002073240020FA0200007424002098
:10272000542400202821317020210A4362706870EF
:10273000F0BC70472921317001210B432370687070
:10274000F0BC70472A2131703B4323706870F0BCA5
:1027500070472B21317008210B4323706870F0BC47
:1027600070472C21317010210A4362706870F0BCF0
:1027700070472D21317040210A4362706870F0BCAF
:10278000704770B50446FE4D20262A891046D106B2
:102790003043002901DA28813EE02178002903D066
:1027A00093060BD5002070BD00202871B2432A810A
:1027B00014222146F34803F0BFFF1DE0FF2908D093
:1027C000EA78FE2A09D0521C91420BD028810120C0
:1027D00070BD102002432A8104E0012902D0288123
:1027E000012070BD287912214843E6491222401881
:1027F000801CA11C03F0A0FF2078E8702879401C01
:10280000C0B22871042807D12078FF2804D0288975
:1028100030432881012070BD002070BDF8B5084606
:102820001A300090D64CA278022A01D20222A2705D
:10283000098B14291DD14178F22918D0F32916D01B
:10284000F42914D0F52912D00A46203A212A11D3AE
:1028500001290FD045290DD00126891EB703CA4D85
:102860001E2913D2FFF78DFF012806D00BE0FFF7DA
:1028700088FFF8BDFFF785FFF8BD20893843208128
:10288000287830432870207A8006F5D481211420DE
:10289000009AFEF706F90028EED0208938432081FF
:1028A000287830432870F8BD088B02280AD1B44A32
:1028B0008B7E1089012B02D1C97E002903D0B34938
:1028C0000840108170470121490308431081B04836
:1028D000FD22017811400170704710B4088B022866
:1028E0000AD1A74A8C7E08231089012C02D1C97E07
:1028F000002903D09843108110BC70471843108101
:10290000A348FD2201781140017010BC704710B53A
:1029100084B00024891D0A8843899A4203D1FFF7B5
:10292000DCFF012416E0438B9A4202D1FFF7BCFF83
:1029300010E0C3899A4202D1FFF770FF0AE0C38B0F
:102940009A4202D1FFF780FE04E0C38A9A4201D185
:10295000FFF757FE002C1AD08E488078FF2816D03B
:102960008D480078042812D1002001900290039035
:1029700001206946087101A9864803F03DF908283D
:1029800005D0002803D0854A8549FBF75AFE04B0DC
:1029900010BD0021C943C18470478988C184704734
:1029A0000A88102A04D0112A03D0502A02D1AEE797
:1029B000F3E7EEE7704710B50446204603F0D7F979
:1029C00021467848FFF7ECFF204601F057FD2046EE
:1029D000FFF715F9204601F0E9F82046FFF722FD40
:1029E00010BD10B570481321008876DF04462046DC
:1029F000002803D0694A6D49FBF723FEE0B210BD01
:102A000070B506465E4C2189C80701D074DF03E02B
:102A1000880701D5FFF7E5FF0025002E06D05E48A8
:102A200005706348418D80229143418500F0FCFC94
:102A300000205D49C043088020895E49084020810C
:102A4000514801220178114301705148FB2201785D
:102A50001140DF2211402570A570FD221140017048
:102A600041784906490E417070BDF0B58BB0444DB8
:102A70002889400500284BDB45480078800747D46B
:102A80004D4802784D480178511A890640D00126F8
:102A900075E000210091019169468E7004A90291B0
:102AA00005A90391810914D069460C7D29898904FF
:102AB0004DD5A978022901D20221A970394A6B4665
:102AC000D18A19808006800E0490D08C6946A6DFDA
