:020000040001F9
:10D00000783D0020A5D10100BFD10100C1D10100B0
:10D010000000000000000000000000000000000010
:10D02000000000000000000000000000C3D101006B
:10D030000000000000000000C5D10100C7D10100C0
:10D04000C9D10100C9D10100C9D10100C9D1010074
:10D0500043E6010000000000D3E50100C9D1010052
:10D06000C9D10100C9D10100C9D10100C9D1010054
:10D07000C9D10100C9D10100C9D10100C9D1010044
:10D08000C9D1010047440200C9D10100C9D1010042
:10D0900061440200814F02006D5C0200C9D10100B1
:10D0A000C9D10100C9D1010000000000000000004A
:10D0B0000000000000000000000000000000000070
:10D0C00000F002F800F032F80CA030C8083824183C
:10D0D0002D18A246671EAB4654465D46AC4201D1B0
:10D0E00000F024F87E460F3E0FCCB64601263342B0
:10D0F00000D0FB1AA246AB46334318471CA10000E0
:10D100003CA100000023002400250026103A01D392
:10D1100078C1FBD8520700D330C100D50B607047EF
:10D120001FB5C046C0461FBD10B510BD09F007FFB2
:10D130001146FFF7F5FF01F051FC09F01FFF03B4A2
:10D14000FFF7F2FF03BC09F023FF0000401E00BF01
:10D1500000BF00BF00BF00BF00BF00BF00BF00BFD7
:10D1600000BF00BF00BFF1D17047000070B5054699
:10D170000C46164602E00FCC0FC5103E102EFAD218
:10D18000082E02D303CC03C5083E042E07D301CCDE
:10D1900001C5361F03E021782970641C6D1C761EC2
:10D1A000F9D270BD03210C4802680A4302600B48A3
:10D1B00002680A4302600A4880470A480047FEE7BF
:10D1C000FEE7FEE7FEE7FEE7FEE700000648074948
:10D1D000054A074B704700002405004054050040F5
:10D1E0006DD20100C1D0010078330020783D0020CD
:10D1F000783300202748018CC9B201290BD1818CDA
:10D20000090708D1018D0906090F042903D1808D72
:10D210000006000F01D000207047012070471D4913
:10D22000088CC0B201281DD1888C00071AD1088D46
:10D230000006020F03D18A8D1206120F03D0000FD1
:10D24000012802D005E0012070478A8D1206120FD6
:10D2500002D0032802D005E001207047888D000627
:10D26000000F01D0002070470120704710B5FFF774
:10D27000D6FF002805D0094907484860C813084967
:10D280008861FFF7B7FF002802D0064901208860B7
:10D2900010BD0000C00F00F0DFFF07C00005004018
:10D2A000006C00400006004002465D49087D0028F1
:10D2B00008D000200B181B79934204D0401CC0B248
:10D2C0000828F7D3FF20704718B404466946204663
:10D2D000E7DF694608788007800F009002280BD3AB
:10D2E0002046C5DF69462046E7DF684600788107AB
:10D2F000890F00910229F3D218BC704770B5002045
:10D30000FFF7D2FF0546FF2D11D0454C208840087D
:10D310004000208000206074A074E0742846FFF76D
:10D32000D3FFFF2061190871207D401C207570BD5E
:10D3300082B002783B49515C082905D110216A4628
:10D34000117000780821C7DF02B0704701783548B6
:10D35000085C002800D1D1E7704770B483B0044660
:10D360002178E0784E2803D04F2801D0502849D1A9
:10D370002B4D68180079002844D1687C00260028CD
:10D3800019D0C8B26B4601AA02A9D4DF6846008949
:10D39000002810D024494A8B824207D068804883F5
:10D3A0002248012201681203114301606E7428882B
:10D3B000012108432880287B617A884211D1687B4B
:10D3C000A17A88420DD1A87BE17A884209D1287CD4
:10D3D00000280ED0401EC0B22874002809D1EE7378
:10D3E00007E0207BE873F02801D9F020E8731020D3
:10D3F0002874607A2873A07A6873E07AA8730A2088
:10D40000A874EE7403B070BC70474178012904D051
:10D41000032903D0802902D19FE797E788E7704767
:10D42000C8250020CC250020342600201824002008
:10D43000FE48002101600121FD4A8905916000211B
:10D44000C9438160C16001617047F84A0023D3611C
:10D45000F8488168012903D000BF81680129FBD108
:10D4600083609069C0B27047F04AD061F14881682A
:10D47000012903D000BF81680129FBD1002181600F
:10D4800090697047E948192181601821C16017210E
:10D490000161012109074162E74A06215161012129
:10D4A000E34B8A05DA600160704700B5FFF7EAFFD9
:10D4B0000520FFF7D9FFFFF7C8FF0346FFF7B8FFC6
:10D4C000184600BD00B5FFF7F0FFC007C00F00BD54
:10D4D00070B504460E461546FFF7F4FF002804D049
:10D4E00000BFFFF7EFFF0028FAD1FFF7CBFF0320C3
:10D4F000FFF7BAFF2002000EFFF7B6FF2004000E70
:10D50000FFF7B2FFE0B2FFF7AFFF0024002D05D90F
:10D51000FFF79BFF3055641CAC42F9D3FFF788FF3F
:10D5200070BD08B504226946C448FFF7D1FF0098D2
:10D5300008BD0922C249C348CAE7C34880224169DD
:10D54000114300224271C27103228271012212032F
:10D5500011434161704700B5FFF794FF0620FFF7C4
:10D5600083FFFFF765FFFFF7A0FF8007F4D500BD3D
:10D5700070B50024FF25F535FFF7A4FF002805D07E
:10D58000012000F0D5FD641CAC42F5D370BD10B590
:10D590000403FFF7EDFFFFF7DEFFFFF773FF202027
:10D5A000FFF762FF2002000EFFF75EFF2004000E6F
:10D5B000FFF75AFFE0B2FFF757FFFFF739FF10BD43
:10D5C00070B506460D461446FFF7D2FFFFF7C3FFBE
:10D5D000FFF758FF0220FFF747FF3002000EFFF76A
:10D5E00043FF3004000EFFF73FFFF0B2FFF73CFFB0
:10D5F0000023002C05D9E85CFFF736FF5B1CA34233
:10D60000F9D3FFF715FF70BD10B590490C200860E5
:10D610000121874889058160C900816049108160C6
:10D62000C910C1608A48018D0422114301858649D1
:10D6300003208870052000F07BFD10BD10B584B07C
:10D640008348008D4007002803DA7F490320887053
:10D6500001E0FFF7D9FF00F063FB0020FFF797FF21
:10D66000082202A90020FFF733FF002002AC215C52
:10D67000FF2902D0002004B010BD401CC0B2082811
:10D68000F5D300202054401CC0B20828FAD3082249
:10D6900002A90020FFF794FF082269460020FFF747
:10D6A00017FF00206946225C0B5C9A4202D00020E2
:10D6B00004B010BD401CC0B20828F4D3012004B04F
:10D6C00010BD64480021016041608160C16001615A
:10D6D00041618161C161016241628162C1627047E1
:10D6E00010B558215C4808F068FC5C485A4902882B
:10D6F0000A8082788A70C078C8705548018D782277
:10D700009143018510BD50490872FF2248690132DA
:10D71000104300224A7103228A71CA79521ECA71CB
:10D7200001221203104348617047474AD079411CD7
:10D73000C9B2072802D25072D1717047507A0628B8
:10D7400004D0401C5072D171507ADCE70020507236
:10D75000F9E730B440490A8802808A788270CA7832
:10D76000C2703F4B5A6842601A6882609A68C26011
:10D77000DA6802614A6842618A688261CA68C26185
:10D780000A6902624A6942628A698262CA69C2623D
:10D790004A6A4263CA6A82630A6BC2634A6B026462
:10D7A0008A6B4264CA6B8264096CC1642D4A01466B
:10D7B000148940310C8254894C8294888C82D4889C
:10D7C000CC82147B0C76527B4A7600228A76204AE1
:10D7D000148D2407002C01DA01248C76148DE406C4
:10D7E00003D58C7E02252C438C76148DA40603D59C
:10D7F0008C7E04252C438C76128D520603D58A7EAE
:10D80000202422438A769A7FCA76DA7F0A77164ADC
:10D8100013784B7753788B779378CB77D1786030C8
:10D82000017011794170517981701FE0003500401D
:10D83000000500500031004040350040FCF03F0042
:10D8400008280020C0F03F00042400205C0700509E
:10D85000142A0020D42A00207C2A00204E240020F4
:10D8600034260020BC2A0020542600209179C17063
:10D8700030BC704730B4FE490A463CCA3CC00A4638
:10D8800010323CCA103810303CC04A6A2038096A4D
:10D890004262016230BC7047F0B5A7B0F54EF64D5C
:10D8A0007069002807D0288D400702D50320B0708A
:10D8B00001E0FFF7A9FE7069012701060024FF02BD
:10D8C000002918DAFFF7FEFD002812D17179EB4824
:10D8D0000818FFF75CFE7079401CC0B2707103211C
:10D8E000B171072805D1706980218843B47138432C
:10D8F000706127B0F0BDE24EC10517D5FFF7E2FD1C
:10D900000028F6D1DB4DDD48297A0818FFF73FFEE5
:10D910006879401CC0B268710321A9710128E8D15F
:10D920006869B0436861AC7127B0F0BD410535D579
:10D93000FFF7C8FD0028F7D1D2480579002D00D1A6
:10D9400018256D1ECB4ED049707A00034019471838
:10D95000012201A93846FFF7BBFD68460079FF2880
:10D9600013D10194012201A93846FFF729FEA8012D
:10D97000717A09030818C549441802A8FFF77AFF0D
:10D98000282202A92046FFF71BFE012170698902A7
:10D9900088437061FFF795FE27B0F0BD81051BD568
:10D9A000FFF790FD0028F7D164210CA808F005FBD3
:10D9B0000CA8FFF7CEFEAF4CB549607A00034018C3
:10D9C00064220CA9FFF7FCFD01216069490288432C
:10D9D0003843606127B0F0BD01050BD5FFF7A5FE08
:10D9E000FFF77EFEFFF76DFEA2484169B943416132
:10D9F00027B0F0BD9F4AC107202700297ED0D178EB
:10DA0000154600290DD0FFF75DFD00280ED02879BE
:10DA10000028EDD16869400840006861EC7027B0CB
:10DA2000F0BD40084000686127B0F0BDE8780128EB
:10DA30001CD0022821D0C10642D50407240F2002A1
:10DA4000944925904018FF2201329349FFF740FD89
:10DA500000218848914E42898F4D6B1858786F5C31
:10DA60000002C01990420ED1304611E08C48FFF7F9
:10DA70008EFD1020E87027B0F0BD8A48FFF787FDC3
:10DA8000EF7027B0F0BD904202D9B04200D0401EE6
:10DA90006854000A5870891CFF29DED9824A2598EB
:10DAA0008018FF2269180132FFF78AFD7148C1789A
:10DAB000491CC170082CE4D10221C17027B0F0BD0F
:10DAC000810624D505072D0F77482F0238183246D6
:10DAD0007149FFF7FDFC6F48381832466E49FFF771
:10DAE0006FFD64486349C078401CC870082DE5D1BB
:10DAF0000846416949084900C47000E00EE002226E
:10DB000011434161418A491E418227B0F0BD6869D5
:10DB1000400840006861EC7027B0F0BD1446C106B3
:10DB20000CD5FFF7CFFC0028F6D16069102188439F
:10DB30006061A069FFF72BFD27B0F0BD810613D50A
:10DB4000FFF7C0FC0028F7D1A06961780003490104
:10DB50004018FF3001306169B943616114225349B3
:10DB6000FFF72EFD27B0F0BD410624D5FFF7AAFC34
:10DB70000028F7D1A06900036169402291436161E7
:10DB80004C4A4B49134678CB483178C11346103381
:10DB900078CB5839583178C1956A546A136A683914
:10DBA000D26A0D67CC668B664A6730224831FFF730
:10DBB00007FD27B0F0BD410710D5FFF783FC002813
:10DBC000F7D16069042188436061E069FFF7DFFCF9
:10DBD000606908210843606127B0F0BD010717D5CF
:10DBE000FFF770FC0028F7D1E0690103E0891038E5
:10DBF000C217120F101800110002401832462E49A9
:10DC0000FFF7DEFC616908208143616127B0F0BD48
:10DC1000C10412D5FFF756FC0028F7D10121606935
:10DC20000903884360612548FFF7B1FC0121606961
:10DC300049030843606127B0F0BD810455D5FFF763
:10DC400041FC0028F7D101216069490388436061E4
:10DC500034221B491048FFF789FA1A481A4908F07C
:10DC600061F81A481A4901601A481B49016035E0F9
:10DC7000D42A002004240020142A0020F6030000E7
:10DC8000000100004E240020E0603F0000613F00E2
:10DC900000603F0000E03F00A8260020FFFF0000DA
:10DCA000FD030000FE03000000D03F00E827002035
:10DCB00060260020E0250020A8270020FF030000A8
:10DCC000342600206827002008280020A0270020F4
:10DCD00078563412A4270020190515203246FB4936
:10DCE000FB48FFF76DFC27B0F0BD4004FBD5FFF704
:10DCF000A5FC01280ED0288DF64908402885012171
:10DD00006069890388436061F34908783843087083
:10DD100027B0F0BD288D0121890208432885EEE750
:10DD200070B5EE4D287DC0070DD000247D26F6008D
:10DD3000FFF7B2FD287DC00705D00A2000F0F8F9F2
:10DD4000641CB442F4D3FFF713FC70BD10B5E44873
:10DD5000008DE24C4007002802DA0320A07001E0A9
:10DD6000FFF752FCFFF7DCFFDE48FFF710FC002056
:10DD70006082DD48A0810121606909030843606178
:10DD800010BDF0B5D54D6869810700292DDAC007AF
:10DD90002BD1FFF797FB002827D168690221884320
:10DDA00068610020A881FFF76DFB0320FFF75CFB93
:10DDB0003F20FFF759FBE020FFF756FB0020FFF75D
:10DDC00053FB0024C84EFFF740FB0746FFF73DFB1F
:10DDD0000002C019C549884202D1A889401CA88107
:10DDE000641CB442EFD3FFF723FBF0BD70B50646C9
:10DDF000BB48008D03254007B84C002801DAA57008
:10DE000001E0FFF701FC0121E170668160690843D0
:10DE10006061257170BDF8B504460E46FFF780FFBE
:10DE2000B34960004518FFF72DFB0320FFF71CFBEB
:10DE30002802000EFFF718FB2804000EFFF714FB62
:10DE4000E8B2FFF711FBA84FBC420BD2FFF7FDFA77
:10DE50000546FFF7FAFA00024019B04202D0641CEE
:10DE6000BC42F3D3FFF7E4FABC4201D39F48F8BDAC
:10DE70002046F8BDF8B500269948008D40070028D7
:10DE800003DA96490320887001E0FFF7BDFBFFF736
:10DE900047FFFFF7F7FA0320FFF7E6FA3F20FFF707
:10DEA000E3FAE020FFF7E0FA0020FFF7DDFA0024B4
:10DEB0008E4FFFF7CAFA0546FFF7C7FA0002451969
:10DEC000BD4203D06D1CB54200D92E46641C864865
:10DED0008442EED3FFF7ACFA3046F8BDF8B5FFF751
:10DEE000C9FF7E4D80B26882002815D0002400282A
:10DEF00012D97E4EA1B20020FFF78DFFB04207D0AD
:10DF0000000304226946FFF7E3FA0098401C04D09E
:10DF1000641C688A8442EDD3F8BDA0B2FFF766FFA7
:10DF20006869002806D0FFF7B7FCFFF72AFF686989
:10DF30000028F8D1688A8442DCD3F8BDF8B5684877
:10DF4000008D664F4007002802DA0320B87001E018
:10DF5000FFF75AFB0020F871FF2078720024654E0D
:10DF60002003801904226946FFF7B2FA0098401C8A
:10DF700003D0F879401CF87103E0787AFF2800D1CB
:10DF80007C72641C072CEBD3787AFF2805D0F979D2
:10DF9000891CF971FFF7B7FB1EE00025ED43002453
:10DFA0002003801904226946FFF792FA00980104C1
:10DFB000020AFF231B021A400A43000E1043A84224
:10DFC00001D205467C72641C072CE9D3F879401C09
:10DFD000F871787AFFF797FBFFF782FBFFF771FB89
:10DFE000F8BD0121444849058160444A032111607C
:10DFF00001218905C160C900C1608910C160490063
:10E00000C1603748018D04229143018570473C4926
:10E0100003200860091D08603A490860091F08606C
:10E02000DFE710B5FFF7F3FFFFF7EEFAFFF779FA36
:10E030003549884210D1FFF77CFA3422334924480D
:10E04000FFF746FAFFF77AFFFFF748FF234802225F
:10E0500041691143416110BD2C492D4808602D488C
:10E0600048602D4A8A602D4ACA600861492088822A
:10E070007A20C8826920088300224A832320887777
:10E08000AF20C87726484D2303704270BA238370AF
:10E090003C23C370822303714B234371FF2383719D
:10E0A000C271082303721E2343728272FE2088838A
:10E0B0008005C8620863FFF749FEFFF73EFA0522B4
:10E0C00018A11A48FFF752F810BD0000A82600203A
:10E0D00000F03F00FFFB000070240020042400201B
:10E0E000142A0020FE030000F6030000FFFF0000DA
:10E0F00000E03F0000603F00000500505C0700505A
:10E1000054070050640700501905152034260020DC
:10E1100040420F00581B000080841E00302A00007F
:10E12000542600204E65766F00000000082800206D
:10E130001921C9014843002802D0401E0028FCD103
:10E140007047F8B5F7490C2008600422081D0260EA
:10E15000F54904200860091D0860F44804210160A5
:10E16000F34904200860091D0860F2490860091D90
:10E170000860091D0860F04804210160EF4904208F
:10E180000860EF490860091D0860EE48042101603D
:10E19000ED4803250560ED4C8020E0602069C00556
:10E1A000C30FEB4EEB490020002B07D0338DEA4F15
:10E1B0003B4033850D604021E16007E0338D01274E
:10E1C0003F033B43338508607B010B60D54BE3493C
:10E1D0001D6001231E02E6600D60A3600B1D186028
:10E1E0001B1D1D60A2601A1D1060DD4B10221D60FA
:10E1F000A2601A1D1060DB4A10604861C86002F01E
:10E200004EFAD9480560001F05603002A06040103A
:10E21000A06000F0C1FCF8BD10B4D04B0322840014
:10E22000E41822608C00E3181A6001231A46824029
:10E23000C64882608B408360C260C36010BC704778
:10E2400010B4C64C032283001B191A6001231A461E
:10E250008240BE48C2608B408360826010BC7047C1
:10E2600010B4BE4C032283001B191A60012213460E
:10E270008340B64883608A408260C26010BC7047A9
:10E2800010B4B64C032283001B191A6001221346F6
:10E290008340AE48C3608A408260C26010BC704751
:10E2A00070B40446AD4B0C20A200D21810600020C0
:10E2B000002201252B46A54E8B404006000EB36080
:10E2C0003169E140C907C90F002900D02843F36034
:10E2D000521CD2B2082AF0D370BC7047F0B49C46EE
:10E2E0009E4C032385002F193B6000250124264600
:10E2F0008640964B8C40DE60110600D59E60194624
:10E300009C60CC6051060A0E6D1CEDB2082DF2D354
:10E31000614600290DD10C2139609C601969C1400A
:10E32000C807C00F002803D0DC60F0BC0120704794
:10E33000DC60F0BC00207047FFB50B9F099E0A9D72
:10E340001C4601990098FFF767FF0023029A019984
:10E350000098FFF7C3FF01281DD000232246019932
:10E360000098FFF7BBFF01281CD00024002D0BD91B
:10E37000325D3B4601990098FFF7B0FF012818D0A5
:10E38000641CE4B2AC42F3D301990098FFF758FF44
:10E39000012004B0F0BD01990098FFF751FF002063
:10E3A00004B0F0BD01990098FFF74AFF002004B0C7
:10E3B000F0BD01990098FFF743FF002004B0F0BDC5
:10E3C000FFB50A9E099D14461F4601990098FFF764
:10E3D00023FF0023224601990098FFF77FFF0128C1
:10E3E00025D00023324601990098FFF777FF0128D6
:10E3F00024D001990098FFF70FFF01200443224623
:10E40000002301990098FFF769FF01281DD000241F
:10E41000002D29D96E1E01990098FFF741FF38554C
:10E42000B44219D001990098FFF72AFF18E001992A
:10E430000098FFF705FF002004B0F0BD0199009897
:10E44000FFF7FEFE002004B0F0BD01990098FFF731
:10E45000F7FE002004B0F0BD01990098FFF700FF1F
:10E46000641CE4B2AC42D6D301990098FFF7E8FEF1
:10E47000012004B0F0BD08B5002003223B4B11463B
:10E48000009005F0EEFF002804D0FF2138A20231F1
:10E4900000F03FF908BD70B5394E01210022890313
:10E4A000306806F090F8002804D0FF2130A21A311D
:10E4B00000F02FF9264C208DC00411D401256D03E6
:10E4C00000222946706806F07EF8002804D0FF215B
:10E4D00027A2203100F01DF9208D2843208570BD32
:10E4E000208D28490840208570BD10B5264A01219D
:10E4F000234806F011F8002804D0FF211CA20A319D
:10E5000000F007F9214A0121214806F005F800280A
:10E5100004D0FF2116A2103100F0FBF8FFF7BBFF7B
:10E5200010BD0000200700502807005030070050A1
:10E53000340700504407005050070050680700504F
:10E5400070070050780700501C070050000500506D
:10E55000142A002018070050FFEF000000070050A9
:10E56000100700506C07005040070050142800208E
:10E570002E2E5C68617264776172652E6300000004
:10E5800030240020FFDF0000B3040200ED0502008C
:10E590003424002070B5334C206806F03DF8002884
:10E5A00004D0FF21304A373100F0B3F82F4D288DC9
:10E5B00080040DD5606806F02FF8002804D0FF21F4
:10E5C000294A3D3100F0A5F8288D294908402885C1
:10E5D00070BD70B52748C16B00292CD00021C163E4
:10E5E000254C6069254D8003800F11D1E0688003C0
:10E5F000800F0DD02869C006C00F002808D1204820
:10E600000078C00702D002F090F801E002F0CAF8EA
:10E61000A0698003800F0ED028694006C00F002833
:10E620000AD0A069032109040843A061154880228B
:10E6300001891143018170BDA06913490840A0619F
:10E6400070BD10B511488069C0B2114A00219160B7
:10E650000B490978C90702D002F09CF810BD02F0FE
:10E6600036F910BD3024002070E50100142A002086
:10E67000FFDF00004061004000070050000500502F
:10E680005B240020042B0020FFFF02000045004017
:10E690000041004010B52C20FE4900240C70491C9C
:10E6A000401E80B20028F9D11620FB490C70491C8D
:10E6B000401E80B20028F9D13420F8490C70491C62
:10E6C000401E80B20028F9D1F34908220A75FF22C2
:10E6D0000B181A71401C80B20B7D8342F8D887203A
:10E6E000EF49400108800020EE49C0430880EE4811
:10E6F00001F05BFEFFF795FCEC480480EC48032139
:10E70000C170EC493C20087010BD10B506F074F9DA
:10E7100010BD704708B500235022E749082007F0D4
:10E720006FFA002803D0E5A25921FFF7F2FF00207D
:10E7300000900090684660DF002803D0DFA26021CF
:10E74000FFF7E7FFE04807F079FA002803D0DBA2E3
:10E750006421FFF7DEFFDD4807F078FA002803D0D8
:10E76000D6A26821FFF7D5FFD94807F077FA00282D
:10E7700003D0D2A26C21FFF7CCFF08BD10B5C5486D
:10E78000018D8905002919DA018DD24A11400185D0
:10E79000D1480021C16003210904416101F078FFE3
:10E7A0000020CE49C0438860CD4910200860FFF7A3
:10E7B000F1FE0A20FFF7BCFC34DF10BD40DF00286B
:10E7C000FBD0BEA28421FFF7A4FF10BD0A4601467C
:10E7D000C4489EE700B583B0C3480A21007807F01B
:10E7E00033FC30306A461070303151700220029094
:10E7F000BE486B46008802AA0021A4DF002803D08F
:10E80000AEA2C321FFF785FF03B000BDF8B5B8493C
:10E810000869C006C00FFD26B64D00285BD0B6487B
:10E820000078002857D12878C20711D0B348007863
:10E83000002850D1287840084000287002F034F9B0
:10E840002878C007F6D101F063FF01F03EFF42E0F7
:10E85000820708D53040287002F051F901F058FFC6
:10E8600001F033FF37E0A6480068002806D002F028
:10E87000ACF901F04DFF01F028FF2CE0A14802881F
:10E88000A1480088824206D002F072F801F040FFF1
:10E8900001F01BFF1FE008698006C00F00281AD195
:10E8A0009A49087882070BD5994A9A4B12781B78B7
:10E8B000D21A9206920E202A0DD8304008700AE033
:10E8C0004008400008700021834841610321090489
:10E8D000C16001F0FAFE2878010707D5F72108404A
:10E8E00028708D4902200870FFF774FF28784107CF
:10E8F0006ED5FB21084028708848664C00780028B7
:10E900000AD08021864F01280FD0022830D003285A
:10E9100051D0042852D05BE0208D000501D402F0D4
:10E9200079F8012003F008FE52E0208D000609D49A
:10E93000208D08432085012003F006F838887949A6
:10E9400008403880208DC0050DD5774800894106E4
:10E9500004D500F037FA01F041FA39E0000737D466
:10E9600001F03CFA34E000F017F901F037FA2FE03B
:10E97000208D000609D4208D08432085012002F057
:10E98000E3FF3988674801403980208DC0050DD5E7
:10E9900065480089410604D500F014FA01F0A4F995
:10E9A00016E0000714D501F09FF911E000F0F4F82B
:10E9B00001F09AF90CE000F0FFF909E0012003F002
:10E9C000BBFD00F046FA208D012149020843208555
:10E9D0006878810701D530406870F8BD54495348C4
:10E9E0004860544980178860C2074A603B49886084
:10E9F00004204860FFF78EFEFFF73DFD02F09FFA0E
:10EA0000FFF748FEFFF79DFBFFF76FFD01F06CF984
:10EA100003F0A2FA06202ADF04202ADF01210620C3
:10EA20002BDF002804D0FF2124A28231FFF771FEE2
:10EA3000012104202BDF002804D0FF211FA28431F4
:10EA4000FFF767FE062026DF002804D0FF211BA267
:10EA50008631FFF75EFE042026DF002804D0FF2168
:10EA600016A28831FFF755FE62B601F046FE324D20
:10EA7000274E284F314C02F070FA286800287DD1CB
:10EA800030883988884279D11A48006800287DD1B9
:10EA90001C4855E0142A0020C825002034260020F8
:10EAA0004C240020762400204E2400204224002004
:10EAB000E42B002040240020C42900202E2E5C6D71
:10EAC00061696E2E63000000EF2402000BD4010088
:10EAD0000BE70100FFFD000000070050004300406D
:10EAE00080E100E0EFBEADDE5A24002000250020CA
:10EAF00000050050682400205C240020C52400206C
:10EB00006C24002064240020662400205B24002064
:10EB100062240020602400203B2400205824002090
:10EB2000C8240020BFEF0000042B0020DFFF07C037
:10EB300000050040006300401824002070240020DD
:10EB4000018813480088814220D11248006980065C
:10EB5000C00F00281AD0FFF711FEFFF757FE01F093
:10EB600049FA01F0B4FC01F047FD03F006FE6078BD
:10EB7000410606D5BF210840607000E006E002F0C3
:10EB8000DCF8FEF789FEFFF7FCF874E700BFE4E766
:10EB9000662400200005005070B584B00F211020BD
:10EBA000FFF74EFB0F2001250146019003AB3222F7
:10EBB00000951020FFF704FC4721684601730024EC
:10EBC00003AE202332220F211020009601950294DB
:10EBD000FFF7B2FB68460473212332220F21102075
:10EBE000009601950294FFF7A7FB68460473222361
:10EBF00032220F211020009601950294FFF79CFB12
:10EC000068460473232332220F21102000960195B9
:10EC10000294FFF791FB68460473242332220F21EC
:10EC20001020009601950294FFF786FB6846047356
:10EC3000252332220F211020009601950294FFF720
:10EC40007BFB684604732E2332220F21102000968E
:10EC500001950294FFF770FB68460473302332225B
:10EC60000F211020009601950294FFF765FB68467E
:10EC7000047332231A460F21102000960195029446
:10EC8000FFF75AFB68460473332332220F2110200A
:10EC9000009601950294FFF74FFB684604733823F2
:10ECA00032220F211020009601950294FFF744FBB9
:10ECB0005821684601733A2332220F211020009612
:10ECC00001950294FFF738FB0221684601733B234C
:10ECD00032220F211020009601950294FFF72CFBA1
:10ECE0000721684601733C2332220F211020009631
:10ECF00001950294FFF720FB1421684601733D2320
:10ED000032220F211020009601950294FFF714FB88
:10ED1000FC48018D2A021143018504B070BDF0B595
:10ED200085B0002468460474012504AE24233222F1
:10ED30000F211020009601950294FFF7FDFA684616
:10ED400004742E2332220F21102000960195029484
:10ED5000FFF7F2FAEB4F388DC0040AD56846047409
:10ED6000252332220F211020009601950294FFF7EF
:10ED7000E3FA172069460874202332220F2110205D
:10ED8000009601950294FFF7D7FADF48C477DF4871
:10ED90000482388D80040DD5DD48006805F03CFC08
:10EDA000002803D0DBA26F21FFF7B3FC388DDD49CB
:10EDB0000840388505B0F0BDD44840220189114390
:10EDC0000181ACE7F0B585B0D04D41212889884359
:10EDD00028814720694608740024012604AF2023B7
:10EDE00032220F211020009701960294FFF7A4FA17
:10EDF000C548C4772C82CC480470C24D288D40048D
:10EE0000400C2885288DC0040DD540206946087423
:10EE1000252332220F211020009701960294FFF73C
:10EE20008BFA05B0F0BD288D8004FAD40124B848CF
:10EE3000640300222146006805F0C5FB002803D0CA
:10EE4000B4A29421FFF765FC288D2043288505B0E6
:10EE5000F0BDF0B585B0AB4C208DB449084020859D
:10EE6000208D0025C004012704AE00280ADA684678
:10EE70000574252332220F21102001970096029558
:10EE8000FFF75AFA68460574202332220F2110201A
:10EE9000019700960295FFF74FFA208D80040DD55B
:10EEA0009B48006805F0B8FB002803D099A2B52163
:10EEB000FFF72FFC208D9B490840208505B0F0BD51
:10EEC000F0B49B494F7F8A790B7FCC780D794E79CE
:10EED000012F0FD0022F2FD01F0752D5A64207D9DE
:10EEE0000B46DC785B791B1B012847D0981888718A
:10EEF000F0BC7047DF060ED5AC42F9D98C4B1C79BB
:10EF0000DB781B1B012803D098188871F0BC704770
:10EF10008B71F0BC70479B06FBD5B442F9D9844B8A
:10EF20005C79DB781B1B012803D098188871F0BC32
:10EF300070478B71F0BC70471F070ED5A542F9D9F9
:10EF40007B4BDC781B791B1B012803D09818887138
:10EF5000F0BC70478B71F0BC70479B06FBD5B54287
:10EF6000F9D9734B5C791B791B1B012803D09818C6
:10EF70008871F0BC70478B71F0BC70478B71F0BC2E
:10EF80007047DB06FBD5AE42F9D9694B1C795B793A
:10EF90001B1B012803D098188871F0BC70478B7137
:10EFA000F0BC70475848018A491C0182C189C1825E
:10EFB0007047F3B581B00D46002D7DD05D4F5A4CA2
:10EFC0005048008D000478D5002020715A4801680F
:10EFD000491C016059494868401C48604B4A117AF5
:10EFE000C90707D05549CB685B1CCB60798A491C9F
:10EFF000798206E051498B685B1C8B60398A491C19
:10F0000039824F49496800290ED03E4B1E8D360784
:10F010000AD4884208D3188D082108431885494826
:10F02000402301781943017047493C200871019839
:10F03000002801D1FFF7B6FF1689B0070DD540486B
:10F040005168808A0918516007F076FF3C49C96A07
:10F0500007F0C2FF07F02CFF26E070070DD53848F7
:10F060005168C08A0918516007F066FF3449096B7E
:10F0700007F0B2FF07F01CFF16E0F0070AD0304897
:10F08000C08A07F059FF2E49096B07F0A5FF07F06A
:10F090000FFF09E02A48808A07F04EFF2849C96A15
:10F0A00007F09AFF07F004FF23494A6812184A60E4
:10F0B000224A5169091801E0F7E047E05161F3077E
:10F0C00006D0D3691B18D3617A6812187A6005E0FC
:10F0D00093691B1893613A6812183A601A4AD388E8
:10F0E0001818D0801648006800287DD0054A138D76
:10F0F000DB0679D4814277D3108D10210843108527
:10F10000CEE00000142A0020842B0020042B0020D5
:10F11000342400202E2E5C73656E736F7233672E5D
:10F1200063000000FFDF0000E42B0020FFFE000072
:10F13000C42B0020D42A0020402A00207C2A002052
:10F14000342600206C2400203C2400202078401C21
:10F15000C0B22070002121710C2845D1F748018DE3
:10F160000122D20311430185F54801680C31016089
:10F17000F44948680C304860F3490E89F10707D01C
:10F18000F049CA680C32CA60798A0C31798206E08B
:10F19000EC498A680C328A60398A0C313982EB4931
:10F1A000496800290ED0E54A138D1B070AD488420E
:10F1B00008D3108D082108431085E54840220178C6
:10F1C00011430170E3493C200871DF49B00711D5B4
:10F1D000DE480C22808A50434A6812184A6007F0C1
:10F1E000ABFEDA49C96A00E05AE007F0F5FE07F025
:10F1F0005FFE2CE070070FD5D4480C22C08A504324
:10F200004A6812184A6007F097FED049096B07F068
:10F21000E3FE07F04DFE1AE0F0070CD0CB480C21BE
:10F22000C08A484307F088FEC849096B07F0D4FE3E
:10F2300007F03EFE0BE0C5480C21808A484307F0EA
:10F240007BFEC249C96A07F0C7FE07F031FEBC4920
:10F250004A6812184A60BB4A516909185161F3079C
:10F2600006D0D3691B18D3617A6812187A6005E05A
:10F2700093691B1893613A6812183A60B54AD388AB
:10F280001818D080B1480068002809D0AB4A138D07
:10F29000DB0605D4814203D3118D10200143118573
:10F2A0006D1EEDB2002D00D08AE603B0F0BD30B483
:10F2B000A948417B827B891AC9B2C27B037CD21ADE
:10F2C000D2B2437C807C181AC4B2A448C3780579B2
:10F2D0004079AB421FD1834210D1914204D3A14265
:10F2E00002D330BC012070478A4204D3A24202D329
:10F2F00030BC0220704730BC03207047834207D9DE
:10F30000914202D330BC0120704730BC02207047CC
:10F3100030BC03207047AB4211D9834207D1A142D0
:10F3200002D330BC0120704730BC032070478342B9
:10F3300002D930BC0120704730BC032070478542A1
:10F3400007D1A24202D330BC0220704730BC032058
:10F350007047854202D930BC0220704730BC032080
:10F3600070477E48007F0107002901DA01207047BD
:10F37000C00601D50220704703207047884202D39F
:10F38000401A00B27047081A00B27047F0B585B055
:10F39000734BD889401CD8816B4E7249308A0491D6
:10F3A000002818D0401E80B23082002813D1634854
:10F3B000018D4904490C01850499002008706549B4
:10F3C0000C784A783118C031CC714A73CA74401C29
:10F3D000C0B20628F6D3604CE07F652801D2401CFD
:10F3E000E0775E4D2878652801D2401C2870687847
:10F3F000652801D2401C6870A878652801D2401C9D
:10F40000A8705148418980318EB28189803189B29A
:10F41000C089803082B2D87F039004287ED3A07840
:10F4200060708646E078A07002902079E070F6B2B5
:10F430002671B446029F7646F61960443018454E50
:10F4400080083070A6796671B646E779A771019792
:10F45000267AE671B446C9B22172019F7646F61942
:10F46000614471183B4E89087170A67A6672B6467F
:10F47000E77AA7720097267BE672B446D2B222736F
:10F48000009F7646F6196244B218324E9208B27066
:10F49000039E0127042E68D0637B834200D26073F1
:10F4A000E37B8B4200D2E173637C934200D26274AF
:10F4B000A37B834200D9A073237C8B4200D92174A3
:10F4C000A17C914200D9A2740022297FCB077DD074
:10F4D0006B7E83427BD2480840002877A07E60760E
:10F4E000697EA176FFF74AFFA17D88426FDB00208D
:10F4F000154B1918C0310E7ACE71401CC0B20528C8
:10F50000F7D31818697EC030C171A17E637E99421D
:10F510000FD2E07C88420CD9984200E08BE108D2FF
:10F5200028780C38582802D8E878401CE870002069
:10F530002870FFF716FF012862D069E0142A002026
:10F54000402A00207C2A0020042B002034260020A2
:10F550006C2400203C240020A42B0020C42B00207D
:10F56000842B0020E42B0020FFE70526DE77002314
:10F570002370EB702B716B71AB716373FF26A673F5
:10F58000E37326746374A674E374237563750F23A1
:10F59000A375E37523766076A076E17621776277AE
:10F5A000A2776876A976E97608232B776B7F002B04
:10F5B00022D0EB77AB77FD4B1E8D7604760C1E8543
:10F5C000049E002333709C46F94E01E01AE01FE0D0
:10F5D0006346F318C033D8715973DA7463465B1C01
:10F5E000DBB29C466346062BEFD36520E07728709C
:10F5F0006870A87005B0F0BD6F77AF77EF77DAE786
:10F60000012205E06B7E834202D93943297765E701
:10F61000287F810736D5E749AB7E49788B423AD2BD
:10F62000FD2108402877207FE076A97E2177FFF72B
:10F63000A5FEE17D88422EDB0020DD4B1918C0318C
:10F640008E7B4E73401CC0B20528F7D31818A97ED4
:10F65000C0304173207FE17E88420DD2237D8342FA
:10F660000AD98B4208D268780C38582802D82879F1
:10F67000401C287100206870FFF773FE02280AD131
:10F68000022208E0CB49AB7E49788B4203D90221A4
:10F6900008432877C7E7287F410736D5C549EB7E61
:10F6A00089788B423AD2FB2108402877A07F607787
:10F6B000E97EA177FFF762FE217E88422EDB0020E3
:10F6C000BB4B1918C0310E7DCE74401CC0B205284A
:10F6D000F7D31818E97EC030C174A07F617F8842DB
:10F6E0000DD2637D83420AD98B4208D2A8780C38A8
:10F6F000582802D86879401C68710020A870FFF76C
:10F7000030FE03280AD1032208E0AA49EB7E89785B
:10F710008B4203D9042108432877C7E7A54801781D
:10F7200069764178A9768078E876012A04D0022AA1
:10F7300019D0032A21D029E0A17E627E914225D2F0
:10F74000E07C884222D9904220D2E07F0C385828B1
:10F7500006D897489621018201210020FFF729FC55
:10F760000020E07712E0217FE07E81420ED2227DF0
:10F770008A420BD98242E8D308E0A17F607F8142B0
:10F7800004D2627D8A4201D98242DED32078401CB5
:10F79000C0B22070322800D02CE700262670607B93
:10F7A000A17B40184008E074E07B217C40184008B1
:10F7B0002075607CA17C4018400860750F20A07502
:10F7C000E0752076A87FE877687FA877FFF76FFD60
:10F7D0006877AA7F82421FD1E97F814206D002204A
:10F7E000FFF76EFBA9790120FFF7E3FBAE71287FDD
:10F7F000C72108402877697F012905D0022907D051
:10F800002021084328770AE008210843287706E0EA
:10F8100010210843287702E00120FFF751FBEE702A
:10F820002E716E716673FF20A073E6732074667488
:10F83000A07405B0F0BD604C03980655DC7F5F48AE
:10F840002154D97F5E480A54D87F401CD87705B030
:10F85000F0BDF0B400215B48554A0A23067ED35E12
:10F8600024250224ED430022002E04D0012E0ED0C8
:10F87000022E16D01EE0252B02DD0476012119E0B0
:10F880001A26F643B34215DB0121017612E0AB42A2
:10F8900002DA027601210DE0252B0BDD0476012131
:10F8A00008E0AB4202DA0276012103E01B2B01DA09
:10F8B000012101763E4F437E0C26BE5F002B04D013
:10F8C000012B0ED0022B16D01EE0252E02DD447631
:10F8D000012119E01A23DB439E4215DB0121417609
:10F8E00012E0AE4202DA427601210DE0252E0BDD58
:10F8F0004476012108E0AE4202DA4276012103E0BB
:10F900001B2E01DA01214176294F837E0E26BE5F30
:10F91000002B04D0012B0ED0022B16D01EE0252E7A
:10F9200002DD8476012119E01A23DB439E4215DBB8
:10F930000121817612E0AE4202DA827601210DE0E9
:10F94000252E0BDD8476012108E0AE4202DA8276B4
:10F95000012103E01B2E01DA012181761A481924C6
:10F960008378002B05D0012900D1847083785B1E39
:10F970008370012908D102718178002904D10C49D2
:10F980008A8A521C8A828470F0BC70470902014343
:10F9900008B200110105002903DA0F210903084309
:10F9A00000B2C117090F081800117047142A00206F
:10F9B000042B00203C240020A52B0020A92B002094
:10F9C000AD2B0020842B0020E42B0020F0B5B7B035
:10F9D0002F200126019004AB32220F210096102027
:10F9E000FEF7EEFC6946087CC006C00E04900622B5
:10F9F0005043A8210191009006AB32220F21102024
:10FA0000FEF7DEFC002400256946087C002821D989
:10FA1000FE4F06A802195178005DFFF7B7FF788105
:10FA2000D1789078FFF7B2FFB88151791079FFF75C
:10FA3000ADFFF881387A000702D5FFF70AFF01E031
:10FA4000FFF7A4FCA41DE4B26D1CEDB26846007C77
:10FA50008542DED3EE48008DC00442D5ED4C2079BE
:10FA6000401CC0B220710C283BD1002568460575AA
:10FA700005AF242332220F21102000970196029512
:10FA8000FEF75AFC684605752E2332220F211020FE
:10FA9000009701960295FEF74FFC402168460175DC
:10FAA000252332220F211020009701960295FEF7A0
:10FAB00043FCD74E308D80040DD5D748006804F044
:10FAC000ABFD002803D0D54AEF21FEF722FE308D92
:10FAD000D349084030852571CC4880220189914363
:10FAE000018137B0F0BDF0B583B0C84BCD491F8957
:10FAF0000A8A7B08888A5B00C64E0293F3788242AA
:10FB00003AD001252D04824203D9101A80B2019007
:10FB100003E0281A801880B20190CC8A488A844277
:10FB200002D9201A80B202E0281A001980B2032BF1
:10FB300000D196204C828A8206F0B3FF04460D461F
:10FB4000019806F0AEFF0022B74B06F0ADFF22464B
:10FB50002B4606F055FD06F06FFBAC490860B34A32
:10FB6000904203DB012007430F8101E002980881E6
:10FB70000020F07003B0F0BD032BFBD05B1CD8B2AB
:10FB8000F0700328F6D1A14902980881002008608E
:10FB900003B0F0BDF8B5A64CE078401CC0B2E070F0
:10FBA0000A287CD10025E570E088002878D0FF2164
:10FBB000693148439F4906F047FA07F0BDF907F05D
:10FBC0009FF89D4A9D4B06F06FFF06F035FB01271D
:10FBD000BF079B4EB84249DD94499A4F884245DDA4
:10FBE000B84201DC984F41E09849884201DC984FC7
:10FBF0003CE08122D2059749904201DC0F4635E076
:10FC0000954A904201DC954F30E041273F068842FB
:10FC10002CDD934A9349904201DC0F4626E0924A3C
:10FC2000B04201DC174621E0904B984201DC904F36
:10FC30001CE0904B984201DC8F4F17E08F4B9842AD
:10FC400001DC8F4F12E0B84201DC8E4F0EE08E4B8C
:10FC5000984201DA8D4F09E0884201DC8C4F05E0C3
:10FC6000904202DC8327FF0500E08A4F8A48007833
:10FC700007F062F9394607F0AFF907F041F8874A13
:10FC8000874B06F011FF06F0D7FA314607F060F80F
:10FC900007F036F8834A844B06F085FC01E022E049
:10FCA00020E006F0C9FA814907F096F907F000F95B
:10FCB0007F498A6882188A607E4A516A4118516277
:10FCC0007D4AD368C018D0607C488068002809D07D
:10FCD0004F4A138D9B0605D4814203D3108D2021FA
:10FCE00008431085E580F8BDF0B585B04848008D23
:10FCF0000125C0044027002404AE002844DA6846E9
:10FD00000474242332220F211020009601950294BE
:10FD1000FEF712FB684604742E2332220F211020B6
:10FD2000009601950294FEF707FB684607742523A9
:10FD300032220F211020009601950294FEF7FCFA62
:10FD40007F2168460174302332220F211020009653
:10FD500001950294FEF7F0FA6846047424233222D7
:10FD60000F211020009601950294FEF7E5FA21215B
:10FD70006846017432231A460F211020009601951F
:10FD80000294FEF7D9FA16E068460774242332225B
:10FD90000F211020009601950294FEF7CDFA4C2118
:10FDA000684601742E2332220F21102000960195FF
:10FDB0000294FEF7C1FA1549382208899043088158
:10FDC0004C828C8213484470002042005218D48226
:10FDD000401CC0B23C28F8D305B0F0BDF0B585B0EA
:10FDE0000A4908220889104330229043094F032210
:10FDF000FA7040084000088100240C600448008D1F
:10FE00000126C00404AD00287EDA59E0042B00204E
:10FE1000142A0020E42B00203424002014F10100D7
:10FE2000FFDF0000842B002000004940000020403C
:10FE30003C240020A08601006E6E4C4F58E2E33F48
:10FE40000000C04000004040333353400000604099
:10FE5000333373400000A040000090409A99C9409D
:10FE60006666A64000001041000020416666D6404C
:10FE7000000030410000E040000038410000F04048
:10FE800000004841000058419A9909410000604132
:10FE9000000070410000904154260020EC51B81E33
:10FEA00085EB913FFCA9F1D24D62403F00007A44BE
:10FEB000402A00207C2A0020D42A0020342600205A
:10FEC00068460474242332220F21102001960095E5
:10FED0000294FEF731FA684604742E2332220F2171
:10FEE0001020019600950294FEF726FA40216846FC
:10FEF0000174252332220F211020019600950294CF
:10FF0000FEF71AFA7F2100E022E0684601743023F0
:10FF100032220F211020019600950294FEF70CFA70
:10FF200068460474242332220F2110200196009584
:10FF30000294FEF701FA21216846017432231A4621
:10FF40000F211020019600950294FEF7F5F917E0B5
:10FF5000402168460174242332220F21102001968B
:10FF600000950294FEF7E8F94C21684601742E23AF
:10FF700032220F211020019600950294FEF7DCF941
:10FF8000C54A3C2050827C70948200204100891830
:10FF9000CC82401CC0B23C28F8D3C04804804480C6
:10FFA00084800A21515E2423DB430225BC48994208
:10FFB00001DA047604E0252901DD057600E0067605
:10FFC0000C21515E994201DA447604E0252901DDD5
:10FFD000457600E046760E21515E994202DA84763B
:10FFE00005B0F0BD252902DD857605B0F0BD867629
:10FFF00005B0F0BDF0B585B0A74F387A00060028EF
:020000040002F8
:1000000040DA002469460C74012504AE252332220F
:100010000F211020009601950294FEF78DF94020E3
:1000200069460874242332220F211020009601957E
:100030000294FEF781F94C20694608742E2332227F
:100040000F211020009601950294FEF775F9954D49
:10005000288D800410D4012693487603002231466F
:10006000006804F0B0FA002803D0904A9049FEF7E7
:1000700050FB288D304328858E48047138898021B3
:100080008843388105B0F0BDF8B5834D8A4E287A93
:100090008A4F0007874C00287EDAB86B401CB86393
:1000A000F069401CF061688A002855D0401E80B27B
:1000B0006882002850D1794FB888401CB8803046FB
:1000C000818D491C81857E490889401C08817D4AB3
:1000D0009078401C90703C2068823B20431E5E005C
:1000E00076194000F68A4019C682D8B20028F5D1A8
:1000F000AB8A0026EB82AE8263785B1CDBB2637056
:100100003C2B01D93C236370634B1B89DD0667D50B
:10011000614D9E062BD57E88761C7E80664F7E8D37
:10012000761C7E85CE88761CCE805179491C517113
:1001300000216278002A08D946007619B67D711828
:10014000C9B2401CC0B28242F6D8282905D9302055
:1001500083432B8100206070F8BD052901D2282A35
:10016000FAD3202083432B8100206070F8BD3E88A5
:10017000761C3E80504F3E8D761C3E858E88761CC8
:100180008E801179491C11716278322A13D30021B3
:1001900046007619B67D00E045E07118C9B2401CF2
:1001A000C0B28242F4D8052911D8202003432B8104
:1001B000002060700BE00021002A08D943005B1981
:1001C0009B7D5918C9B2401CC0B28242F6D828297A
:1001D000CCD9288910218843288100206070F8BD7F
:1001E000FD886D1CFD80344EF58D6D1CF5854D89A7
:1001F0006D1C4D81D178491CD17061780A29EED3EC
:100200000021254A4500AD18AD7D6918C9B2401CD2
:10021000C0B20A28F6D30A29E1D210200343138181
:1002200000206070F8BDFFF75EFCE07803282BD05B
:10023000F068401CF060B86A401CB8622249C96886
:10024000002909D0174A138D5B0605D4884203D3D1
:10025000108D402108431085287A1C49C00709D019
:10026000F86A401CF8623069401C3061088B401C01
:100270000883F8BD386B401C38637069401C70619E
:10028000C88A401CC882F8BDB86B401CB863F069CE
:10029000401CF061F8BDF7E6042B00204424002048
:1002A000842B0020142A00203424002014F10100A3
:1002B000FD040000E42B0020402A00207C2A0020BE
:1002C000BC2A0020F42A002034260020D42A002052
:1002D00010B50446FF219131204605F0B5FE0029F6
:1002E00009D06421204605F0AFFE002901D0A00707
:1002F00001D0002010BD012010BD10B586B0C8A1EE
:100300004A68096805920491C7A18C684B680A681D
:10031000C968029401930092039100220388591E38
:1003200089B2FF241934A14204D3FF39193989B2A3
:10033000A142FAD21C2903D31C3989B21C29FBD251
:10034000042905D3091F89B2521C92B20429F9D29B
:1003500004ACA25C511889B2072901D3C91F89B224
:1003600082786C46A45C611889B2072901D3C91F41
:1003700089B2C078401884B2072C03D3E41FA4B21A
:10038000072CFBD2032A07D31846FFF7A1FF00284A
:1003900002D0E0B206B010BD002C04D0641EA0B2A2
:1003A000C0B206B010BD0620FAE710B50446002022
:1003B000A071607120710120E070A0709E482080C3
:1003C0002046FFF79AFFE07110BD70B588B0024675
:1003D0009A48034678CB04960395029401934469A6
:1003E00003698069069405930790500001AB1C5A7D
:1003F000022A06D10846FFF76BFF002801D0641CD3
:10040000A4B2E0B208B070BD10B504462188A0784F
:10041000FFF7DBFF0146E078814202D0401CE0702C
:100420000BE00121E170A078401CC0B2A0700D2843
:1004300003D1A1702088401C20802046FFF75DFF7B
:10044000E07110BD10B58179491CC9B281713C2998
:100450002CD1002383714179491CC9B241713C29D7
:1004600013D1774C0122216892021143216043711C
:100470000279521CD2B20271182A06D103710122EC
:10048000520211432160FFF7BFFF6E490888002820
:100490000CD0401E80B20880002807D18720400180
:1004A000088069491022087810430870FFF772FB32
:1004B00010BD6649887A401C8872C00701D000BF11
:1004C00070476349088D0122104308857047F8B5CD
:1004D0005F4E308DC0077DD0308D400840003085A4
:1004E0005C48FFF7AFFFFFF7D6FE5B4808220178B4
:1004F0001143017059495A4D087800280AD0401E0E
:10050000C0B20870002805D12888800502D50020D7
:1005100002F047F853490878002801D0401E0870BF
:100520002878514F400711D5387806280ED14F4C06
:10053000207800280AD0401EC0B22070002805D1C3
:100540004B48C08801F0F4F90A2020704949012481
:100550000878002810D0401EC0B2087000280BD1C7
:100560003878062808D12878400705D4002001F003
:10057000E3FF288820432880308D000615D5288881
:100580000221C2070140D20F114301D041060CD510
:10059000C00403D5012001F0D7F902E0002001F0EA
:1005A000D3F928883449084028803449087800283D
:1005B00001D0401E087032490878002808D0401E3B
:1005C000C0B20870002803D12E4801782143017081
:1005D0002D4900E009E00878002806D0401EC0B28E
:1005E0000870002801D1FDF7FCFCF8BD1848018D0A
:1005F000022211430185704710B51548018D890706
:1006000000290CDA018D022291430185008DC0057D
:1006100005D51E48007A400601D4FFF7D7F910BD72
:10062000000503010604020000000303060104069E
:100630000205000305000000DF07000088700200CB
:10064000182400204C2400206C240020342A002090
:10065000142A00204E24002070240020C2240020F0
:10066000C82400208B240020882400208924002016
:10067000A82400208A240020BFEF0000C524002009
:100680003B2400206824002006240020042B0020A6
:10069000F64910208860F649002008607047F64946
:1006A0000320F44A086000211060101D0160F0482A
:1006B00002228260C1600122026192064262EF4A18
:1006C00007205061EE488160E2E7ED490020886034
:1006D000E749086001200860E4491020C8607047BD
:1006E000E4480021C160032212044261E548C27857
:1006F00052085200C2700171CAE7E2480021C1707D
:100700008171C1714171018141818181C181E7E7BD
:10071000D8480021416103221204C260D948012354
:10072000C2781A43C2700171704730B4D54C0121B0
:100730002079CF4D002814D0224651799279012892
:1007400015D0FE281AD0D04B1B18203B9B7FEB61A5
:100750004B406371521C904218D9FE20207130BC6E
:100760007047A420E8616071217130BC7047EA6174
:10077000514061710220207130BC7047BB4A10208B
:100780009060E961FF20207130BC7047401C2071EF
:1007900030BC7047BB480179FF2902D1002181712B
:1007A0009EE77047B7490879FF2808D0401C0871B8
:1007B0000979AF48012906D0FF21C1617047AB4AD2
:1007C00010209060F4E7A521C1617047F0B41429AE
:1007D00000D314218407A40FAA4E70893789C31B44
:1007E0009D06AD0E40235B1B4D1CAB4203D8F0BCF5
:1007F0000020C04370478B069B0EA4012343A34CEB
:100800002354401C8006800E70810020002909D9E5
:100810007389155CE5545B1C9B069B0E7381401C21
:100820008842F5D3B07AC01B8106890E4020401A59
:10083000142803D8F0BC0020C0437047F0BC00204F
:100840007047F0B5924A1778924E934B1146103F7D
:100850008C4C307849781D78072F0ED23B007B44B2
:100860001B79DB189F44030F090A132F210004236F
:1008700018433070217090786070F0BDA17008212D
:1008800008433070F0BD012108433070F0BD032DE6
:10089000FCD3521C14210020FFF798FF0028F5D04C
:1008A000E07802210843E070F0BD032DFCD3521C18
:1008B00014210120FFF78AFF0028F5D0E1780220FB
:1008C0000143E170F0BD022108433070F0BD00B576
:1008D0006C4B1979012912D01A465279022911D08C
:1008E000FF2913D042405A71694A5218203A507772
:1008F000D879801C814201D9FF20187100BDA52044
:10090000587100BD42405A71D87100BD904201D16A
:10091000FFF797FFFFF7E4FE00BD70B4594C802647
:10092000E389257B5D1B6D066D0E761B851CAE4233
:1009300003D870BC0020C0437047584D461CEE548D
:100940005B1C5B065B0EE9545B1C5906490EE1819A
:100950000021002809D9E389565CEE545B1C5B0634
:100960005B0EE381491C8142F5D370BC00207047C7
:10097000F0B4444CA089E689B0421FD0474F395C9F
:10098000491EC9B2A171401C4006400EA081142925
:1009900001D31420A0710020A579691C00290DD96C
:1009A000394A6D1CA1897B5C1354491C4906490EC8
:1009B000A181B14202D0401CA842F3D3F0BC7047E1
:1009C000F0B404462F4B19895889814202D1002086
:1009D000F0BC70472D4E705C491C8906890E198148
:1009E0008206920E142A02D91422D4210840002132
:1009F000002AEDD91D89755D65541D7A6D1CAD0603
:100A0000AD0E1D815F89BD42E2D0491C9142F1D3F8
:100A1000F0BC704730B585B0002400940194029476
:100A20000394049469460C7001254D7000A80722B8
:100A30001B49023005F00EFA6A4681211420FFF7A7
:100A40006CFF00940194029403940494FF2069467F
:100A500008704D706A4681211420FFF75EFF11482F
:100A6000018DEA021143018505B030BD000500503B
:100A70000045004000070050080700504045004076
:100A80000041004058240020EC2B0020162C0020B0
:100A9000012C00206824002038240020562C00203F
:100AA0004E240020142A002070B46B490320887162
:100AB0006A49802008706A48007848706948008D4B
:100AC000694B06060122022400251888002E05DA4B
:100AD000C60701D04A7002E04C7000E04D708D7086
:100AE000050400D58A70420402D58A7822438A70B0
:100AF0008004800C1880FF20C87070BC7047F8B567
:100B0000554909208871554E822030705748C07968
:100B10007070574F574C786800284ED06168002994
:100B20004BD06422504305F08FFA06F005FA524D7F
:100B3000A84200DD284606F0BBF9B070000AF0704C
:100B4000786900283BD02168002938D064225043BE
:100B500005F07AFA06F0F0F9A84200DD284606F022
:100B6000A7F93071000A7071786A002829D0A1684D
:100B7000002926D06422504305F066FA06F0DCF91D
:100B8000A84200DD284606F093F9B071000AF07122
:100B9000B86A002817D0E168002914D064225043B5
:100BA00005F052FA06F0C8F9A84200DD284606F022
:100BB0007FF93072000A7072F8BD0020B7E700209C
:100BC000CAE70020DCE70020EEE7234A042090710A
:100BD00022498320087050694870030A8B70030C07
:100BE000CB70000E087100205061704770B504464C
:100BF0002078194D00280FD104222049204605F005
:100C000063F8002804D0E878FB210840E87003E08E
:100C1000E87804210843E870E878400704D5217893
:100C2000032903D0FF290CD0012070BD14221449E0
:100C3000204605F049F8002801D0002070BD0120B1
:100C400070BD14220F49204605F03EF8002801D05F
:100C5000002070BD012070BD58240020EC2B002026
:100C600038240020142A0020C82400205426002004
:100C70007C2A00203426002000009643A270020047
:100C8000A6700200BA70020070B50C462278112AD4
:100C900016D0142A14D0152A02D0212A25D10FE00B
:100CA000C848042102880A430280C7480170C74926
:100CB00000200870C648012201781143017014E039
:100CC000C44A017891714178D17181781172C078EC
:100CD0005072C14DFF2902D0084601F05BF9A87897
:100CE000FF2802D0BB4920788880002070BD10B555
:100CF0001046002803D0B9A25D21FDF70AFD10BD02
:100D000070B50023FC22B949B94804F08DF8B94CFC
:100D1000B94D002802D1A06BA8420CD0FF22FC21C3
:100D2000B34805F023F9A563B44840224178114344
:100D30004170012070BD002070BD10B50023FC2261
:100D4000AB49AA4804F01FF8002803D0A3A27921D8
:100D5000FDF7DFFCA949BF2248781040487010BD5C
:100D6000F8B5002000909B4869460078087000257F
:100D70009F4F00260024385DA84201D1012602E0E1
:100D8000641C052CF7D3284604F096FE002815D0E5
:100D9000002E0FD00420021B3819411C05F0BEF8AC
:100DA000FF20387130206843C019801DFF22302198
:100DB00005F0DCF86D1C052DDBD3F8BD002EF9D154
:100DC0006846857004F0CCFB002803D083A2A121E3
:100DD000FDF79FFC30206843C019801DFF223021A1
:100DE00005F0C4F8E6E7F8B504460021009179491A
:100DF000684609780170052C1FD27D4E7F4F355D06
:100E0000052D17D26846857004F0AAFB002803D090
:100E100072A2CB21FDF77DFC30204543A819801D2F
:100E2000FF22302105F0A2F8FF20305579784020CC
:100E300001437970641C052CE1D3F8BD70B586B010
:100E40000124654804F0C1F9002803D063A2E3211E
:100E5000FDF75FFC03F048FE002803D05FA2E72106
:100E6000FDF757FC664842696649521C02D0096981
:100E7000406900E0486901266946CE80FC208880F0
:100E8000614800905949684603F06DFE002803D080
:100E900052A2F021FDF73DFCFFF732FF00250028AC
:100EA00001D0059600E0059505A804F059FA002840
:100EB0001AD0059605A804F053FA002804D0FF21A3
:100EC00046A20931FDF725FCFF220521484805F01F
:100ED0004DF8FF22F0214D4805F048F847484022E0
:100EE000417811434170002469460D824D821E20D5
:100EF000C881087C3043FD210840E32108400C30C4
:100F0000DF2108406946087407204874102088745F
:100F10003F4802900E7302A92E4804F0C6FA00283A
:100F200004D0FF212DA22131FDF7F3FBFFF718FFBD
:100F3000002C02D00420FFF756FF06B070BD10B59C
:100F40000121344A084604F025F8002804D0FF2186
:100F500022A23231FDF7DDFB10BD70B51A480078D2
:100F600004282DD12C4D2D4E28781A4C06280CD152
:100F70003078062809D36078410706D40421084355
:100F8000607000F0CDFC00F0CFFC3078062817D15F
:100F90002878062814D36078010711D40821084363
:100FA000607002F0DEFB02F0E0FB1D4C0222A08824
:100FB000002102F0DEFBA0880222012102F0D9FB11
:100FC00070BD0000C8240020382400208A2400209E
:100FD00068240020742400207A2400202E2E5C6DCA
:100FE00061696E5F626C652E6300000080240020E2
:100FF000D82C0020982D00201608142070240020E2
:101000000010001000000010EF0C0200DE2C002089
:10101000890C0200754F0200882400202025002042
:1010200038250020FD4907200870704738B5022098
:1010300069468870FA480880F84C6A460121608940
:1010400090DF002802D0FFF7EDFF38BD03202070AD
:1010500038BD38B50020F349F34ACB88EF4C9342B2
:1010600007D188886946401C08804880608993DFE2
:101070000AE0EE49CB88934206D188886946401C35
:1010800008804880608993DF002802D0FFF7CAFFFC
:1010900038BD0520207038BD30B4E5498978DF4C73
:1010A00080886081052923D230204143E148081817
:1010B0002146C5880D8405894D84831C45898D840E
:1010C0000A4680892032C88498891081D889508145
:1010D000188A9081588AD081988A1082D88A508242
:1010E000188B9082588BD0820120207030BC7047C2
:1010F00030BC9BE730B4C94C0146608992DF0028C0
:1011000001D030BC8EE70420207030BC704708B599
:10111000C18800290ED1818900290BD0BF4A418A9C
:101120009181808AD0816A46118050806846FFF79D
:10113000E1FF08BDFFF776FF08BDF8B5C1880A4694
:10114000FF3A0B3A01D0093211D1B6488088002805
:101150000AD0B9488088002806D0B4488088002882
:1011600002D0FFF776FFF8BDFFF75CFFF8BD00295E
:1011700002D0FFF757FFF8BD002200238189002924
:1011800021D9AE4DAE4EAF4F0A2159430A180E3247
:1011900000211488AC4201D1A24906E0B44201D139
:1011A000A54902E0BC4200D1A049002907D00C802B
:1011B00054884C8014898C800024E443CC805B1CD0
:1011C00081899942E0D89548002A09D011896A4658
:1011D000491C1180C08950806846FFF78BFFF8BD1D
:1011E00081896A461180C08950806846FFF782FF76
:1011F000F8BD10B5C1880A46FF3A0B3A03D0093250
:1012000001D0002902D0FFF70DFF10BD8189854A6A
:10121000864B00290FD00E3041888B4CA1420AD159
:1012200000889488411E8C4201D1D08003E09C88C4
:101230008C4200D1D880D1887B48814202D0D988A5
:10124000814202D1FFF705FF10BD744806210170ED
:101250000321C1700A21417081707C494878C2091C
:10126000F2D1802210434870714804F04DF90028F3
:1012700000D000BF0028E7D0FF2175A25131FDF753
:1012800048FA10BD00B589B064490978062902D032
:10129000082009B000BD00216A461171837A53719C
:1012A000C37A9371037BD371407B1072012050721B
:1012B00020239372D172604A93886A46538208232E
:1012C000D3829182107401A8069004A801F036FE22
:1012D00009B000BDF0B583B00546A8880090002491
:1012E000009800287EDD604E30462830029020387D
:1012F00001904A4F786909283FD203007B441B794B
:10130000DB189F44040A10161C22282E3B002819C3
:101310008079307001207861F9E028198079707047
:1013200002207861F3E028198079B0700320786199
:10133000EDE028198079F07004207861E7E0281941
:101340008079307105207861E1E028198079707129
:1013500006207861DBE028198079F0800720786129
:10136000D5E029198979F08809020843F08008201E
:1013700078610198B86100203882C8E0B8690299A4
:1013800088422FD2019988422CD32919897901707A
:10139000401CB861398A491C89B23982F2888A4274
:1013A0003BD100210170401CB8610520786178793B
:1013B0003A8A41012D480818019904F04BFD7879CB
:1013C000401CC0B2787101286CD10822274928A09E
:1013D00004F0F0FC002866D00622244927A004F07F
:1013E000E9FC00E098E000287ED008221F4925A0F3
:1013F00004F0E0FC002878D009221C4924A004F065
:10140000D9FC002872D00722184924A004F0D2FC8D
:1014100000286CD00522154946E078E08824002099
:1014200031F40000A8240020FFFF0000B8240020B1
:101430007A240020D82C0020B02400200D120000B7
:10144000F3D80000E9C60000022900007024002043
:101450002E2E5C736572766963655C626C655F6194
:101460006E63732E63000000142E0020D42D002024
:1014700057686174734170700000000057654368DD
:101480006174000046616365626F6F6B000000006D
:101490004D657373656E67657200000054776974FB
:1014A000746572002EE039E0FDA004F083FC002892
:1014B0006BD00A22FC49FDA004F07CFC002867D018
:1014C0000522F949FCA004F075FC00286DD0022229
:1014D000F549FBA004F06EFC002874D00A20387196
:1014E000F8480822017803E025E031E03DE049E0DA
:1014F00011430170F44802224178114341700020E9
:10150000786178717879012801D900207871641C9C
:101510000098844200DAECE603B0F0BD0520387193
:10152000E8488022417811434170E748022241781F
:1015300011434170E3E706203871E2488022417888
:1015400011434170E0480222417811434170D6E7CF
:1015500007203871DB484022417811434170DA4856
:101560000222417811434170C9E70B203871D548F8
:101570004022417811434170D348022241781143FF
:101580004170BCE708203871B9E709203871B6E727
:101590000D203871CB482022417811434170CA4850
:1015A0000222417811434170A9E70E203871C548E5
:1015B0002022417811434170C348022241781143EF
:1015C00041709CE7FFE70F203871BE4880224178C8
:1015D00011434170BC4802224178114341708EE7AB
:1015E000F8B500210C30B94B02889B889A4259D13A
:1015F0008388022B56D38279002A52D1B44CA2712F
:10160000C279E271077A2772467A66720023E36133
:10161000520746D4AB4AAB4B12785D78072F39D2CC
:101620003B007B441B79DB189F4420030C341C15C2
:101630002400A44B01252A431A70A64B03221A70DA
:10164000257120E09F4B02252A431A70A14B0422EA
:101650001A70257117E09B4A10231D435570032211
:10166000227110E001219C4A167013E00C212171B7
:10167000012108E004222271924A20231D43557063
:10168000944A09231370944A16708F4A022553789E
:101690002B435370012904D1FFF7F4FD0020606152
:1016A0006071F8BD8D4989888A42FAD18188022902
:1016B000F7D3FFF70FFEF8BD38B50221009184493A
:1016C00000240C70002825D06946854863DF002877
:1016D00003D0844A8449FDF71CF86D46691C834891
:1016E00063DF002803D07F4A8149FDF712F8A91C67
:1016F000804863DF002804D005217A4AC901FDF73C
:1017000008F8E91C7C4863DF002803D0754A7B4950
:10171000FCF7FFFF6E480484014644842031848432
:101720000C814C818C810C824C828C82754974486E
:10173000C8800839C8801031C8807349FB220878F6
:101740001040087038BDC1886D4A914208D00088A9
:101750006E49884202D06E49884201D1012070470B
:101760000020704710B501886A4A937811290CD07F
:10177000574C2278072A3CD213007B441B79DB1894
:101780009F44383D37565B606500052B2ED24F488D
:10179000FFF7D9FF002829D05048FFF7D4FF0028D1
:1017A00024D0302043435C48494918180C8CC4802D
:1017B0004C8C04810A468C8C4481831CC98C203259
:1017C0008181108998815089D88190891882D08927
:1017D0005882108A9882508AD882908A1883D08A38
:1017E00058834E4840224178114341700020FFF752
:1017F00063FF10BD1029FCD1FFF74EFC10BD172967
:1018000001D01429FAD13148FFF79DFF00280CD0F0
:101810003248FFF798FF002807D0062020700320E9
:10182000E0700A206070A07010BDFFF7FFFB10BDD4
:101830003029FCD1FFF76BFC10BD3229FCD1FFF73A
:101840007CFC10BD3329FCD1FFF7D3FC10BD382937
:10185000FCD1E1780029F9D1FFF7C2FE10BD00B537
:1018600087B01B4A1278062A02D0082007B000BDB4
:1018700001230022002902D069460B7101E069466C
:101880000A7169464A7148810220C8818A810B72B7
:1018900001A8049002A801F051FB07B000BD0000B0
:1018A000536B797065000000D42D00205961686F7A
:1018B0006F204D61696C0000476D61696C0000002C
:1018C000515100006C24002068240020A82400202E
:1018D00088240020392400203A240020B824002045
:1018E000CE700200501402007A020000DE70020086
:1018F0007D020000EE700200FE7002008302000014
:10190000FFFF0000B0240020752400200D1200000D
:10191000E9C600007A240020D82C00207024002082
:1019200006480121C0889AE705480121C08896E74A
:10193000014604480022008895DF7047A824002053
:10194000B82400207624002030B585B0002400940F
:101950000194029403940494FE4901250D70694694
:101960000C700C72002802D02820088202E0FA488D
:10197000694608821E2069464882684673DF00284F
:1019800003D0F6A2FB49FCF7C4FEFB4A10892843AA
:101990001081FA48017829430170147005B030BDF8
:1019A00010B5FF21EDA2EA31FCF7B3FE10BD10B572
:1019B0000068002803D0012800D100BF10BDF04806
:1019C0003B21008876DF002804D0FF21E3A2D53137
:1019D000FCF79FFEE848EB4A018911404122114380
:1019E0000181E94A00211170E84A1170E34A01249B
:1019F0001378234313700170817010BD00B589B056
:101A000000200090019020216A46118040215180E1
:101A100090804B21C900D1800590069069460291C3
:101A2000DB490391049103211175DA494989D18277
:101A30001076D9480790D948089002A802F079F9A1
:101A4000002804D0FF21C5A2C231FCF762FE09B014
:101A500000BD00B5A1B006200290D14801680191F7
:101A6000406800903C2112A804F0A7FA3C2103A88A
:101A700004F0A3FA02201290002010A9487301205C
:101A8000088202A9159110A9888501A91C916946AF
:101A9000088568460B9003A912A802F0D6F8002822
:101AA00003D0AEA28C21FCF734FE21B000BD10B4EF
:101AB0008FB0002108910A910B910C910D910E911C
:101AC00008AB1A7804231A4308AB1A70B5A209921E
:101AD00009226B461A855A8506229A72B44A1A81DF
:101AE00001919A79F9231A40921C6B461B790023C5
:101AF0001C07240F6B461C715B7901231C07240F04
:101B000010346B465C71520852009A71059106912F
:101B1000079102AA039201AA049214229A82D982FE
:101B20001A83848803461E3303AA08A92046A2DF2D
:101B30000FB010BC704730B490B00022089208ADCE
:101B40002B7801231B071B0F10332B706B7801239D
:101B50001B071B0F10336B70AB78F92423409B1CC1
:101B6000AB7009920B920C920D920F922B79042577
:101B70002B4310252B4308AD2B718EA30A930D2305
:101B80006D46AB85EB8508AB0E930623AB728D4B90
:101B90002B810192AB7923409B1C2C7900242407D4
:101BA000240F2C716C7901242407240F10346C71DC
:101BB0005B085B00AB710592069202AA039201AA30
:101BC00004921422AA822A83123107918488034640
:101BD000163303AA09A92046A2DF10B030BC704713
:101BE00010B48FB0002108910A910B910C910D91C6
:101BF0000E9108AB1A7804231A4308AB1A7072A22C
:101C0000099207226B461A855A8506229A72704AF3
:101C10001A8101919A79F9231A40921C6B461B791B
:101C200000231C07240F6B461C715B7901231C07E2
:101C3000240F20346B465C71520852009A71059152
:101C40000691079102AA039201AA049214229A8291
:101C5000D9821A83848803460E3303AA08A9204632
:101C6000A2DF0FB010BC704770B48FB00022079293
:101C70006E46337F01231B071B0F10333377737FAF
:101C800001231B071B0F20337377B37FF9252B40EC
:101C90009B1CB37708920A920B920C920E9208AE9C
:101CA00033781024234333704AA3099307236E46E5
:101CB0003385738507AB0D930623B371474BB38010
:101CC0000092B4782C40A41C337800231B071B0F10
:101CD0003370737800231B071B0F737063085B005E
:101CE000B3700492059201AA02926A4603921422EA
:101CF0003282B282123106918488831D02AA08A919
:101D00002046A2DF0FB070BC704730B585B00446E6
:101D10000D46286820600020C043E0842946204604
:101D200014221231283004F095F806206946887490
:101D30002B4808821A4B08330FCB03930292019170
:101D4000009004A90231684663DF002866D1221D95
:101D500004A947E038240020320300002E2E5C73D3
:101D60006572766963655C626C655F696D617A65F1
:101D70002E630000B7040000C02400206824002067
:101D800076240020711A0000892400208A24002073
:101D9000007102003C2E0020AF190200A1190200C0
:101DA000107102004E657720416C6572740000006E
:101DB000243000004E65766F204669726D7761723F
:101DC00065000000233000004E65766F20527800D9
:101DD000223000004E65766F2054780021300000DC
:101DE000203000000120A0DF002817D1294620461E
:101DF000FFF73AFF002811D129462046FFF7F0FEF1
:101E000000280BD129462046FFF795FE002805D172
:101E100029462046FFF74BFE0028FFD105B030BD14
:101E200000B58BB0002000900190029003900490C8
:101E30000590069007900890099001200007000F78
:101E400010306946087201200007000F10304872F8
:101E500001200007000F1030087300200007000F5A
:101E6000C87201200007000F1030487301200007DE
:101E7000000F1030887301200007000F10304874E5
:101E800000200007000F0874F848FFF73EFF002805
:101E900003D0F74AC021FCF73CFC0BB000BD00B5F5
:101EA00091B04021684604F088F8F2A1684601F03C
:101EB000FFFEF2A104A801F0FBFEF2A108A801F0C8
:101EC000F7FEF1A10AA801F0F3FE01200007000FC0
:101ED000103008A9087700200007000F48776846EF
:101EE00001F003F9002803D0E14AA421FCF711FC1A
:101EF00011B000BD00B585B001200007000F2030F3
:101F00000190E24803F034FF82B2E04901A87CDF8F
:101F1000002803D0D64A5521FCF7FBFBC12078DF0F
:101F2000002803D0D24A5921FCF7F3FB002002908D
:101F3000039020216A4611814021518190814B20DC
:101F4000C000D08102A87ADF002803D0C84A6421EB
:101F5000FCF7DFFB05B000BD10B50020FEF76EFFFB
:101F600000F06AFF0120FFF7A7FB01F0F9FAFFF785
:101F7000C1FFFFF794FFFFF753FFFFF76AFDFFF77D
:101F80003DFDC348018D8022114301850120FFF7EB
:101F9000DBFC10BD70B50446BE4D2878A0421AD0B7
:101FA0000020295CA14208D1042809D204210A1A80
:101FB0002818411C03F0B2FF02E0401C0528F0D3B2
:101FC0000422B449681C03F0A9FF2C70B2484022D7
:101FD00041781143417070BDF0B58BB001460024CB
:101FE000AE4EAF4A37781389088801221743152867
:101FF0007ED00ADCA84D01282A787AD010280DD08E
:1020000011282AD0122873D1A5E0172872D01928D8
:1020100071D0352870D037286AD1A9E0A1488988C5
:102020000180A1480178032901D2032101705808D9
:1020300040009E4908439A4908813770984800211A
:1020400041711E21817068784006400E6870FB2047
:102050000240DF2002402A70A6E0914F8879B871D3
:10206000082801D10420787191488078FF2801D098
:10207000FFF790FF87480079FF2802D00420FEF781
:10208000B2FE8B4803F0A1F804462046002803D096
:10209000774A8849FCF73DFB00F0CEFE00218148DD
:1020A000C94301803989844A38461140412211438D
:1020B0000181824900270F7081490F703178012218
:1020C000114331702978FB221140DF221140077043
:1020D0008770FD200140297068784006400E6870C6
:1020E0000820019001A902A87DDF6946888804E0E4
:1020F0005AE032E035E041E03DE00126714D360323
:10210000082816D90F7402A9604803F00BFE0120BD
:102110000007000F20300A905C4803F029FE82B2CD
:102120005A490AA87CDF286830432860FFF791FCF1
:102130003AE002A90F54554902A803F041FF0028D4
:1021400032D002A9514803F0EDFD286830432860E1
:10215000FFF77FFC28E000BF26E0FD2002402A7048
:1021600022E0887900281FD15749032008701BE01E
:1021700000F08AFE18E000F087FE15E0887900285C
:1021800002D001280FD00FE04B48454903404120C1
:1021900003430B81494A00201070494A1070377080
:1021A0000870887000E000BF2046002804D05F213E
:1021B0002F4AC900FCF7ADFA0BB0F0BD70B5384C32
:1021C0001E20A070088B142817D108461A30054627
:1021D000FEF70CFD002810D02A4684211420FEF7BB
:1021E0009CFB002809D02089012189030843208114
:1021F0002A48012201781143017070BDF0B40846ED
:102200001A30098B142926D14178602923D101780D
:10221000002920D1C17800291DD0204D81782C4C77
:1022200068780227294E62783843012915D0234661
:102230001B7803294ED0042954D0052959D00729E9
:102240005FD00A2965D00B2905D12E21317080215C
:102250000A4362706870F0BC7047282131702021F9
:102260000A4362706870F0BC704700003C2E00208A
:102270005C1D0200446179746F6E000032333435A6
:102280003600000033300000303000000828002005
:10229000142A0020D82C002070240020682400205C
:1022A000C0240020762400203824002002120000E0
:1022B0007A2400208E020000711A00008924002078
:1022C0008A240020182400208B2400208C24002045
:1022D0006C2400202921317001210B432370687088
:1022E000F0BC70472A2131703B4323706870F0BC0A
:1022F00070472B21317008210B4323706870F0BCAC
:1023000070472C21317010210A4362706870F0BC54
:1023100070472D21317040210A4362706870F0BC13
:10232000704770B50446FE4D20262A891046D10616
:102330003043002901DA28813EE02178002903D0CA
:1023400093060BD5002070BD00202871B2432A816E
:1023500014222146F34803F07DFD1DE0FF2908D03B
:10236000EA78FE2A09D0521C91420BD02881012024
:1023700070BD102002432A8104E0012902D0288187
:10238000012070BD287912214843E64912224018E5
:10239000801CA11C03F05EFD2078E8702879401CA9
:1023A000C0B22871042807D12078FF2804D02889DA
:1023B00030432881012070BD002070BDF8B508466B
:1023C0001A300090D64C1E22A270098B14290AD113
:1023D0004178F22908D0F32906D00A46203A202A6B
:1023E00005D2FFF79EFFF8BDFFF79BFFF8BD012662
:1023F000491EB603CC4D01271F290CD2FFF791FFD0
:10240000012805D12089304320812878384328705D
:10241000207A8006EAD481211420009AFEF77DFA02
:102420000028E3D020893043208128783843287061
:10243000F8BD088B02280AD1B94A8B7E1089012B7E
:1024400002D1C97E002903D0B849084010817047E5
:102450000121490308431081B548FD22017811404C
:102460000170704710B4088B02280AD1AC4A8C7EE8
:1024700008231089012C02D1C97E002903D098437A
:10248000108110BC704718431081A948FD220178C3
:102490001140017010BC7047A14A891D11610A8862
:1024A00043899A4200D1DDE7438B9A4200D1C0E7CD
:1024B000C3899A4200D181E7C38B9A4200D19DE63D
:1024C000C38A9A4200D179E670470021C943C1848A
:1024D00070478988C18470470A88102A04D0112A5D
:1024E00003D0502A02D1D7E7F3E7EEE7704710B5E3
:1024F0000446204603F0DAF821468E48FFF7ECFF49
:10250000204601F0BFFC2046FFF72CF9204601F0E1
:1025100054F82046FFF760FD10BD10B58648132122
:10252000008876DF04462046002803D0834A844989
:10253000FCF7EFF8E0B210BD70B50646784C218983
:10254000C80701D074DF03E0880701D5FFF7E5FF76
:102550000025002E06D07B4805707B48018D802227
:102560009143018500F068FC00207349C043088056
:1025700020897649084020816B4801220178114367
:1025800001706B48FB2201781140DF221140257059
:10259000A570FD221140017041784906490E417035
:1025A00070BD00B585B06449694A0988914222D05E
:1025B0000022029203926B461981594B0028198917
:1025C00008D06846428101204002014319811E2043
:1025D000987005E00C206A4650815E4801401981E0
:1025E00001A8039002A9202068DF002803D0534AE5
:1025F0005949FCF78EF805B000BDF0B58BB0484DD9
:1026000028894105002912DB4949097889070ED438
:1026100052490A7852490B78D21A920607D0AA7802
:10262000002A06D0800504D40120FFF7BAFF0BB0C2
:10263000F0BD01266FE000210091019169468E7086
:1026400004A9029105A90391810911D069460C7D65
:102650002989890447D51E21A970364A6B46D18A3B
:1026600019808006800E0490D08C6946A6DF3BE07E
:102670006846047D287A000709D51E20A8702D49D8
:102680006A46C8881080C88C6946A6DF00E0002032
:1026900000280BD0334988421AD13148078024489A
:1026A00002220178114301700BB0F0BDFF2C32D132
:1026B00028890122C10BC9039203024011432AD089
:1026C0008004800C2881184801783143017022E091
:1026D00028890121C903084328811348017831431F
:1026E00001700BB0F0BD0020002803D01D498842C6
:1026F000EED1D2E7FF2C0ED128890122C10BC903EC
:1027000092030240114306D08004800C28810648C1
:1027100001783143017012480078C7B205A823E060
:10272000C0240020782E002068240020FFDF000055
:10273000702400203C2E0020762400205C1D020026
:102740006104000038240020142A0020301A000000
:10275000FFFF0000FFFD0000840400006224002051
:102760006024002004300000FEF72AF980B20490B3
:10277000810600D05FE70BB0F0BDF0B59DB0F94821
:10278000007AC00600287BDAF74D04266A782846CE
:1027900080781C90F22A2ED0F448F32A006838D0B2
:1027A0002846C1781B918179037A012A37D0EF48F6
:1027B000B402006820431A90ED48022A878B60D04B
:1027C000EC480646C48FE7483E3600787588411CC1
:1027D000C9B28C4641004118202A7DD0212A7CD0E4
:1027E000222A7BD0232A7AD0262A79D0242A78D08C
:1027F000252A77D0F7E0E0481C990078002903D01B
:10280000DD4930430870EEE0DB49FB2210400870E0
:10281000E9E00122D549920310430860E3E01B98E8
:10282000D64C00021C9A801820802879A070687904
:10283000E0702171E8796071A3712046FDF75DFDBC
:10284000CF48018D0122D20211430185CD48228853
:1028500001888A4207D1A1788278914203D1E17838
:10286000C078814243D0C8480178491C0170C748EC
:102870000078FAF748FFFAF733FFFAF722FFB2E0E1
:10288000B6E0C34ABA48174087831C9A002A01D091
:1028900037438783002903D0818B0822114381832A
:1028A000A97A002903D0818B102211438183A97B4F
:1028B000002903D0818B202211438183A97C002928
:1028C00003D0818B402211438183A97D00290BD045
:1028D000818B8022114306E00AE018E036E04FE0E9
:1028E0005DE065E06DE08183A0491A9808607AE0B8
:1028F0009F4AD48315849D4A1A9B1360994A1E28C7
:1029000071D2A44B20205854604610706BE0984A56
:102910009482D582B4881483BC08A4009483DD0714
:1029200002D001252C4394839B0703D5938B02246B
:10293000234393838D4A1A9B13608A4A1E2852D2DE
:10294000944821234354604610704CE0894B884AD8
:102950001C464034F0CCF0C2103A1B6D13618E4A15
:102960001C9B93711B9BD371804A1A9B13607D4AF9
:102970001E2838D28748222343546046107032E024
:102980007B4A54849584794A1A9B1360754A1E28A1
:1029900029D28048232343546046107023E0714AB3
:1029A0001E2820D27B4B26205854604610701AE017
:1029B0006C4A1E2817D2774B24205854604610705A
:1029C00011E0684A1E280ED26F481C9B0078834293
:1029D00009D27048252343540023081843701C99DA
:1029E0008170604610705F48102102898A4302811D
:1029F0005C4CF2222789F323F805002870DA674837
:102A0000007880076DD466480021C1600161416192
:102A10008161C1616078262842D006DC0322614BC7
:102A2000242857D0252804D10DE1F2280DD0F32811
:102A300027D05D4AE16811705070012919D0E06813
:102A4000401CE060FF287DD075E15749E0680870C0
:102A50004A7000280DD1554A508988700012C870FC
:102A60009089087100124871D08988710012C8716C
:102A7000E5E74D48FF21017020894D49084020813C
:102A8000DDE7494AE068107053700028F1D13C48F6
:102A9000008D400502D501209070D0E79170CEE7FF
:102AA0004149E068087026224A700028E1D1354883
:102AB00040688870020ACA70020C0A71000E4871E0
:102AC0002B4840688871020ACA71020C0A72000E13
