:020000040001F9
:10D00000903C0020B5D10100CFD10100D1D1010069
:10D010000000000000000000000000000000000010
:10D02000000000000000000000000000D3D101005B
:10D030000000000000000000D5D10100D7D10100A0
:10D04000D9D10100D9D10100D9D10100D9D1010034
:10D050008BE30100000000001FE301004BE501002D
:10D06000D9D10100D9D10100D9D10100D9D1010014
:10D07000D9D10100D9D10100D9D10100D9D1010004
:10D08000D9D10100334B0200D9D10100D9D101001F
:10D090004D4B02008D56020025640200D9D10100DB
:10D0A000D9D10100D9D1010000000000000000002A
:10D0B0000000000000000000000000000000000070
:10D0C00000F002F800F03AF80CA030C80838241834
:10D0D0002D18A246671EAB4654465D46AC4201D1B0
:10D0E00000F02CF87E460F3E0FCCB64601263342A8
:10D0F00000D0FB1AA246AB46334318472CAC0000C5
:10D100004CAC00000023002400250026103A01D377
:10D1100078C1FBD8520700D330C100D50B607047EF
:10D1200010B5782902D109F0E7F910BD002010BD33
:10D130001FB5C046C0461FBD10B510BD0AF061FC4A
:10D140001146FFF7F5FF01F0D9FC0AF079FC03B4B2
:10D15000FFF7F2FF03BC0AF07DFC0000401E00BF99
:10D1600000BF00BF00BF00BF00BF00BF00BF00BFC7
:10D1700000BF00BF00BFF1D17047000070B5054689
:10D180000C46164602E00FCC0FC5103E102EFAD208
:10D19000082E02D303CC03C5083E042E07D301CCCE
:10D1A00001C5361F03E021782970641C6D1C761EB2
:10D1B000F9D270BD03210C4802680A4302600B4893
:10D1C00002680A4302600A4880470A480047FEE7AF
:10D1D000FEE7FEE7FEE7FEE7FEE700000648074938
:10D1E000054A074B704700002405004054050040E5
:10D1F000B9D20100C1D0010090320020903C002043
:10D20000903200203D49088CC0B2012814D1888C8E
:10D21000000711D1088D0006000F0A2803D18A8D5E
:10D220001206120F02D00D2802D005E0012070472F
:10D23000888D0006000F01D0002070470120704744
:10D240002E48018CC9B201290BD1818C090708D164
:10D25000018D0906090F042903D1808D0006000FF6
:10D2600001D000207047012070472449088CC0B2CB
:10D2700001281DD1888C00071AD1088D0006020FE5
:10D2800003D18A8D1206120F03D0000F012802D09D
:10D2900005E0012070478A8D1206120F02D0032884
:10D2A00002D005E001207047888D0006000F01D0F4
:10D2B000002070470120704710B5FFF7D6FF002807
:10D2C00005D010490E484860C8130F498861FFF720
:10D2D000B7FF002802D00D4901208860FFF792FFB8
:10D2E00000280AD00A480168012904D009490160D0
:10D2F00001680129FCD1C021416110BDC00F00F0BF
:10D30000DFFF07C000050040006C00400006004041
:10D3100000EC06407593000002465D49087D002838
:10D3200008D000200B181B79934204D0401CC0B2D7
:10D330000828F7D3FF20704718B4044669462046F2
:10D34000E7DF694608788007800F009002280BD33A
:10D350002046C5DF69462046E7DF6846007881073A
:10D36000890F00910229F3D218BC704770B50020D4
:10D37000FFF7D2FF0546FF2D11D0454C208840080D
:10D380004000208000206074A074E0742846FFF7FD
:10D39000D3FFFF2061190871207D401C207570BDEE
:10D3A00082B002783B49515C082905D110216A46B8
:10D3B000117000780821C7DF02B070470178354846
:10D3C000085C002800D1D1E7704770B483B00446F0
:10D3D0002178E0784E2803D04F2801D0502848D13A
:10D3E0002B4D68180079002843D1687C002600285E
:10D3F00018D0C8B26B4601AA02A9D4DF68460089DA
:10D4000000280FD024494A8C824206D06880488484
:10D41000224820220178114301706E74288801216E
:10D4200008432880287B617A884211D1687BA17AE1
:10D4300088420DD1A87BE17A884209D1287C002856
:10D440000ED0401EC0B22874002809D1EE7307E048
:10D45000207BE873F02801D9F020E87310202874AD
:10D46000607A2873A07A6873E07AA8730A20A87497
:10D47000EE7403B070BC70474178012904D00329D1
:10D4800003D0802902D1A0E798E789E77047000020
:10D49000AC250020B0250020C42500200C2400204D
:10D4A0000021FE4801600121FD4A890591600021AB
:10D4B000C9438160C16001617047F84A0023D361AC
:10D4C000F8488168012903D000BF81680129FBD198
:10D4D00083609069C0B27047F04AD061F1488168BA
:10D4E000012903D000BF81680129FBD1002181609F
:10D4F00090697047E948192181601821C16017219E
:10D500000161012109074162E74A062151610121B8
:10D51000E34B8A05DA600160704700B5FFF7EAFF68
:10D520000520FFF7D9FFFFF7C8FF0346FFF7B8FF55
:10D53000184600BD00B5FFF7F0FFC007C00F00BDE3
:10D5400070B504460E461546FFF7F4FF002804D0D8
:10D5500000BFFFF7EFFF0028FAD1FFF7CBFF032052
:10D56000FFF7BAFF2002000EFFF7B6FF2004000EFF
:10D57000FFF7B2FFE0B2FFF7AFFF0024002D05D99F
:10D58000FFF79BFF3055641CAC42F9D3FFF788FFCF
:10D5900070BD08B504226946C448FFF7D1FF009862
:10D5A00008BD70B50024FF25F535FFF7C3FF00283F
:10D5B00005D0012000F062FC641CAC42F5D370BDC4
:10D5C00010B5BB490C2008600121B5488905816070
:10D5D000C900816049108160C910C160B548418DA2
:10D5E000042211434185B44903200870052000F04E
:10D5F00045FC10BD08B5AF48408D4007002803DA50
:10D60000AD490320087001E0FFF7DAFFFFF7C9FF1B
:10D6100004226946A948FFF793FF01206946087074
:10D62000009808BD0922A649A64889E710B584B02C
:10D6300002A86C4671DF6846807A01026846407A2B
:10D6400041180A05120DA0A1204608F019FF204636
:10D6500004B010BD9E4B0121187808439649002262
:10D660004A708A7020210843187070479948002139
:10D67000016041608160C160016141618161C1619E
:10D68000016241628162C162704710B558219248BF
:10D6900009F07FF99148904902880A8082788A705F
:10D6A000C078C8708348418D78229143418510BD70
:10D6B0008149C870864B02221878104300224A70B4
:10D6C0008A78521E8A702021084318707047F0B57E
:10D6D00083B07848408D784E4007002802DA032056
:10D6E000307001E0FFF76CFF0020B070FF20307158
:10D6F00000247B4D20034019042202A9FFF720FFDC
:10D700000298401C03D0B078401CB07003E0307920
:10D71000FF2800D13471641C072CEAD33079FF282C
:10D7200005D0B178891CB170FFF7C2FF1FE0002758
:10D73000FF430024FF252D02694821030818042215
:10D7400002A9FFF7FDFE02980204010A29401143D5
:10D75000000E0843B84201D207463471641C072CFE
:10D76000EAD3B078401CB0703079FFF7A1FF307970
:10D77000002816D0401E010359480422081802A9A7
:10D78000FFF7DEFE0298411C1DD06A461080010C96
:10D790009170000ED070684602F019FF012802D087
:10D7A00011E00620E7E7684602F0BEFE69464B48F6
:10D7B000098801806946897881706946C978C17095
:10D7C0006946C979C171FFF760FFFFF74FFF03B0EA
:10D7D000F0BD0121324849058160354A03211160BD
:10D7E00001218905C160C900C1608910C16049007B
:10D7F000C1603048418D04229143418570473949C9
:10D8000003200860091D086037490860091F086087
:10D81000DFE710B5FFF7F3FFFFF7D2FEFFF7B9FE22
:10D820003249884209D1FFF7FDFE3822304931489C
:10D83000FFF786FEFFF74BFF10BD2D492E4888608D
:10D840002E48C8602E4A0A612E4A4A6188614920E2
:10D8500088837A20C8836920088400224A842A4861
:10D8600023230372AF2343724D238372C272BA2300
:10D8700003733C234373822484734B24C473FF24B7
:10D8800004744274082484741E24C4740275FE2037
:10D890008884800508604860CB8437E0003500400C
:10D8A000000500500031004040350040FCF03F00D2
:10D8B0005C070050082900200424002000303F00AD
:10D8C000FC260020C0F03F00253033580000000047
:10D8D0000C240020E42900208C290020382400207A
:10D8E00000603F00540700506407005013041720E5
:10D8F000C425002000F03F0040420F00581B0000EC
:10D9000080841E00302A0000E4250020FFF7A2FEDC
:10D91000F648F7A10A8802874A8842878988818762
:10D92000FFF784FE0146F44808F074FF10BD00B50F
:10D93000FFF7E0FD0620FFF7CFFDFFF7B1FDFFF792
:10D94000ECFD8007F4D500BD10B50403FFF729FEF8
:10D95000FFF7EDFFFFF7CEFD2020FFF7BDFD200212
:10D96000000EFFF7B9FD2004000EFFF7B5FDE0B291
:10D97000FFF7B2FDFFF794FD10BD70B506460D46EA
:10D980001446FFF70EFEFFF7D2FFFFF7B3FD0220AC
:10D99000FFF7A2FD3002000EFFF79EFD3004000EDF
:10D9A000FFF79AFDF0B2FFF797FD0023002C05D991
:10D9B000E85CFFF791FD5B1CA342F9D3FFF770FD14
:10D9C00070BD10B584B0CD48408D4007002803DA03
:10D9D000CB490320087001E0FFF7F2FDFFF7E1FDFE
:10D9E0000020FFF7B1FF082202A90020FFF7A8FDE1
:10D9F000002002AC215CFF2902D0002004B010BD41
:10DA0000401CC0B20828F5D300202054401CC0B2EE
:10DA10000828FAD3082202A90020FFF7AEFF082247
:10DA200069460020FFF78CFD00206946225C0B5CF4
:10DA30009A4202D0002004B010BD401CC0B2082899
:10DA4000F4D3012004B010BD00B5AD4A9078411C5C
:10DA5000C9B2072802D21071917000BD1079062852
:10DA600006D0401C107191701079FFF721FE00BDA7
:10DA700000201071F7E710B4A2490A8802808A7862
:10DA80008270CA78C270A04AD3684360936883608A
:10DA90001369C360526902614A6842618A6882619F
:10DAA000CA68C2610A6902624A6942628A6982621C
:10DAB0000A6A0263CA69C2624A6A4263CA6A8263C4
:10DAC0000A6BC2634A6B02648A6B4264CA6B8264EB
:10DAD000096CC1648D4A0146138940310B82538918
:10DAE0004B8293888B82D388CB82137B0B76527BBD
:10DAF0004A7600228A76814A538D1B07002B01DA71
:10DB000001238B76538DDB0603D58B7E02242343C2
:10DB10008B76538D9B0603D58B7E042423438B7613
:10DB2000528D520603D58A7E20231A438A76784A7C
:10DB3000137ACB76537A0B77937A4B77D37A8B77AA
:10DB4000137BCB77517B60300170917B4170D17B2F
:10DB50008170117CC17010BC704730B46D490A46A9
:10DB60003CCA3CC00A4610323CCA103810303CC097
:10DB70004A6A2038096A4262016230BC7047F0B5D7
:10DB8000A5B05F4C5D4EA068002807D0708D40079F
:10DB900002D50320207001E0FFF712FD5E4D5F4FBC
:10DBA0002878C10715D0FFF7C5FC00280FD1607891
:10DBB000C019FFF7C9FE6078401CC0B2607007282A
:10DBC00005D128784008400010210843287025B06E
:10DBD000F0BD810713D5FFF7ADFC0028F7D1E07841
:10DBE000C019FFF7B1FE6078401CC0B26070012818
:10DBF000EDD12878FD210840287025B0F0BD01073F
:10DC000034D5FFF797FC0028F7D145480679002E58
:10DC100000D11826761E2079424900038019471842
:10DC2000012201A93846FFF78BFC68460079FF28DE
:10DC300014D100200190012201A93846FFF79DFE72
:10DC4000B00121790903091837480C1802A8FFF719
:10DC500084FF282202A92046FFF78FFE2878F721AB
:10DC600008402870FFF702FD25B0F0BD4107FB27F3
:10DC7000002919DAFFF75EFC0028F5D164210CA811
:10DC800008F087FE0CA8FFF7F6FE2079274900036D
:10DC9000401864220CA9FFF770FE28783840102144
:10DCA0000843287025B0F0BDC1060BD5FFF7CCFEA8
:10DCB000FFF7EBFCFFF7DAFC2878EF21084028702B
:10DCC00025B0F0BD6978CA0732D0FFF733FC0028D1
:10DCD000F6D1FD208000FFF737FE6878400840004D
:10DCE00002210843687025B0F0BD0000C426002062
:10DCF0004E65766F20000000FC26002008290020D9
:10DD0000042400208C290020C4250020CC290020D8
:10DD1000E4250020E42900200C240020F603000064
:10DD200038240020E0603F0000613F0000603F00B9
:10DD30008A0714D5FFF7FEFB0028D4D1FC223F4907
:10DD40003F48FFF71BFAFD20FC223D498003FFF707
:10DD500014FE6878FD210840687025B0F0BD4A07C0
:10DD60000DD5FFF7E7FB0028F7D13648FFF7ECFDAC
:10DD70006878384008210843687025B0F0BD09076D
:10DD80000ED5FFF7D7FB0028F7D104222E492F48E4
:10DD9000FFF7F3FD6878F7210840687025B0F0BD03
:10DDA000810610D5FFF7C6FB0028F7D12878DF21C0
:10DDB000084028702648FFF7C7FD2878402108430F
:10DDC000287025B0F0BD41061DD5FFF7B3FB002834
:10DDD000F7D12878BF21084028701E4938228818BA
:10DDE000FFF7CCF91C481D4908F07CFC1C481D4974
:10DDF00001601D481D4901604A1511491C48FFF783
:10DE0000BCFD25B0F0BDC009FBD0FFF7DAFD01284D
:10DE10000ED0708D17490840708528784006400E56
:10DE200028701548202201781143017025B0F0BDFB
:10DE3000708D0121890208437085EEE7F02B0020E8
:10DE4000FC250020F30300001024002000303F00D8
:10DE5000FF030000C4250020BC260020FC26002073
:10DE6000F426002078563412F826002013041720D8
:10DE700000F03F00FFFB0000582400201921C901D9
:10DE80004843002802D0401E0028FCD17047F8B556
:10DE9000F7490C2008600422081D0260F54904209F
:10DEA0000860091D0860F44804210160F34904205A
:10DEB0000860091D0860F2490860091D0860091D15
:10DEC0000860F04804210160EF4904200860EF4930
:10DED0000860091D0860EE4804210160ED48032533
:10DEE0000560ED4C8020E0602069C005C30FEB4E5B
:10DEF000EB490020002B07D0738DEA4F3B40738520
:10DF00000D604021E16007E0738D01273F033B4333
:10DF1000738508607B010B60D54BE3491D600123CD
:10DF20001E02E6600D60A3600B1D18601B1D1D60C6
:10DF3000A2601A1D1060DD4B10221D60A2601A1D28
:10DF40001060DB4A10604861C86002F066FCD94886
:10DF50000560001F05603002A0604010A06000F066
:10DF600061FEF8BD10B4D04B03228400E418226097
:10DF70008C00E3181A6001231A468240C64882606A
:10DF80008B408360C260C36010BC704710B4C64C45
:10DF9000032283001B191A6001231A468240BE48DF
:10DFA000C2608B408360826010BC704710B4BE4C6E
:10DFB000032283001B191A60012213468340B648CE
:10DFC00083608A408260C26010BC704710B4B64C57
:10DFD000032283001B191A60012213468340AE48B6
:10DFE000C3608A408260C26010BC704770B404464F
:10DFF000AD4B0C20A200D218106000200022012599
:10E000002B46A54E8B404006000EB3603169E140BF
:10E01000C907C90F002900D02843F360521CD2B2AF
:10E02000082AF0D370BC7047F0B49C469E4C032382
:10E0300085002F193B600025012426468640964B1B
:10E040008C40DE60110600D59E6019469C60CC6055
:10E0500051060A0E6D1CEDB2082DF2D3614600295F
:10E060000DD10C2139609C601969C140C807C00FEF
:10E07000002803D0DC60F0BC01207047DC60F0BCFD
:10E0800000207047FFB50B9F099E0A9D1C46019911
:10E090000098FFF767FF0023029A01990098FFF7A5
:10E0A000C3FF01281DD00023224601990098FFF7E5
:10E0B000BBFF01281CD00024002D0BD9325D3B464C
:10E0C00001990098FFF7B0FF012818D0641CE4B252
:10E0D000AC42F3D301990098FFF758FF012004B038
:10E0E000F0BD01990098FFF751FF002004B0F0BD8A
:10E0F00001990098FFF74AFF002004B0F0BD019994
:10E100000098FFF743FF002004B0F0BDFFB50A9E62
:10E11000099D14461F4601990098FFF723FF00232D
:10E12000224601990098FFF77FFF012825D00023A0
:10E13000324601990098FFF777FF012824D0019912
:10E140000098FFF70FFF01200443224600230199A6
:10E150000098FFF769FF01281DD00024002D29D960
:10E160006E1E01990098FFF741FF3855B44219D04F
:10E1700001990098FFF72AFF18E001990098FFF72E
:10E1800005FF002004B0F0BD01990098FFF7FEFEE6
:10E19000002004B0F0BD01990098FFF7F7FE0020C1
:10E1A00004B0F0BD01990098FFF700FF641CE4B2D1
:10E1B000AC42D6D301990098FFF7E8FE012004B0E5
:10E1C000F0BD08B5002003223B4B1146009006F03D
:10E1D000BEFC002804D0FF2138A2043100F05EFA12
:10E1E00008BD70B5394E012100228903306806F060
:10E1F00060FD002804D0FF2130A21C3100F04EFA4F
:10E20000264C608DC00411D401256D0300222946DF
:10E21000706806F04EFD002804D0FF2127A22231AD
:10E2200000F03CFA608D2843608570BD608D284900
:10E230000840608570BD10B5264A0121234806F0CC
:10E24000E1FC002804D0FF211CA20C3100F026FACA
:10E25000214A0121214806F0D5FC002804D0FF21E5
:10E2600016A2123100F01AFAFFF7BBFF10BD000032
:10E270002007005028070050300700503407005096
:10E2800044070050500700506807005070070050C6
:10E29000780700501C070050000500500829002096
:10E2A00018070050FFEF0000000700501007005053
:10E2B0006C07005040070050082700202E2E5C6895
:10E2C000617264776172652E63000000142400207F
:10E2D000FFDF0000090602005B070200182400208F
:10E2E00070B5B04C206806F00DFD002804D0FF2169
:10E2F000AD4A393100F0D2F9AC4D688D80040DD5AE
:10E30000606806F0FFFC002804D0FF21A64A3F31D8
:10E3100000F0C4F9688DA6490840688570BD70B5E5
:10E32000A448C16B00292AD00021C163A24C6069B6
:10E33000A24D8003800F11D1E0688003800F0DD0C3
:10E340002869C006C00F002808D19D480078C00782
:10E3500002D002F0B4FA01E002F0EEFAA069800304
:10E36000800F0CD028694006C00F002808D0A06993
:10E37000032109040843A06192490120087070BD7F
:10E38000A06991490840A06170BD10B58F488069AF
:10E39000C0B28F4A0021916089490978C90702D02B
:10E3A00002F0C2FA10BD02F09CFB10BDF8B57F4F21
:10E3B000B88D08210840874902260978864C084311
:10E3C000002807D185480088000503D484480078D8
:10E3D00000280CD0B88DC00705D0B88D400840008B
:10E3E000B885E67003E0E078022800D2E670B88DC8
:10E3F0000125C007002819D07A490868C00715D13F
:10E40000B88DA843B885784A002010701A220846B3
:10E41000426076484560012107202BDF072026DF78
:10E4200070480560724805603C20E0706E480178D5
:10E4300000290BD000210170388D6E49884204D22A
:10E44000388DFF21A131884201D8E670F8BDB88D22
:10E45000400766D50025398D6800C019408E00F050
:10E46000E2FF382816DB0020411C4A00D219400088
:10E47000528EC0194286C8B20728F5D3398D4000A4
:10E48000C0194186E670B88D4007DFD46079401E20
:10E490006071F8BD6D1CEDB2082DDCD30022FA8549
:10E4A0000020411C0B464900C9194000498EC01983
:10E4B0004186F88D4018F885D8B20728F1D3398DF8
:10E4C0004000C0194186F98D408E081880B2C008FE
:10E4D000F885494B2025197829431970B98D4907CA
:10E4E00004D5398E884206D2388604E0B98D0423DB
:10E4F0001943B9853886414B102198420CD2B88D0A
:10E50000C006C6D42079401CC0B220710328C0D1F7
:10E51000B88D0843B885F8BDB88D8843B885227199
:10E52000F8BD388D61794900C91948866079401C69
:10E53000C0B26071082806D0B88D2843B885052080
:10E54000FFF79CFCF8BD267184E730B42C4A1068B4
:10E55000002825D0254801238360234C2370214DBA
:10E56000A96812480185018D8905890D0185002161
:10E5700011601F4A536069602960808D0822104035
:10E58000144A1278104307D114480088000503D4B8
:10E5900013480078002803D021700F480221C17071
:10E5A00030BC704714240020BCE201000829002080
:10E5B000FFDF0000406100400007005000050050F0
:10E5C0004324002020240020FFFF020000450040DB
:10E5D000004100400424002048290020B0240020ED
:10E5E000AA24002000750040212400200073004070
:10E5F00000700040C603000050240020FF0200000D
:10E600000071004010B54820F84900240C70491CE6
:10E61000401E80B20028F9D11620F5490C70491C23
:10E62000401E80B20028F9D13820F2490C70491CF4
:10E63000401E80B20028F9D1ED4908220A75FF2258
:10E640000B181A71401C80B20B7D8342F8D88720CA
:10E65000E949400108800020E849C0430880E848B3
:10E6600001F033FFFFF7D5F8E6480480E6480321C0
:10E670008171E6493C200870DC48818D01221143FC
:10E680008185E3484471E34844708470C470047128
:10E69000447110BD10B506F025FD10BD704708B5DA
:10E6A00000235022DC49082007F086FE002803D012
:10E6B000DAA26A21FFF7F2FF00200090009068467E
:10E6C00060DF002803D0D5A27121FFF7E7FFD6480D
:10E6D00007F090FE002803D0D0A27521FFF7DEFFDF
:10E6E000D24807F08FFE002803D0CCA27921FFF793
:10E6F000D5FFCF4807F08EFE002803D0C7A27D21AA
:10E70000FFF7CCFF042077DF002803D0C3A28021CD
:10E71000FFF7C4FF08BD38B5B44C608D80050028F4
:10E7200037DA684606F097FF002803D0BBA28C2199
:10E73000FFF7B4FF0098002828D1608D400703D56B
:10E74000FEF72FFFFFF745F88020BA4A5168090607
:10E75000C90F00291BD0D060608DB7490840608583
:10E76000B6480021C160816103210904416102F0C2
:10E770004DF80020B249C0438860B24910200860BB
:10E78000FFF7AEFD0A20FFF779FB34DF38BD90605C
:10E79000E2E740DF0028F9D0A0A2A621FFF77EFF24
:10E7A00038BD0A460146A84878E700B583B0A748B7
:10E7B0000A21007808F034F930306A4610703031A0
:10E7C000517002200290A2486B46008802AA0021E4
:10E7D000A4DF002803D091A2E521FFF75FFF03B07B
:10E7E00000BDF8B5934A1069C006C00F7F4C994D23
:10E7F000002848D098480078002844D12878C107DC
:10E8000011D09648007800283DD128784008400073
:10E81000287002F054FA2878C007F6D102F041F8C7
:10E8200002F011F87BE0810609D5DF21084028704D
:10E8300002F070FA02F035F802F005F86FE0C10955
:10E8400009D04006400E287002F074FA02F029F850
:10E8500001F0F9FF63E0410609D5BF2108402870A7
:10E8600002F07FFA02F01DF801F0EDFF57E0697841
:10E87000CB0709D048084000687002F066FA02F041
:10E8800010F801F0E0FF4AE0810709D5FD210840BA
:10E89000287002F073FA02F004F801F0D4FF3EE0B1
:10E8A0006F480023016800290BD0A18DC90601D54E
:10E8B000036034E002F0C8FA01F0F3FF01F0C3FF97
:10E8C0002DE06848684900880988884206D002F02F
:10E8D00059F901F0E6FF01F0B6FF20E0106980066B
:10E8E000C00F00281BD16149087882070CD5604A07
:10E8F000604B12781B78D21A9206920E202A0ED8FC
:10E90000FD22104008700AE04008400008704B48A3
:10E910004361836103210904C16001F094FF2878F9
:10E92000010707D5F721084028703A4902200870EE
:10E93000FFF73BFF2878504F410749D5FB2108409E
:10E9400028704E480078002809D04D4E01280FD07D
:10E95000022825D0032846D0042845D0A7E0608DA2
:10E96000000501D402F07FF9012004F09DF89EE03B
:10E97000012004F099F8608DC0050CD5308941065E
:10E9800004D500F065FA01F04AFB90E000071FD4BF
:10E9900001F045FB8BE000F045F901F040FB86E01B
:10E9A000608D00060AD4608D8021084360850120B7
:10E9B00003F036FA3888334908403880608DC00546
:10E9C0000CD53089410604D500F042FA01F04FFA27
:10E9D0006DE000076BD501F04AFA68E000F022F91B
:10E9E00001F045FA63E04FE057E0000008290020FD
:10E9F000AC250020C4250020362400205E24002001
:10EA0000382400202C240020F42A00202A2400206E
:10EA1000482900201F240020B82800202E2E5C6DDD
:10EA200061696E2E630000005F2A020079D4010044
:10EA300095E6010000050050FFFD000000070050B2
:10EA40000043004080E100E0EFBEADDE4224002044
:10EA5000E42400205024002044240020AD24002081
:10EA6000542400204C2400204E2400204324002065
:10EA70004A24002048240020B02400204024002004
:10EA8000142A0020BFEF00003089010702D5382189
:10EA90008843308100F0D6F909E0012004F004F841
:10EAA00000F01EFA608D0121490208436085A08DA7
:10EAB00040061CD5A08D000609D53878800716D4ED
:10EAC000A08D80218843A08502F084FA0FE0387879
:10EAD000800706D503F0D9FFA18D80200143A185D1
:10EAE00005E0A08D40218843A08502F073FA687884
:10EAF000810702D5FD2108406870F8BD3C493B48BC
:10EB000048603C4980178860C2074A603A4988607B
:10EB100004204860FFF7C3FDFFF753FB02F072FBD0
:10EB2000FFF770FDFFF7B3F9FFF785FB01F09FF9E1
:10EB300003F08AFC06202ADF04202ADF01210620B8
:10EB40002BDF002804D0FF212CA2DC31FFF7A6FD2B
:10EB5000012104202BDF002804D0FF2127A2DE3171
:10EB6000FFF79CFD062026DF002804D0FF2123A20A
:10EB7000E031FFF793FD042026DF002804D0FF21B9
:10EB80001EA2E231FFF78AFD62B601F07FFE1E4C45
:10EB90001E4D1F4E1F4F02F043FB2068002823D15B
:10EBA0002888318888421FD1386800281CD11A482B
:10EBB00001881A480088814216D1194800698006E8
:10EBC000C00F002810D0FFF7A6FDFFF70AFE01F0E6
:10EBD000DBFA01F025FD01F0C4FD04F054F8FEF766
:10EBE000CEFFFFF7E3FBD6E700BFEEE7DFFF07C08E
:10EBF0000005004000630040004300402E2E5C6D85
:10EC000061696E2E630000000C2400204A2400205D
:10EC100048240020502400204C2400204E240020B2
:10EC20000005005070B584B00F211020FFF7AEF939
:10EC30000F2001250146019003AB322200951020E0
:10EC4000FFF764FA4F2168460173002403AE2023C6
:10EC500032220F211020009601950294FFF712FA3C
:10EC600068460473212332220F211020009601955B
:10EC70000294FFF707FA68460473222332220F2119
:10EC80001020009601950294FFF7FCF96846047382
:10EC9000232332220F211020009601950294FFF7C2
:10ECA000F1F968460473242332220F2110200096C4
:10ECB00001950294FFF7E6F9684604732523322292
:10ECC0000F211020009601950294FFF7DBF96846AA
:10ECD00004732E2332220F211020009601950294F6
:10ECE000FFF7D0F968460473302332220F21102039
:10ECF000009601950294FFF7C5F968460473322324
:10ED00001A460F211020009601950294FFF7BAF9D8
:10ED100068460473332332220F2110200096019598
:10ED20000294FFF7AFF968460473382332220F21AB
:10ED30001020009601950294FFF7A4F95821684627
:10ED400001733A2332220F2110200096019502947C
:10ED5000FFF798F90221684601733B2332220F2105
:10ED60001020009601950294FFF78CF90721684660
:10ED700001733C2332220F2110200096019502944A
:10ED8000FFF780F91421684601733D2332220F21D9
:10ED90001020009601950294FFF774F9FD48418D0B
:10EDA0002A021143418504B070BDF0B585B000243E
:10EDB00068460474012504AE242332220F2110205A
:10EDC000009601950294FFF75DF9684604742E23BE
:10EDD00032220F211020009601950294FFF752F97C
:10EDE000EC4F788DC0040AD568460474252332227E
:10EDF0000F211020009601950294FFF743F91F2080
:10EE000069460874202332220F21102000960195B4
:10EE10000294FFF737F9E0488470E0480482788D67
:10EE200080040DD5DE48006805F06CFF002803D093
:10EE3000DCA27121FFF732FC788DDE49084078852D
:10EE400005B0F0BDD5484022018911430181ACE7EE
:10EE5000F0B585B0D14D41212889884328814F20C4
:10EE6000694608740024012604AF202332220F21B2
:10EE70001020009701960294FFF704F9C6488470A9
:10EE80002C82CD48C4700472C24D688D4004400C81
:10EE90006885688DC0040DD5402069460874252317
:10EEA00032220F211020009701960294FFF7EAF812
:10EEB00005B0F0BD688D8004FAD40124B84864031D
:10EEC00000222146006805F0F4FE002803D0B5A218
:10EED0009821FFF7E3FB688D2043688505B0F0BDFE
:10EEE000F0B585B0AB4C608DB44908406085608D4D
:10EEF0000025C004012704AE00280ADA684605741C
:10EF0000252332220F211020019700960295FFF74A
:10EF1000B9F868460574202332220F21102001978A
:10EF200000960295FFF7AEF8608D80040DD59C48E1
:10EF3000006805F0E7FE002803D09AA2B921FFF788
:10EF4000ADFB608D9B490840608505B0F0BDF0B415
:10EF500099490F789A49012F4A7ACB7F8C79CD79DC
:10EF60000E7A0FD0022F2FD01F0752D5A64207D9F5
:10EF70000B469C791B7A1B1B012847D098184872B6
:10EF8000F0BC7047DF060ED5AC42F9D98C4BDC796A
:10EF90009B791B1B012803D098184872F0BC70475E
:10EFA0004B72F0BC70479B06FBD5B442F9D9844B39
:10EFB0001C7A9B791B1B012803D098184872F0BC5F
:10EFC00070474B72F0BC70471F070ED5A542F9D9A8
:10EFD0007B4B9C79DB791B1B012803D09818487266
:10EFE000F0BC70474B72F0BC70479B06FBD5B54236
:10EFF000F9D9734B1C7ADB791B1B012803D09818B5
:10F000004872F0BC70474B72F0BC70474B72F0BC5A
:10F010007047DB06FBD5AE42F9D9694BDC791B7A28
:10F020001B1B012803D098184872F0BC70474B7224
:10F03000F0BC70476348418A491C4182018A0183C0
:10F040007047F3B581B00D46002D7DD05E4F5A4C10
:10F050005048408D000478D50020E0715B4801687D
:10F06000491C01605A494868401C48604B4A117A63
:10F07000C90707D05649CB685B1CCB60798A491C0D
:10F08000798206E052498B685B1C8B60398A491C87
:10F0900039825049C96800290ED03E4B5E8D360733
:10F0A0000AD4884208D3588D0821084358854A4815
:10F0B000402301781943017048483C2101710198AF
:10F0C000002801D1FFF7B6FF1689B0070DD54148DA
:10F0D0005168808B0918516008F01AFC3D49096895
:10F0E00008F0E4FC08F0D0FB26E070070DD53948A5
:10F0F0005168C08B0918516008F00AFC354949680D
:10F1000008F0D4FC08F0C0FB16E0F0070AD0314844
:10F11000C08B08F0FDFB2F49496808F0C7FC08F0D8
:10F12000B3FB09E02B48808B08F0F2FB2949096802
:10F1300008F0BCFC08F0A8FB24494A6812184A6091
:10F14000234A5169091801E000E149E05161F307E0
:10F1500006D0D3691B18D3617A6812187A6005E06B
:10F1600093691B1893613A6812183A601B4AD38856
:10F170001818D0801748806800287DD0054A538D24
:10F18000DB0679D4814277D3508D10210843508516
:10F19000D7E0000008290020B42A0020142A00200B
:10F1A000182400202E2E5C73656E736F7233672EE9
:10F1B00063000000FFDF0000F42A0020FFFE0000D3
:10F1C000D42A0020942A0020E4290020502900207D
:10F1D0008C290020C425002054240020262400204F
:10F1E000E078401CC0B2E070012804D1FE4903025F
:10F1F0000A891A430A810021E1710C283CD1FB489D
:10F20000418D0122D20311434185F94801680C3137
:10F210000160F84948680C30486088310E89F10770
:10F2200007D0F449CA680C32CA60798A0C317982F5
:10F2300006E0F0498A680C328A60398A0C313982DA
:10F24000ED49C96800290ED0E84A538D1B070AD43E
:10F25000884208D3508D082108435085E748402252
:10F26000017811430170E6493C200871DE49B0077E
:10F2700011D5E148808B00E063E00C2250434A68DE
:10F2800012184A6008F044FBDB49096808F00EFCDC
:10F2900008F0FAFA2CE070070FD5D7480C22C08B83
:10F2A00050434A6812184A6008F032FBD249496854
:10F2B00008F0FCFB08F0E8FA1AE0F0070CD0CE48A2
:10F2C0000C21C08B484308F023FBCB49496808F068
:10F2D000EDFB08F0D9FA0BE0C7480C21808B4843BE
:10F2E00008F016FBC449096808F0E0FB08F0CCFA06
:10F2F000BF494A6812184A60BE4A516909185161EB
:10F30000F30706D0D3691B18D3617A6812187A60A4
:10F3100005E093691B1893613A6812183A60B84A7D
:10F32000D3881818D080B4488068002809D0AF4A24
:10F33000538DDB0605D4814203D3508D1021084341
:10F3400050856D1EEDB2002D00D081E603B0F0BDFA
:10F3500030B4AC48AC4B017C427C891AC9B299727A
:10F36000827CC47C121BD2B2DA72047D407D201AEA
:10F37000C4B21C73A5488379C579007AAB421FD10A
:10F38000834210D1914204D3A14202D330BC012068
:10F3900070478A4204D3A24202D330BC0220704795
:10F3A00030BC03207047834207D9914202D330BC5E
:10F3B0000120704730BC0220704730BC03207047EA
:10F3C000AB4211D9834207D1A14202D330BC012004
:10F3D000704730BC03207047834202D930BC012003
:10F3E000704730BC03207047854207D1A24202D348
:10F3F00030BC0220704730BC03207047854202D9E0
:10F4000030BC0220704730BC032070477F48C07F6B
:10F410000107002901DA01207047C00601D502204A
:10F42000704703207047884202D3401A00B27047E9
:10F43000081A00B27047F0B585B07548018A491CBA
:10F440000182694C6E48228A017840786E4E002A0B
:10F4500015D0521E92B22282002A10D1634A538DD7
:10F460005B045B0C53850022F2703272A318C03328
:10F47000997218749875521CD2B2062AF6D3634D4D
:10F48000AA78652A01D2521CAA70EA78652A01D2AC
:10F49000521CEA702A79652A01D2521C2A716A79B3
:10F4A000652A01D2521C6A714F4B5A89803292B23E
:10F4B0009C898034A4B2A446DB8980339BB2039339
:10F4C000504CA3780493042B7ED3029101904C48B6
:10F4D0008078009061792171A0796071E379A371DE
:10F4E000D2B2E27108189918401881084448017096
:10F4F000637A2372A77A6772BE46E07AA072624688
:10F50000D2B2E2727344801818183D4A80085070D5
:10F51000627B2273A37B63739E46E37BA3739C464B
:10F52000039BDBB2E373174662467744D218BA18DE
:10F53000334B92089A70049B042B6BD0304A02988C
:10F54000FFF771FF052801DA0298107051780198D1
:10F55000FFF769FF052801DA01985070917800984B
:10F56000FFF761FF052801DA00989070217C107880
:10F57000814200D22074A37C51788B4200D2A174C6
:10F58000237D9278934200D22275637C834200D916
:10F590006074E37C8B4200D9E174617D914200D9B3
:10F5A00062750022E97FCB077ED02B7F834249D250
:10F5B00048084000E877607F2077297F6177FFF770
:10F5C00032FF617E884200E0BAE13BDB0020064F5B
:10F5D0003918C031CB7A8B72401CC0B20528F7D3E2
:10F5E0003818297FC03016E0142A0020082900208E
:10F5F000502900208C290020C425002054240020FC
:10F6000026240020B42A0020F42A0020D42A002036
:10F61000942A002017E08172607F217F88420DD2FA
:10F62000A37D83420AD98B4208D2E8780C38582847
:10F6300002D8A879401CA8710020E870FFF7E6FE08
:10F64000012846D04EE00523A3700027E770AF7174
:10F65000EF712F726F722774FF236374A774E374C2
:10F6600027756375A775E77527760F236376A376ED
:10F67000E37621776177A077E0772A706A7029773F
:10F680006877A8770823EB773378002B1CD0B3700A
:10F690007370FE4B5C8D6404640C5C85F77037728C
:10F6A0000023FB4FFC1800E015E0C034A172207469
:10F6B000A2755B1CDBB2062BF4D36520A870E87042
:10F6C0002871687105B0F0BD012333707370B37099
:10F6D000DFE7012206E02B7F834203D901200143AB
:10F6E000E97768E7E87F810736D5EA496B7F497893
:10F6F0008B423AD2FD210840E877E07FA077697F0E
:10F70000E177FFF790FEA17E88422EDB0020E04FDC
:10F710003918C0314B7C0B74401CC0B20528F7D39C
:10F7200038186B7FC0300374E07FA17F88420DD210
:10F73000E37D83420AD98B4208D228790C385828B5
:10F7400002D8E879401CE87100202871FFF75EFEBE
:10F7500002280AD1022208E0CE496B7F49788B4209
:10F7600003D902210843E877C7E7E87F410736D588
:10F77000C849AB7F89788B423AD2FB210840E877B1
:10F7800068782870A97F6970FFF74DFEE17E884296
:10F790002EDB0020BE4F3918C031CB7D8B75401C4D
:10F7A000C0B20528F7D33818AB7FC03083756878AE
:10F7B000297888420DD2237E83420AD98B4208D20F
:10F7C00068790C38582802D8287A401C2872002002
:10F7D0006871FFF71BFE03280AD1032208E0AD4938
:10F7E000AB7F89788B4203D904210843E877C7E7C8
:10F7F000A84801782977417869778078A877012A25
:10F8000004D0022A2AD0032A32D03AE0607F217F36
:10F81000884236D2A27D824233D98A4231D2A87838
:10F820000C38582809D80020307299489621018256
:10F8300001210020FFF705FC0DE0307A401CC0B22A
:10F840003072032807D19148418D4904490C418504
:10F850000020F07030720020A87012E0E17FA27FDB
:10F8600091420ED2E07D88420BD99042D7D308E076
:10F8700069782878814204D2227E8A4201D9824264
:10F88000CDD3E078401CC0B2E070322800D019E738
:10F890007F490889C20505D57F4A10400881F07864
:10F8A0004000F0700027E770207C617C4018400821
:10F8B000A075A07CE17C40184008E075207D617D4A
:10F8C0004018400820760F206076A076E0767078A9
:10F8D000B07030787070FFF73BFD30707178814206
:10F8E0001FD1B178814206D00220FFF730FB697A40
:10F8F0000120FFF7A6FB6F72E87FC7210840E87779
:10F900003178012905D0022907D020210843E87762
:10F910000AE008210843E87706E010210843E87769
:10F9200002E00120FFF713FBAF71EF712F72277414
:10F93000FF206074A774E0742775607505B0F0BD92
:10F94000564904984254A278554960465054A278CA
:10F95000544903985054A078401CA07005B0F0BDE5
:10F96000F0B4002150484A4A0A23C67ED35E2425BB
:10F970000224ED430022002E04D0012E0ED0022ED0
:10F9800016D01EE0252B02DDC476012119E01A26CF
:10F99000F643B34215DB0121C17612E0AB4202DA35
:10F9A000C27601210DE0252B0BDDC476012108E094
:10F9B000AB4202DAC276012103E01B2B01DA0121FE
:10F9C000C176334F037F0C26BE5F002B04D0012B82
:10F9D0000ED0022B16D01EE0252E02DD0477012169
:10F9E00019E01A23DB439E4215DB0121017712E067
:10F9F000AE4202DA027701210DE0252E0BDD0477FD
:10FA0000012108E0AE4202DA0277012103E01B2E59
:10FA100001DA012101771E4F437F0E26BE5F002BC6
:10FA200004D0012B0ED0022B16D01EE0252E02DDB5
:10FA30004477012119E01A23DB439E4215DB0121A3
:10FA4000417712E0AE4202DA427701210DE0252E25
:10FA50000BDD4477012108E0AE4202DA4277012152
:10FA600003E01B2E01DA012141770848408DC004D4
:10FA70000AD5074BD88A401C80B2D8820B4CA042D2
:10FA800002D1DA8233209882094813E00829002045
:10FA9000142A002026240020FFFE0000B82A00209F
:10FAA000BC2A0020C02A0020942A0020B80B0000A5
:10FAB000F42A002043791924002B05D0012900D114
:10FAC000447143795B1E4371012908D1C2714179A8
:10FAD000002904D1FD498A8A521C8A824471F0BCF3
:10FAE00070470902014308B200110105002903DA39
:10FAF0000F210903084300B2C117090F08180011AC
:10FB00007047F0B5B7B02F200126019004AB322228
:10FB10000F2100961020FEF7F9FA6946087CC0060E
:10FB2000C00E049006225043A8210191009006AB1C
:10FB300032220F211020FEF7E9FA00240025694641
:10FB4000087CE24F002820D906A802195178005DF0
:10FB5000FFF7C7FF7881D1789078FFF7C2FFB881AF
:10FB600051791079FFF7BDFFF881387A000702D587
:10FB7000FFF7F6FE01E0FFF75EFCA41DE4B26D1C8A
:10FB8000EDB26846007C8542DED3D148408DC0048A
:10FB900040D5D04CE079401CC0B2E0710C2839D17E
:10FBA0000025FD826846057505AF242332220F210A
:10FBB0001020009701960295FEF764FA68460575D5
:10FBC0002E2332220F211020009701960295FEF776
:10FBD00059FA402168460175252332220F21102051
:10FBE000009701960295FEF74DFAB94E708D80048C
:10FBF0000DD5B948006805F085F8002803D0B74A4C
:10FC0000F421FEF74BFD708DB54908407085E57114
:10FC1000B448057037B0F0BDF0B583B0AB4BB24916
:10FC20001F894A8A7B08C88A5B00AA4C0293A37981
:10FC3000824263D001263604824203D9101A80B270
:10FC4000019003E0301A801880B201900D8B888AF1
:10FC5000854202D9281A80B202E0301A401980B2D7
:10FC6000032B00D196208D82CA8207F006FC054640
:10FC70000E46019807F001FC00229C4B07F000FCA7
:10FC80002A46334607F0A8F906F0C2FF8F4B1860EA
:10FC90000021A27A0125502A00D30121E27A502ABC
:10FCA00001D3491CC9B2227B502A01D3491CC9B2D5
:10FCB000884A8F4E527A521CD2B2B0420EDB0229D1
:10FCC0000CD3F80702D00020607213E06272032A9E
:10FCD00010D12F431F81002060720BE0F80707D07E
:10FCE0006272032A06D1029818810020607201E036
:10FCF000002060720020A07103B0F0BD032BFBD088
:10FD00005B1CD8B2A0710328F6D17048029901811A
:10FD100000216172016003B0F0BDF8B5754CE07868
:10FD2000401CC0B2E0700A287ED10025E570E08852
:10FD300000287AD0FF21693148436F4906F070FEF0
:10FD400007F0E6FD07F0C8FC6C4A6D4B07F098FB26
:10FD500006F05EFF0127BF076A4EB84249DD6449DD
:10FD6000694F884245DDB84201DC684F41E068498F
:10FD7000884201DC674F3CE08122D205664990420F
:10FD800001DC0F4635E0654A904201DC644F30E00B
:10FD900041273F0688422CDD624A6349904201DCDC
:10FDA0000F4626E0614AB04201DC174621E0604B75
:10FDB000984201DC5F4F1CE05F4B984201DC5F4FD3
:10FDC00017E05F4B984201DC5E4F12E0B84201DC65
:10FDD0005D4F0EE05D4B984201DA5D4F09E08842CD
:10FDE00001DC5C4F05E0904202DC8327FF0500E068
:10FDF000594F5A48807A07F08BFD394607F056FE76
:10FE000007F06AFC564A574B07F03AFB06F000FF32
:10FE1000314607F089FC07F05FFC534A534B07F06B
:10FE2000AEF806F0F5FE01E020E01EE0504907F0D4
:10FE30003DFE07F029FD4F498A6882188A604E4AC4
:10FE4000516A411851624D4AD368C018D0604C487D
:10FE50000069002809D01E4A538D9B0605D48142B3
:10FE600003D3508D202108435085E580F8BDF0B5BF
:10FE700085B01748408D0125C0044027002404AEFA
:10FE800000287FDA68460474242332220F211020D0
:10FE9000009601950294FEF7F5F8684604742E2347
:10FEA00032220F211020009601950294FEF7EAF805
:10FEB00068460774252332220F21102000960195F1
:10FEC0000294FEF7DFF87F2168465CE0142A0020E8
:10FED00008290020F42A002018240020A4F10100A1
:10FEE000FFDF000020240020942A00200000494069
:10FEF0000000204026240020A08601006E6E4C4F9A
:10FF000058E2E33F0000C04000004040333353401C
:10FF100000006040333373400000A0400000904078
:10FF20009A99C9406666A640000010410000204131
:10FF30006666D640000030410000E04000003841D5
:10FF40000000F04000004841000058419A990941E2
:10FF5000000060410000704100009041E425002055
:10FF6000EC51B81E85EB913FFCA9F1D24D62403FA8
:10FF700000007A44502900208C290020E429002028
:10FF8000C425002021E00174302332220F211020EB
:10FF9000009601950294FEF775F8684604742423D0
:10FFA00032220F211020009601950294FEF76AF884
:10FFB00021216846017432231A460F211020009631
:10FFC00001950294FEF75EF816E068460774242354
:10FFD00032220F211020009601950294FEF752F86C
:10FFE0004C21684601742E2332220F2110200096E6
:10FFF00001950294FEF746F8ED49382208899043AE
:020000040002F8
:1000000008814C828C82EB48047100204200521817
:100010001483401CC0B23C28F8D305B0F0BDF0B545
:1000200085B0E34908220889104330229043E14F0C
:100030000322BA7140084000088100240C60DE48A9
:10004000408D0126C00404AD002845DA68460474DA
:10005000242332220F211020019600950294FEF7EE
:1000600011F8684604742E2332220F2110200196C5
:1000700000950294FEF706F8402168460174252396
:1000800032220F211020019600950294FDF7FAFF0D
:100090007F2168460174302332220F2110200196FF
:1000A00000950294FDF7EEFF684604742423322283
:1000B0000F211020019600950294FDF7E3FF212106
:1000C0006846017432231A460F21102001960095CC
:1000D0000294FDF7D7FF17E04021684601742423FE
:1000E00032220F211020019600950294FDF7CAFFDD
:1000F0004C21684601742E2332220F2110200196D4
:1001000000950294FDF7BEFFA9493C2048823C714E
:100110008C820020420052181483401CC0B23C283C
:10012000F8D3A648048044808480C480A4488476A0
:100130000A89A44B1A400A810A228A5E2425ED43CB
:100140000223AA4201DAC47604E0252A01DDC3763F
:1001500000E0C6760C228A5EAA4201DA047704E047
:10016000252A01DD037700E006770E228A5EAA4287
:1001700002DA447705B0F0BD252A02DD437705B0E9
:10018000F0BD467705B0F0BDF0B585B08E4F38783C
:1001900000283DD0002469460C74012504AE2523B7
:1001A00032220F211020009601950294FDF76AFF7C
:1001B000402069460874242332220F211020009623
:1001C00001950294FDF75EFF4C20694608742E23CA
:1001D00032220F211020009601950294FDF752FF64
:1001E000754D688D800410D401267848760300226E
:1001F0003146006804F05DFD002803D0744A75495B
:10020000FEF74CFA688D304368856A48C4713C70CB
:1002100005B0F0BDF8B5664C6F4E207A6F4F000701
:10022000644D002872DAB86B401CB863F069401C5A
:10023000F061608A00285FD0401E80B26082002892
:100240005AD15E488188491C81803046818D491C85
:10025000818563490889401C0881624A9078401C66
:1002600090703C2767823B20431E5E003619400099
:10027000368B00190683D8B20028F5D1A38A002650
:100280002383A6822B795B1CDBB22B713C2B00D91C
:100290002F712B79494DED886D1CAEB24E4DED8D11
:1002A0006D1CADB2AC464E4D6D896D1CADB2AE4607
:1002B0004C4DED786D1CEFB2032B37D30023450076
:1002C0002D192D8B002D01D05B1CDBB2401CC0B260
:1002D0000328F4D3032B10D0002B18D03748038801
:1002E0005B1C03803C48038D5B1C03858888401C95
:1002F00088801079401C1071F8BD3048C68036489F
:100300006346C38570464881D770F8BD17E02B4817
:1003100043885B1C43803048438D5B1C4385C88801
:10032000401CC8805079401C5071F8BD2348C680DD
:1003300029486346C38570464881D770F8BDFFF7EA
:100340006BFCA87903282BD0F068401CF060B86AD9
:10035000401CB86224494969002909D0164A538DC6
:100360005B0605D4884203D3508D40210843508555
:10037000207A1E49C00709D0F86A401CF86230692B
:10038000401C3061088B401C0883F8BD386B401C52
:1003900038637069401C7061C88A401CC882F8BD0F
:1003A000B86B401CB863F069401CF061F8BD31E7E0
:1003B000142A0020F42A0020082900202E240020DE
:1003C000942A0020FFFD0000202400201824002093
:1003D000A4F1010055050000502900208C290020BF
:1003E000CC290020042A0020C4250020E429002074
:1003F00010B50446FF219131204606F011FB00297B
:1004000009D06421204606F00BFB002901D0A0078B
:1004100001D0002010BD012010BD10B586B0DAA1BA
:100420004A68096805920491D9A18C684B680A68EA
:10043000C968029401930092039100220388591E17
:1004400089B2FF241934A14204D3FF39193989B282
:10045000A142FAD21C2903D31C3989B21C29FBD230
:10046000042905D3091F89B2521C92B20429F9D27A
:1004700004ACA25C511889B2072901D3C91F89B203
:1004800082786C46A45C611889B2072901D3C91F20
:1004900089B2C078401884B2072C03D3E41FA4B2F9
:1004A000072CFBD2032A07D31846FFF7A1FF002829
:1004B00002D0E0B206B010BD002C04D0641EA0B281
:1004C000C0B206B010BD0620FAE710B50446002001
:1004D000A071607120710120E070A070B048208090
:1004E0002046FFF79AFFE07110BD70B588B0024654
:1004F000AC48034678CB0496039502940193446973
:1005000003698069069405930790500001AB1C5A5B
:10051000022A06D10846FFF76BFF002801D0641CB1
:10052000A4B2E0B208B070BD10B504462188A0782E
:10053000FFF7DBFF0146E078814202D0401CE0700B
:100540000BE00121E170A078401CC0B2A0700D2822
:1005500003D1A1702088401C20802046FFF75DFF5A
:10056000E07110BD10B58179491CC9B281713C2977
:100570002AD1002383714179491CC9B241713C29B8
:1005800011D1894C082221781143217043710279DD
:10059000521CD2B20271182A05D1037104221143F0
:1005A0002170FFF7C1FF8149088800280CD0401E48
:1005B00080B20880002807D18720400108807C494C
:1005C0001022087810430870FFF7A7FB10BD10B584
:1005D000044621887D200001081AC82801D3002084
:1005E00010BDA078002801D00C2801D9002010BD32
:1005F000FFF77BFF0146E078002801D0884201D94F
:10060000002010BD012010BD6A498878401C887008
:10061000C00701D000BF70476749012008707047CC
:10062000F8B565480178002970D000210170614853
:10063000C178491EC170C078604D0124002802D1E4
:10064000A88D2043A8855E48FFF78CFFFFF7AFFE1B
:100650005C4808220178114301705B490878002842
:1006600001D0401E087059490878002801D0401E6A
:100670000870574E3078400712D556480078062843
:100680000ED1554F387800280AD0401EC0B23870BD
:10069000002805D15148C08801F0A8FB0A20387015
:1006A0004F490878002811D0401EC0B208700028B9
:1006B0000CD148480078062808D13078400705D486
:1006C000002002F0F1F9308820433080688D000668
:1006D00024D530880221C2070140D20F114301D036
:1006E00040061BD5684604F0B6FF002804D0FF2161
:1006F0003CA21831FDF7D2FF009800280ED13088B7
:10070000C00404D5012001F08BFB03E024E00020AD
:1007100001F086FB3088364908403080354908783A
:10072000002801D0401E087033490878002808D0FE
:10073000401EC0B20870002803D130490878204319
:1007400008702F490878002806D0401EC0B20870F3
:10075000002801D1FDF73DF8F8BD2A4901200870B5
:10076000704710B52748017800290BD0002101708F
:100770001248408DC00505D52348007A400601D4B3
:10078000FFF7BFF910BD00000005030106040200D9
:100790000000030306010406020500030500000033
:1007A000DF0700005C7B02000C24002036240020C0
:1007B0005424002048290020222400200829002059
:1007C0003824002058240020AA240020732400206C
:1007D000B0240020702400207124002090240020E8
:1007E000722400202E2E5C74696D652E630000005B
:1007F000BFEF0000AD2400201F2400205024002063
:100800000424002023240020142A0020FE49102064
:100810008860FE49002008607047FE490320FC4ABA
:10082000086000211060101D0160F84802228260FB
:10083000C1600122026192064262F74A07205061BC
:10084000F6488160E2E7F54900208860EF490860DA
:1008500001200860EC491020C8607047EC48002374
:10086000C360E94909694906CA0F03210904002A3E
:1008700001D0816102E00122520482614161E848B5
:10088000C17849084900C1700371BFE7E4480021FD
:10089000C1708171C1714171018141818181C181C9
:1008A000DCE7DB4900204861886103221204CA604A
:1008B000DB490123CA781A43CA700871704730B403
:1008C000D74C01212079D14D002814D022465179EE
:1008D0009279012815D0FE281AD0D24B1B18203B44
:1008E0009B7FEB614B406371521C904218D9FE20F4
:1008F000207130BC7047A420E8616071217130BC68
:100900007047EA61514061710220207130BC70472C
:10091000BD4A10209060E961FF20207130BC704713
:10092000401C207130BC7047BD480179FF2902D1BD
:100930000021817192E77047B9490879FF2808D0F2
:10094000401C08710979B148012906D0FF21C16115
:100950007047AD4A10209060F4E7A521C16170474F
:10096000F0B4142900D314218407A40FAC4E70896D
:100970003789C31B9D06AD0E40235B1B4D1CAB424C
:1009800003D8F0BC0020C04370478B069B0EA40127
:100990002343A54C2354401C8006800E7081002008
:1009A000002909D97389155CE5545B1C9B069B0ED5
:1009B0007381401C8842F5D3B07AC01B8106890E32
:1009C0004020401A142803D8F0BC0020C0437047D0
:1009D000F0BC0020704700B5944800781038122809
:1009E00018D203007B441B79DB189F44082413149E
:1009F0002A4C3B6452581313131313135E748C4820
:100A00000422017811430170884910384A78027035
:100A10008978417000BD8548814940788870844854
:100A2000082201781143427801231A434270402280
:100A30001143017000BD7E4801220178114301700D
:100A400000BD7C4800780328FAD37B4A142100209B
:100A5000FFF786FF0028F3D071480222C1781143C6
:100A6000C17000BD734800780328FAD3724A14217C
:100A70000120FFF775FF0028F3D069480222C178F2
:100A80001143C17000BD6A48022201781143017010
:100A900000BD6A48818D20221143818500BD6749D0
:100AA000888D40221043888500BD614880220178EE
:100AB0001143017000BD5D484078002805D05F48B3
:100AC000818D08221143818500BD5C48818D0822FB
:100AD0009143818500BD5648012241781143417000
:100AE00000BD00B54E4B1979012912D01A46527932
:100AF000022911D0FF2913D042405A714B4A521893
:100B0000203A5077D879801C814201D9FF20187192
:100B100000BDA520587100BD42405A71D87100BD7A
:100B2000904201D1FFF757FFFFF798FE00BD70B468
:100B30003B4C8026E389257B5D1B6D066D0E761B85
:100B4000851CAE4203D870BC0020C04370473C4DAA
:100B5000461CEE545B1C5B065B0EE9545B1C59069D
:100B6000490EE1810021002809D9E389565CEE5441
:100B70005B1C5B065B0EE381491C8142F5D370BCB4
:100B800000207047F0B4264CA089E689B0421FD0FF
:100B90002B4F395C491EC9B2A171401C4006400E62
:100BA000A081142901D31420A0710020A579691C0B
:100BB00000290DD91B4A6D1CA1897B5C1354491C6B
:100BC0004906490EA181B14202D0401CA842F3D38C
:100BD000F0BC7047F0B40446114B19895889814222
:100BE00002D10020F0BC70470F4E705C491C890692
:100BF000890E19818206920E142A02D91422D42158
:100C000008400021002A1DE000050050004500407A
:100C100000070050080700504045004000410040D8
:100C200040240020042B00202E2B0020192B002014
:100C3000502400201C2400201A2B0020082900200A
:100C40006E2B0020CED91D89755D65541D7A6D1CF3
:100C5000AD06AD0E1D815F89BD42C3D0491C9142D6
:100C6000F1D3F0BC704730B585B0002400940194F6
:100C700002940394049469460C7001254D7000A8F9
:100C800007229549023005F0D1FD6A4681211420E2
:100C9000FFF74DFF00940194029403940494FF2005
:100CA000694608704D706A4681211420FFF73FFFA6
:100CB0008A48418DEA021143418505B030BD70B4C8
:100CC000874903208871874980200870864800780A
:100CD00048708248408D854B06060122022400257B
:100CE0001888002E05DAC60701D04A7002E04C7061
:100CF00000E04D708D70050400D58A70420402D565
:100D00008A7822438A708004800C1880FF20C87083
:100D100070BC70477248012181717248852202704F
:100D20006E4A928DD206002A01DA41707047002186
:100D30004170704710B56A4901208871694C87205D
:100D4000207000F03AF9607010BD6549022088718A
:100D50006449882008706648C08C4870000A887012
:100D6000704710B55E49082088715E488621017081
:100D700008225949401C05F059FD10BDF8B55849E5
:100D800009208871574E822030705A48407C70701C
:100D9000594F574C786800284ED0E16800294BD055
:100DA0006422504305F03CFE06F0B2FD534DA842CC
:100DB00000DD284606F068FDB070000AF070786922
:100DC00000283BD0A168002938D06422504305F0A8
:100DD00027FE06F09DFDA84200DD284606F054FDE2
:100DE0003071000A7071786A002829D021690029C1
:100DF00026D06422504305F013FE06F089FDA84278
:100E000000DD284606F040FDB071000AF071B86AB6
:100E1000002817D06169002914D06422504305F0DE
:100E2000FFFD06F075FDA84200DD284606F02CFD0A
:100E30003072000A7072F8BD0020B7E70020CAE7E0
:100E40000020DCE70020EEE7254A042090712549C8
:100E50008320087050694870030A8B70030CCB70B4
:100E6000000E087100205061704770B5044620786C
:100E70001B4D00280FD104222149204605F004FC17
:100E8000002804D0E878FB210840E87003E0E87807
:100E900004210843E870E878400704D52178032945
:100EA00003D0FF290CD0012070BD14221549204623
:100EB00005F0EAFB002801D0002070BD012070BDC4
:100EC00014221149204605F0DFFB002801D0002044
:100ED00070BD012070BD00003824002008290020CA
:100EE00040240020042B00201C240020B0240020DB
:100EF000C4250020E42500208C2900200000964312
:100F0000767B02007A7B02008E7B020070B50C4675
:100F10002278112A16D0142A14D0152A02D0212A98
:100F200025D10FE0D848042102880A430280D7481F
:100F30000170D74900200870D6480122017811437A
:100F4000017014E0D44A017891714178D1718178AF
:100F50001172C0785072D14DFF2902D0084601F0BD
:100F600091FAA878FF2802D0CB4920788880002009
:100F700070BD10B51046002803D0C9A25D21FDF751
:100F80008DFB10BD70B5FD20FC22C9498003FCF724
:100F9000D7FAC84CC84DA06BA8420CD0FF22FC2148
:100FA000C34805F0CFFCA563C44801224178114332
:100FB0004170012070BD002070BD0020BC490A5C5A
:100FC000FF2A01D001207047401C80B20528F6D3CB
:100FD00000207047F8B500200090AF4869460078BF
:100FE00008700024B24EB54F355D052D17D2684606
:100FF000857004F03EFE002803D0A9A28E21FDF7E3
:101000004DFB30204543A819801DFF22302105F0FB
:1010100099FCFF2030557878012108437870641CD2
:10102000052CE1D3F8BDF8B5002000909A48694638
:101030000078087000259E4F00260024385DA842E5
:1010400001D1012602E0641C052CF7D3284605F0E7
:101050000BF9002815D0002E0FD00420021B3819E0
:10106000411C05F047FCFF20387130206843C0194F
:10107000801DFF22302105F065FC6D1C052DDBD3A2
:10108000F8BD002EF9D16846857004F0F2FD002805
:1010900003D083A2B921FDF701FB30206843C019BA
:1010A000801DFF22302105F04DFCE6E7F8B504462F
:1010B000002100917849684609780170052C1FD2FB
:1010C0007B4E7E4F355D052D17D26846857004F046
:1010D000D0FD002803D072A2E321FDF7DFFA302013
:1010E0004543A819801DFF22302105F02BFCFF206D
:1010F00030557978012001437970641C052CE1D3C7
:10110000F8BD70B586B00124644804F0E4FB002803
:1011100003D063A2FB21FDF7C1FA04F05BF80028BD
:1011200003D05FA2FF21FDF7B9FA6548426965491E
:10113000521C02D00969406900E0486901266946ED
:10114000CE80FC208880604800906049684604F0AA
:1011500080F8002804D0FF2151A20931FDF79EFA42
:10116000FFF710FF0025002801D0059600E0059547
:1011700005A804F07AFC002819D0059605A804F00B
:1011800074FC002804D0FF2145A22131FDF786FA26
:10119000FF220521464805F0D5FBFF22F0214C48EF
:1011A00005F0D0FB45484178314341700024694641
:1011B0000D824D821E20C881087C3043FD210840ED
:1011C000E32108400C30DF210840694608740720FD
:1011D0004874102088743F4802900E7302A92E486C
:1011E00004F0ECFC002804D0FF212DA23931FDF7DA
:1011F00055FAFFF718FF002C02D00420FFF756FF26
:1012000006B070BD10B50121334A084604F048FA13
:10121000002804D0FF2122A24A31FDF73FFA10BD79
:1012200070B51A48007804282DD12C4D2C4E287802
:10123000194C06280CD13078062809D3607841076C
:1012400006D404210843607000F0C8FD00F0CAFD18
:101250003078062817D12878062814D3607801073B
:1012600011D408210843607002F0F1FD02F0F3FD93
:101270001C4C0222A088002102F0F1FDA08802226D
:10128000012102F0ECFD70BDB02400201C240020E0
:1012900072240020502400205C24002062240020BE
:1012A0002E2E5C6D61696E5F626C652E63000000BE
:1012B000F02B0020B02C0020160814200C24002055
:1012C0000010001000000010730F020068240020BE
:1012D000F62B00200D0F0200815602007024002022
:1012E000042500201C250020FE49072008707047B7
:1012F00038B5022069468870FB480880F94C6A4678
:101300000121608990DF002802D0FFF7EDFF38BD92
:101310000320207038BD38B50020F449F44ACB884A
:10132000F04C934207D188886946401C0880488069
:10133000608993DF0AE0EF49CB88934206D1888821
:101340006946401C08804880608993DF002802D0ED
:10135000FFF7CAFF38BD0520207038BD30B4E6491C
:101360008978E04C80886081052923D23020414370
:10137000E24808182146C5880D8405894D84831CE0
:1013800045898D840A4680892032C88498891081D5
:10139000D8895081188A9081588AD081988A108281
:1013A000D88A5082188B9082588BD082012020706E
:1013B00030BC704730BC9BE730B4CA4C01466089F2
:1013C00092DF002801D030BC8EE70420207030BCB2
:1013D000704708B5C18800290ED1818900290BD03A
:1013E000C04A418A9181808AD0816A4611805080AA
:1013F0006846FFF7E1FF08BDFFF776FF08BDF8B5C7
:10140000C1880A46FF3A0B3A01D0093211D1B748D8
:10141000808800280AD0BA488088002806D0B548BD
:101420008088002802D0FFF776FFF8BDFFF75CFF49
:10143000F8BD002902D0FFF757FFF8BD00220023B6
:101440008189002921D9AF4DAF4EB04F0A215943B0
:101450000A180E3200211488AC4201D1A34906E0DB
:10146000B44201D1A64902E0BC4200D1A149002901
:1014700007D00C8054884C8014898C800024E4436D
:10148000CC805B1C81899942E0D89648002A09D01B
:1014900011896A46491C1180C08950806846FFF74F
:1014A0008BFFF8BD81896A461180C08950806846EB
:1014B000FFF782FFF8BD10B5C1880A46FF3A0B3A24
:1014C00003D0093201D0002902D0FFF70DFF10BD73
:1014D0008189864A874B00290FD00E3041888C4C79
:1014E000A1420AD100889488411E8C4201D1D0804B
:1014F00003E09C888C4200D1D880D1887C4881420E
:1015000002D0D988814202D1FFF705FF10BD75488E
:10151000062101700321C1700A21417081707D494B
:101520004878C209F2D1802210434870724804F012
:1015300074FB002800D000BF0028E7D0FF2176A26E
:101540005731FDF7ABF810BD00B589B0654800789C
:10155000062802D0082009B000BD00216B46197191
:10156000734842785A7182789A71C278DA71007938
:10157000187259726248808858820620D8829982EF
:101580000120187401A8069004A802F049F809B0D7
:1015900000BD00B589B053490978062902D008205A
:1015A00009B000BD00216A461171837A5371C37A74
:1015B0009371037BD371407B107201205072202302
:1015C0009372D1724E4A93886A4653820823D3821B
:1015D0009182107401A8069004A802F021F809B0C5
:1015E00000BDF0B585B0054652A041680068029183
:1015F0000190A888009000240098002870DD4C48D5
:10160000014628310830022604910390354F78694D
:10161000092846D203007B441B79DB189F44040B46
:1016200011181F262D34420028194149807908706D
:101630000120786112E128193D49807948707E6166
:101640000CE128193A49807988700320786105E116
:10165000281937498079C87004207861FEE028197C
:1016600033498079087105207861F7E028193049FD
:101670008079487106207861F0E028192C4980793A
:10168000C88007207861E9E029482A199279C18841
:1016900012021143C180082078610398B8610020CC
:1016A0003882DBE0B8690499884219D203998842EC
:1016B00016D3291989790170401CB861398A491CEF
:1016C00089B239821A4AD2888A427DD100210170BA
:1016D000401CB861052078617879184940012FE0F5
:1016E000C5E000007024002031F4000090240020A8
:1016F000FFFF0000A024002062240020F02B002027
:10170000982400200D120000F3D80000E9C6000064
:1017100002290000582400202E2E5C736572766921
:1017200063655C626C655F616E63732E63000000CD
:101730002C2D0020E5BEAEE4BFA10000EC2C002063
:1017400040183A8A039905F071F87879401CC0B2C4
:10175000787101287DD10822FD49FEA005F00AF824
:1017600000287DD00622FA49FDA005F003F80028E4
:1017700077D00622F64901A804F086FF002870D031
:101780000822F349F8A004F0F5FF00286AD00922E6
:10179000EF49F8A004F0EEFF002876D00722EC49CC
:1017A000F7A004F0E7FF002870D00522E849F6A072
:1017B00004F0E0FF00286AD00A22E549F4A004F012
:1017C000D9FF002870D000E048E00522E049F3A0EE
:1017D00004F0D0FF002868D00222DD49F1A004F017
:1017E000C9FF00287AD01322D949EFA004F0C2FF24
:1017F000002874D01522D649F0A004F0BBFF0028C1
:101800006ED01622D249F3A004F0B4FF002868D0AD
:101810001522CF49F5A004F0ADFF002874D00F22A7
:10182000CB49F8A004F0A6FF00286ED00F22C849CB
:10183000F8A004F09FFF002868D01422C449F9A042
:1018400004F098FF00286ED0FFF77EFE002078613C
:1018500078717879012801D900207871641C02E040
:1018600007E015E022E00098844200DACEE605B0F9
:10187000F0BD05203871F148802241781143417054
:10188000EF48417831434170E0E71BE02AE02CE06B
:1018900006203871E9488022417811434170E848B8
:1018A000417831434170D1E722E030E007203871C0
:1018B000E2484022417811434170E1484178314388
:1018C0004170C3E70B203871DC4840224178114356
:1018D0004170DB48417831434170B7E724E02FE0A5
:1018E0003AE045E008203871B0E709203871ADE7EB
:1018F0000D203871D1482022417811434170D048E1
:10190000417831434170A1E73EE049E054E00E20C8
:101910003871CA482022417811434170C848417843
:101920003143417092E753E00F203871C348802261
:10193000417811434170C24841783143417085E795
:101940000A203871BD480822017811430170BC4853
:1019500041783143417079E719203871B7488022C6
:10196000417811434170B6484178314341706DE789
:101970001B203871B1484022417811434170B04872
:1019800041783143417061E71B203871AB484022F8
:10199000417811434170AA4841783143417055E77D
:1019A0001A203871A5488022417811434170A4481B
:1019B00041783143417049E7182038719F488022AF
:1019C0004178114341709E484178314341703DE771
:1019D0001820387199488022417811434170984805
:1019E00041783143417031E7F8B500210C30954B17
:1019F00002889B889A4259D18388022B56D38279D8
:101A0000002A52D1904CA271C279E271077A2772F2
:101A1000467A66720023E361520746D4874A874BB1
:101A200012785D78072F39D23B007B441B79DB1895
:101A30009F4420030C341C152400804B01252A43AD
:101A40001A70824B03221A70257120E07B4B02250D
:101A50002A431A707D4B04221A70257117E0774AC9
:101A600010231D4355700322227110E00121784A92
:101A7000167013E00C212171012108E0042222716B
:101A80006E4A20231D435570704A09231370704A13
:101A900016706B4A022553782B435370012904D1E9
:101AA000FFF777FD002060616071F8BD69498988A2
:101AB0008A42FAD181880229F7D3FFF792FDF8BD57
:101AC00038B502210091604900240C70002825D00F
:101AD0006946614863DF002804D00B215F4A890111
:101AE000FCF7DCFD6D46691C5D4863DF002803D010
:101AF0005A4A5C49FCF7D2FDA91C5B4863DF002809
:101B000003D0564A5949FCF7C9FDE91C584863DF20
:101B1000002803D0514A5749FCF7C0FD4A480484C5
:101B200001464484203184840C814C818C810C8258
:101B30004C828C8251495048C8800839C880103185
:101B4000C8804F49FB2208781040087038BD00005B
:101B5000EC2C002057686174734170700000000025
:101B6000576543686174000046616365626F6F6B1F
:101B7000000000004D657373656E676572000000BC
:101B80005477697474657200536B79706500000056
:101B90005961686F6F204D61696C0000476D616924
:101BA0006C00000051510000636F6D2E6170706C0D
:101BB000652E4D6F62696C65534D53006E65742ED2
:101BC00077686174736170702E57686174734170C7
:101BD00070000000636F6D2E66616365626F6F6BEE
:101BE0002E4D657373656E6765720000636F6D2EB1
:101BF00066616365626F6F6B2E46616365626F6FCE
:101C00006B000000636F6D2E74656E63656E742EDD
:101C100078696E00636F6D2E74656E63656E742EE9
:101C20006D717100636F6D2E74656E63656E742ED9
:101C30006D6F62696C6571710000000054240020B2
:101C40005024002090240020702400201D24002017
:101C50001E240020A0240020A27B020018170200EE
:101C6000B27B0200C3020000C27B0200C602000079
:101C7000D27B0200C9020000FFFF00009824002070
:101C80005D240020C1885C4A914208D000885B49ED
:101C9000884202D05A49884201D101207047002071
:101CA000704710B50188574A937811290CD0564CCB
:101CB0002278072A3CD213007B441B79DB189F440F
:101CC000383D37565B606500052B2ED24F48FFF735
:101CD000D9FF002829D04E48FFF7D4FF002824D090
:101CE000302043434B48484918180C8CC4804C8C16
:101CF00004810A468C8C4481831CC98C20328181EA
:101D0000108998815089D88190891882D089588209
:101D1000108A9882508AD882908A1883D08A5883F1
:101D20003D4801224178114341700020FFF7C8FE71
:101D300010BD1029FCD1FFF711FB10BD172901D0F0
:101D40001429FAD13148FFF79DFF00280CD0304804
:101D5000FFF798FF002807D0062020700320E070CE
:101D60000A206070A07010BDFFF7C2FA10BD3029C4
:101D7000FCD1FFF72EFB10BD3229FCD1FFF73FFB52
:101D800010BD3329FCD1FFF796FB10BD3829FCD1DB
:101D9000E1780029F9D1FFF727FE10BD00B587B023
:101DA000194A1278062A02D0082007B000BD012384
:101DB0000022002902D069460B7101E069460A71D0
:101DC00069464A7148810220C8818A810B7201A844
:101DD000049002A801F024FC07B000BD0B480121CB
:101DE000C088DBE70A480121C088D7E701460B48D5
:101DF0000022008895DF7047FFFF00000D120000F1
:101E0000E9C60000622400207024002090240020F5
:101E1000A0240020F02B00200C2400205E240020B1
:101E200070B586B000240194029403940494059440
:101E3000FE4901260E7069460C710C73FC4D00289A
:101E4000298906D028206A469082F0020143298120
:101E500005E0F8486A469082F748014029811E2033
:101E60006946C88201A873DF002803D0F3A2F949AC
:101E7000FCF714FC288930432881F7480178314366
:101E800001702C7006B070BD10B5FF21EBA2EB31D4
:101E9000FCF704FC10BD10B50068002803D0012831
:101EA00000D100BF10BDED483B21008876DF00283F
:101EB00004D0FF21E1A2D631FCF7F0FBDC48E84A70
:101EC00001891140412211430181E64A002111702C
:101ED000E54A1170E04A012413782343137001701E
:101EE000817010BD00B589B00020009001902821BC
:101EF0006A46118050215180042191804B21C900F4
:101F0000D1800590069069460291D84903910491C9
:101F100003211175D6494989D1821076D548079099
:101F2000D548089002A802F07AFA002804D0FF21D0
:101F3000C2A2C331FCF7B2FB09B000BD00B5A1B02D
:101F400006200290CD4801680191406800903C2134
:101F500012A804F01EFD3C2103A804F01AFD022083
:101F60001290002010A948730120088202A915913F
:101F700010A9888501A91C916946088568460B90BF
:101F800003A912A802F0D7F9002803D0ABA28D2133
:101F9000FCF784FB21B000BD10B48FB00021089184
:101FA0000A910B910C910D910E9108AB1A780423B4
:101FB0001A4308AB1A70B2A2099209226B461A851D
:101FC0005A8506229A72B14A1A8101919A79F923A7
:101FD0001A40921C6B461B7900231C07240F6B468A
:101FE0001C715B7901231C07240F10346B465C7154
:101FF000520852009A7105910691079102AA039224
:1020000001AA049214229A82D9821A8384880346F0
:102010001E3303AA08A92046A2DF0FB010BC7047E8
:1020200030B490B00022089208AD2B7801231B0732
:102030001B0F10332B706B7801231B071B0F103302
:102040006B70AB78F92423409B1CAB7009920B9208
:102050000C920D920F922B7904252B4310252B43C4
:1020600008AD2B718AA30A930D236D46AB85EB85D2
:1020700008AB0E930623AB72894B2B810192AB798F
:1020800023409B1C2C7900242407240F2C716C798D
:1020900001242407240F10346C715B085B00AB71C2
:1020A0000592069202AA039201AA04921422AA821D
:1020B0002A831231079184880346163303AA09A99B
:1020C0002046A2DF10B030BC704710B48FB00021A2
:1020D00008910A910B910C910D910E9108AB1A7811
:1020E00004231A4308AB1A706EA2099207226B46AA
:1020F0001A855A8506229A726C4A1A8101919A7938
:10210000F9231A40921C6B461B7900231C07240FED
:102110006B461C715B7901231C07240F20346B462E
:102120005C71520852009A7105910691079102AABA
:10213000039201AA049214229A82D9821A83848873
:1021400003460E3303AA08A92046A2DF0FB010BC35
:10215000704770B48FB0002207926E46337F012320
:102160001B071B0F10333377737F01231B071B0FD4
:1021700020337377B37FF9252B409B1CB3770892EC
:102180000A920B920C920E9208AE337810242343DD
:10219000337047A3099307236E463385738507ABD6
:1021A0000D930623B371444BB3800092B4782C4056
:1021B000A41C337800231B071B0F33707378002394
:1021C0001B071B0F737063085B00B37004920592CA
:1021D00001AA02926A46039214223282B28212311A
:1021E00006918488831D02AA08A92046A2DF0FB0A9
:1021F00070BC704730B585B004460D462868206035
:102200000020C043E08429462046142212312830A1
:1022100004F00CFB06206946887428480882174B96
:1022200008330FCB03930292019149E01C24002054
:10223000A824002064060000FFF700002E2E5C7327
:102240006572766963655C626C655F696D617A650C
:102250002E630000B5040000502400205E240020FE
:10226000711200007124002072240020007102000D
:10227000542D0020971E0200891E0200E47B0200FC
:102280004E657720416C65727400000024300000B8
:102290004E65766F204669726D7761726500000049
:1022A000233000004E65766F205278002230000007
:1022B0004E65766F205478002130000020300000F9
:1022C000009004A90231684663DF00281DD1221D59
:1022D00004A90120A0DF002817D129462046FFF7D6
:1022E00038FF002811D129462046FFF7EEFE0028CE
:1022F0000BD129462046FFF793FE002805D1294639
:102300002046FFF749FE0028FFD105B030BD00B5DB
:102310008BB00020009001900290039004900590F3
:10232000069007900890099001200007000F1030D8
:102330006946087201200007000F10304872012022
:102340000007000F1030087300200007000FC8724C
:1023500001200007000F1030487301200007000F14
:102360001030887301200007000F103048740020DF
:102370000007000F0874F848FFF73CFF002803D05F
:10238000F64AC121FCF78AF90BB000BD00B591B047
:102390004021684604F0FDFAF1A1684601F0FEFF15
:1023A000F1A104A801F0FAFFF1A108A801F0F6FFDD
:1023B000F0A10AA801F0F2FF01200007000F103081
:1023C00008A9087700200007000F4877684601F049
:1023D000FEF9002803D0E14AA521FCF75FF911B00E
:1023E00000BD00B585B001200007000F203001902E
:1023F000E14804F09DF982B2DF4901A87CDF0028A2
:1024000003D0D64A5621FCF749F9C12078DF0028CD
:1024100003D0D24A5A21FCF741F9002002900390E0
:1024200028206946088150204881042088814B205B
:10243000C000C88102A87ADF002803D0C74A6521FE
:10244000FCF72CF905B000BD10B50020FEF759FED1
:1024500001F064F80120FFF733FB01F0F4FBFFF714
:10246000C0FFFFF793FFFFF752FFFFF767FDFFF78E
:1024700039FDC248418D8022114341850120FFF77B
:10248000CFFC10BD70B50446BD4D2878A0421AD0CF
:102490000020295CA14208D1042809D204210A1A8B
:1024A0002818411C04F026FA02E0401C0528F0D34D
:1024B0000422B349681C04F01DFA2C70B1480122B3
:1024C00041781143417070BDF0B58BB001460024D6
:1024D000AD4EAE4A37780888012312891F4315286C
:1024E0007ED00ADCAA4D01282B787AD010280DD096
:1024F000112829D0122873D1A3E0172872D01928E7
:1025000071D0352870D037286AD1A7E0A1488988D2
:102510000180A1490878032801D2032008709F494F
:102520009A480A409E490A4302813770002141714E
:102530000A21817068784006400E6870FB200340D5
:10254000DF2003402B70A5E0904F8879B8710828F0
:1025500001D10420787193488078FF2801D0FFF7DB
:1025600091FF87480079FF2802D00420FEF79EFDE6
:102570008C4803F0B0F904462046002803D0774A7F
:102580008949FCF78BF800F0C9FF00218148C94355
:1025900001803989854A3846114041221143018121
:1025A000834900270F7083490F703178012211434E
:1025B00031702978FB221140DF22114007708770AB
:1025C000FD200140297068784006400E68700820A0
:1025D000019001A902A87DDF69468888694D04E061
:1025E00058E030E033E03FE03BE02026082816D9F1
:1025F0000F7402A9604804F075F801200007000F6D
:1026000020300A905C4804F093F882B25A490AA834
:102610007CDF287830432870FFF790FC3AE002A96D
:102620000F54554902A804F0B7F9002832D002A986
:10263000514804F057F8287830432870FFF77EFCA3
:1026400028E000BF26E0FD2003402B7022E08879BF
:1026500000281FD15849032008701BE000F086FFB6
:1026600018E000F083FF15E08879002802D00128E7
:102670000FD00FE04D4845490240412002430A81F6
:102680004B4A002010704B4A1070377008708870E9
:1026900000E000BF2046002803D0304A4749FBF73E
:1026A000FDFF0BB0F0BD70B5384CA078022801D208
:1026B0000220A070088B142817D108461A3005464E
:1026C000FEF7D3FB002810D02A4684211420FEF701
:1026D0002EFA002809D0208901218903084320818E
:1026E0002948012201781143017070BDF0B40846F9
:1026F0001A30264A02279378022B00D29770098B52
:10270000142926D14178602923D10178002920D1CC
:10271000C17800291DD01C4D81782A4C687802238D
:10272000274E6278184301294ED023461B7803298F
:1027300052D0042958D005295DD0072963D00A2931
:1027400069D00B2905D12E21317080210A43627096
:102750006870F0BC70470000542D00203C2202003D
:10276000446179746F6E00003233343536000000F6
:102770003430000030300000FC2600200829002002
:10278000F02B00200C24002050240020A82400203E
:10279000582400205E2400201C240020FEF70000A6
:1027A00002120000622400208F020000711200005B
:1027B000712400207224002073240020FA020000FB
:1027C00074240020542400202821317020210A4341
:1027D00062706870F0BC70472921317001210B4391
:1027E00023706870F0BC70472A2131703B4323701E
:1027F0006870F0BC70472B21317008210B432370A7
:102800006870F0BC70472C21317010210A4362704F
:102810006870F0BC70472D21317040210A4362700E
:102820006870F0BC704770B50446FE4D20262A89BA
:102830001046D1063043002901DA28813EE0217894
:10284000002903D093060BD5002070BD002028710D
:10285000B2432A8114222146F34803F0E7FF1DE02A
:10286000FF2908D0EA78FE2A09D0521C91420BD0E9
:102870002881012070BD102002432A8104E0012933
:1028800002D02881012070BD287912214843E649F1
:1028900012224018801CA11C03F0C8FF2078E870A9
:1028A0002879401CC0B22871042807D12078FF285D
:1028B00004D0288930432881012070BD002070BDDC
:1028C000F8B508461A300090D64CA278022A01D2F8
:1028D0000222A270098B14291FD14178F2291AD043
:1028E000F32918D0F42916D0F52914D00A46203A35
:1028F000212A13D3012911D045290FD046290DD003
:102900000126891EB703C94D1E2913D2FFF78BFF7D
:10291000012806D00BE0FFF786FFF8BDFFF783FF25
:10292000F8BD208938432081287830432870207AE8
:102930008006F5D481211420009AFEF7F8F80028CB
:10294000EED0208938432081287830432870F8BDA4
:10295000088B02280AD1B34A8B7E1089012B02D141
:10296000C97E002903D0B249084010817047012177
:10297000490308431081AF48FD22017811400170DE
:10298000704710B4088B02280AD1A64A8C7E08230F
:102990001089012C02D1C97E002903D098431081EF
:1029A00010BC704718431081A248FD2201781140E5
:1029B000017010BC704710B584B00024891D0A88CE
:1029C00043899A4203D1FFF7DCFF012416E0438BD1
:1029D0009A4202D1FFF7BCFF10E0C3899A4202D1AC
:1029E000FFF76EFF0AE0C38B9A4202D1FFF77EFE2B
:1029F00004E0C38A9A4201D1FFF755FE002C1AD099
:102A00008D488078FF2816D08C480078042812D191
:102A1000002001900290039001206946087101A9ED
:102A2000854803F063F9082805D0002803D0844ABC
:102A30008449FBF733FE04B010BD0021C943C184B3
:102A400070478988C18470470A88102A04D0112AE7
:102A500003D0502A02D1AEE7F3E7EEE7704710B596
:102A60000446204603F0FDF921467748FFF7ECFFC6
:102A7000204601F07DFD2046FFF713F9204601F0C6
:102A80000FF92046FFF720FD10BD10B56F48132148
:102A9000008876DF04462046002803D0684A6C4947
:102AA000FBF7FCFDE0B210BD70B506465D4C218918
:102AB000C80701D074DF03E0880701D5FFF7E5FF01
:102AC0000025002E06D05D4805706248418D8022A9
