:020000040001F9
:10D00000A03D0020B5D10100CFD10100D1D1010058
:10D010000000000000000000000000000000000010
:10D02000000000000000000000000000D3D101005B
:10D030000000000000000000D5D10100D7D10100A0
:10D04000D9D10100D9D10100D9D10100D9D1010034
:10D050008FE601000000000023E60100DDE701008B
:10D06000D9D10100D9D10100D9D10100D9D1010014
:10D07000D9D10100D9D10100D9D10100D9D1010004
:10D08000D9D10100C34A0200D9D10100D9D1010090
:10D09000DD4A0200FD550200E9620200D9D101001B
:10D0A000D9D10100D9D1010000000000000000002A
:10D0B0000000000000000000000000000000000070
:10D0C00000F002F800F03AF80CA030C80838241834
:10D0D0002D18A246671EAB4654465D46AC4201D1B0
:10D0E00000F02CF87E460F3E0FCCB64601263342A8
:10D0F00000D0FB1AA246AB46334318470CAB0000E6
:10D100002CAB00000023002400250026103A01D398
:10D1100078C1FBD8520700D330C100D50B607047EF
:10D1200010B5782902D109F049F910BD002010BDD1
:10D130001FB5C046C0461FBD10B510BD0AF0C3FBE9
:10D140001146FFF7F5FF01F0F0FD0AF0DBFB03B439
:10D15000FFF7F2FF03BC0AF0DFFB0000401E00BF38
:10D1600000BF00BF00BF00BF00BF00BF00BF00BFC7
:10D1700000BF00BF00BFF1D17047000070B5054689
:10D180000C46164602E00FCC0FC5103E102EFAD208
:10D19000082E02D303CC03C5083E042E07D301CCCE
:10D1A00001C5361F03E021782970641C6D1C761EB2
:10D1B000F9D270BD03210C4802680A4302600B4893
:10D1C00002680A4302600A4880470A480047FEE7AF
:10D1D000FEE7FEE7FEE7FEE7FEE700000648074938
:10D1E000054A074B704700002405004054050040E5
:10D1F0007DD20100C1D00100A0330020A03D00205D
:10D20000A03300202748018CC9B201290BD1818CA1
:10D21000090708D1018D0906090F042903D1808D62
:10D220000006000F01D000207047012070471D4903
:10D23000088CC0B201281DD1888C00071AD1088D36
:10D240000006020F03D18A8D1206120F03D0000FC1
:10D25000012802D005E0012070478A8D1206120FC6
:10D2600002D0032802D005E001207047888D000617
:10D27000000F01D0002070470120704710B5FFF764
:10D28000D6FF002805D0094907484860C813084957
:10D290008861FFF7B7FF002802D0064901208860A7
:10D2A00010BD0000C00F00F0DFFF07C00005004008
:10D2B000006C00400006004002465D49087D0028E1
:10D2C00008D000200B181B79934204D0401CC0B238
:10D2D0000828F7D3FF20704718B404466946204653
:10D2E000E7DF694608788007800F009002280BD39B
:10D2F0002046C5DF69462046E7DF6846007881079B
:10D30000890F00910229F3D218BC704770B5002034
:10D31000FFF7D2FF0546FF2D11D0454C208840086D
:10D320004000208000206074A074E0742846FFF75D
:10D33000D3FFFF2061190871207D401C207570BD4E
:10D3400082B002783B49515C082905D110216A4618
:10D35000117000780821C7DF02B0704701783548A6
:10D36000085C002800D1D1E7704770B483B0044650
:10D370002178E0784E2803D04F2801D0502849D199
:10D380002B4D68180079002844D1687C00260028BD
:10D3900019D0C8B26B4601AA02A9D4DF6846008939
:10D3A000002810D024494A8C824207D068804884E3
:10D3B0002248012201681203114301606E7428881B
:10D3C000012108432880287B617A884211D1687B3B
:10D3D000A17A88420DD1A87BE17A884209D1287CC4
:10D3E00000280ED0401EC0B22874002809D1EE7368
:10D3F00007E0207BE873F02801D9F020E8731020C3
:10D400002874607A2873A07A6873E07AA8730A2077
:10D41000A874EE7403B070BC70474178012904D041
:10D42000032903D0802902D19FE797E788E7704757
:10D43000CC250020D02500203826002018240020EC
:10D440000021FE4801600121FD4A8905916000210B
:10D45000C9438160C16001617047F84A0023D3610C
:10D46000F8488168012903D000BF81680129FBD1F8
:10D4700083609069C0B27047F04AD061F14881681A
:10D48000012903D000BF81680129FBD100218160FF
:10D4900090697047E948192181601821C1601721FE
:10D4A0000161012109074162E74A06215161012119
:10D4B000E34B8A05DA600160704700B5FFF7EAFFC9
:10D4C0000520FFF7D9FFFFF7C8FF0346FFF7B8FFB6
:10D4D000184600BD00B5FFF7F0FFC007C00F00BD44
:10D4E00070B504460E461546FFF7F4FF002804D039
:10D4F00000BFFFF7EFFF0028FAD1FFF7CBFF0320B3
:10D50000FFF7BAFF2002000EFFF7B6FF2004000E5F
:10D51000FFF7B2FFE0B2FFF7AFFF0024002D05D9FF
:10D52000FFF79BFF3055641CAC42F9D3FFF788FF2F
:10D5300070BD08B504226946C448FFF7D1FF0098C2
:10D5400008BD0922C249C348CAE710B584B002A881
:10D550006C4671DF6846807A01026846407A41185D
:10D560000A05120DBCA1204608F0ECFE204604B0CE
:10D5700010BDBB4880224169114300224271C27133
:10D58000032282710122120311434161704700B5E9
:10D59000FFF780FF0620FFF76FFFFFF751FFFFF750
:10D5A0008CFF8007F4D500BD70B50024FF25F5354C
:10D5B000FFF790FF002805D0012000F0E1FD641C7A
:10D5C000AC42F5D370BD10B50403FFF7EDFFFFF7D4
:10D5D000DEFFFFF75FFF2020FFF74EFF2002000E67
:10D5E000FFF74AFF2004000EFFF746FFE0B2FFF707
:10D5F00043FFFFF725FF10BD70B506460D461446E4
:10D60000FFF7D2FFFFF7C3FFFFF744FF0220FFF74A
:10D6100033FF3002000EFFF72FFF3004000EFFF73C
:10D620002BFFF0B2FFF728FF0023002C05D9E85CA0
:10D63000FFF722FF5B1CA342F9D3FFF701FF70BD88
:10D6400010B588490C20086001217D48890581605A
:10D65000C900816049108160C910C1608248418D54
:10D660000422114341857E4903208870052000F083
:10D6700087FD10BD10B584B07B48408D4007002861
:10D6800003DA77490320887001E0FFF7D9FF00F043
:10D6900059FB0020FFF797FF082202A90020FFF79F
:10D6A0001FFF002002AC215CFF2902D0002004B043
:10D6B00010BD401CC0B20828F5D300202054401CE7
:10D6C000C0B20828FAD3082202A90020FFF794FF6D
:10D6D000082269460020FFF703FF00206946225C0C
:10D6E0000B5C9A4202D0002004B010BD401CC0B2B6
:10D6F0000828F4D3012004B010BD5C48002101606B
:10D7000041608160C160016141618161C16101620B
:10D7100041628162C162704710B55821544809F0D6
:10D720009AF85448524902880A8082788A70C078F0
:10D73000C8704D48418D78229143418510BD4849BC
:10D740000872FF2248690132104300224A71032205
:10D750008A71CA79521ECA710122120310434861AC
:10D7600070473F4AD079411CC9B2072802D2507293
:10D77000D1717047507A062804D0401C5072D17184
:10D78000507ADCE700205072F9E710B438490A8873
:10D7900002808A788270CA78C270374AD368436040
:10D7A000936883601369C360526902614A68426189
:10D7B0008A688261CA68C2610A6902624A69426211
:10D7C0008A698262CA69C2624A6A4263CA6A8263B9
:10D7D0000A6BC2634A6B02648A6B4264CA6B8264DE
:10D7E000096CC164254A0146138940310B82538973
:10D7F0004B8293888B82D388CB82137B0B76527BB0
:10D800004A7600228A76184A538D1B07002B01DACC
:10D8100001238B76538DDB0603D58B7E02242343B5
:10D820008B76538D9B0603D58B7E042423438B7606
:10D83000528D520626D58A7E202321E000350040F5
:10D84000000500500031004040350040FCF03F0032
:10D850000C280020C0F03F002530335800000000A5
:10D86000042400205C070050182A0020F42A00201D
:10D870009C2A00205424002038260020DC2A002086
:10D880001A438A76FC4A9379CB76D3790B77137A4D
:10D890004B77537A8B77937ACB77D17A603001705C
:10D8A000117B4170517B8170917BC17010BC7047BE
:10D8B00030B4F2490A463CCA3CC00A4610323CCA5F
:10D8C000103810303CC04A6A2038096A426201624E
:10D8D00030BC7047F0B5A7B0E94EEA4D706900283A
:10D8E00007D0688D400702D50320B07001E0FFF734
:10D8F000A7FE7069012701060024FF02002918DA3B
:10D90000FFF7E8FD002812D17179DF480818FFF70A
:10D910005AFE7079401CC0B270710321B1710728A2
:10D9200005D1706980218843B4713843706127B094
:10D93000F0BDD64EC10517D5FFF7CCFD0028F6D1B6
:10D94000CF4DD148297A0818FFF73DFE6879401C71
:10D95000C0B268710321A9710128E8D16869B04398
:10D960006861AC7127B0F0BD410535D5FFF7B2FD58
:10D970000028F7D1C6480579002D00D118256D1E65
:10D98000BF4EC449707A000340194718012201A90B
:10D990003846FFF7A5FD68460079FF2813D10194AA
:10D9A000012201A93846FFF727FEA801717A090371
:10D9B0000818B949441802A8FFF77AFF282202A9DB
:10D9C0002046FFF719FE01217069890288437061C2
:10D9D000FFF793FE27B0F0BD81051BD5FFF77AFD59
:10D9E0000028F7D164210CA808F035FF0CA8FFF738
:10D9F000CCFEA34CA949607A0003401864220CA90C
:10DA0000FFF7FAFD012160694902884338436061EC
:10DA100027B0F0BD01050BD5FFF7A3FEFFF77CFE95
:10DA2000FFF76BFE96484169B943416127B0F0BDED
:10DA3000934AC107202700297ED0D17815460029B6
:10DA40000DD0FFF747FD00280ED028790028EDD132
:10DA50006869400840006861EC7027B0F0BD40087C
:10DA60004000686127B0F0BDE87801281CD002288A
:10DA700021D0C10642D50407240F200288492590F1
:10DA80004018FF2201328749FFF72AFD00217C4818
:10DA9000854E4289834D6B1858786F5C0002C0191F
:10DAA00090420ED1304611E08048FFF78CFD1020E7
:10DAB000E87027B0F0BD7E48FFF785FDEF7027B016
:10DAC000F0BD904202D9B04200D0401E6854000A16
:10DAD0005870891CFF29DED9764A25988018FF22C4
:10DAE00069180132FFF788FD6548C178491CC1708B
:10DAF000082CE4D10221C17027B0F0BD810624D5E5
:10DB000005072D0F6B482F02381832466549FFF77D
:10DB1000E7FC6348381832466249FFF76DFD584804
:10DB20005749C078401CC870082DE5D108464169A6
:10DB300049084900C47000E00EE00222114341612F
:10DB4000418A491E418227B0F0BD68694008400003
:10DB50006861EC7027B0F0BD1446C1060CD5FFF724
:10DB6000B9FC0028F6D16069102188436061A06982
:10DB7000FFF729FD27B0F0BD810613D5FFF7AAFCFA
:10DB80000028F7D1A0696178000349014018FF30EF
:10DB900001306169B943616114224749FFF72CFDE7
:10DBA00027B0F0BD410624D5FFF794FC0028F7D13B
:10DBB000A06900036169402291436161404A3F4985
:10DBC000134678CB483178C11346103378CB583997
:10DBD000583178C1956A546A136A6839D26A0D67F8
:10DBE000CC668B664A6730224831FFF705FD27B0C7
:10DBF000F0BD410710D5FFF76DFC0028F7D1606933
:10DC0000042188436061E069FFF7DDFC6069082159
:10DC10000843606127B0F0BD010717D5FFF75AFC34
:10DC20000028F7D1E0690103E0891038C217120F0C
:10DC3000101800110002401832462249FFF7DCFCA0
:10DC4000616908208143616127B0F0BDC1043DD501
:10DC5000FFF740FC0028F7D10121606909038843E0
:10DC600060611948FFF7AFFC01216069490308436F
:10DC7000606127B0F0BD000058260020F42A002083
:10DC800004240020182A0020F603000000010000F0
:10DC900054240020E0603F0000613F0000603F002E
:10DCA00000E03F00AC260020FFFF0000FD03000065
:10DCB000FE03000000D03F00EC2700206426002077
:10DCC000E4250020AC270020FF03000081041ED5BE
:10DCD000FFF700FC0028CCD101216069490388438B
:10DCE00060613422FD49FE48FFF748FAFD48FE49CD
:10DCF00008F05AFCFD48FE490160FE48FE490160FB
:10DD00003246F749FD48FFF777FC27B0F0BD4004E5
:10DD1000FBD5FFF7AFFC01280ED0688DF84908400D
:10DD2000688501216069890388436061F549087845
:10DD30003843087027B0F0BD688D0121890208437F
:10DD40006885EEE770B5F04D287DC0070DD0002442
:10DD50007D26F600FFF7BEFD287DC00705D00A200E
:10DD600000F00EFA641CB442F4D3FFF71DFC70BD42
:10DD700010B5E648408DE44C4007002802DA032045
:10DD8000A07001E0FFF75CFCFFF7DCFFE048FFF765
:10DD90001AFC00206082DF48A0810121606909032C
:10DDA0000843606110BDF0B5D74D6869810700294F
:10DDB0002DDAC0072BD1FFF78DFB002827D168692A
:10DDC0000221884368610020A881FFF763FB0320DC
:10DDD000FFF752FB3F20FFF74FFBE020FFF74CFB24
:10DDE0000020FFF749FB0024CA4EFFF736FB074629
:10DDF000FFF733FB0002C019C749884202D1A88946
:10DE0000401CA881641CB442EFD3FFF719FBF0BD9E
:10DE100070B50646BD48408D03254007BA4C002822
:10DE200001DAA57001E0FFF70BFC0121E1706681CA
:10DE3000606908436061257170BDF8B504460E46FF
:10DE4000FFF780FFB54960004518FFF723FB03206B
:10DE5000FFF712FB2802000EFFF70EFB2804000E4E
:10DE6000FFF70AFBE8B2FFF707FBAA4FBC420BD251
:10DE7000FFF7F3FA0546FFF7F0FA00024019B04247
:10DE800002D0641CBC42F3D3FFF7DAFABC4201D3E0
:10DE9000A148F8BD2046F8BDF8B500269B48408D46
:10DEA0004007002803DA98490320887001E0FFF753
:10DEB000C7FBFFF747FFFFF7EDFA0320FFF7DCFA98
:10DEC0003F20FFF7D9FAE020FFF7D6FA0020FFF74E
:10DED000D3FA0024904FFFF7C0FA0546FFF7BDFACA
:10DEE00000024519BD4203D06D1CB54200D92E4633
:10DEF000641C88488442EED3FFF7A2FA3046F8BD8E
:10DF0000F8B5FFF7C9FF804D80B26882002815D0B0
:10DF10000024002812D9804EA1B20020FFF78DFF07
:10DF2000B04207D0000304226946FFF7D9FA0098EF
:10DF3000401C04D0641C688A8442EDD3F8BDA0B2B2
:10DF4000FFF766FF6869002806D0FFF7C3FCFFF7FC
:10DF50002AFF68690028F8D1688A8442DCD3F8BDBA
:10DF6000F8B56A48408D684F4007002802DA032060
:10DF7000B87001E0FFF764FB0020F871FF207872B1
:10DF80000024674E2003801904226946FFF7A8FA8F
:10DF90000098401C03D0F879401CF87103E0787AAF
:10DFA000FF2800D17C72641C072CEBD3787AFF2801
:10DFB00005D0F979891CF971FFF7C1FB1EE0002536
:10DFC000ED4300242003801904226946FFF788FAF4
:10DFD00000980104020AFF231B021A400A43000EA4
:10DFE0001043A84201D205467C72641C072CE9D379
:10DFF000F879401CF871787AFFF7A1FBFFF78CFBEA
:10E00000FFF77BFBF8BD0121464849058160464A80
:10E010000321116001218905C160C900C160891017
:10E02000C1604900C1603948418D04229143418556
:10E0300070473E4903200860091D08603C4908609C
:10E04000091F0860DFE710B5FFF7F3FFFFF7F8FAE5
:10E05000FFF76FFA2849884210D1FFF772FA34228D
:10E060001E492648FFF73CFAFFF77AFFFFF748FF03
:10E070002548022241691143416110BD17492D48CD
:10E0800088602D48C8602D4A0A612D4A4A6188611E
:10E09000492088837A20C8836920088400224A8422
:10E0A000284823238371AF23C3714D230372427227
:10E0B000BA2383723C23C372822303734B234373BB
:10E0C000FF238373C273082303741E234374827473
:10E0D000FE20888480050860486035E038260020EE
:10E0E000AC2600206C2700200C280020A42700204C
:10E0F00078563412A82700200704162000F03F00AD
:10E10000FFFB00007424002004240020182A0020B3
:10E11000FE030000F6030000FFFF000000E03F00E8
:10E1200000603F00000500505C070050540700509D
:10E130006407005040420F00581B000080841E00FE
:10E14000302A000058260020FFF712FEFFF711FAD0
:10E15000074808A10A8802854A88428589888185FE
:10E16000FFF7F3F90146054808F0B6FA10BD0000C4
:10E17000E42700204E65766F200000000C28002068
:10E180001921C9014843002802D0401E0028FCD1B3
:10E190007047F8B5F7490C2008600422081D02609A
:10E1A000F54904200860091D0860F4480421016055
:10E1B000F34904200860091D0860F2490860091D40
:10E1C0000860091D0860F04804210160EF4904203F
:10E1D0000860EF490860091D0860EE4804210160ED
:10E1E000ED4803250560ED4C8020E0602069C00506
:10E1F000C30FEB4EEB490020002B07D0738DEA4F85
:10E200003B4073850D604021E16007E0738D01277D
:10E210003F033B43738508607B010B60D54BE349AB
:10E220001D6001231E02E6600D60A3600B1D1860D7
:10E230001B1D1D60A2601A1D1060DD4B10221D60A9
:10E24000A2601A1D1060DB4A10604861C86002F0CD
:10E25000E2FBD9480560001F05603002A060401055
:10E26000A06000F003FEF8BD10B4D04B0322840080
:10E27000E41822608C00E3181A6001231A468240D9
:10E28000C64882608B408360C260C36010BC704728
:10E2900010B4C64C032283001B191A6001231A46CE
:10E2A0008240BE48C2608B408360826010BC704771
:10E2B00010B4BE4C032283001B191A6001221346BE
:10E2C0008340B64883608A408260C26010BC704759
:10E2D00010B4B64C032283001B191A6001221346A6
:10E2E0008340AE48C3608A408260C26010BC704701
:10E2F00070B40446AD4B0C20A200D2181060002070
:10E30000002201252B46A54E8B404006000EB3602F
:10E310003169E140C907C90F002900D02843F360E3
:10E32000521CD2B2082AF0D370BC7047F0B49C469D
:10E330009E4C032385002F193B60002501242646AF
:10E340008640964B8C40DE60110600D59E601946D3
:10E350009C60CC6051060A0E6D1CEDB2082DF2D304
:10E36000614600290DD10C2139609C601969C140BA
:10E37000C807C00F002803D0DC60F0BC0120704744
:10E38000DC60F0BC00207047FFB50B9F099E0A9D22
:10E390001C4601990098FFF767FF0023029A019934
:10E3A0000098FFF7C3FF01281DD0002322460199E2
:10E3B0000098FFF7BBFF01281CD00024002D0BD9CB
:10E3C000325D3B4601990098FFF7B0FF012818D055
:10E3D000641CE4B2AC42F3D301990098FFF758FFF4
:10E3E000012004B0F0BD01990098FFF751FF002013
:10E3F00004B0F0BD01990098FFF74AFF002004B077
:10E40000F0BD01990098FFF743FF002004B0F0BD74
:10E41000FFB50A9E099D14461F4601990098FFF713
:10E4200023FF0023224601990098FFF77FFF012870
:10E4300025D00023324601990098FFF777FF012885
:10E4400024D001990098FFF70FFF012004432246D2
:10E45000002301990098FFF769FF01281DD00024CF
:10E46000002D29D96E1E01990098FFF741FF3855FC
:10E47000B44219D001990098FFF72AFF18E00199DA
:10E480000098FFF705FF002004B0F0BD0199009847
:10E49000FFF7FEFE002004B0F0BD01990098FFF7E1
:10E4A000F7FE002004B0F0BD01990098FFF700FFCF
:10E4B000641CE4B2AC42D6D301990098FFF7E8FEA1
:10E4C000012004B0F0BD08B5002003223B4B1146EB
:10E4D000009006F004FB002804D0FF2138A203318D
:10E4E00000F01DFA08BD70B5394E012100228903E4
:10E4F000306806F0A6FB002804D0FF2130A21B31B3
:10E5000000F00DFA264C608DC00411D401256D0376
:10E5100000222946706806F094FB002804D0FF21F1
:10E5200027A2213100F0FBF9608D2843608570BD82
:10E53000608D28490840608570BD10B5264A0121CC
:10E54000234806F027FB002804D0FF211CA20B3132
:10E5500000F0E5F9214A0121214806F01BFB0028C3
:10E5600004D0FF2116A2113100F0D9F9FFF7BBFF4B
:10E5700010BD000020070050280700503007005051
:10E5800034070050440700505007005068070050FF
:10E5900070070050780700501C070050000500501D
:10E5A000182A002018070050FFEF00000007005055
:10E5B000100700506C07005040070050182800203A
:10E5C0002E2E5C68617264776172652E63000000B4
:10E5D00030240020FFDF00001B0802006509020054
:10E5E0003424002070B5904C206806F053FB0028BE
:10E5F00004D0FF218D4A383100F091F98C4D688D9F
:10E6000080040DD5606806F045FB002804D0FF218A
:10E61000864A3E3100F083F9688D86490840688556
:10E6200070BD70B58448C16B00292AD00021C16338
:10E63000824C6069824D8003800F11D1E0688003B5
:10E64000800F0DD02869C006C00F002808D17D4872
:10E650000078C00702D002F030FA01E002F06AFA56
:10E66000A0698003800F0CD028694006C00F0028E5
:10E6700008D0A069032109040843A0617249012060
:10E68000087070BDA06971490840A06170BD10B5E7
:10E690006F488069C0B26F4A00219160694909786A
:10E6A000C90702D002F03EFA10BD02F00CFB10BD0B
:10E6B000F8B55F4DA88D082108406749674C097877
:10E6C00008430ED0A88DC1070520002905D0A98DCB
:10E6D00049084900A985E07003E0E178052900D2E6
:10E6E000E070A88D0126C007002817D05C4F38685D
:10E6F000C00713D1A88DB043A8855A4900200870DF
:10E700001A20786058484660012107202BDF072037
:10E7100026DF3E60554806603C20E0705148017895
:10E72000002940D000220270A88D400741D5EA851B
:10E730000020411C0B46490049194000498E4019F0
:10E740004186E88D4018E885D8B20728F1D3298D95
:10E75000400040194186E98D408E081880B2C008FB
:10E76000E885434920260B7833430B70A98D490770
:10E7700004D5298E884206D2288604E0A98D042378
:10E780001943A98528863B4B102198420CD2A88DAD
:10E79000C00608D42079401CC0B22071032802D1E1
:10E7A000A88D0843A885F8BDA88D8843A885227147
:10E7B000F8BD288D61794900491948866079401C67
:10E7C000C0B26071082806D0A88D3043A885052006
:10E7D000FFF7D6FCF8BD02202071A8E730B4264A26
:10E7E000106800281DD02048012383601D4C237031
:10E7F0001B4DA9680E480185018D8905890D01858C
:10E8000000211160194A536069602960808D0822D7
:10E810001040114A1278104303D021700F4805218F
:10E82000C17030BC7047000030240020C0E50100FA
:10E83000182A0020FFDF0000406100400007005060
:10E84000000500505F2400203C240020FFFF020050
:10E85000004500400041004006240020582A0020C6
:10E86000007500403D24002000730040007000400F
:10E870006C240020FF0200000071004010B5482009
:10E88000F74900240C70491C401E80B20028F9D1C1
:10E890001620F4490C70491C401E80B20028F9D1A2
:10E8A0003420F1490C70491C401E80B20028F9D177
:10E8B000EC4A08211175FF2113181971401C80B210
:10E8C000137D8342F8D88720E84940010880002062
:10E8D000E749C0430880E74801F01BFFFFF7B3FB9F
:10E8E000E5480480E54803218171E5493C20087032
:10E8F000DB49888D012210438885E2484471E24952
:10E900004022087810430870E04844708470C47056
:10E910000471447110BD10B506F0ACFB10BD70471A
:10E9200008B500235022DA49082007F0A7FC002888
:10E9300003D0D8A26A21FFF7F2FF002000900090D8
:10E94000684660DF002803D0D2A27121FFF7E7FFFD
:10E95000D34807F0B1FC002803D0CEA27521FFF701
:10E96000DEFFD04807F0B0FC002803D0C9A279210F
:10E97000FFF7D5FFCC4807F0AFFC002803D0C5A2B5
:10E980007D21FFF7CCFF08BD10B5B54B588D800534
:10E99000002824DA8020C54A51680906C90F0029D9
:10E9A0001BD0D060588DC24908405885C14800210D
:10E9B000C160816103210904416102F025F8002052
:10E9C000BD49C0438860BD4910200860FFF70AFEBA
:10E9D0000A20FFF7D5FB34DF10BD9060E2E740DF8F
:10E9E0000028F9D0ABA29921FFF799FF10BD0A4684
:10E9F0000146B34893E700B583B0B2480A210078D6
:10EA000007F070FF30306A461070303151700220CC
:10EA10000290AD486B46008802AA0021A4DF0028BE
:10EA200003D09CA2D821FFF77AFF03B000BDF8B550
:10EA30009E490869C006C00F894C934D002847D0F5
:10EA4000A2480078002843D12878C20711D0A048F6
:10EA5000007800287CD1287840084000287002F017
:10EA600020FA2878C007F6D102F019F801F0E9FF82
:10EA70006EE0820609D5DF210840287002F03CFADA
:10EA800002F00DF801F0DDFF62E0C20909D0400696
:10EA9000400E287002F040FA02F001F801F0D1FFB8
:10EAA00056E0420609D5BF210840287002F03FFA1F
:10EAB00001F0F5FF01F0C5FF4AE0820709D5FD210D
:10EAC0000840287002F040FA01F0E9FF01F0B9FFB8
:10EAD0003EE0804800220368002B0BD0A18DC906C0
:10EAE00001D5026034E002F095FA01F0D8FF01F0A0
:10EAF000A8FF2DE07848794B00881B88984206D003
:10EB000002F032F901F0CBFF01F09BFF20E0086931
:10EB10008006C00F00281BD17149087883070CD5E7
:10EB2000704A714B12781B78D21A9206920E202AE4
:10EB30000ED8FD22104008700AE04008400008701E
:10EB40005C484261826103210904C16001F079FFE0
:10EB50002878010707D5F721084028704B48022183
:10EB60000170FFF748FF2878604F410767D5FB2108
:10EB7000084028705E480078002809D05D4E0128C2
:10EB80000FD0022825D0032846D004284DD056E0C7
:10EB9000608D000501D402F058F9012003F08FFFC9
:10EBA0004DE0012003F08BFF608DC0050CD530894E
:10EBB000410604D500F070FA01F055FB3FE0000774
:10EBC0003DD401F050FB3AE000F050F901F04BFB6E
:10EBD00035E0608D00060AD4608D80210843608591
:10EBE000012003F057F93888434908403880608D88
:10EBF000C0050CD53089410604D500F04DFA01F06E
:10EC00005AFA1CE000071AD501F055FA17E000F097
:10EC10002DF901F050FA12E03089010702D53821B0
:10EC20008843308100F032FA09E0012003F047FF09
:10EC300000F07AFA608D0121490208436085A08DB9
:10EC400040066BD5A08D000658D53878800765D46E
:10EC5000A08D80218843A08502F0B7FA5EE0000015
:10EC6000182A0020CC25002038260020522400201D
:10EC70007A2400205424002048240020042C002062
:10EC800046240020582A00206C2400203B24002029
:10EC9000C82900202E2E5C6D61696E2E6300000075
:10ECA000752A02001BD4010017E90100000500507D
:10ECB000FFFD0000000700500043004080E100E03D
:10ECC000EFBEADDE5E24002004250020602400207D
:10ECD000C924002070240020682400206A24002019
:10ECE0005F2400206624002064240020CC2400201F
:10ECF0005C240020242B0020BFEF00003878800720
:10ED000006D503F0CDFEA08D80210843A08505E047
:10ED1000A08D40218843A08502F057FA68788107CA
:10ED200002D5FD2108406870F8BD4249404848605E
:10ED3000414980178860C2074A60404988600420C2
:10ED40004860FFF7EDFDFFF7BEFB02F059FBFFF750
:10ED500095FDFFF71EFAFFF7F0FB01F0ACF903F0A9
:10ED6000A1FB06202ADF04202ADF012106202BDF59
:10ED7000002804D0FF2132A2C931FFF7D0FD0121C4
:10ED800004202BDF002804D0FF212DA2CB31FFF778
:10ED9000C6FD062026DF002804D0FF2128A2CD31A1
:10EDA000FFF7BDFD042026DF002804D0FF2124A2A8
:10EDB000CF31FFF7B4FD62B601F066FE234D244E5D
:10EDC000244F254C02F02AFB286800282ED13088D9
:10EDD000398888422AD121480068002826D1204855
:10EDE000018820480088814220D11F4800698006A0
:10EDF000C00F00281AD0FFF7C7FDFFF718FE01F07B
:10EE0000E7FA01F016FD01F0B1FD03F082FF607832
:10EE1000410604D5BF210840607002F0B6F9FEF744
:10EE200059FDFEF7C0FFFFF743FCCBE700BFE4E767
:10EE3000DFFF07C0000500400063004000430040C2
:10EE40002E2E5C6D61696E2E630000001824002078
:10EE50006624002064240020742400206C240020F8
:10EE6000682400206A2400200005005070B584B09A
:10EE70000F211020FFF70CFA0F2001250146019009
:10EE800003AB322200951020FFF7C2FA4F216846EB
:10EE90000173002403AE202332220F21102000969C
:10EEA00001950294FFF770FA684604732123322219
:10EEB0000F211020009601950294FFF765FA68462D
:10EEC0000473222332220F21102000960195029410
:10EED000FFF75AFA68460473232332220F211020C9
:10EEE000009601950294FFF74FFA684604732423B5
:10EEF00032220F211020009601950294FFF744FA68
:10EF000068460473252332220F21102000960195B4
:10EF10000294FFF739FA684604732E2332220F2138
:10EF20001020009601950294FFF72EFA68460473AC
:10EF3000302332220F211020009601950294FFF712
:10EF400023FA6846047332231A460F2110200096D4
:10EF500001950294FFF718FA6846047333233222AE
:10EF60000F211020009601950294FFF70DFA6846D4
:10EF70000473382332220F21102000960195029449
:10EF8000FFF702FA5821684601733A2332220F2113
:10EF90001020009601950294FFF7F6F902216846C9
:10EFA00001733B2332220F21102000960195029419
:10EFB000FFF7EAF90721684601733C2332220F214B
:10EFC0001020009601950294FFF7DEF9142168469F
:10EFD00001733D2332220F211020009601950294E7
:10EFE000FFF7D2F9FD48418D2A021143418504B053
:10EFF00070BDF0B585B0002468460474012504AEE8
:10F00000242332220F211020009601950294FFF74D
:10F01000BBF9684604742E2332220F21102000967B
:10F0200001950294FFF7B0F9EC4F788DC0040AD532
:10F0300068460474252332220F2110200096019582
:10F040000294FFF7A1F91F20694608742023322299
:10F050000F211020009601950294FFF795F9E048E2
:10F060008470E0480482788D80040DD5DE48006805
:10F0700005F010FE002803D0DCA27121FFF74FFC41
:10F08000788DDE490840788505B0F0BDD54840222E
:10F09000018911430181ACE7F0B585B0D14D412123
:10F0A0002889884328814F20694608740024012656
:10F0B00004AF202332220F211020009701960294E2
:10F0C000FFF762F9C64884702C82CD48C470047280
:10F0D000C24D688D4004400C6885688DC0040DD514
:10F0E000402069460874252332220F211020009702
:10F0F00001960294FFF748F905B0F0BD688D8004D1
:10F10000FAD40124B848640300222146006805F0BF
:10F1100098FD002803D0B5A29821FFF700FC688D68
:10F120002043688505B0F0BDF0B585B0AB4C608D6F
:10F13000B44908406085608D0025C004012704AEF5
:10F1400000280ADA68460574252332220F21102090
:10F15000019700960295FFF717F96846057420237A
:10F1600032220F211020019700960295FFF70CF92B
:10F17000608D80040DD59C48006805F08BFD00284B
:10F1800003D09AA2B921FFF7CAFB608D9B490840C2
:10F19000608505B0F0BDF0B499490F789A49012F08
:10F1A0004A7ACB7F8C79CD790E7A0FD0022F2FD06F
:10F1B0001F0752D5A64207D90B469C791B7A1B1B09
:10F1C000012847D098184872F0BC7047DF060ED56A
:10F1D000AC42F9D98C4BDC799B791B1B012803D0FD
:10F1E00098184872F0BC70474B72F0BC70479B0691
:10F1F000FBD5B442F9D9844B1C7A9B791B1B01289F
:10F2000003D098184872F0BC70474B72F0BC70473E
:10F210001F070ED5A542F9D97B4B9C79DB791B1BC7
:10F22000012803D098184872F0BC70474B72F0BCAC
:10F2300070479B06FBD5B542F9D9734B1C7ADB7935
:10F240001B1B012803D098184872F0BC70474B7202
:10F25000F0BC70474B72F0BC7047DB06FBD5AE428A
:10F26000F9D9694BDC791B7A1B1B012803D098184C
:10F270004872F0BC70474B72F0BC70476348418ADB
:10F28000491C4182018A01837047F3B581B00D4664
:10F29000002D7DD05E4F5A4C5048408D000478D5EB
:10F2A0000020E0715B480168491C01605A494868C8
:10F2B000401C48604B4A117AC90707D05649CB68B1
:10F2C0005B1CCB60798A491C798206E052498B68C5
:10F2D0005B1C8B60398A491C39825049C9680029F6
:10F2E0000ED03E4B5E8D36070AD4884208D3588D27
:10F2F0000821084358854A48402301781943017082
:10F3000048483C2101710198002801D1FFF7B6FF60
:10F310001689B0070DD541485168808B0918516096
:10F3200008F058FA3D49096808F030FB08F00EFA79
:10F3300026E070070DD539485168C08B0918516017
:10F3400008F048FA3549496808F020FB08F0FEF952
:10F3500016E0F0070AD03148C08B08F03BFA2F497D
:10F36000496808F013FB08F0F1F909E02B48808B9D
:10F3700008F030FA2949096808F008FB08F0E6F9B6
:10F3800024494A6812184A60234A5169091801E061
:10F3900000E149E05161F30706D0D3691B18D3613E
:10F3A0007A6812187A6005E093691B1893613A68CD
:10F3B00012183A601B4AD3881818D0801748806802
:10F3C00000287DD0054A538DDB0679D4814277D35E
:10F3D000508D102108435085D7E00000182A0020E6
:10F3E000C42B0020242B0020342400202E2E5C73FC
:10F3F000656E736F7233672E63000000FFDF0000DD
:10F40000042C0020FFFE0000E42B0020A42B002091
:10F41000F42A0020602A00209C2A002038260020A0
:10F420007024002042240020E078401CC0B2E0702C
:10F43000012804D1FE4903020A891A430A810021E6
:10F44000E1710C283CD1FB48418D0122D2031143CC
:10F450004185F94801680C310160F84948680C3071
:10F46000486088310E89F10707D0F449CA680C3228
:10F47000CA60798A0C31798206E0F0498A680C32D8
:10F480008A60398A0C313982ED49C96800290ED069
:10F49000E84A538D1B070AD4884208D3508D0821AF
:10F4A00008435085E7484022017811430170E6493E
:10F4B0003C200871DE49B00711D5E148808B00E09F
:10F4C00063E00C2250434A6812184A6008F082F93F
:10F4D000DB49096808F05AFA08F038F92CE070079F
:10F4E0000FD5D7480C22C08B50434A6812184A6087
:10F4F00008F070F9D249496808F048FA08F026F98E
:10F500001AE0F0070CD0CE480C21C08B484308F01D
:10F5100061F9CB49496808F039FA08F017F90BE0AE
:10F52000C7480C21808B484308F054F9C449096846
:10F5300008F02CFA08F00AF9BF494A6812184A6024
:10F54000BE4A516909185161F30706D0D3691B18E7
:10F55000D3617A6812187A6005E093691B18936189
:10F560003A6812183A60B84AD3881818D080B4485C
:10F570008068002809D0AF4A538DDB0605D481424C
:10F5800003D3508D1021084350856D1EEDB2002D20
:10F5900000D081E603B0F0BD30B4AC48AC4B017C88
:10F5A000427C891AC9B29972827CC47C121BD2B285
:10F5B000DA72047D407D201AC4B21C73A548837999
:10F5C000C579007AAB421FD1834210D1914204D356
:10F5D000A14202D330BC012070478A4204D3A24228
:10F5E00002D330BC0220704730BC032070478342F6
:10F5F00007D9914202D330BC0120704730BC0220B1
:10F60000704730BC03207047AB4211D9834207D109
:10F61000A14202D330BC0120704730BC03207047A8
:10F62000834202D930BC0120704730BC03207047B0
:10F63000854207D1A24202D330BC0220704730BCC1
:10F6400003207047854202D930BC0220704730BC8D
:10F65000032070477F48C07F0107002901DA01209D
:10F660007047C00601D502207047032070478842CA
:10F6700002D3401A00B27047081A00B27047F0B5C2
:10F6800085B07548018A491C0182694C6E48228AFE
:10F69000017840786E4E002A15D0521E92B2228216
:10F6A000002A10D1634A538D5B045B0C5385002202
:10F6B000F2703272A318C033997218749875521C84
:10F6C000D2B2062AF6D3634DAA78652A01D2521C1B
:10F6D000AA70EA78652A01D2521CEA702A79652A52
:10F6E00001D2521C2A716A79652A01D2521C6A71B0
:10F6F0004F4B5A89803292B29C898034A4B2A4467E
:10F70000DB8980339BB20393504CA3780493042B82
:10F710007ED3029101904C488078009061792171EC
:10F72000A0796071E379A371D2B2E27108189918D7
:10F730004018810844480170637A2372A77A67727F
:10F74000BE46E07AA0726246D2B2E272734480187A
:10F7500018183D4A80085070627B2273A37B637344
:10F760009E46E37BA3739C46039BDBB2E373174681
:10F7700062467744D218BA18334B92089A70049BA9
:10F78000042B6BD0304A0298FFF771FF052801DA8D
:10F790000298107051780198FFF769FF052801DA87
:10F7A0000198507091780098FFF761FF052801DA01
:10F7B00000989070217C1078814200D22074A37C44
:10F7C00051788B4200D2A174237D9278934200D26B
:10F7D0002275637C834200D96074E37C8B4200D93C
:10F7E000E174617D914200D962750022E97FCB0707
:10F7F0007ED02B7F834249D248084000E877607F63
:10F800002077297F6177FFF732FF617E884200E031
:10F81000BAE13BDB0020064F3918C031CB7A8B723E
:10F82000401CC0B20528F7D33818297FC03016E035
:10F83000242B0020182A0020602A00209C2A002067
:10F84000382600207024002042240020C42B0020F1
:10F85000042C0020E42B0020A42B002017E0817250
:10F86000607F217F88420DD2A37D83420AD98B42DB
:10F8700008D2E8780C38582802D8A879401CA8711A
:10F880000020E870FFF7E6FE012846D04EE0052391
:10F89000A3700027E770AF71EF712F726F7227743A
:10F8A000FF236374A774E37427756375A775E77501
:10F8B00027760F236376A376E37621776177A077A7
:10F8C000E0772A706A7029776877A8770823EB7742
:10F8D0003378002B1CD0B3707370FE4B5C8D6404C6
:10F8E000640C5C85F77037720023FB4FFC1800E056
:10F8F00015E0C034A1722074A2755B1CDBB2062B2C
:10F90000F4D36520A870E8702871687105B0F0BD67
:10F91000012333707370B370DFE7012206E02B7FA1
:10F92000834203D901200143E97768E7E87F810733
:10F9300036D5EA496B7F49788B423AD2FD2108409F
:10F94000E877E07FA077697FE177FFF790FEA17EFF
:10F9500088422EDB0020E04F3918C0314B7C0B74FD
:10F96000401CC0B20528F7D338186B7FC030037431
:10F97000E07FA17F88420DD2E37D83420AD98B428A
:10F9800008D228790C38582802D8E879401CE87148
:10F9900000202871FFF75EFE02280AD1022208E04B
:10F9A000CE496B7F49788B4203D902210843E8771F
:10F9B000C7E7E87F410736D5C849AB7F89788B42D6
:10F9C0003AD2FB210840E87768782870A97F6970EF
:10F9D000FFF74DFEE17E88422EDB0020BE4F391836
:10F9E000C031CB7D8B75401CC0B20528F7D33818C9
:10F9F000AB7FC03083756878297888420DD2237E2A
:10FA000083420AD98B4208D268790C38582802D828
:10FA1000287A401C287200206871FFF71BFE03281B
:10FA20000AD1032208E0AD49AB7F89788B4203D924
:10FA300004210843E877C7E7A84801782977417887
:10FA400069778078A877012A04D0022A2AD0032A6D
:10FA500032D03AE0607F217F884236D2A27D824256
:10FA600033D98A4231D2A8780C38582809D80020D6
:10FA7000307299489621018201210020FFF705FC90
:10FA80000DE0307A401CC0B23072032807D1914893
:10FA9000418D4904490C41850020F07030720020EE
:10FAA000A87012E0E17FA27F91420ED2E07D8842F1
:10FAB0000BD99042D7D308E069782878814204D2E4
:10FAC000227E8A4201D98242CDD3E078401CC0B266
:10FAD000E070322800D019E77F490889C20505D5B2
:10FAE0007F4A10400881F0784000F0700027E770EE
:10FAF000207C617C40184008A075A07CE17C401807
:10FB00004008E075207D617D4018400820760F2078
:10FB10006076A076E0767078B07030787070FFF71D
:10FB20003BFD3070717881421FD1B178814206D09F
:10FB30000220FFF730FB697A0120FFF7A6FB6F7206
:10FB4000E87FC7210840E8773178012905D00229EC
:10FB500007D020210843E8770AE008210843E87726
:10FB600006E010210843E87702E00120FFF713FBCD
:10FB7000AF71EF712F722774FF206074A774E07467
:10FB80002775607505B0F0BD564904984254A278B7
:10FB9000554960465054A278544903985054A0786F
:10FBA000401CA07005B0F0BDF0B4002150484A4A96
:10FBB0000A23C67ED35E24250224ED430022002EB4
:10FBC00004D0012E0ED0022E16D01EE0252B02DD11
:10FBD000C476012119E01A26F643B34215DB012150
:10FBE000C17612E0AB4202DAC27601210DE0252B8C
:10FBF0000BDDC476012108E0AB4202DAC2760121B6
:10FC000003E01B2B01DA0121C176334F037F0C2661
:10FC1000BE5F002B04D0012B0ED0022B16D01EE0AD
:10FC2000252E02DD0477012119E01A23DB439E42D1
:10FC300015DB0121017712E0AE4202DA02770121E1
:10FC40000DE0252E0BDD0477012108E0AE4202DA3B
:10FC50000277012103E01B2E01DA012101771E4FFB
:10FC6000437F0E26BE5F002B04D0012B0ED0022B4B
:10FC700016D01EE0252E02DD4477012119E01A235B
:10FC8000DB439E4215DB0121417712E0AE4202DAEE
:10FC9000427701210DE0252E0BDD4477012108E09C
:10FCA000AE4202DA4277012103E01B2E01DA012184
:10FCB00041770848408DC0040AD5074BD88A401CBC
:10FCC00080B2D8820B4CA04202D1DA8233209882D3
:10FCD000094813E0182A0020242B00204224002089
:10FCE000FFFE0000C82B0020CC2B0020D02B0020D2
:10FCF000A42B0020B80B0000042C00204379192409
:10FD0000002B05D0012900D1447143795B1E43715A
:10FD1000012908D1C2714179002904D1FD498A8A9B
:10FD2000521C8A824471F0BC70470902014308B238
:10FD300000110105002903DA0F210903084300B26D
:10FD4000C117090F081800117047F0B5B7B02F2080
:10FD50000126019004AB32220F2100961020FEF7FD
:10FD600057FB6946087CC006C00E0490062250432B
:10FD7000A8210191009006AB32220F211020FEF73E
:10FD800047FB002400256946087CE24F002820D963
:10FD900006A802195178005DFFF7C7FF7881D17876
:10FDA0009078FFF7C2FFB88151791079FFF7BDFF56
:10FDB000F881387A000702D5FFF7F6FE01E0FFF779
:10FDC0005EFCA41DE4B26D1CEDB26846007C854269
:10FDD000DED3D148408DC00440D5D04CE079401CE2
:10FDE000C0B2E0710C2839D10025FD826846057546
:10FDF00005AF242332220F2110200097019602958F
:10FE0000FEF7C2FA684605752E2332220F21102014
:10FE1000009701960295FEF7B7FA402168460175F2
:10FE2000252332220F211020009701960295FEF71C
:10FE3000ABFAB94E708D80040DD5B948006804F056
:10FE400029FF002803D0B74AF421FEF768FD708D22
:10FE5000B54908407085E571B448057037B0F0BD0C
:10FE6000F0B583B0AB4BB2491F894A8A7B08C88A78
:10FE70005B00AA4C0293A379824263D00126360428
:10FE8000824203D9101A80B2019003E0301A801820
:10FE900080B201900D8B888A854202D9281A80B2DF
:10FEA00002E0301A401980B2032B00D196208D82D7
:10FEB000CA8207F044FA05460E46019807F03FFA59
:10FEC00000229C4B07F03EFA2A46334606F0E6FF36
:10FED00006F000FE8F4B18600021A27A0125502AFF
:10FEE00000D30121E27A502A01D3491CC9B2227BF6
:10FEF000502A01D3491CC9B2884A8F4E527A521CEB
:10FF0000D2B2B0420EDB02290CD3F80702D0002097
:10FF1000607213E06272032A10D12F431F81002008
:10FF200060720BE0F80707D06272032A06D10298CC
:10FF300018810020607201E0002060720020A07132
:10FF400003B0F0BD032BFBD05B1CD8B2A07103281B
:10FF5000F6D170480299018100216172016003B0FD
:10FF6000F0BDF8B5754CE078401CC0B2E0700A28CE
:10FF70007ED10025E570E08800287AD0FF21693124
:10FF800048436F4906F0AEFC07F024FC07F006FB7F
:10FF90006C4A6D4B07F0D6F906F09CFD0127BF07B0
:10FFA0006A4EB84249DD6449694F884245DDB8422E
:10FFB00001DC684F41E06849884201DC674F3CE062
:10FFC0008122D2056649904201DC0F4635E0654A40
:10FFD000904201DC644F30E041273F0688422CDD2F
:10FFE000624A6349904201DC0F4626E0614AB04212
:10FFF00001DC174621E0604B984201DC5F4F1CE0BA
:020000040002F8
:100000005F4B984201DC5F4F17E05F4B984201DC89
:100010005E4F12E0B84201DC5D4F0EE05D4B98424E
:1000200001DA5D4F09E0884201DC5C4F05E0904257
:1000300002DC8327FF0500E0594F5A48007A07F099
:10004000C9FB394607F0A2FC07F0A8FA564A574BFD
:1000500007F078F906F03EFD314607F0C7FA07F0E1
:100060009DFA534A534B06F0ECFE06F033FD01E0D7
:1000700020E01EE0504907F089FC07F067FB4F497C
:100080008A6882188A604E4A516A411851624D4A04
:10009000D368C018D0604C480069002809D01E4AB7
:1000A000538D9B0605D4814203D3508D20210843F4
:1000B0005085E580F8BDF0B585B01748408D012525
:1000C000C0044027002404AE00287FDA6846047488
:1000D000242332220F211020009601950294FEF76E
:1000E00053F9684604742E2332220F211020009603
:1000F00001950294FEF748F96846077425233222D9
:100100000F211020009601950294FEF73DF97F2102
:1001100068465CE0242B0020182A0020042C0020D4
:1001200034240020ECF30100FFDF00003C24002019
:10013000A42B002000004940000020404224002061
:10014000A08601006E6E4C4F58E2E33F0000C040B5
:10015000000040403333534000006040333373406D
:100160000000A040000090409A99C9406666A640F1
:1001700000001041000020416666D640000030417A
:100180000000E040000038410000F040000048411D
:10019000000058419A9909410000604100007041F7
:1001A0000000904158260020EC51B81E85EB913F8D
:1001B000FCA9F1D24D62403F00007A44602A002041
:1001C0009C2A0020F42A00203826002021E0017417
:1001D000302332220F211020009601950294FEF761
:1001E000D3F868460474242332220F21102000968D
:1001F00001950294FEF7C8F8212168460174322364
:100200001A460F211020009601950294FEF7BCF8C3
:1002100016E068460774242332220F21102000962E
:1002200001950294FEF7B0F84C21684601742E2324
:1002300032220F211020009601950294FEF7A4F8B7
:10024000ED4938220889904308814C828C82EB4822
:1002500004710020420052181483401CC0B23C2894
:10026000F8D305B0F0BDF0B585B0E34908220889A0
:10027000104330229043E14F0322BA7140084000FE
:10028000088100240C60DE48408D0126C00404ADC6
:10029000002845DA68460474242332220F211020F6
:1002A000019600950294FEF76FF8684604742E23B9
:1002B00032220F211020019600950294FEF764F877
:1002C000402168460174252332220F211020019617
:1002D00000950294FEF758F87F2168460174302398
:1002E00032220F211020019600950294FEF74CF85F
:1002F00068460474242332220F21102001960095B1
:100300000294FEF741F821216846017432231A460F
:100310000F211020019600950294FEF735F817E0A2
:10032000402168460174242332220F2110200196B7
:1003300000950294FEF728F84C21684601742E239C
:1003400032220F211020019600950294FEF71CF82E
:10035000A9493C2048823C718C82002042005218FE
:100360001483401CC0B23C28F8D3A64804804480C3
:100370008480C480A44884760A89A44B1A400A81E8
:100380000A228A5E2425ED430223AA4201DAC476BA
:1003900004E0252A01DDC37600E0C6760C228A5EE1
:1003A000AA4201DA047704E0252A01DD037700E0A0
:1003B00006770E228A5EAA4202DA447705B0F0BDC3
:1003C000252A02DD437705B0F0BD467705B0F0BDC4
:1003D000F0B585B08E4F387800283DD000246946AE
:1003E0000C74012504AE252332220F211020009623
:1003F00001950294FDF7C8FF402069460874242344
:1004000032220F211020009601950294FDF7BCFFC7
:100410004C20694608742E2332220F2110200096AA
:1004200001950294FDF7B0FF754D688D800410D4DE
:1004300001267848760300223146006804F001FC6A
:10044000002803D0744A7549FEF769FA688D304375
:1004500068856A48C4713C7005B0F0BDF8B5664C5B
:100460006F4E207A6F4F0007644D002872DAB86B28
:10047000401CB863F069401CF061608A00285FD0BE
:10048000401E80B2608200285AD15E488188491C93
:1004900081803046818D491C818563490889401CD3
:1004A0000881624A9078401C90703C2767823B200C
:1004B000431E5E0036194000368B00190683D8B201
:1004C0000028F5D1A38A00262383A6822B795B1C02
:1004D000DBB22B713C2B00D92F712B79494DED8864
:1004E0006D1CAEB24E4DED8D6D1CADB2AC464E4D99
:1004F0006D896D1CADB2AE464C4DED786D1CEFB202
:10050000032B37D3002345002D192D8B002D01D04F
:100510005B1CDBB2401CC0B20328F4D3032B10D009
:10052000002B18D0374803885B1C03803C48038DA0
:100530005B1C03858888401C88801079401C1071E2
:10054000F8BD3048C68036486346C385704648814A
:10055000D770F8BD17E02B4843885B1C43803048B8
:10056000438D5B1C4385C888401CC8805079401C63
:100570005071F8BD2348C68029486346C38570463C
:100580004881D770F8BDFFF76BFCA87903282BD002
:10059000F068401CF060B86A401CB86224494969A0
:1005A000002909D0164A538D5B0605D4884203D32F
:1005B000508D402108435085207A1E49C00709D03C
:1005C000F86A401CF8623069401C3061088B401C9E
:1005D0000883F8BD386B401C38637069401C70613B
:1005E000C88A401CC882F8BDB86B401CB863F0696B
:1005F000401CF061F8BD31E7242B0020042C0020C2
:10060000182A00204A240020A42B0020FFFD00000F
:100610003C24002034240020ECF3010055050000A8
:10062000602A00209C2A0020DC2A0020142B0020B5
:1006300038260020F42A002010B50446FF2191310D
:10064000204606F04FF9002909D06421204606F023
:1006500049F9002901D0A00701D0002010BD0120D8
:1006600010BD10B586B0CAA14A6809680592049108
:10067000C9A18C684B680A68C9680294019300920A
:10068000039100220388591E89B2FF241934A14224
:1006900004D3FF39193989B2A142FAD21C2903D3F4
:1006A0001C3989B21C29FBD2042905D3091F89B240
:1006B000521C92B20429F9D204ACA25C511889B23E
:1006C000072901D3C91F89B282786C46A45C6118DE
:1006D00089B2072901D3C91F89B2C078401884B2F2
:1006E000072C03D3E41FA4B2072CFBD2032A07D3A1
:1006F0001846FFF7A1FF002802D0E0B206B010BDF7
:10070000002C04D0641EA0B2C0B206B010BD0620FA
:10071000FAE710B504460020A07160712071012035
:10072000E070A070A04820802046FFF79AFFE0719B
:1007300010BD70B588B002469C48034678CB04963D
:1007400003950294019344690369806906940593B3
:100750000790500001AB1C5A022A06D10846FFF749
:100760006BFF002801D0641CA4B2E0B208B070BDD9
:1007700010B504462188A078FFF7DBFF0146E0783A
:10078000814202D0401CE0700BE00121E170A078B2
:10079000401CC0B2A0700D2803D1A1702088401C5D
:1007A00020802046FFF75DFFE07110BD10B5817914
:1007B000491CC9B281713C292CD100238371417934
:1007C000491CC9B241713C2913D1794C01222168DD
:1007D00092021143216043710279521CD2B202711C
:1007E000182A06D103710122520211432160FFF73A
:1007F000BFFF7049088800280CD0401E80B20880D6
:10080000002807D18720400108806B491022087812
:1008100010430870FFF7A5FB10BD68498878401C9D
:100820008870C00701D000BF70476549012008707B
:100830007047F8B56248017800297DD00021017029
:100840005E48C178491EC170C0785E4E0124002800
:1008500002D1B08D2043B0855B48FFF7A7FFFFF7BB
:10086000CAFE5A4908220878104308705849594D61
:10087000087800280AD0401EC0B20870002805D1B0
:100880002888800502D5002002F04EF952490878E8
:10089000002801D0401E08702878400712D54F4824
:1008A000007806280ED14E4F387800280AD0401E16
:1008B000C0B23870002805D14A48C08801F0DBFA80
:1008C0000A20387048490878002811D0401EC0B26C
:1008D000087000280CD141480078062808D12878F3
:1008E000400705D4002002F0EAF828882043288039
:1008F000708D000615D528880221C2070140D20F4D
:10090000114301D041060CD5C00403D5012001F0EC
:10091000C1FA02E0002001F0BDFA288833490840FE
:10092000288033490878002801D0401E08703149DA
:10093000087800280AD000E013E0401EC0B208701A
:10094000002803D12C480178214301702B490878F5
:10095000002806D0401EC0B20870002801D1FDF763
:1009600052FBF8BD264901200870704710B5244895
:10097000017800290BD0002101701248408DC0057C
:1009800005D52048007A400601D4FFF7DEF910BDF6
:10099000000503010604020000000303060104062B
:1009A0000205000305000000DF0700003C7A02009A
:1009B000182400205224002070240020582A0020EF
:1009C0003E240020182A00205424002074240020F3
:1009D000C6240020CC2400208F2400208C2400205A
:1009E0008D240020AC2400208E240020BFEF0000C6
:1009F000C92400203B2400206C2400200624002071
:100A00003F240020242B0020FE4910208860FE494E
:100A1000002008607047FE490320FC4A086000215E
:100A20001060101D0160F84802228260C16001223E
:100A3000026192064262F74A07205061F6488160DF
:100A4000E2E7F54900208860EF490860012008606E
:100A5000EC491020C8607047EC480023C360E949A6
:100A600009694906CA0F03210904002A01D08161DE
:100A700002E00122520482614161E848C1784908DC
:100A80004900C1700371BFE7E4480021C170817162
:100A9000C1714171018141818181C181DCE7DB4903
:100AA00000204861886103221204CA60DB490123E7
:100AB000CA781A43CA700871704730B4D74C012104
:100AC0002079D14D002814D02246517992790128FD
:100AD00015D0FE281AD0D24B1B18203B9B7FEB6110
:100AE0004B406371521C904218D9FE20207130BCDB
:100AF0007047A420E8616071217130BC7047EA61E1
:100B0000514061710220207130BC7047BD4A1020F5
:100B10009060E961FF20207130BC7047401C20715B
:100B200030BC7047BD480179FF2902D10021817195
:100B300092E77047B9490879FF2808D0401C08712E
:100B40000979B148012906D0FF21C1617047AD4A3A
:100B500010209060F4E7A521C1617047F0B414291A
:100B600000D314218407A40FAC4E70893789C31BAE
:100B70009D06AD0E40235B1B4D1CAB4203D8F0BC61
:100B80000020C04370478B069B0EA4012343A54C55
:100B90002354401C8006800E70810020002909D952
:100BA0007389155CE5545B1C9B069B0E7381401C8E
:100BB0008842F5D3B07AC01B8106890E4020401AC6
:100BC000142803D8F0BC0020C0437047F0BC0020BC
:100BD000704700B5944800781038112818D20300E7
:100BE0007B441B79DB189F44081E13142446355E92
:100BF0004C5213131313131358008C48042201781A
:100C0000114301708848854942780A70807848709D
:100C100000BD854881494078887084480822017861
:100C20001143017000BD8148012201781143017018
:100C300000BD7F4800780328FAD37E4A14210020A3
:100C4000FFF78CFF0028F3D074480222C1781143CB
:100C5000C17000BD764800780328FAD3754A142184
:100C60000120FFF77BFF0028F3D06C490222C878EF
:100C70001043C87000BD6D48022201781143017015
:100C800000BD6D48818D20221143818500BD6A48D9
:100C9000818D40221143818500BD64488022017806
:100CA0001143017000BD60484078002805D06248BB
:100CB000818D08221143818500BD5F48818D082206
:100CC0009143818500BD00B5544B1979012912D09B
:100CD0001A465279022911D0FF2913D042405A7185
:100CE000514A5218203A5077D879801C814201D954
:100CF000FF20187100BDA520587100BD42405A71F7
:100D0000D87100BD904201D1FFF763FFFFF7A4FE49
:100D100000BD70B4414C8026E389257B5D1B6D06C8
:100D20006D0E761B851CAE4203D870BC0020C043FC
:100D30007047424D461CEE545B1C5B065B0EE9544B
:100D40005B1C5906490EE1810021002809D9E3897D
:100D5000565CEE545B1C5B065B0EE381491C8142D2
:100D6000F5D370BC00207047F0B42C4CA089E68904
:100D7000B0421FD0314F395C491EC9B2A171401C2D
:100D80004006400EA081142901D31420A071002038
:100D9000A579691C00290DD9214A6D1CA1897B5CAC
:100DA0001354491C4906490EA181B14202D0401C8E
:100DB000A842F3D3F0BC7047F0B40446174B19892E
:100DC0005889814202D10020F0BC7047154E705CFA
:100DD000491C8906890E19818206920E142A02D9AD
:100DE0001422D42108400021002AEDD91D89755D07
:100DF00065541D7A6D1CAD06AD0E1D815F89BD4227
:100E0000E2D01DE000050050004500400007005002
:100E10000807005040450040004100405C2400208D
:100E2000142C00203E2C0020292C00206C240020B3
:100E3000382400202A2C0020182A00207E2C002094
:100E4000491C9142D2D3F0BC704730B585B0002424
:100E50000094019402940394049469460C70012553
:100E60004D7000A807228F49023005F041FC6A4608
:100E700081211420FFF74DFF009401940294039404
:100E80000494FF20694608704D706A468121142041
:100E9000FFF73FFF8448418DEA021143418505B0C9
:100EA00030BD70B481490320887181498020087069
:100EB0008048007848707C48408D7F4B06060122B0
:100EC000022400251888002E05DAC60701D04A70D2
:100ED00002E04C7000E04D708D70050400D58A7002
:100EE000420402D58A7822438A708004800C1880DC
:100EF000FF20C87070BC70476C48012181716C483C
:100F000085220270684A928DD206002A01DA417069
:100F1000704700214170704710B564490120887105
:100F2000634C8720207000F043F9607010BD10B54D
:100F30005E49082088715E4886210170082259495F
:100F4000401C05F0D5FB10BDF8B558490920887143
:100F5000574E822030705948C07B7070584F594CA2
:100F6000786800284ED0E16800294BD064225043B5
:100F700005F0B8FC06F02EFC534DA84200DD2846D3
:100F800006F0E4FBB070000AF070786900283BD0EE
:100F9000A168002938D06422504305F0A3FC06F074
:100FA00019FCA84200DD284606F0D0FB3071000A8B
:100FB0007071786A002829D02169002926D064221E
:100FC000504305F08FFC06F005FCA84200DD2846E2
:100FD00006F0BCFBB071000AF071B86A002817D0A7
:100FE0006169002914D06422504305F07BFC06F0AF
:100FF000F1FBA84200DD284606F0A8FB3072000A8B
:101000007072F8BD0020B7E70020CAE70020DCE7D7
:101010000020EEE7254A04209071254983200870BE
:1010200050694870030A8B70030CCB70000E087176
:1010300000205061704770B5044620781B4D002891
:101040000FD104222149204605F080FA002804D05F
:10105000E878FB210840E87003E0E87804210843C1
:10106000E870E878400704D52178032903D0FF29E8
:101070000CD0012070BD14221549204605F066FAF7
:10108000002801D0002070BD012070BD142211493C
:10109000204605F05BFA002801D0002070BD012039
:1010A00070BD000054240020182A00205C24002079
:1010B000142C002038240020CC24002058260020A6
:1010C0009C2A00203826002000009643567A020011
:1010D0005A7A02006E7A020070B50C462278112A04
:1010E00016D0142A14D0152A02D0212A25D10FE0B7
:1010F000E448042102880A430280E3480170E3497E
:1011000000200870E248012201781143017014E0C8
:10111000E04A017891714178D17181781172C0787B
:101120005072DD4DFF2902D0084601F0D9F9A878A8
:10113000FF2802D0D74920788880002070BD10B5E4
:101140001046002803D0D5A25D21FDF7E8FB10BDB5
:1011500070B50023FC22D549D54804F0A3F9D54C3D
:10116000D54D002802D1A06BA8420CD0FF22FC2153
:10117000CF4805F049FBA563D04840224178114390
:101180004170012070BD002070BD10B50023FC220D
:10119000C749C64804F035F9002803D0BFA2792119
:1011A000FDF7BDFBC549BF2248781040487010BD0F
:1011B0000020BF490A5CFF2A01D001207047401C73
:1011C00080B20528F6D300207047F8B500200090C3
:1011D000B0486946007808700024B54EB74F355DB9
:1011E000052D17D26846857004F0F8FC002803D05E
:1011F000AAA29A21FDF793FB30204543A819801D30
:10120000FF22302105F000FBFF2030557878402187
:1012100008437870641C052CE1D3F8BDF8B50020B4
:1012200000909C486946007808700025A04F002671
:101230000024385DA84201D1012602E0641C052C7F
:10124000F7D3284604F076FF002815D0002E0FD0E3
:101250000420021B3819411C05F0AEFAFF2038713A
:1012600030206843C019801DFF22302105F0CCFAE0
:101270006D1C052DDBD3F8BD002EF9D168468570B5
:1012800004F0ACFC002803D084A2C521FDF747FB85
:1012900030206843C019801DFF22302105F0B4FAC8
:1012A000E6E7F8B50446002100917A4968460978D6
:1012B0000170052C1FD27E4E804F355D052D17D253
:1012C0006846857004F08AFC002803D073A2EF21E1
:1012D000FDF725FB30204543A819801DFF22302152
:1012E00005F092FAFF20305579784020014379705B
:1012F000641C052CE1D3F8BD70B586B001246648A6
:1013000004F0A1FA002804D0FF2164A20831FDF7FF
:1013100006FB03F027FF002804D0FF215FA20C3159
:10132000FDF7FDFA664842696649521C02D0096918
:10133000406900E0486901266946CE80FC2088802B
:10134000614800905949684603F04BFF002804D0DB
:10135000FF2152A21531FDF7E2FAFFF7F9FE002551
:10136000002801D0059600E0059505A804F036FB9D
:1013700000281AD0059605A804F030FB002804D0F8
:10138000FF2146A22D31FDF7CAFAFF220521484868
:1013900005F03AFAFF22F0214C4805F035FA4748AB
:1013A0004022417811434170002469460D824D82EC
:1013B0001E20C881087C3043FD210840E3210840FD
:1013C0000C30DF210840694608740720487410205B
:1013D00088743F4802900E7302A92E4804F0A3FBC4
:1013E000002804D0FF212DA24531FDF798FAFFF720
:1013F00015FF002C02D00420FFF753FF06B070BD8C
:1014000010B50121334A084604F002F9002804D03F
:10141000FF2122A25631FDF782FA10BD70B51A489D
:10142000007804282DD12C4D2C4E2878194C0628F4
:101430000CD13078062809D36078410706D40421FE
:101440000843607000F00FFD00F011FD30780628B1
:1014500017D12878062814D36078010711D4082101
:101460000843607002F0BBFC02F0BDFC1C4C022281
:10147000A088002102F0BBFCA0880222012102F01A
:10148000B6FC70BDCC240020382400208E2400201F
:101490006C240020782400207E2400202E2E5C6DF9
:1014A00061696E5F626C652E630000008424002019
:1014B000002D0020C02D00201608142074240020C8
:1014C00000100010000000103F110200062D002047
:1014D000D9100200F15502008C24002024250020A0
:1014E0003C250020FE4907200870704738B50220CF
:1014F00069468870FB480880F94C6A46012160897A
:1015000090DF002802D0FFF7EDFF38BD03202070E8
:1015100038BD38B50020F449F44ACB88F04C9342EA
:1015200007D188886946401C08804880608993DF1D
:101530000AE0EF49CB88934206D188886946401C6F
:1015400008804880608993DF002802D0FFF7CAFF37
:1015500038BD0520207038BD30B4E6498978E04CAC
:1015600080886081052923D230204143E248081851
:101570002146C5880D8405894D84831C45898D8449
:101580000A4680892032C88498891081D889508180
:10159000188A9081588AD081988A1082D88A50827D
:1015A000188B9082588BD0820120207030BC7047FD
:1015B00030BC9BE730B4CA4C0146608992DF0028FA
:1015C00001D030BC8EE70420207030BC704708B5D5
:1015D000C18800290ED1818900290BD0C04A418AD7
:1015E0009181808AD0816A46118050806846FFF7D9
:1015F000E1FF08BDFFF776FF08BDF8B5C1880A46D0
:10160000FF3A0B3A01D0093211D1B748808800283F
:101610000AD0BA488088002806D0B54880880028BB
:1016200002D0FFF776FFF8BDFFF75CFFF8BD002999
:1016300002D0FFF757FFF8BD00220023818900295F
:1016400021D9AF4DAF4EB04F0A2159430A180E327F
:1016500000211488AC4201D1A34906E0B44201D173
:10166000A64902E0BC4200D1A149002907D00C8064
:1016700054884C8014898C800024E443CC805B1C0B
:1016800081899942E0D89648002A09D011896A4692
:10169000491C1180C08950806846FFF78BFFF8BD58
:1016A00081896A461180C08950806846FFF782FFB1
:1016B000F8BD10B5C1880A46FF3A0B3A03D009328B
:1016C00001D0002902D0FFF70DFF10BD8189864AA5
:1016D000874B00290FD00E3041888C4CA1420AD193
:1016E00000889488411E8C4201D1D08003E09C8800
:1016F0008C4200D1D880D1887C48814202D0D988E0
:10170000814202D1FFF705FF10BD75480621017027
:101710000321C1700A21417081707D494878C20956
:10172000F2D1802210434870724804F02BFA00284E
:1017300000D000BF0028E7D0FF2176A25131FDF78D
:10174000EEF810BD00B589B065480078062802D0D3
:10175000082009B000BD00216B461971734842781A
:101760005A7182789A71C278DA7100791872597256
:101770006248808858820620D88299820120187495
:1017800001A8069004A801F017FF09B000BD00B53C
:1017900089B053490978062902D0082009B000BD54
:1017A00000216A461171837A5371C37A9371037B66
:1017B000D371407B10720120507220239372D1723A
:1017C0004E4A93886A4653820823D38291821074CA
:1017D00001A8069004A801F0EFFE09B000BDF0B525
:1017E00085B0054652A04168006802910190A88822
:1017F000009000240098002870DD4C4E30462830C0
:10180000049020380390364F786909283FD20300AE
:101810007B441B79DB189F44040A10161C22282ED7
:101820003B0028198079307001207861E1E02819A7
:101830008079707002207861DBE028198079B070BF
:1018400003207861D5E028198079F0700420786150
:10185000CFE028198079307105207861C9E0281916
:101860008079707106207861C3E028198079F08052
:1018700007207861BDE029198979F08809020843B9
:10188000F080082078610398B86100203882B0E0C9
:10189000B8690499884221D2039988421ED3291934
:1018A00089790170401CB861398A491C89B2398232
:1018B000F2888A427ED100210170401CB861052067
:1018C000786178793A8A41011B480818039904F035
:1018D0000FFF7879401CC0B278712FE08EE00000D5
:1018E0008C24002031F40000AC240020FFFF000015
:1018F000BC2400207E240020002D0020B4240020E1
:101900000D120000F3D80000E9C600000229000013
:10191000742400202E2E5C736572766963655C62A8
:101920006C655F616E63732E630000003C2E0020C7
:10193000E5BEAEE4BFA10000FC2D0020012853D17C
:101940000822F949F9A004F077FE002858D00622B1
:10195000F549F9A004F070FE00285ED00622F24995
:1019600001A804F0F3FD002857D00822EE49F4A0A6
:1019700004F062FE00285DD00922EB49F3A004F0D8
:101980005BFE002863D00722E749F3A004F054FE71
:10199000002869D00522E449F1A004F04DFE00289A
:1019A00065D00A22E049F0A004F046FE002861D08C
:1019B000052200E01DE0DC49EEA004F03DFE002819
:1019C00065D00222D849EDA004F036FE00286BD085
:1019D0001322D549EAA004F02FFE002872D0FFF7A9
:1019E000B1FE0020786178717879012801D9002052
:1019F0007871641C0098844200DA04E705B0F0BDF9
:101A000005203871E3488022417811434170E24853
:101A10000222417811434170E3E706203871DD4826
:101A20008022417811434170DB4802224178114302
:101A30004170D6E707203871D648402241781143DB
:101A40004170D5480222417811434170C9E70B200B
:101A50003871D0484022417811434170CE4802226B
:101A6000417811434170BCE708203871B9E709207B
:101A70003871B6E70D203871C648202241781143ED
:101A80004170C5480222417811434170A9E70E20F8
:101A90003871C0482022417811434170BE4802226B
:101AA0004178114341709CE70F203871B94880227A
:101AB000417811434170B848022241781143417086
:101AC0008FE7FFE70A203871B248082201781143F6
:101AD0000170B148022241781143417081E7F8B5A5
:101AE00000210C30AD4B02889B889A4259D18388E3
:101AF000022B56D38279002A52D1A94CA271C27905
:101B0000E271077A2772467A66720023E361520710
:101B100046D4A04A9F4B12785D78072F39D23B00FC
:101B20007B441B79DB189F4420030C341C152400D4
:101B3000984B01252A431A709A4B03221A7025717B
:101B400020E0944B02252A431A70964B04221A7007
:101B5000257117E08F4A10231D435570032222710F
:101B600010E00121904A167013E00C21217101212F
:101B700008E004222271874A20231D435570894AB8
:101B800009231370884A1670834A022553782B4321
:101B90005370012904D1FFF7FAFD002060616071E4
:101BA000F8BD824989888A42FAD181880229F7D30F
:101BB000FFF715FEF8BD38B50221009178490024E1
:101BC0000C70002825D06946794863DF002803D0CF
:101BD000784A7949FCF7A3FE6D46691C774863DFB4
:101BE000002803D0734A7649FCF799FEA91C754872
:101BF00063DF002804D0A7216E4A8900FCF78FFE1E
:101C0000E91C714863DF002803D06A4A6F49FCF77A
:101C100086FE6348048401464484203184840C8118
:101C20004C818C810C824C828C826A496848C880C5
:101C30000839C8801031C8806749FB2208781040F5
:101C4000087038BDC188624A914208D00088634953
:101C5000884202D06249884201D1012070470020A9
:101C6000704710B501885F4A937811290CD04C4C0D
:101C70002278072A3CD213007B441B79DB189F444F
:101C8000383D37BBC0C5CA00052B2ED24348FFF7ED
:101C9000D9FF002829D04548FFF7D4FF002824D0D9
:101CA0003020434350483E4918180C8CC4804C8C5B
:101CB00004810A468C8C4481831CC98C203281812A
:101CC000108998815089D88190891882D08958824A
:101CD000108A9882508AD882908A1883D08A588332
:101CE000424840224178114341700020FFF763FFD2
:101CF00010BD1029FCD1FFF72FFC10BD172901D012
:101D00001429FAD12548FFF79DFF002871D02748F4
:101D1000FFF798FF00286CD0062020700320E070A9
:101D20000A206070A07010BDFC2D002057686174FF
:101D300073417070000000005765436861740000D3
:101D400046616365626F6F6B000000004D657373E1
:101D5000656E67657200000054776974746572007F
:101D6000536B7970650000005961686F6F204D6199
:101D7000696C0000476D61696C0000005151000002
:101D8000636F6D2E6170706C652E4D6F62696C654E
:101D9000534D5300702400206C240020AC240020FC
:101DA0008C240020392400203A240020BC24002068
:101DB000827A02001419020096020000927A020050
:101DC00099020000A27A0200B27A02009F0200008B
:101DD000FFFF0000B4240020792400200D12000031
:101DE000E9C600007E240020002D0020742400207D
:101DF000FFE7FFF77BFB10BD3029FCD1FFF7E7FBC6
:101E000010BD3229FCD1FFF7F8FB10BD3329FCD1FE
:101E1000FFF74FFC10BD3829FCD1E1780029F9D13A
:101E2000FFF75DFE10BD00B587B0164A1278062A8E
:101E300002D0082007B000BD01230022002902D0F3
:101E400069460B7101E069460A7169464A71488129
:101E50000220C8818A810B7201A8049002A801F0B7
:101E6000ABFB07B000BD08480121C088DBE707488D
:101E70000121C088D7E7014605480022008895DF88
:101E8000704700008C240020AC240020BC240020DB
:101E90007A24002030B585B0002400940194029487
:101EA00003940494FE4901250D7069460C700C7270
:101EB000002802D02820088202E0FA4869460882F9
:101EC0001E2069464882684673DF002803D0F6A2C8
:101ED000FB49FCF724FDFB4A108928431081FA488E
:101EE000017829430170147005B030BD10B5FF2191
:101EF000EDA2EB31FCF713FD10BD10B50068002812
:101F000003D0012800D100BF10BDF0483B2100885C
:101F100076DF002804D0FF21E3A2D631FCF7FFFCD6
:101F2000E848EB4A01891140412211430181E94A05
:101F300000211170E84A1170E34A01241378234309
:101F400013700170817010BD00B589B00020009041
:101F5000019020216A4611804021518090804B21C0
:101F6000C900D1800590069069460291DB49039132
:101F7000049103211175DA494989D1821076D94833
:101F80000790D948089002A802F011FA002804D05E
:101F9000FF21C5A2C331FCF7C2FC09B000BD00B5EA
:101FA000A1B006200290D1480168019140680090DC
:101FB0003C2112A804F04FFC3C2103A804F04BFC88
:101FC00002201290002010A948730120088202A963
:101FD000159110A9888501A91C9169460885684654
:101FE0000B9003A912A802F06EF9002803D0AEA24C
:101FF0008D21FCF794FC21B000BD10B48FB00021FE
:1020000008910A910B910C910D910E9108AB1A78E1
:1020100004231A4308AB1A70B5A2099209226B4631
:102020001A855A8506229A72B44A1A8101919A79C0
:10203000F9231A40921C6B461B7900231C07240FBE
:102040006B461C715B7901231C07240F10346B460F
:102050005C71520852009A7105910691079102AA8B
:10206000039201AA049214229A82D9821A83848844
:1020700003461E3303AA08A92046A2DF0FB010BCF6
:10208000704730B490B00022089208AD2B7801233D
:102090001B071B0F10332B706B7801231B071B0FC3
:1020A00010336B70AB78F92423409B1CAB70099202
:1020B0000B920C920D920F922B7904252B43102535
:1020C0002B4308AD2B718EA30A930D236D46AB8570
:1020D000EB8508AB0E930623AB728D4B2B810192DF
:1020E000AB7923409B1C2C7900242407240F2C71EE
:1020F0006C7901242407240F10346C715B085B0099
:10210000AB710592069202AA039201AA04921422CC
:10211000AA822A831231079184880346163303AAC0
:1021200009A92046A2DF10B030BC704710B48FB0B0
:10213000002108910A910B910C910D910E9108AB21
:102140001A7804231A4308AB1A7072A20992072264
:102150006B461A855A8506229A72704A1A81019135
:102160009A79F9231A40921C6B461B7900231C07AD
:10217000240F6B461C715B7901231C07240F20344C
:102180006B465C71520852009A7105910691079155
:1021900002AA039201AA049214229A82D9821A8373
:1021A000848803460E3303AA08A92046A2DF0FB095
:1021B00010BC704770B48FB0002207926E46337F18
:1021C00001231B071B0F10333377737F01231B077A
:1021D0001B0F20337377B37FF9252B409B1CB377FC
:1021E00008920A920B920C920E9208AE3378102449
:1021F000234333704AA3099307236E4633857385BF
:1022000007AB0D930623B371474BB3800092B478AC
:102210002C40A41C337800231B071B0F33707378EA
:1022200000231B071B0F737063085B00B3700492DD
:10223000059201AA02926A46039214223282B28265
:10224000123106918488831D02AA08A92046A2DFC4
:102250000FB070BC704730B585B004460D46286895
:1022600020600020C043E084294620461422123119
:10227000283004F03DFA0620694688742B4808820D
:102280001A4B08330FCB039302920191009004A9DB
:102290000231684663DF002866D1221D04A947E0A9
:1022A00038240020640600002E2E5C736572766967
:1022B00063655C626C655F696D617A652E630000C1
:1022C000B6040000C42400206C2400207A240020DE
:1022D000711A00008D2400208E240020007102005D
:1022E000642E0020FB1E0200ED1E0200C47A0200D4
:1022F0004E657720416C6572740000002430000048
:102300004E65766F204669726D77617265000000D8
:10231000233000004E65766F205278002230000096
:102320004E65766F20547800213000002030000088
:102330000120A0DF002817D129462046FFF73AFFE9
:10234000002811D129462046FFF7F0FE00280BD1C6
:1023500029462046FFF795FE002805D1294620464C
:10236000FFF74BFE0028FFD105B030BD00B58BB0A4
:102370000020009001900290039004900590069038
:1023800007900890099001200007000F103069465F
:10239000087201200007000F10304872012000076A
:1023A000000F1030087300200007000FC8720120D2
:1023B0000007000F1030487301200007000F103095
:1023C000887301200007000F1030487400200007B8
:1023D000000F0874F848FFF73EFF002803D0F74AC3
:1023E000C121FCF79CFA0BB000BD00B591B04021B3
:1023F000684604F030FAF2A1684601F097FFF2A1B6
:1024000004A801F093FFF2A108A801F08FFFF1A149
:102410000AA801F08BFF01200007000F103008A967
:10242000087700200007000F4877684601F09BF905
:10243000002803D0E14AA521FCF771FA11B000BDD4
:1024400000B585B001200007000F20300190E24860
:1024500004F0D0F882B2E04901A87CDF002803D064
:10246000D64A5621FCF75BFAC12078DF002803D05A
:10247000D24A5A21FCF753FA0020029003902021FF
:102480006A4611814021518190814B20C000D0814A
:1024900002A87ADF002803D0C84A6521FCF73FFA7A
:1024A00005B000BD10B50020FEF726FF01F002F8D0
:1024B0000120FFF780FB01F091FBFFF7C1FFFFF761
:1024C00094FFFFF753FFFFF76AFDFFF73DFDC34899
:1024D000418D8022114341850120FFF7DBFC10BDB7
:1024E00070B50446BE4D2878A0421AD00020295C61
:1024F000A14208D1042809D204210A1A2818411C33
:1025000004F05AF902E0401C0528F0D30422B44933
:10251000681C04F051F92C70B248402241781143F4
:10252000417070BDF0B58BB001460024AE4EAF4A8D
:102530003778138908880122174315287ED00ADCD2
:10254000A84D01282A787AD010280DD011282AD039
:10255000122873D1A5E0172872D0192871D0352818
:1025600070D037286AD1A9E0A14889880180A148A4
:102570000178032901D203210170580840009E49C7
:1025800008439A49088137709848002141710A210F
:10259000817068784006400E6870FB200240DF20A2
:1025A00002402A70A6E0914F8879B871082801D1BD
:1025B0000420787191488078FF2801D0FFF790FFC0
:1025C00087480079FF2802D00420FEF76AFE8B4876
:1025D00003F039F904462046002803D0774A884999
:1025E000FCF79DF900F066FF00218148C943018096
:1025F0003989844A38461140412211430181824978
:1026000000270F7081490F7031780122114331701A
:102610002978FB221140DF22114007708770FD20CE
:102620000140297068784006400E687008200190CB
:1026300001A902A87DDF6946888804E05AE032E0FB
:1026400035E041E03DE00126714D3603082816D9FA
:102650000F7402A9604803F0A7FF01200007000FD4
:1026600020300A905C4803F0C5FF82B25A490AA89C
:102670007CDF286830432860FFF791FC3AE002A92C
:102680000F54554902A804F0E9F8002832D002A9F5
:10269000514803F089FF286830432860FFF77FFC2A
:1026A00028E000BF26E0FD2002402A7022E0887961
:1026B00000281FD15749032008701BE000F022FFBB
:1026C00018E000F01FFF15E08879002802D00128EB
:1026D0000FD00FE04B4845490340412003430B8195
:1026E000494A00201070494A10703770087088708D
:1026F00000E000BF2046002803D0304A4649FCF7DE
:102700000EF90BB0F0BD70B5384CA078022801D29C
:102710000220A070088B142817D108461A300546ED
:10272000FEF789FC002810D02A4684211420FEF7E9
:10273000F0FA002809D0208901218903084320816B
:102740002948012201781143017070BDF0B4084698
:102750001A30264A02279378022B00D29770098BF1
:10276000142926D14178602923D10178002920D16C
:10277000C17800291DD01C4D8178294C687802232E
:10278000264E6278184301294CD023461B78032932
:1027900050D0042956D005295BD0072961D00A29D9
:1027A00067D00B2905D12E21317080210A43627038
:1027B0006870F0BC70470000642E0020A822020060
:1027C000446179746F6E0000323334353600000096
:1027D00033350000303000000C280020182A00207B
:1027E000002D0020742400206C240020C42400202C
:1027F0007A24002038240020021200007E240020C9
:102800008F020000711A00008D2400208E24002009
:10281000182400208F240020FA02000090240020B9
:10282000702400202821317020210A4362706870D2
:10283000F0BC70472921317001210B43237068706F
:10284000F0BC70472A2131703B4323706870F0BCA4
:1028500070472B21317008210B4323706870F0BC46
:1028600070472C21317010210A4362706870F0BCEF
:1028700070472D21317040210A4362706870F0BCAE
:10288000704770B50446F84D20262A891046D106B7
:102890003043002901DA28813EE02178002903D065
:1028A00093060BD5002070BD00202871B2432A8109
:1028B00014222146ED4803F01BFF1DE0FF2908D03C
:1028C000EA78FE2A09D0521C91420BD028810120BF
:1028D00070BD102002432A8104E0012902D0288122
:1028E000012070BD287912214843E0491222401886
:1028F000801CA11C03F0FCFE2078E8702879401CA5
:10290000C0B22871042807D12078FF2804D0288974
:1029100030432881012070BD002070BDF8B5084605
:102920001A300090D04CA278022A01D20222A27062
:10293000098B14291BD14178F22916D0F32914D020
:10294000F42912D00A46203A212A11D301290FD0A6
:1029500045290DD00126891EB703C54D1E2913D266
:10296000FFF78FFF012806D00BE0FFF78AFFF8BDC5
:10297000FFF787FFF8BD208938432081287830434E
:102980002870207A8006F5D481211420009AFEF761
:10299000C0F90028EED020893843208128783043C0
:1029A0002870F8BD088B02280AD1AF4A8B7E1089A7
:1029B000012B02D1C97E002903D0AE490840108105
:1029C00070470121490308431081AB48FD2201787B
:1029D00011400170704710B4088B02280AD1A24A36
:1029E0008C7E08231089012C02D1C97E002903D0D6
:1029F0009843108110BC7047184310819E48FD22F7
:102A000001781140017010BC704710B5964A891DBD
:102A100011610A8843899A4202D1FFF7DCFF10BD99
:102A2000438B9A4202D1FFF7BDFF10BDC3899A4282
:102A300002D1FFF773FF10BDC38B9A4202D1FFF79B
:102A400085FE10BDC38A9A42FBD1FFF75CFE10BD24
:102A50000021C943C18470478988C18470470A88AE
:102A6000102A04D0112A03D0502A02D1CDE7F3E76F
:102A7000EEE7704710B50446204603F055F92146AD
:102A80007E48FFF7ECFF204601F03AFD2046FFF7B5
:102A9000E8F8204601F0CFF82046FFF743FD10BDCF
:102AA00010B577481321008876DF044620460028B9
:102AB00003D0744A7449FBF732FFE0B210BD70B521
:102AC0000646694C2189C80701D074DF03E08807F6
