:020000040001F9
:10D00000E83C0020B5D10100CFD10100D1D1010011
:10D010000000000000000000000000000000000010
:10D02000000000000000000000000000D3D101005B
:10D030000000000000000000D5D10100D7D10100A0
:10D04000D9D10100D9D10100D9D10100D9D1010034
:10D05000A7E30100000000003BE301006FE60100D0
:10D06000D9D10100D9D10100D9D10100D9D1010014
:10D07000D9D10100D9D10100D9D10100D9D1010004
:10D08000D9D10100774B0200D9D10100D9D10100DB
:10D09000914B0200D156020069640200D9D101000F
:10D0A000D9D10100D9D1010000000000000000002A
:10D0B0000000000000000000000000000000000070
:10D0C00000F002F800F03AF80CA030C80838241834
:10D0D0002D18A246671EAB4654465D46AC4201D1B0
:10D0E00000F02CF87E460F3E0FCCB64601263342A8
:10D0F00000D0FB1AA246AB463343184770AC000081
:10D1000090AC00000023002400250026103A01D333
:10D1100078C1FBD8520700D330C100D50B607047EF
:10D1200010B5782902D109F009FA10BD002010BD10
:10D130001FB5C046C0461FBD10B510BD0AF083FC28
:10D140001146FFF7F5FF01F078FD0AF09BFC03B4F0
:10D15000FFF7F2FF03BC0AF09FFC0000401E00BF77
:10D1600000BF00BF00BF00BF00BF00BF00BF00BFC7
:10D1700000BF00BF00BFF1D17047000070B5054689
:10D180000C46164602E00FCC0FC5103E102EFAD208
:10D19000082E02D303CC03C5083E042E07D301CCCE
:10D1A00001C5361F03E021782970641C6D1C761EB2
:10D1B000F9D270BD03210C4802680A4302600B4893
:10D1C00002680A4302600A4880470A480047FEE7AF
:10D1D000FEE7FEE7FEE7FEE7FEE700000648074938
:10D1E000054A074B704700002405004054050040E5
:10D1F000B9D20100C1D00100E8320020E83C002093
:10D20000E83200203D49088CC0B2012814D1888C36
:10D21000000711D1088D0006000F0A2803D18A8D5E
:10D220001206120F02D00D2802D005E0012070472F
:10D23000888D0006000F01D0002070470120704744
:10D240002E48018CC9B201290BD1818C090708D164
:10D25000018D0906090F042903D1808D0006000FF6
:10D2600001D000207047012070472449088CC0B2CB
:10D2700001281DD1888C00071AD1088D0006020FE5
:10D2800003D18A8D1206120F03D0000F012802D09D
:10D2900005E0012070478A8D1206120F02D0032884
:10D2A00002D005E001207047888D0006000F01D0F4
:10D2B000002070470120704710B5FFF7D6FF002807
:10D2C00005D010490E484860C8130F498861FFF720
:10D2D000B7FF002802D00D4901208860FFF792FFB8
:10D2E00000280AD00A480168012904D009490160D0
:10D2F00001680129FCD1C021416110BDC00F00F0BF
:10D30000DFFF07C000050040006C00400006004041
:10D3100000EC06407593000002465D49087D002838
:10D3200008D000200B181B79934204D0401CC0B2D7
:10D330000828F7D3FF20704718B4044669462046F2
:10D34000E7DF694608788007800F009002280BD33A
:10D350002046C5DF69462046E7DF6846007881073A
:10D36000890F00910229F3D218BC704770B50020D4
:10D37000FFF7D2FF0546FF2D11D0454C208840080D
:10D380004000208000206074A074E0742846FFF7FD
:10D39000D3FFFF2061190871207D401C207570BDEE
:10D3A00082B002783B49515C082905D110216A46B8
:10D3B000117000780821C7DF02B070470178354846
:10D3C000085C002800D1D1E7704770B483B00446F0
:10D3D0002178E0784E2803D04F2801D0502848D13A
:10D3E0002B4D68180079002843D1687C002600285E
:10D3F00018D0C8B26B4601AA02A9D4DF68460089DA
:10D4000000280FD024494A8C824206D06880488484
:10D41000224820220178114301706E74288801216E
:10D4200008432880287B617A884211D1687BA17AE1
:10D4300088420DD1A87BE17A884209D1287C002856
:10D440000ED0401EC0B22874002809D1EE7307E048
:10D45000207BE873F02801D9F020E87310202874AD
:10D46000607A2873A07A6873E07AA8730A20A87497
:10D47000EE7403B070BC70474178012904D00329D1
:10D4800003D0802902D1A0E798E789E77047000020
:10D49000B0250020B4250020C82500200C24002041
:10D4A0000021FE4801600121FD4A890591600021AB
:10D4B000C9438160C16001617047F84A0023D361AC
:10D4C000F8488168012903D000BF81680129FBD198
:10D4D00083609069C0B27047F04AD061F1488168BA
:10D4E000012903D000BF81680129FBD1002181609F
:10D4F00090697047E948192181601821C16017219E
:10D500000161012109074162E74A062151610121B8
:10D51000E34B8A05DA600160704700B5FFF7EAFF68
:10D520000520FFF7D9FFFFF7C8FF0346FFF7B8FF55
:10D53000184600BD00B5FFF7F0FFC007C00F00BDE3
:10D5400070B504460E461546FFF7F4FF002804D0D8
:10D5500000BFFFF7EFFF0028FAD1FFF7CBFF032052
:10D56000FFF7BAFF2002000EFFF7B6FF2004000EFF
:10D57000FFF7B2FFE0B2FFF7AFFF0024002D05D99F
:10D58000FFF79BFF3055641CAC42F9D3FFF788FFCF
:10D5900070BD08B504226946C448FFF7D1FF009862
:10D5A00008BD70B50024FF25F535FFF7C3FF00283F
:10D5B00005D0012000F078FC641CAC42F5D370BDAE
:10D5C00010B50121B648C904C160B94A0C211160E7
:10D5D000012189058160C900816049108160C910FD
:10D5E000C160B4484188042211434180B2490320FC
:10D5F0000870052000F058FC10BD08B5AD48408803
:10D600004007002803DAAC490320087001E0FFF767
:10D61000D7FFFFF7C6FF3320042269460003FFF758
:10D620008FFF022069460870009808BD0922A349AF
:10D63000A34885E710B584B002A86C4671DF684640
:10D64000807A01026846407A41180A05120D9DA1B0
:10D65000204608F037FF204604B010BD9B4B012147
:10D6600018780843944900224A708A7020210843A0
:10D670001870704796480021016041608160C16068
:10D68000016141618161C161016241628162C16286
:10D69000704710B558218F4809F09DF98E488D4983
:10D6A00002880A8082788A70C078C8708148418870
:10D6B00078229143418010BD7F49C870834B02227C
:10D6C0001878104300224A708A78521E8A702021EE
:10D6D000084318707047F0B583B076484088764E9E
:10D6E0004007002802DA0320307001E0FFF768FFEE
:10D6F0000020B070FF20307100241B2520036D0333
:10D700004019042202A9FFF71BFF0298401C03D016
:10D71000B078401CB07003E03079FF2800D134713C
:10D72000641C072CE9D33079FF2805D0B178891C17
:10D73000B170FFF7C1FF20E00027FF430024FF2561
:10D740002D021B20210340030818042202A9FFF721
:10D75000F7FE02980204010A29401143000E084313
:10D76000B84201D207463471641C072CE9D3B07863
:10D77000401CB0703079FFF79FFF3079002817D038
:10D78000401E01031B2040030818042202A9FFF7D2
:10D79000D7FE0298411C1DD06A461080010C917082
:10D7A000000ED070684602F060FF012802D011E040
:10D7B0000620E6E7684602F005FF69464648098804
:10D7C00001806946897881706946C978C170694667
:10D7D000C979C171FFF75DFFFFF74CFF03B0F0BDE2
:10D7E00001212F4849058160314A0321116001213F
:10D7F0008905C160C900C1608910C1604900C1606C
:10D800002C484188042291434180704733490320CA
:10D810000860091D086032490860091F0860DFE7D9
:10D8200010B5FFF7F3FFFFF7CBFEFFF7B2FE2D4970
:10D8300088420AD1FFF7FAFE3F2034222A4900032A
:10D84000FFF77EFEFFF747FF10BD27492748886096
:10D850002748C860274A0A61274A4A6188614920E7
:10D8600088837A20C8836920088400224A84234858
:10D8700023238371AF23C3714D2303724272BA23F2
:10D8800083723C23C372822303734B234373FF23AE
:10D890008373C273082303741E2331E000350040F4
:10D8A000000500500031004040350040FCF003000E
:10D8B0005C0700507829002004240020FC2600206A
:10D8C000C0F0030025303358000000000C24002075
:10D8D000382A0020E02900203C2400205407005072
:10D8E0006407005007041620C825002040420F009E
:10D8F000581B000080841E00302A0000E82500200C
:10D9000043748274FE208884800508604860FFF7B5
:10D91000A5FEFC48FCA10A8882864A88C2868988BE
:10D920000187FFF787FE0146F94808F095FF10BD13
:10D9300000B5FFF7DFFD0620FFF7CEFDFFF7B0FDD6
:10D94000FFF7EBFD8007F4D500BD10B50446FFF7E7
:10D9500028FEFFF7EDFFFFF7CDFD3920FFF7BCFDF7
:10D960002002000EFFF7B8FD2004000EFFF7B4FD03
:10D97000E0B2FFF7B1FDFFF793FD10BD10B5040352
:10D980002046FFF7E2FFFFF70CFEFFF7D1FFFFF79E
:10D99000B1FD2020FFF7A0FD2002000EFFF79CFD47
:10D9A0002004000EFFF798FDE0B2FFF795FDFFF7AA
:10D9B00077FD10BD70B506460D4614463046FFF79C
:10D9C000C4FFFFF7EEFDFFF7B3FFFFF793FD022063
:10D9D000FFF782FD3002000EFFF77EFD3004000EDF
:10D9E000FFF77AFDF0B2FFF777FD0023002C05D991
:10D9F000E85CFFF771FD5B1CA342F9D3FFF750FD14
:10DA000070BD10B584B0C34840884007002803DAD1
:10DA1000C1490320087001E0FFF7D2FDFFF7C1FD07
:10DA20000020FFF7ABFF082202A90020FFF788FDC6
:10DA3000002002AC215CFF2902D0002004B010BD00
:10DA4000401CC0B20828F5D300202054401CC0B2AE
:10DA50000828FAD3082202A90020FFF7ABFF08220A
:10DA600069460020FFF76CFD00206946225C0B5CD4
:10DA70009A4202D0002004B010BD401CC0B2082859
:10DA8000F4D3012004B010BD00B5A34A9078411C26
:10DA9000C9B2072802D21071917000BD1079062812
:10DAA00006D0401C107191701079FFF705FE00BD83
:10DAB00000201071F7E710B498490A8802808A782C
:10DAC0008270CA78C270964AD36843609368836054
:10DAD0001369C360526902614A6842618A6882615F
:10DAE000CA68C2610A6902624A6942628A698262DC
:10DAF0000A6A0263CA69C2624A6A4263CA6A826384
:10DB00000A6BC2634A6B02648A6B4264CA6B8264AA
:10DB1000096CC164834A0146138940310B825389E1
:10DB20004B8293888B82D388CB82137B0B76527B7C
:10DB30004A7600228A76774A53881B07002B01DA3F
:10DB400001238B765388DB0603D58B7E0224234387
:10DB50008B7653889B0603D58B7E042423438B76D8
:10DB60005288520603D58A7E20231A438A766E4A4B
:10DB70009379CB76D3790B77137A4B77537A8B776C
:10DB8000937ACB77D17A60300170117B4170517BF1
:10DB90008170917BC17010BC704730B463490A46F4
:10DBA0003CCA3CC00A4610323CCA103810303CC057
:10DBB0004A6A2038096A4262016230BC7047F0B597
:10DBC000A5B0554C534EA068002807D07088400778
:10DBD00002D50320207001E0FFF7F2FC544D10271E
:10DBE0002878C107002914D0FFF7A4FC00280ED123
:10DBF00060783630FFF7C2FE6078401CC0B26070BB
:10DC0000072804D12878400840003843287025B000
:10DC1000F0BD810713D5FFF78DFC0028F7D1E07820
:10DC20003630FFF7ABFE6078401CC0B26070012850
:10DC3000EDD12878FD210840287025B0F0BD0107FE
:10DC400034D5FFF777FC0028F7D13A480679002E43
:10DC500000D11826761E207937490003801947180D
:10DC6000012201A93846FFF76BFC68460079FF28BE
:10DC700014D100200190012201A93846FFF79AFE35
:10DC8000B0012179090308182C49441802A8FFF7AC
:10DC900084FF282202A92046FFF78CFE2878F7216E
:10DCA00008402870FFF7E6FC25B0F0BD41071AD503
:10DCB000FFF740FC0028F7D164210CA808F08BFE88
:10DCC0000CA8FFF7F8FE20791B2100034903401838
:10DCD00064220CA9FFF76EFE2878FB210840384328
:10DCE000287025B0F0BDC1062AD5FFF7CDFEFFF79D
:10DCF000D0FCFFF7BFFC2878EF210840287025B042
:10DD0000F0BD0000C82600204E65766F20000000A0
:10DD1000FC2600207829002004240020E02900208F
:10DD2000C8250020202A0020E8250020382A0020CD
:10DD30000C2400203C240020E0600300006103006C
:10DD40006978CA070ED0FFF7F5FB0028D7D1342039
:10DD5000FFF714FE6878400840000221084368700D
:10DD600025B0F0BD8A0714D5FFF7E4FB0028F7D1F2
:10DD7000FC2241494148FFF701FA0D20FC223F49AE
:10DD80008003FFF717FE6878FD210840687025B012
:10DD9000F0BD4A070ED5FFF7CDFB0028F7D13320A1
:10DDA000FFF7ECFD6878FB21084008210843687004
:10DDB00025B0F0BD09070FD5FFF7BCFB0028F7D150
:10DDC000332004222E490003FFF7F4FD6878F72181
:10DDD0000840687025B0F0BD810610D5FFF7AAFB9A
:10DDE0000028F7D12878DF21084028703F20FFF76E
:10DDF000C5FD287840210843287025B0F0BD4106B4
:10DE00001ED5FFF797FB0028F7D12878BF210840DF
:10DE100028701C4934228818FFF7B0F91A481B49AA
:10DE200008F082FC1A481B4901601B481B4901602D
:10DE30004A153F2011490003FFF7BCFD25B0F0BD96
:10DE4000C009FBD0FFF7DDFD01280ED07088144912
:10DE50000840708028784006400E28701148202223
:10DE600001781143017025B0F0BD7088012189024D
:10DE700008437080EEE70000442C0020FC250020C1
:10DE800010240020C8250020BC260020FC260020ED
:10DE9000F426002078563412F826002007041620B5
:10DEA000FFFB00005C2400201921C9014843002821
:10DEB00002D0401E0028FCD17047F8B5FF4904206D
:10DEC000FD4B0860091D0860091D0860091D0860F8
:10DED000091D0860091D0860091D0860F8490860EF
:10DEE000091D0860F7490860F7490860F7490860AC
:10DEF000091D0860F64903240C600126F54D8021B8
:10DF0000E960F5490C604104E96000211A1D1160C7
:10DF1000F24A1160C70317601C60AE60F04A1160DE
:10DF2000F04A1460A860101D0160EF4A10201460D0
:10DF3000A860101D0160ED4801605961D96002F0D0
:10DF4000C4FCEB480460001F04603004A86040106B
:10DF5000A86000F009FFF8BD10B4D74B032284007D
:10DF6000E41822608C00E3181A6001231A468240EC
:10DF7000D84882608B408360C260C36010BC704729
:10DF800010B4CD4C032283001B191A6001231A46DA
:10DF90008240D048C2608B408360826010BC704772
:10DFA00010B4C54C032283001B191A6001221346CA
:10DFB0008340C84883608A408260C26010BC70475A
:10DFC00010B4BD4C032283001B191A6001221346B2
:10DFD0008340C048C3608A408260C26010BC704702
:10DFE00070B40446B44B0C20A200D218106000207C
:10DFF000002201252B46B74E8B404006000EB36031
:10E000003169E140C907C90F002900D02843F360F6
:10E01000521CD2B2082AF0D370BC7047F0B49C46B0
:10E02000A54C032385002F193B60002501242646BB
:10E030008640A84B8C40DE60110600D59E601946D4
:10E040009C60CC6051060A0E6D1CEDB2082DF2D317
:10E05000614600290DD10C2139609C601969C140CD
:10E06000C807C00F002803D0DC60F0BC0120704757
:10E07000DC60F0BC00207047FFB50B9F099E0A9D35
:10E080001C4601990098FFF767FF0023029A019947
:10E090000098FFF7C3FF01281DD0002322460199F5
:10E0A0000098FFF7BBFF01281CD00024002D0BD9DE
:10E0B000325D3B4601990098FFF7B0FF012818D068
:10E0C000641CE4B2AC42F3D301990098FFF758FF07
:10E0D000012004B0F0BD01990098FFF751FF002026
:10E0E00004B0F0BD01990098FFF74AFF002004B08A
:10E0F000F0BD01990098FFF743FF002004B0F0BD88
:10E10000FFB50A9E099D14461F4601990098FFF726
:10E1100023FF0023224601990098FFF77FFF012883
:10E1200025D00023324601990098FFF777FF012898
:10E1300024D001990098FFF70FFF012004432246E5
:10E14000002301990098FFF769FF01281DD00024E2
:10E15000002D29D96E1E01990098FFF741FF38550F
:10E16000B44219D001990098FFF72AFF18E00199ED
:10E170000098FFF705FF002004B0F0BD019900985A
:10E18000FFF7FEFE002004B0F0BD01990098FFF7F4
:10E19000F7FE002004B0F0BD01990098FFF700FFE2
:10E1A000641CE4B2AC42D6D301990098FFF7E8FEB4
:10E1B000012004B0F0BD08B5002004224D4B1146EB
:10E1C000009006F0E6FC002803D04BA2F22100F0FC
:10E1D00012FB08BD10B54C480121002289030068DC
:10E1E00006F089FD002804D0FF2143A20B3100F086
:10E1F00002FB46484188464A1140418010BD70B537
:10E20000444D1A20686044480124446001210720DD
:10E210002BDF072026DF2C60404804603A488068E6
:10E2200006F092FD002804D0FF2133A26E3100F0E9
:10E23000E2FA70BD10B53A4A0121334806F004FDF8
:10E24000002803D02CA2FA2100F0D5FA354A01218A
:10E25000354806F0F9FC002803D027A2FC2100F085
:10E26000CAFA324A0021324806F0EEFC002803D0F8
:10E2700021A2FF2100F0BFFAFFF7ACFF10BD70B57F
:10E28000214C206806F060FD002804D0FF211AA26E
:10E29000153100F0B0FA1D4D688880044CD56068D7
:10E2A00006F052FD002804D0FF2113A2193100F01E
:10E2B000A2FA688816493DE0000700502007005088
:10E2C0004407005050070050680700507007005086
:10E2D0001C070050000500504C0700501807005064
:10E2E0007807005008070050100700506C070050D6
:10E2F00040070050082700202E2E5C68617264776A
:10E300006172652E6300000014240020782900202B
:10E31000FFDF000000750040007300400070004007
:10E32000A50602000D08020018240020FFE10100EC
:10E330001C2400200840688070BD70B5E848C16B9F
:10E3400000292AD00021C163E64C6069E64D8003B4
:10E35000800F11D1E0688003800F0DD02869C006BE
:10E36000C00F002808D1E1480078C00702D002F0B1
:10E37000FFFA01E002F039FBA0698003800F0CD0A6
:10E3800028694006C00F002808D0A06903210904AD
:10E390000843A061D6490120087070BDA069D54925
:10E3A0000840A06170BD10B5D3488069C0B2D34A9F
:10E3B00000219160CD490978C90702D002F00DFB18
:10E3C00010BD02F0DEFB10BDF8B5CD4DA8880821C8
:10E3D0000840CC4902260978CB4C0843002807D1D5
:10E3E000CA480088000503D4C948007800280CD02A
:10E3F000A888C00705D0A88840084000A88066719A
:10E4000003E06079022800D26671A888C14FC00776
:10E4100024D0A888C00521D40120B349C004C86015
:10E420004111BD480022806806F065FC002804D038
:10E43000FF21BA4A8A3100F0DEF9A888400840007E
:10E44000A880A888B6490840A880A888FF21013183
:10E450000843A880002038703C206071387800287C
:10E4600047D0A888800544D400223A70A888AD49D6
:10E470000840A880A888400741D5EA800020411CB8
:10E480000B46490049194000898940198181E88873
:10E490004018E880D8B20728F1D3298840004019F5
:10E4A0008181E9888089081880B2C008E8809E4987
:10E4B00020260B7833430B70A988490704D5698956
:10E4C000884206D2688104E0A98804231943A98000
:10E4D0006881964B102198420CD2A888C00608D4B7
:10E4E000E079401CC0B2E071032802D1A88808433B
:10E4F000A880F8BDA8888843A880E271F8BD288864
:10E50000217A490049198881207A401CC0B22072C2
:10E51000082807D0A88801210843A8800520FFF714
:10E52000C3FCF8BDE671A8E7F8B5754DA9880820C9
:10E530000140744801270078734C01437C4800294E
:10E5400007D172490988090503D47149097800295E
:10E550000ED0A98802220905002904DAA988014001
:10E56000A980A2710BE0A179022908D2A27106E06C
:10E57000A988C90503D401215B4AC9049160A9880F
:10E58000644E090520D5A988C9051DD4A988014074
:10E59000A980A888012149020843A880A8884910B9
:10E5A0000843A88000203070634862494160634896
:10E5B0004760012107202BDF072026DF5E48076028
:10E5C0005F4807600A20A0713078002830D0A88802
:10E5D00080052DD500213170A888524A1040A880AE
:10E5E0002A880F208001824200D30022A88840059B
:10E5F00024D529810020411C0B46490049194000BF
:10E60000898B40198183288940182881D8B2032832
:10E61000F1D34000401982832889801880B2800895
:10E620002881C82805D3A888012109030843A880A8
:10E63000F8BDA88843490840A880F8BD607A40002A
:10E6400040198283607A401CC0B26072042808D0EE
:10E65000A8880121C9020843A8800520FFF724FCEF
:10E66000F8BDA88801239B021843A880C1E730B4F5
:10E67000354A106800282DD0304801238360254D8D
:10E680002B702D4CA1681E48018001888905890DD9
:10E690000180002111602A4A5360616021608288F4
:10E6A00008231A40174B1B781A4307D1174A1288C0
:10E6B000120503D4164A1278002A0BD029708188DB
:10E6C000184A114081808088022182050E48002A64
:10E6D00002DA817130BC7047417130BC7047000074
:10E6E0004061004000070050000500504724002012
:10E6F00024240020FFFF02000045004000410040AC
:10E70000782900200424002098290020B424002027
:10E71000AE2400202524002014240020F8E201006B
:10E72000FFFD0000FFFE000054240020D502000081
:10E73000FFF700000A04000000750040007300406D
:10E7400000700040FFEF00000071004010B52A206B
:10E75000FA4900240C70491C401E80B20028F9D1EF
:10E760001620F7490C70491C401E80B20028F9D1D0
:10E770003420F4490C70491C401E80B20028F9D1A5
:10E78000EF4908220A75FF220B181A71401C80B24B
:10E790000B7D8342F8D88720EB4940010880002098
:10E7A000EA49C0430880EA4801F0DDFEFFF738F887
:10E7B000E8480480E84803218171E8493C2008705A
:10E7C000DE4881880122114381808188D202114371
:10E7D0008180E3480472E3494022087810430870BE
:10E7E000E14844708470C4700471447110BD10B568
:10E7F00006F09AFC10BD704708B500235022DB4993
:10E80000082007F0FBFD002803D0D9A26C21FFF7F8
:10E81000F2FF002000900090684660DF002803D0DF
:10E82000D3A27321FFF7E7FFD44807F005FE0028C5
:10E8300003D0CFA27721FFF7DEFFD14807F004FE17
:10E84000002803D0CAA27B21FFF7D5FFCD4807F0EF
:10E8500003FE002803D0C6A27F21FFF7CCFF0420CF
:10E8600077DF002803D0C2A28221FFF7C4FF08BDD2
:10E8700038B5B24C60888005002837DA684606F063
:10E880000CFF002803D0BAA28F21FFF7B4FF009835
:10E89000002828D16088400703D5FEF782FEFEF7E6
:10E8A0009FFF8020B84A51680906C90F00291BD074
:10E8B000D0606088B54908406080B5480021C160DB
:10E8C000816103210904416101F0F8FF0020B14991
:10E8D000C0438860B04910200860FFF7D0FC0A20D0
:10E8E000FFF7E2FA34DF38BD9060E2E740DF00284E
:10E8F000F9D09FA2A921FFF77EFF38BD0A46014645
:10E90000A64878E700B583B0A5480A21007808F04A
:10E91000A9F830306A4610703031517002200290F0
:10E92000A0486B46008802AA0021A4DF002803D07B
:10E930008FA2E821FFF75FFF03B000BDF8B5924951
:10E940000869C006C00F7D4C864D002847D0964808
:10E950000078002843D12878C20711D09348007866
:10E9600000287CD1287840084000287002F0F9F98E
:10E970002878C007F6D101F0EDFF01F0BDFF6EE091
:10E98000820609D5DF210840287002F015FA01F04F
:10E99000E1FF01F0B1FF62E0C20909D04006400E7C
:10E9A000287002F019FA01F0D5FF01F0A5FF56E03A
:10E9B000420609D5BF210840287002F018FA01F07C
:10E9C000C9FF01F099FF4AE0820709D5FD210840FF
:10E9D000287002F019FA01F0BDFF01F08DFF3EE052
:10E9E000734800220368002B0BD0A188C90601D50B
:10E9F000026034E002F06EFA01F0ACFF01F07CFF3F
:10EA00002DE06C486C4B00881B88984206D002F0C1
:10EA100009F901F09FFF01F06FFF20E0086980060F
:10EA2000C00F00281BD16549087883070CD5644ABC
:10EA3000644B12781B78D21A9206920E202A0ED8B6
:10EA4000FD22104008700AE040084000087050485D
:10EA50004261826103210904C16001F04DFF287801
:10EA6000010707D5F721084028703F4802210170AF
:10EA7000FFF748FF2878544F410749D5FB2108404C
:10EA8000287052480078002809D0514E01280FD034
:10EA9000022825D0032846D004284DD0A6E060885F
:10EAA000000501D402F031F9012004F03FF89DE0A7
:10EAB000012004F03BF86088C0050CD53089410680
:10EAC00004D500F064FA01F005FB8FE000071FD4C5
:10EAD00001F000FB8AE000F047F901F0FBFA85E065
:10EAE000608800060AD46088802108436080012085
:10EAF00003F0DCF938883749084038806088C00561
:10EB00000CD53089410604D500F041FA01F028FA0D
:10EB10006CE000076AD501F023FA67E000F024F901
:10EB200001F01EFA62E03089010702D538218843DE
:10EB3000308100F026FA59E04EE057E078290020B5
:10EB4000B0250020C82500203A240020622400209F
:10EB50003C24002030240020482B00202E240020BC
:10EB60009829002054240020232400202829002054
:10EB70002E2E5C6D61696E2E63000000E32A020098
:10EB800079D40100EFE7010000050050FFFD00000F
:10EB9000000700500043004080E100E0EFBEADDE22
:10EBA00046240020E824002048240020B12400202E
:10EBB0005824002050240020522400204724002004
:10EBC0004E2400204C240020B424002044240020A3
:10EBD000682A0020BFEF0000012003F0A7FF00F02B
:10EBE00005FA60880121490208436080A088400638
:10EBF0001CD5A088000609D53878800716D4A088CF
:10EC000080218843A08002F02BFA0FE0387880073B
:10EC100006D503F07CFFA08880210843A08005E092
:10EC2000A08840218843A08002F01AFA6878810702
:10EC300002D5FD2108406870F8BD3E493C48486057
:10EC40003D4980178860C2074A603C4988600420BB
:10EC50004860FFF7D1FDFFF7AEFA02F019FBFFF7AE
:10EC600075FDFFF72AF9FFF7E5FA01F079F903F0EE
:10EC700030FC06202ADF04202ADF012106202BDFBA
:10EC8000002804D0FF212EA2D831FFF7B4FD0121C6
:10EC900004202BDF002804D0FF2129A2DA31FFF75E
:10ECA000AAFD062026DF002804D0FF2124A2DC31A3
:10ECB000FFF7A1FD042026DF002804D0FF2120A2B9
:10ECC000DE31FFF798FD62B601F039FE1F4C204D92
:10ECD000204E214F02F0EAFA2068002825D128882A
:10ECE0003188884221D1386800281ED11B4801880C
:10ECF0001B480088814218D11A4800698006C00F5D
:10ED0000002812D0FFF7B4FDFFF718FE01F07AFAE1
:10ED100001F0D4FC01F07EFD03F0F7FFFEF74FFF9A
:10ED2000FFF752FBFFF700FCD4E700BFECE7000061
:10ED3000DFFF07C0000500400063004000430040C3
:10ED40002E2E5C6D61696E2E630000000C24002085
:10ED50004E2400204C240020542400205024002065
:10ED6000522400200005005070B584B00F211020FF
:10ED7000FFF706F90F2001250146019003AB32226F
:10ED800000951020FFF7BCF94F216846017300245D
:10ED900003AE202332220F21102000960195029409
:10EDA000FFF76AF968460473212332220F211020ED
:10EDB000009601950294FFF75FF9684604732223D9
:10EDC00032220F211020009601950294FFF754F98A
:10EDD00068460473232332220F21102000960195E8
:10EDE0000294FFF749F968460473242332220F2165
:10EDF0001020009601950294FFF73EF968460473CF
:10EE0000252332220F211020009601950294FFF74E
:10EE100033F9684604732E2332220F211020009606
:10EE200001950294FFF728F96846047330233222D3
:10EE30000F211020009601950294FFF71DF96846F6
:10EE4000047332231A460F21102000960195029474
:10EE5000FFF712F968460473332332220F21102082
:10EE6000009601950294FFF707F96846047338236A
:10EE700032220F211020009601950294FFF7FCF832
:10EE80005821684601733A2332220F211020009640
:10EE900001950294FFF7F0F80221684601733B23C5
:10EEA00032220F211020009601950294FFF7E4F81A
:10EEB0000721684601733C2332220F21102000965F
:10EEC00001950294FFF7D8F81421684601733D2399
:10EED00032220F211020009601950294FFF7CCF802
:10EEE000FE4841882A021143418004B070BD70B5CC
:10EEF00084B0002469460C73012503AE242332221A
:10EF00000F211020009601950294FFF7B5F869468D
:10EF10000C732E2332220F211020009601950294AB
:10EF2000FFF7AAF869460C73252332220F2110201F
:10EF3000009601950294FFF79FF81F206946087319
:10EF4000202332220F211020009601950294FFF712
:10EF500093F8E3488470E3480482E04C60888004BE
:10EF60000DD5E148006805F0EFFE002803D0DFA2D0
:10EF70006D21FFF740FC6088E0490840608004B0E4
:10EF800070BDD8484022018911430181AFE7F0B537
:10EF900085B0D44F41213889884338814F20694654
:10EFA00008740024012504AE202332220F211020F2
:10EFB000009601950294FFF75FF8C94884703C827F
:10EFC000CF48C4700472C54841884904490C418047
:10EFD000402069460874252332220F211020009614
:10EFE00001950294FFF748F805B0F0BDF0B585B083
:10EFF000BA4D6888C3490840688000246846047494
:10F00000012604AF252332220F21102000970196FC
:10F010000294FFF731F868460474202332220F214E
:10F020001020009701960294FFF726F86888800464
:10F030000DD5AD48006805F087FE002803D0ABA2CF
:10F040009421FFF7D8FB6888AC490840688005B078
:10F05000F0BDF0B4AA490F78AB49012F4A7ACB7FB3
:10F060008C79CD790E7A0FD0022F2FD01F0752D571
:10F07000A64207D90B469C791B7A1B1B012847D057
:10F0800098184872F0BC7047DF060ED5AC42F9D92B
:10F090009D4BDC799B791B1B012803D09818487283
:10F0A000F0BC70474B72F0BC70479B06FBD5B44276
:10F0B000F9D9954B1C7A9B791B1B012803D0981812
:10F0C0004872F0BC70474B72F0BC70471F070ED5FA
:10F0D000A542F9D98C4B9C79DB791B1B012803D005
:10F0E00098184872F0BC70474B72F0BC70479B0692
:10F0F000FBD5B542F9D9844B1C7ADB791B1B01285F
:10F1000003D098184872F0BC70474B72F0BC70473F
:10F110004B72F0BC7047DB06FBD5AE42F9D97A4B97
:10F12000DC791B7A1B1B012803D098184872F0BCAD
:10F1300070474B72F0BC70477448418A491C418249
:10F14000018A01837047F3B581B00D46002D7DD053
:10F150006F4F6B4C61484088000478D50020E07107
:10F160006C480168491C01606B494868401C486054
:10F170005C4A117AC90707D06749CB685B1CCB6032
:10F18000798A491C798206E063498B685B1C8B6035
:10F19000398A491C39826149C96800290ED04F4B10
:10F1A0005E8836070AD4884208D358880821084365
:10F1B00058805B48402301781943017059483C212D
:10F1C00001710198002801D1FFF7B6FF1689B00739
:10F1D0000DD552485168808B0918516008F0BAFB70
:10F1E0004E49096808F084FC08F070FB26E07007BF
:10F1F0000DD54A485168C08B0918516008F0AAFB28
:10F200004649496808F074FC08F060FB16E0F00716
:10F210000AD04248C08B08F09DFB4049496808F07D
:10F2200067FC08F053FB09E03C48808B08F092FB38
:10F230003A49096808F05CFC08F048FB35494A681F
:10F2400012184A60344A5169091801E000E122E0CD
:10F250005161F30706D0D3691B18D3617A6812187D
:10F260007A6005E093691B1893613A6812183A6056
:10F270002C4AD3881818D0802848806800287DD070
:10F28000164A5388DB0679D4814277D350881021FF
:10F2900008435080D7E0E078401CC0B2E0700128FD
:10F2A00004D1104903020A891A430A810021E1713D
:10F2B0000C2863D1094841880122D20311434180BF
:10F2C000144801680C310160134948680C304860EB
:10F2D00088310E89F1072ED00F4925E078290020CA
:10F2E000082B0020682A0020182400202E2E5C7392
:10F2F000656E736F7233672E63000000FFDF0000DE
:10F30000482B0020FFFE0000282B0020E82A0020C8
:10F31000382A0020A4290020E0290020C825002048
:10F32000582400202A240020CA680C32CA60798A36
:10F330000C31798206E0F9498A680C328A60398A90
:10F340000C313982F649C96800290ED0F54A538834
:10F350001B070AD4884208D35088082108435080EC
:10F36000F1484022017811430170F0493C200871B6
:10F37000EF49B00711D5EA48808B00E063E00C222A
:10F3800050434A6812184A6008F0E4FAE4490968F0
:10F3900008F0AEFB08F09AFA2CE070070FD5E048B1
:10F3A0000C22C08B50434A6812184A6008F0D2FA07
:10F3B000DB49496808F09CFB08F088FA1AE0F0077E
:10F3C0000CD0D7480C21C08B484308F0C3FAD4496D
:10F3D000496808F08DFB08F079FA0BE0D0480C2161
:10F3E000808B484308F0B6FACD49096808F080FBE5
:10F3F00008F06CFACF494A6812184A60C74A516946
:10F4000009185161F30706D0D3691B18D3617A68D4
:10F4100012187A6005E093691B1893613A68121814
:10F420003A60C24AD3881818D080BD488068002846
:10F4300009D0BC4A5388DB0605D4814203D35088E7
:10F440001021084350806D1EEDB2002D00D081E6E2
:10F4500003B0F0BD30B4B848B84B017C427C891A87
:10F46000C9B29972827CC47C121BD2B2DA72047D5A
:10F47000407D201AC4B21C73B1488379C579007AE3
:10F48000AB421FD1834210D1914204D3A14202D397
:10F4900030BC012070478A4204D3A24202D330BC60
:10F4A0000220704730BC03207047834207D9914245
:10F4B00002D330BC0120704730BC0220704730BC02
:10F4C00003207047AB4211D9834207D1A14202D336
:10F4D00030BC0120704730BC03207047834202D902
:10F4E00030BC0120704730BC03207047854207D1F3
:10F4F000A24202D330BC0220704730BC03207047C8
:10F50000854202D930BC0220704730BC03207047CE
:10F510008B48C07F0107002901DA01207047C0062F
:10F5200001D50220704703207047884202D3401A59
:10F5300000B27047081A00B27047F0B585B0814834
:10F54000018A491C01827A4C7848228A01784078E5
:10F550007A4E002A15D0521E92B22282002A10D171
:10F56000704A53885B045B0C53800022F270327245
:10F57000A318C033997218749875521CD2B2062A17
:10F58000F6D36F4DAA78652A01D2521CAA70EA7888
:10F59000652A01D2521CEA702A79652A01D2521CCE
:10F5A0002A716A79652A01D2521C6A71604B5A89A4
:10F5B000803292B29C898034A4B2A446DB89803325
:10F5C0009BB203935C4CA3780493042B7ED30291EB
:10F5D000019056488078009061792171A07960711E
:10F5E000E379A371D2B2E271081899184018810822
:10F5F0004E480170637A2372A77A6772BE46E07A3A
:10F60000A0726246D2B2E272734480181818474A58
:10F6100080085070627B2273A37B63739E46E37BFA
:10F62000A3739C46039BDBB2E373174662467744A1
:10F63000D218BA183D4B92089A70049B042B6CD0D8
:10F640003A4A0298FFF771FF052801DA0298107014
:10F6500051780198FFF769FF052801DA0198507089
:10F6600091780098FFF761FF052801DA0098907003
:10F67000217C1078814200D22074A37C51788B4287
:10F6800000D2A174237D9278934200D22275637CCC
:10F69000834200D96074E37C8B4200D9E174617DC0
:10F6A000914200D962750022E97FCB077ED02B7F83
:10F6B00083427CD248084000E877607F2077297F2A
:10F6C0006177FFF732FF617E884200E0BAE16EDBCE
:10F6D0000020174F3918C031CB7A8B72401CC0B252
:10F6E0000528F7D33818297FC0308172607F217FC9
:10F6F00088420DD2A37D83420AD98B4208D2E87892
:10F700000C38582802D8A879401CA8710020E8704D
:10F71000FFF7FEFE01285ED066E015E0E02900203C
:10F72000C825002078290020582400202A24002001
:10F73000682A0020A4290020082B0020482B002044
:10F74000282B0020E82A00200523A3700027E7705B
:10F75000AF71EF712F726F722774FF236374A774F8
:10F76000E37427756375A775E77527760F236376AE
:10F77000A376E37621776177A077E0772A706A70C5
:10F7800029776877A8770823EB773378002B1DD08B
:10F79000B3707370FE4B5C886404640C5C80F7701B
:10F7A00037720023FB4FFC18C03401E015E01BE06A
:10F7B000A1722074A2755B1CDBB2062BF3D365200B
:10F7C000A870E8702871687105B0F0BD012333702E
:10F7D0007370B370DEE7012206E02B7F834203D90A
:10F7E00001200143E97768E7E87F810736D5EA49D8
:10F7F0006B7F49788B423AD2FD210840E877E07F61
:10F80000A077697FE177FFF790FEA17E88422EDB2B
:10F810000020E04F3918C0314B7C0B74401CC0B243
:10F820000528F7D338186B7FC0300374E07FA17FC1
:10F8300088420DD2E37D83420AD98B4208D22879CF
:10F840000C38582802D8E879401CE871002028714B
:10F85000FFF75EFE02280AD1022208E0CE496B7F44
:10F8600049788B4203D902210843E877C7E7E87F4C
:10F87000410736D5C849AB7F89788B423AD2FB2104
:10F880000840E87768782870A97F6970FFF74DFE17
:10F89000E17E88422EDB0020BE4F3918C031CB7D7F
:10F8A0008B75401CC0B20528F7D33818AB7FC03029
:10F8B00083756878297888420DD2237E83420AD9DD
:10F8C0008B4208D268790C38582802D8287A401C14
:10F8D000287200206871FFF71BFE03280AD103225B
:10F8E00008E0AD49AB7F89788B4203D904210843F6
:10F8F000E877C7E7A8480178297741786977807861
:10F90000A877012A04D0022A2AD0032A32D03AE06A
:10F91000607F217F884236D2A27D824233D98A42DB
:10F9200031D2A8780C38582809D80020307299486C
:10F930009621018201210020FFF705FC0DE0307ABD
:10F94000401CC0B23072032807D191484188490455
:10F95000490C41800020F07030720020A87012E045
:10F96000E17FA27F91420ED2E07D88420BD9904286
:10F97000D7D308E069782878814204D2227E8A426F
:10F9800001D98242CDD3E078401CC0B2E070322869
:10F9900000D019E77F490889C20505D57F4A104084
:10F9A0000881F0784000F0700027E770207C617CCF
:10F9B00040184008A075A07CE17C40184008E07524
:10F9C000207D617D4018400820760F206076A0766B
:10F9D000E0767078B07030787070FFF73BFD307073
:10F9E000717881421FD1B178814206D00220FFF7A1
:10F9F00030FB697A0120FFF7A6FB6F72E87FC72111
:10FA00000840E8773178012905D0022907D0202164
:10FA10000843E8770AE008210843E87706E0102168
:10FA20000843E87702E00120FFF713FBAF71EF71A5
:10FA30002F722774FF206074A774E07427756075B7
:10FA400005B0F0BD564904984254A2785549604625
:10FA50005054A278544903985054A078401CA07088
:10FA600005B0F0BDF0B4002150484A4A0A23C67ED2
:10FA7000D35E24250224ED430022002E04D0012E63
:10FA80000ED0022E16D01EE0252B02DDC4760121F9
:10FA900019E01A26F643B34215DB0121C17612E0C4
:10FAA000AB4202DAC27601210DE0252B0BDDC476D4
:10FAB000012108E0AB4202DAC276012103E01B2BF0
:10FAC00001DA0121C176334F037F0C26BE5F002B84
:10FAD00004D0012B0ED0022B16D01EE0252E02DD05
:10FAE0000477012119E01A23DB439E4215DB012133
:10FAF000017712E0AE4202DA027701210DE0252EF5
:10FB00000BDD0477012108E0AE4202DA0277012121
:10FB100003E01B2E01DA012101771E4F437F0E26E1
:10FB2000BE5F002B04D0012B0ED0022B16D01EE09E
:10FB3000252E02DD4477012119E01A23DB439E4282
:10FB400015DB0121417712E0AE4202DA4277012152
:10FB50000DE0252E0BDD4477012108E0AE4202DAEC
:10FB60004277012103E01B2E01DA01214177094B85
:10FB7000D88A401C80B2D8820D4CA04202D1DA82D1
:10FB8000332098820B4819254479002C1AD013E0B1
:10FB900078290020682A00202A240020FFFE000087
:10FBA0000C2B0020102B0020142B0020E82A002012
:10FBB000B80B0000482B0020012900D14571447981
:10FBC000641E4471012907D1C2714179002903D112
:10FBD000998A491C99824571F0BC7047090201431A
:10FBE00008B200110105002903DA0F2109030843B7
:10FBF00000B2C117090F081800117047F0B5B7B06F
:10FC00002F200126019004AB32220F2100961020F4
:10FC1000FEF776FA6946087CC006C00E04900622FC
:10FC20005043A8210191009006AB32220F211020F1
:10FC3000FEF766FA002400256946087CF74F002885
:10FC400020D906A802195178005DFFF7C7FF788117
:10FC5000D1789078FFF7C2FFB88151791079FFF71A
:10FC6000BDFFF881387A000702D5FFF7FBFE01E0FF
:10FC7000FFF763FCA41DE4B26D1CEDB26846007C86
:10FC80008542DED3E64CE079401CC0B2E0710C281E
:10FC900039D10025FD826846057505AF242332223F
:10FCA0000F211020009701960295FEF7E5F96846AE
:10FCB00005752E2332220F21102000970196029500
:10FCC000FEF7DAF9402168460175252332220F211B
:10FCD0001020009701960295FEF7CEF9D14E70885C
:10FCE00080040DD5D048006805F02EF8002803D018
:10FCF000CE4AC321FEF77FFD7088CD490840708051
:10FD0000E571CC48057037B0F0BDF0B583B0C34B9A
:10FD1000C9491F894A8A7B08C88A5B00C04C029384
:10FD2000A379824263D001263604824203D9101A95
:10FD300080B2019003E0301A801880B201900D8BE0
:10FD4000888A854202D9281A80B202E0301A401906
:10FD500080B2032B00D196208D82CA8207F0AFFBC0
:10FD600005460E46019807F0AAFB0022B34B07F0A8
:10FD7000A9FB2A46334607F051F906F06BFFA74B63
:10FD800018600021A27A0125502A00D30121E27ACD
:10FD9000502A01D3491CC9B2227B502A01D3491CE5
:10FDA000C9B29F4AA64E527A521CD2B2B0420EDB62
:10FDB00002290CD3F80702D00020607213E06272AF
:10FDC000032A10D12F431F81002060720BE0F80737
:10FDD00007D06272032A06D102981881002060724F
:10FDE00001E0002060720020A07103B0F0BD032B81
:10FDF000FBD05B1CD8B2A0710328F6D187480299CA
:10FE0000018100216172016003B0F0BDF8B58D4C35
:10FE1000E078401CC0B2E0700A287CD10025E57073
:10FE2000E088002878D0FF2169314843864906F0F0
:10FE300019FE07F08FFD07F071FC844A844B07F030
:10FE400041FB06F007FF0127BF07824EB84249DD9C
:10FE50007B49814F884245DDB84201DC7F4F41E05C
:10FE60007F49884201DC7F4F3CE08122D2057E49F8
:10FE7000904201DC0F4635E07C4A904201DC7C4F29
:10FE800030E041273F0688422CDD7A4A7A49904289
:10FE900001DC0F4626E0794AB04201DC174621E03A
:10FEA000774B984201DC774F1CE0774B984201DC9E
:10FEB000764F17E0764B984201DC764F12E0B8425D
:10FEC00001DC754F0EE0754B984201DA744F09E082
:10FED000884201DC734F05E0904202DC8327FF0576
:10FEE00000E0714F7148007A07F034FD394607F0A1
:10FEF000FFFD07F013FC6E4A6E4B07F0E3FA06F0C5
:10FF0000A9FE314607F032FC07F008FC6A4A6B4B49
:10FF100007F057F801E022E020E006F09BFE684978
:10FF200007F0E6FD07F0D2FC66498A6882188A600D
:10FF3000654A516A41185162644AD368C018D0605A
:10FF400063480069002809D0364A53889B0605D4C7
:10FF5000814203D35088202108435080E580F8BDBA
:10FF600070B584B0002468460473012503AE2423D1
:10FF700032220F211020009601950294FEF77CF8A2
:10FF8000684604732E2332220F211020009601951B
:10FF90000294FEF771F8402168460173252332224E
:10FFA0000F211020009601950294FEF765F87F213D
:10FFB00068460173302332220F21102000960195EC
:10FFC0000294FEF759F868460473242332220F2165
:10FFD0001020009601950294FEF74EF82121684604
:10FFE000017332231A460F211020009601950294C6
:10FFF000FEF742F8094938220889904308814C826B
:020000040002F8
:100000008C82074804710020420052181483401C5F
:10001000C0B23C28F8D304B070BD0000682A0020AC
:10002000482B00207829002018240020ECF2010041
:10003000FFDF000024240020E82A002000004940BF
:10004000000020402A240020A08601006E6E4C4F44
:1000500058E2E33F0000C0400000404033335340CB
:1000600000006040333373400000A0400000904027
:100070009A99C9406666A6400000104100002041E0
:100080006666D640000030410000E0400000384184
:100090000000F04000004841000058419A99094191
:1000A000000060410000704100009041E825002000
:1000B000EC51B81E85EB913FFCA9F1D24D62403F57
:1000C00000007A44A4290020E0290020382A0020DA
:1000D000C8250020F0B585B0DC4F082039890143E0
:1000E00030208143DA48032204908271480840009E
:1000F000388100243C6069460C73012503AE24233B
:1001000032220F211020009601950294FDF7B4FFD2
:1001100069460C732E2332220F2110200096019580
:100120000294FDF7A9FF4020694608732523322277
:100130000F211020009601950294FDF79DFF7F206E
:1001400069460873302332220F2110200096019552
:100150000294FDF791FF69460C73242332220F218C
:100160001020009601950294FDF786FF2120694634
:10017000087332231A460F2110200096019502942D
:10018000FDF77AFF3C20788204980471BC8200203D
:100190004100C9190C83401CC0B23C28F8D3AD48BB
:1001A000048044808480C480AB4884763989AB4A1B
:1001B000114039810A21795E2423DB4302229942CE
:1001C00001DAC47604E0252901DDC27600E0C576B7
:1001D0000C21795E994201DA047704E0252901DDDA
:1001E000027700E005770E21795E994202DA4477C2
:1001F00005B0F0BD252902DD427705B0F0BD457799
:1002000005B0F0BDF0B585B0954F387800283DD0E9
:10021000002469460C74012504AE252332220F21E7
:100220001020009601950294FDF726FF40206946B4
:100230000874242332220F21102000960195029485
:10024000FDF71AFF4C20694608742E2332220F2135
:100250001020009601950294FDF70EFF814D6888ED
:10026000800410D4012680487603002231460068BD
:1002700004F041FD002803D07C4A7D49FEF7BBFA1B
:100280006888304368807248C4713C7005B0F0BD26
:10029000F8B56E4C774E207A774F00076C4D0028EA
:1002A00072DAB86B401CB863F069401CF061608A78
:1002B00000285FD0401E80B2608200285AD1654875
:1002C0008188491C81803046818D491C81856B491C
:1002D0000889401C08816A4A9078401C90703C272D
:1002E00067823B20431E5E0036194000368B0019A2
:1002F0000683D8B20028F5D1A38A00262383A682DC
:100300002B795B1CDBB22B713C2B00D92F712B7925
:10031000504DED886D1CAEB2564DED8D6D1CADB2DD
:10032000AC46564D6D896D1CADB2AE46544DED7860
:100330006D1CEFB2032B37D3002345002D192D8BF5
:10034000002D01D05B1CDBB2401CC0B20328F4D3EB
:10035000032B10D0002B18D03E4803885B1C038071
:100360004448038D5B1C03858888401C8880107975
:10037000401C1071F8BD3748C6803E486346C385AF
:1003800070464881D770F8BD17E0324843885B1C3F
:1003900043803848438D5B1C4385C888401CC88017
:1003A0005079401C5071F8BD2A48C68031486346D8
:1003B000C38570464881D770F8BDFFF7A6FCA879C1
:1003C00003282BD0F068401CF060B86A401CB8626B
:1003D0002C494969002909D0224A53885B0605D473
:1003E000884203D35088402108435080207A264910
:1003F000C00709D0F86A401CF8623069401C3061BF
:10040000088B401C0883F8BD386B401C386370694A
:10041000401C7061C88A401CC882F8BDB86B401C83
:10042000B863F069401CF061F8BD10B5FFF730FF0C
:100430000C488088C00407D50F48416B491C4163B4
:100440005830418B491C418310BD0000682A0020B0
:10045000482B002032240020E82A0020FFFD000065
:10046000242400207829002018240020ECF2010028
:10047000CA040000A4290020E0290020202A00202E
:10048000582A0020C8250020382A002010B504462C
:10049000FF219131204606F0E5FA002909D06421B8
:1004A000204606F0DFFA002901D0A00701D0002085
:1004B00010BD012010BD10B586B0DFA14A680968E3
:1004C00005920491DEA18C684B680A68C9680294A1
:1004D00001930092039100220388591E89B2FF24E0
:1004E0001934A14204D3FF39193989B2A142FAD291
:1004F0001C2903D31C3989B21C29FBD2042905D33A
:10050000091F89B2521C92B20429F9D204ACA25C30
:10051000511889B2072901D3C91F89B282786C4664
:10052000A45C611889B2072901D3C91F89B2C078B8
:10053000401884B2072C03D3E41FA4B2072CFBD2CB
:10054000032A07D31846FFF7A1FF002802D0E0B224
:1005500006B010BD002C04D0641EA0B2C0B206B01C
:1005600010BD0620FAE710B504460020A0716071A6
:1005700020710120E070A070B54820802046FFF770
:100580009AFFE07110BD70B588B00246B1480346CD
:1005900078CB0496039502940193446903698069BA
:1005A000069405930790500001AB1C5A022A06D10D
:1005B0000846FFF76BFF002801D0641CA4B2E0B22C
:1005C00008B070BD10B504462188A078FFF7DBFFA6
:1005D0000146E078814202D0401CE0700BE001212E
:1005E000E170A078401CC0B2A0700D2803D1A170AA
:1005F0002088401C20802046FFF75DFFE07110BD81
:1006000010B58179491CC9B281713C292AD10023D6
:1006100083714179491CC9B241713C2911D18E4C79
:10062000082221781143217043710279521CD2B201
:100630000271182A05D10371042211432170FFF7BA
:10064000C1FF8649088800280CD0401E80B208806F
:10065000002807D1872040010880814910220878AE
:1006600010430870FFF7D2FB10BD10B50446218877
:100670007D200001081AC82801D3002010BDA078F1
:10068000002801D00C2801D9002010BDFFF77BFF06
:100690000146E078002801D0884201D9002010BD31
:1006A000012010BD6F490879401C0871C00701D0B6
:1006B00000BF70476C49012008707047F8B56A4860
:1006C000017800297BD00021017066484179491EDC
:1006D00041714179654D0124002902D1A988214346
:1006E000A9808179491E81718079002804D1A88868
:1006F0000121C9020843A8805D48FFF781FFFFF789
:1007000094FE5C4908220878104308705A4908781A
:10071000002801D0401E087058490878002801D0F0
:10072000401E0870564E3078400712D55548007864
:1007300006280ED1544F387800280AD0401EC0B287
:100740003870002805D15148C08801F095FB0A2077
:1007500038704F490878002811D0401EC0B2087088
:1007600000280CD147480078062808D13078400787
:1007700005D4002002F0DAF9308820433080688800
:10078000000624D530880221C2070140D20F114350
:1007900001D040061BD5684604F07FFF002804D036
:1007A000FF213CA21B31FEF726F8009800280ED14D
:1007B0003088C00404D5012001F078FB03E024E078
:1007C000002001F073FB30883549084030803549FE
:1007D0000878002801D0401E0870334908780028A6
:1007E00008D0401EC0B20870002803D12F490878F5
:1007F000204308702E490878002806D0401EC0B259
:100800000870002801D1FCF7EBFFF8BD2949012051
:100810000870704710B52748017800290BD00021D7
:10082000017012484088C00505D52348007A40066B
:1008300001D4FFF7E3F910BD00050301060402002F
:100840000000030306010406020500030500000082
:10085000DF070000A07B02000C2400203A240020C7
:1008600058240020982900202624002078290020E0
:100870003C2400205C240020AE24002077240020AB
:10088000B424002074240020752400209424002027
:10089000762400202E2E5C74696D652E63000000A6
:1008A000BFEF0000B12400202324002054240020A6
:1008B0000424002027240020682A0020FE4910205C
:1008C0008860FE49002008607047FE490320FC4A0A
:1008D000086000211060FC480160F8480222826034
:1008E000C1601E220261012292064262F74A07207D
:1008F0005061F7488160E1E7F54900208860EF49E1
:10090000086001200860EC491020C8607047EC487E
:100910000023C360E84909694906CA0F0321090495
:10092000002A01D0816102E001225204826141610A
:10093000E848C17849084900C1700371BEE7E5483D
:100940000021C1708171C171417101814181818139
:10095000C181DCE7DA490020486188610322120482
:10096000CA60DC490123CA781A43CA70087170470B
:1009700030B4D84C01212079D04D002814D0224623
:1009800051799279012815D0FE281AD0D24B1B1824
:10099000203B9B7FEB614B406371521C904218D906
:1009A000FE20207130BC7047A420E8616071217185
:1009B00030BC7047EA61514061710220207130BC47
:1009C0007047BD4A10209060E961FF20207130BC63
:1009D0007047401C207130BC7047BE480179FF2928
:1009E00002D10021817192E77047BA490879FF2846
:1009F00008D0401C08710979B048012906D0FF21B0
:100A0000C1617047AC4A10209060F4E7A521C16134
:100A10007047F0B4142900D314218407A40FAD4EFD
:100A200070893789C31B9D06AD0E40235B1B4D1C8F
:100A3000AB4203D8F0BC0020C04370478B069B0E2E
:100A4000A4012343A54C2354401C8006800E7081D2
:100A50000020002909D97389155CE5545B1C9B06AD
:100A60009B0E7381401C8842F5D3B07AC01B81066F
:100A7000890E4020401A142803D8F0BC0020C0433F
:100A80007047F0BC0020704700B5954800781038DA
:100A9000112818D203007B441B79DB189F44081EE1
:100AA00013142446355E4C521313131313135800BA
:100AB0008C480422017811430170894885494278A5
:100AC0000A708078487000BD8548824940788870F7
:100AD0008448082201781143017000BD8148012239
:100AE00001781143017000BD7F4800780328FAD3D4
:100AF0007E4A14210020FFF78CFF0028F3D07548B0
:100B00000222C1781143C17000BD774800780328E4
:100B1000FAD3764A14210120FFF77BFF0028F3D097
:100B20006C480222C1781143C17000BD6D48022299
:100B300001781143017000BD6D4881882022114366
:100B4000818000BD6A48818840221143818000BDB8
:100B50006448802201781143017000BD60484078EC
:100B6000002808D0624881880822114381805249B8
:100B70001004C86000BD5E488188082291438180CE
:100B800000BD00B5534B1979012912D01A4652798C
:100B9000022911D0FF2913D042405A71504A5218ED
:100BA000203A5077D879801C814201D9FF201871F2
:100BB00000BDA520587100BD42405A71D87100BDDA
:100BC000904201D1FFF760FFFFF7A1FE00BD70B4B6
:100BD000404C8026E389257B5D1B6D066D0E761BE0
:100BE000851CAE4203D870BC0020C0437047414D05
:100BF000461CEE545B1C5B065B0EE9545B1C5906FD
:100C0000490EE1810021002809D9E389565CEE54A0
:100C10005B1C5B065B0EE381491C8142F5D370BC13
:100C200000207047F0B42B4CA089E689B0421FD059
:100C3000304F395C491EC9B2A171401C4006400EBC
:100C4000A081142901D31420A0710020A579691C6A
:100C500000290DD9204A6D1CA1897B5C1354491CC5
:100C60004906490EA181B14202D0401CA842F3D3EB
:100C7000F0BC7047F0B40446164B1989588981427C
:100C800002D10020F0BC7047144E705C491C8906EC
:100C9000890E19818206920E142A02D91422D421B7
:100CA00008400021002AEDD91D89755D65541D7A23
:100CB0006D1CAD06AD0E1FE0000500500045004064
:100CC00000070050080700507807005040450040DA
:100CD0000041004044240020582B0020822B00209B
:100CE0006D2B002054240020202400206E2B002097
:100CF00078290020C22B00201D815F89BD42C1D010
:100D0000491C9142D0D3F0BC704730B585B0002467
:100D10000094019402940394049469460C70012594
:100D20004D7000A807228F49023005F0A1FD6A46E8
:100D300081211420FFF74BFF009401940294039447
:100D40000494FF20694608704D706A468121142082
:100D5000FFF73DFF84484188EA021143418005B016
:100D600030BD70B4814903208871814980200870AA
:100D70008048007848707C4840887F4B06060122F6
:100D8000022400251888002E05DAC60701D04A7013
:100D900002E04C7000E04D708D70050400D58A7043
:100DA000420402D58A7822438A708004800C18801D
:100DB000FF20C87070BC70476C48012181716C487D
:100DC00085220270684A9288D206002A01DA4170B0
:100DD000704700214170704710B564490120887147
:100DE000634C8720207000F02EF9607010BD10B5A4
:100DF0005E49082088715E488621017008225949A1
:100E0000401C05F035FD10BDF8B558490920887122
:100E1000574E822030705948C07B7070584F594CE3
:100E2000786800284ED0E16800294BD064225043F6
:100E300005F018FE06F08EFD534DA84200DD284651
:100E400006F044FDB070000AF070786900283BD0CD
:100E5000A168002938D06422504305F003FE06F053
:100E600079FDA84200DD284606F030FD3071000A09
:100E70007071786A002829D02169002926D064225F
:100E8000504305F0EFFD06F065FDA84200DD284661
:100E900006F01CFDB071000AF071B86A002817D086
:100EA0006169002914D06422504305F0DBFD06F08F
:100EB00051FDA84200DD284606F008FD3072000A08
:100EC0007072F8BD0020B7E70020CAE70020DCE719
:100ED0000020EEE7254A0420907125498320087000
:100EE00050694870030A8B70030CCB70000E0871B8
:100EF00000205061704770B5044620781B4D0028D3
:100F00000FD104222149204605F0E0FB002804D03F
:100F1000E878FB210840E87003E0E8780421084302
:100F2000E870E878400704D52178032903D0FF2929
:100F30000CD0012070BD14221549204605F0C6FBD7
:100F4000002801D0002070BD012070BD142211497D
:100F5000204605F0BBFB002801D0002070BD012019
:100F600070BD00003C24002078290020442400208B
:100F7000582B002020240020B4240020E825002045
:100F8000E0290020C825002000009643BA7B02001B
:100F9000BE7B0200D27B020070B50C462278112A7B
:100FA00016D0142A14D0152A02D0212A25D10FE0F8
:100FB000D848042102880A430280D7480170D749E3
:100FC00000200870D648012201781143017014E016
:100FD000D44A017891714178D17181781172C078C9
:100FE0005072D14DFF2902D0084601F090FAA8783E
:100FF000FF2802D0CB4920788880002070BD10B532
:101000001046002803D0C9A25D21FDF7F4FB10BDF6
:1010100070B50D20FC22C9498003FCF791FAC84C39
:10102000C84DA06BA8420CD0FF22FC21C34805F09C
:10103000ABFCA563C44801224178114341700120F3
:1010400070BD002070BD0020BC490A5CFF2A01D0A1
:1010500001207047401C80B20528F6D3002070475D
:10106000F8B500200090AF48694600780870002469
:10107000B24EB54F355D052D17D26846857004F028
:101080001AFE002803D0A9A28E21FDF7B4FB302060
:101090004543A819801DFF22302105F075FCFF2073
:1010A00030557878012108437870641C052CE1D311
:1010B000F8BDF8B5002000909A486946007808709D
:1010C00000259E4F00260024385DA84201D101264C
:1010D00002E0641C052CF7D3284605F0E7F8002849
:1010E00015D0002E0FD00420021B3819411C05F02A
:1010F00023FCFF20387130206843C019801DFF2277
:10110000302105F041FC6D1C052DDBD3F8BD002E10
:10111000F9D16846857004F0CEFD002803D083A283
:10112000B921FDF768FB30206843C019801DFF22FC
:10113000302105F029FCE6E7F8B5044600210091CE
:101140007849684609780170052C1FD27B4E7E4F86
:10115000355D052D17D26846857004F0ACFD00287A
:1011600003D072A2E321FDF746FB30204543A819C6
:10117000801DFF22302105F007FCFF2030557978D3
:10118000012001437970641C052CE1D3F8BD70B5D2
:1011900086B00124644804F0C0FB002803D063A299
:1011A000FB21FDF728FB04F037F8002803D05FA2ED
:1011B000FF21FDF720FB654842696549521C02D0BA
:1011C0000969406900E0486901266946CE80FC2033
:1011D0008880604800906049684604F05CF8002808
:1011E00004D0FF2151A20931FDF705FBFFF710FFE5
:1011F0000025002801D0059600E0059505A804F01B
:1012000056FC002819D0059605A804F050FC0028CB
:1012100004D0FF2145A22131FDF7EDFAFF2205217F
:10122000464805F0B1FBFF22F0214C4805F0ACFB2D
:101230004548417831434170002469460D824D8212
:101240001E20C881087C3043FD210840E32108406E
:101250000C30DF21084069460874072048741020CC
:1012600088743F4802900E7302A92E4804F0C8FC0F
:10127000002804D0FF212DA23931FDF7BCFAFFF779
:1012800018FF002C02D00420FFF756FF06B070BDF7
:1012900010B50121334A084604F024FA002804D08E
:1012A000FF2122A24A31FDF7A6FA10BD70B51A48F7
:1012B000007804282DD12C4D2C4E2878194C062866
:1012C0000CD13078062809D36078410706D4042170
:1012D0000843607000F0C8FD00F0CAFD30780628B1
:1012E00017D12878062814D36078010711D4082173
:1012F0000843607002F0CDFD02F0CFFD1C4C0222CD
:10130000A088002102F0CDFDA0880222012102F078
:10131000C8FD70BDB42400202024002076240020C5
:101320005424002060240020662400202E2E5C6DB2
:1013300061696E5F626C652E63000000442C0020C2
:10134000042D0020160814200C240020001000108A
:1013500000000010FF0F02006C2400204A2C002027
:10136000990F0200C55602007424002008250020B1
:1013700020250020FE4907200870704738B502205C
:1013800069468870FB480880F94C6A4601216089EB
:1013900090DF002802D0FFF7EDFF38BD032020705A
:1013A00038BD38B50020F449F44ACB88F04C93425C
:1013B00007D188886946401C08804880608993DF8F
:1013C0000AE0EF49CB88934206D188886946401CE1
:1013D00008804880608993DF002802D0FFF7CAFFA9
:1013E00038BD0520207038BD30B4E6498978E04C1E
:1013F00080886081052923D230204143E2480818C3
:101400002146C5880D8405894D84831C45898D84BA
:101410000A4680892032C88498891081D8895081F1
:10142000188A9081588AD081988A1082D88A5082EE
:10143000188B9082588BD0820120207030BC70476E
:1014400030BC9BE730B4CA4C0146608992DF00286B
:1014500001D030BC8EE70420207030BC704708B546
:10146000C18800290ED1818900290BD0C04A418A48
:101470009181808AD0816A46118050806846FFF74A
:10148000E1FF08BDFFF776FF08BDF8B5C1880A4641
:10149000FF3A0B3A01D0093211D1B74880880028B1
:1014A0000AD0BA488088002806D0B548808800282D
:1014B00002D0FFF776FFF8BDFFF75CFFF8BD00290B
:1014C00002D0FFF757FFF8BD0022002381890029D1
:1014D00021D9AF4DAF4EB04F0A2159430A180E32F1
:1014E00000211488AC4201D1A34906E0B44201D1E5
:1014F000A64902E0BC4200D1A149002907D00C80D6
:1015000054884C8014898C800024E443CC805B1C7C
:1015100081899942E0D89648002A09D011896A4603
:10152000491C1180C08950806846FFF78BFFF8BDC9
:1015300081896A461180C08950806846FFF782FF22
:10154000F8BD10B5C1880A46FF3A0B3A03D00932FC
:1015500001D0002902D0FFF70DFF10BD8189864A16
:10156000874B00290FD00E3041888C4CA1420AD104
:1015700000889488411E8C4201D1D08003E09C8871
:101580008C4200D1D880D1887C48814202D0D98851
:10159000814202D1FFF705FF10BD75480621017099
:1015A0000321C1700A21417081707D494878C209C8
:1015B000F2D1802210434870724804F050FB00289A
:1015C00000D000BF0028E7D0FF2176A25731FDF7F9
:1015D00012F910BD00B589B065480078062802D020
:1015E000082009B000BD00216B461971734842788C
:1015F0005A7182789A71C278DA71007918725972C8
:101600006248808858820620D88299820120187406
:1016100001A8069004A802F025F809B000BD00B5A5
:1016200089B053490978062902D0082009B000BDC5
:1016300000216A461171837A5371C37A9371037BD7
:10164000D371407B10720120507220239372D172AB
:101650004E4A93886A4653820823D382918210743B
:1016600001A8069004A801F0FDFF09B000BDF0B587
:1016700085B0054652A04168006802910190A88893
:10168000009000240098002870DD4C480146283165
:101690000830022604910390354F7869092846D214
:1016A00003007B441B79DB189F44040B11181F2691
:1016B0002D34420028194149807908700120786151
:1016C00012E128193D49807948707E610CE12819A2
:1016D0003A49807988700320786105E128193749F3
:1016E0008079C87004207861FEE028193349807938
:1016F000087105207861F7E0281930498079487130
:1017000006207861F0E028192C498079C8800720EC
:101710007861E9E029482A199279C18812021143B7
:10172000C180082078610398B86100203882DBE02E
:10173000B8690499884219D20399884216D32919A5
:1017400089790170401CB861398A491C89B2398293
:101750001A4AD2888A427DD100210170401CB861AA
:10176000052078617879184940012FE0C5E0000034
:101770007424002031F4000094240020FFFF0000B6
:10178000A424002066240020442C00209C24002057
:101790000D120000F3D80000E9C600000229000085
:1017A0005C2400202E2E5C736572766963655C6232
:1017B0006C655F616E63732E63000000802D0020F6
:1017C000E5BEAEE4BFA10000402D002040183A8ADB
:1017D000039905F04DF87879401CC0B27871012862
:1017E0007DD10822FD49FEA004F0E6FF00287DD04F
:1017F0000622FA49FDA004F0DFFF002877D0062278
:10180000F64901A804F062FF002870D00822F349CD
:10181000F8A004F0D1FF00286AD00922EF49F8A00F
:1018200004F0CAFF002876D00722EC49F7A004F0A4
:10183000C3FF002870D00522E849F6A004F0BCFFE1
:1018400000286AD00A22E549F4A004F0B5FF002878
:1018500070D000E048E00522E049F3A004F0ACFFBE
:10186000002868D00222DD49F1A004F0A5FF00287D
:101870007AD01322D949EFA004F09EFF002874D03B
:101880001522D649F0A004F097FF00286ED016224A
:10189000D249F3A004F090FF002868D01522CF4968
:1018A000F5A004F089FF002874D00F22CB49F8A0DE
:1018B00004F082FF00286ED00F22C849F8A004F07F
:1018C0007BFF002868D01422C449F9A004F074FFFB
:1018D00000286ED0FFF77EFE00207861787178795D
:1018E000012801D900207871641C02E007E015E0AE
:1018F00022E00098844200DACEE605B0F0BD052073
:101900003871F1488022417811434170EF484178A5
:1019100031434170E0E71BE02AE02CE006203871FB
:10192000E9488022417811434170E84841783143C9
:101930004170D1E722E030E007203871E2484022D0
:10194000417811434170E148417831434170C3E728
:101950000B203871DC484022417811434170DB484C
:10196000417831434170B7E724E02FE03AE045E0A9
:1019700008203871B0E709203871ADE70D203871C3
:10198000D1482022417811434170D04841783143F9
:101990004170A1E73EE049E054E00E203871CA48AA
:1019A0002022417811434170C84841783143417049
:1019B00092E753E00F203871C348802241781143E9
:1019C0004170C24841783143417085E70A2038713F
:1019D000BD480822017811430170BC484178314369
:1019E000417079E719203871B74880224178114356
:1019F0004170B6484178314341706DE71B20387122
:101A0000B1484022417811434170B0484178314398
:101A1000417061E71B203871AB4840224178114387
:101A20004170AA4841783143417055E71A20387116
:101A3000A5488022417811434170A4484178314340
:101A4000417049E7182038719F488022417811433E
:101A500041709E484178314341703DE7182038710C
:101A60009948802241781143417098484178314328
:101A7000417031E7F8B500210C30954B02889B8806
:101A80009A4259D18388022B56D38279002A52D1A7
:101A9000904CA271C279E271077A2772467A667217
:101AA0000023E361520746D4874A874B12785D785A
:101AB000072F39D23B007B441B79DB189F4420035E
:101AC0000C341C152400804B01252A431A70824BCC
:101AD00003221A70257120E07B4B02252A431A70DD
:101AE0007D4B04221A70257117E0774A10231D439D
:101AF00055700322227110E00121784A167013E01C
:101B00000C212171012108E0042222716E4A202358
:101B10001D435570704A09231370704A16706B4A42
:101B2000022553782B435370012904D1FFF777FD29
:101B3000002060616071F8BD694989888A42FAD1E4
:101B400081880229F7D3FFF792FDF8BD38B502214D
:101B50000091604900240C70002825D06946614836
:101B600063DF002804D00B215F4A8901FCF743FEA4
:101B70006D46691C5D4863DF002803D05A4A5C4902
:101B8000FCF739FEA91C5B4863DF002803D0564AE6
:101B90005949FCF730FEE91C584863DF002803D0A0
:101BA000514A5749FCF727FE4A48048401464484B9
:101BB000203184840C814C818C810C824C828C82FB
:101BC00051495048C8800839C8801031C8804F49F1
:101BD000FB2208781040087038BD0000402D00201E
:101BE0005768617473417070000000005765436866
:101BF0006174000046616365626F6F6B00000000F6
:101C00004D657373656E6765720000005477697483
:101C100074657200536B7970650000005961686FDC
:101C20006F204D61696C0000476D61696C000000B8
:101C300051510000636F6D2E6170706C652E4D6F99
:101C400062696C65534D53006E65742E77686174DC
:101C5000736170702E57686174734170700000007A
:101C6000636F6D2E66616365626F6F6B2E4D65737A
:101C700073656E6765720000636F6D2E66616365E4
:101C8000626F6F6B2E46616365626F6F6B00000061
:101C9000636F6D2E74656E63656E742E78696E0069
:101CA000636F6D2E74656E63656E742E6D71710059
:101CB000636F6D2E74656E63656E742E6D6F6269F1
:101CC0006C6571710000000058240020542400202D
:101CD00094240020742400202124002022240020A9
:101CE000A4240020E67B0200A4170200F67B020079
:101CF000C3020000067C0200C6020000167C02003F
:101D0000C9020000FFFF00009C2400206124002085
:101D1000C1885C4A914208D000885B49884202D061
:101D20005A49884201D1012070470020704710B500
:101D30000188574A937811290CD0564C2278072AEB
:101D40003CD213007B441B79DB189F44383D375647
:101D50005B606500052B2ED24F48FFF7D9FF0028A6
:101D600029D04E48FFF7D4FF002824D03020434329
:101D70004B48484918180C8CC4804C8C04810A4686
:101D80008C8C4481831CC98C20328181108998817C
:101D90005089D88190891882D0895882108A988277
:101DA000508AD882908A1883D08A58833D4801226D
:101DB0004178114341700020FFF7C8FE10BD102983
:101DC000FCD1FFF711FB10BD172901D01429FAD15E
:101DD0003148FFF79DFF00280CD03048FFF798FFEF
:101DE000002807D0062020700320E0700A206070D1
:101DF000A07010BDFFF7C2FA10BD3029FCD1FFF76B
:101E00002EFB10BD3229FCD1FFF73FFB10BD33295B
:101E1000FCD1FFF796FB10BD3829FCD1E1780029F1
:101E2000F9D1FFF727FE10BD00B587B0194A127827
:101E3000062A02D0082007B000BD01230022002995
:101E400002D069460B7101E069460A7169464A7120
:101E500048810220C8818A810B7201A8049002A8DF
:101E600001F000FC07B000BD0B480121C088DBE792
:101E70000A480121C088D7E701460B4800220088A4
:101E800095DF7047FFFF00000D120000E9C600005B
:101E9000662400207424002094240020A424002020
:101EA000442C00200C2400206224002070B586B051
:101EB000002401940294039404940594FE4901269D
:101EC0000E7069460C710C73FC4D0028298906D0F0
:101ED00028206A469082F0020143298105E0F848F3
:101EE0006A469082F748014029811E206946C882CF
:101EF00001A873DF002804D09721F3A2C900FCF7E2
:101F00007AFC288930432881F548017831430170F3
:101F10002C7006B070BD10B5FF21EBA2ED31FCF7BF
:101F20006AFC10BD10B50068002803D0012800D15C
:101F300000BF10BDEB483B21008876DF002804D0AD
:101F4000FF21E1A2D831FCF756FCDC48E64A0189C2
:101F50001140412211430181E44A00211170E44AF9
:101F60001170DF4A012413782343137001708170CC
:101F700010BD00B589B000200090019028216A466C
:101F8000118050215180042191804B21C900D180C2
:101F90000590069069460291D64903910491032168
:101FA0001175D5494989D1821076D4480790D44813
:101FB000089002A802F055FA002804D0FF21C2A21E
:101FC000C531FCF718FC09B000BD00B5A1B0062072
:101FD0000290CC4801680191406800903C2112A811
:101FE00004F0F9FC3C2103A804F0F5FC0220129057
:101FF000002010A948730120088202A9159110A998
:10200000888501A91C916946088568460B9003A93B
:1020100012A802F0B2F9002803D0ABA28D21FCF780
:10202000EAFB21B000BD10B48FB0002108910A91E5
:102030000B910C910D910E9108AB1A7804231A4361
:1020400008AB1A70B0A2099209226B461A855A850C
:1020500006229A72AF4A1A8101919A79F9231A409D
:10206000921C6B461B7900231C07240F6B461C71C6
:102070005B7901231C07240F10346B465C715208F6
:1020800052009A7105910691079102AA039201AA42
:10209000049214229A82D9821A83848803461E33BA
:1020A00003AA08A92046A2DF0FB010BC704730B4C5
:1020B00090B00022089208AD2B7801231B071B0F5C
:1020C00010332B706B7801231B071B0F10336B70C1
:1020D000AB78F92423409B1CAB7009920B920C92B5
:1020E0000D920F922B7904252B4310252B4308AD1D
:1020F0002B7189A30A930D236D46AB85EB8508AB45
:102100000E930623AB72884B2B810192AB7923404F
:102110009B1C2C7900242407240F2C716C7901243A
:102120002407240F10346C715B085B00AB710592BF
:10213000069202AA039201AA04921422AA822A8376
:102140001231079184880346163303AA09A9204651
:10215000A2DF10B030BC704710B48FB000210891DE
:102160000A910B910C910D910E9108AB1A780423F2
:102170001A4308AB1A706DA2099207226B461A85A2
:102180005A8506229A726B4A1A8101919A79F9232B
:102190001A40921C6B461B7900231C07240F6B46C8
:1021A0001C715B7901231C07240F20346B465C7182
:1021B000520852009A7105910691079102AA039262
:1021C00001AA049214229A82D9821A83848803462F
:1021D0000E3303AA08A92046A2DF0FB010BC704737
:1021E00070B48FB0002207926E46337F01231B0725
:1021F0001B0F10333377737F01231B071B0F203313
:102200007377B37FF9252B409B1CB37708920A9212
:102210000B920C920E9208AE337810242343337045
:1022200045A3099307236E463385738507AB0D934A
:102230000623B371424BB3800092B4782C40A41CA7
:10224000337800231B071B0F3370737800231B07A1
:102250001B0F737063085B00B3700492059201AAB0
:1022600002926A46039214223282B282123106919D
:102270008488831D02AA08A92046A2DF0FB070BC83
:10228000704730B585B004460D46286820600020B0
:10229000C043E0842946204614221231283004F03D
:1022A000E7FA06206946887426480882154B0833E9
:1022B0000FCB0393029247E020240020AC2400209F
:1022C00064060000FFF700002E2E5C7365727669CD
:1022D00063655C626C655F696D617A652E630000A1
:1022E0005424002062240020711200007524002074
:1022F0007624002000710200A82D0020251F020076
:10230000171F0200287C02004E657720416C657221
:1023100074000000243000004E65766F204669721C
:102320006D77617265000000233000004E65766FA6
:1023300020527800223000004E65766F20547800DD
:1023400021300000203000000191009004A90231EA
:10235000684663DF00281DD1221D04A90120A0DFEB
:10236000002817D129462046FFF73AFF002811D14F
:1023700029462046FFF7F0FE00280BD129462046CB
:10238000FFF795FE002805D129462046FFF74BFEB2
:102390000028FFD105B030BD00B58BB00020009003
:1023A0000190029003900490059006900790089089
:1023B000099001200007000F1030694608720120C3
:1023C0000007000F1030487201200007000F103086
:1023D000087300200007000FC87201200007000FDB
:1023E0001030487301200007000F1030887301205F
:1023F0000007000F1030487400200007000F087419
:10240000F748FFF73EFF002803D0F64AC121FCF74A
:10241000F2F90BB000BD00B591B04021684604F060
:10242000DAFAF1A1684601F0DBFFF1A104A801F09E
:10243000D7FFF1A108A801F0D3FFF0A10AA801F08D
:10244000CFFF01200007000F103008A908770020F7
:102450000007000F4877684601F0DBF9002803D039
:10246000E04AA521FCF7C7F911B000BD00B585B061
:1024700001200007000F20300190E14804F07AF9B4
:1024800082B2DF4901A87CDF002803D0D54A56215B
:10249000FCF7B1F9C12078DF002803D0D14A5A21D6
:1024A000FCF7A9F9002002900390282069460881D2
:1024B00050204881042088814B20C000C88102A898
:1024C0007ADF002803D0C74A6521FCF794F905B0EC
:1024D00000BD10B50020FEF75AFE01F041F80120C2
:1024E000FFF734FB01F0D1FBFFF7C0FFFFF793FFCD
:1024F000FFF752FFFFF769FDFFF73BFDC148418839
:102500008022114341800120FFF7D0FC10BD70B53F
:102510000446BD4D2878A0421AD00020295CA14273
:1025200008D1042809D204210A1A2818411C04F0F1
:1025300003FA02E0401C0528F0D30422B249681CCB
:1025400004F0FAF92C70B14801224178114341702E
:1025500070BDF0B58BB001460024AD4EAD4A377862
:102560000888012312891F4315287DD00ADCAA4D53
:1025700001282B7879D010280DD0112829D01228C5
:1025800072D1A3E0172871D0192870D035286FD0E8
:10259000372869D1A7E0A14889880180A049087837
:1025A000032801D2032008709E499A480A409E4998
:1025B0000A4302813770002141710A2181706878D5
:1025C0004006400E6870FB200340DF2003402B7064
:1025D000A5E0904F8879B871082801D1042078715E
:1025E00092488078FF2801D0FFF791FF8648007954
:1025F000FF2802D00420FEF79FFD8C4803F08DF9E0
:1026000004462046002803D0764A8949FCF7F3F8AF
:1026100000F0A6FF00218148C94301803989854A1D
:1026200038461140412211430181834900270F7030
:1026300082490F7031780122114331702978FB22D1
:102640001140DF22114007708770FD200140297082
:1026500068784006400E68700820019001A902A821
:102660007DDF6946888804E059E031E034E040E0ED
:102670003CE0664D2026082816D90F7402A9604850
:1026800004F052F801200007000F20300A905C4847
:1026900004F070F882B25A490AA87CDF28783043E7
:1026A0002870FFF792FC3AE002A90F54544902A89F
:1026B00004F094F9002832D002A9514804F034F80B
:1026C000287830432870FFF780FC28E000BF26E020
:1026D000FD2003402B7022E0887900281FD1584943
:1026E000032008701BE000F063FF18E000F060FFBB
:1026F00015E08879002802D001280FD00FE04D485E
:1027000044490240412002430A814B4A0020107094
:102710004A4A107037700870887000E000BF204689
:10272000002803D02F4A4749FCF765F80BB0F0BDED
:1027300070B5384CA078022801D20220A070088B16
:10274000142817D108461A300546FEF7D4FB002896
:1027500010D02A4684211420FEF739FA002809D027
:102760002089012189030843208129480122017819
:102770001143017070BDF0B408461A30254A022793
:102780009378022B00D29770098B142926D14178B7
:10279000602923D10178002920D1C17800291DD0DA
:1027A0001B4D8178294C68780223274E62781843A4
:1027B00001294DD023461B78032951D0042957D035
:1027C00005295CD0072962D00A2968D00B2905D1D8
:1027D0002E21317080210A4362706870F0BC70470E
:1027E000A82D0020C8220200446179746F6E000099
:1027F000323334353600000033380000303000000A
:10280000FC26002078290020442C00200C240020E5
:1028100054240020AC2400205C24002062240020EA
:1028200020240020FEF70000021200006624002091
:10283000920200007112000075240020762400200E
:1028400077240020FD020000782400205824002076
:102850002821317020210A4362706870F0BC7047F3
:102860002921317001210B4323706870F0BC70473F
:102870002A2131703B4323706870F0BC70472B21D4
:10288000317008210B4323706870F0BC70472C2115
:10289000317010210A4362706870F0BC70472D21BE
:1028A000317040210A4362706870F0BC704770B5A7
:1028B0000446FE4D20262A891046D10630430029C1
:1028C00001DA28813EE02178002903D093060BD558
:1028D000002070BD00202871B2432A8114222146B5
:1028E000F34803F0C5FF1DE0FF2908D0EA78FE2A6F
:1028F00009D0521C91420BD02881012070BD1020BC
:1029000002432A8104E0012902D02881012070BD00
:10291000287912214843E64912224018801CA11C44
:1029200003F0A6FF2078E8702879401CC0B2287117
:10293000042807D12078FF2804D028893043288133
:10294000012070BD002070BDF8B508461A30009017
:10295000D64CA278022A01D20222A270098B142935
:102960001DD14178F22918D0F32916D0F42914D0BA
:10297000F52912D00A46203A212A11D301290FD075
:1029800045290DD00126891EB703CA4D1E2913D231
:10299000FFF78DFF012806D00BE0FFF788FFF8BD99
:1029A000FFF785FFF8BD2089384320812878304320
:1029B0002870207A8006F5D481211420009AFEF731
:1029C00006F90028EED0208938432081287830434A
:1029D0002870F8BD088B02280AD1B44A8B7E108972
:1029E000012B02D1C97E002903D0B34908401081D0
:1029F00070470121490308431081B048FD22017846
:102A000011400170704710B4088B02280AD1A74A00
:102A10008C7E08231089012C02D1C97E002903D0A5
:102A20009843108110BC704718431081A348FD22C1
:102A300001781140017010BC704710B584B00024BB
:102A4000891D0A8843899A4203D1FFF7DCFF0124DC
:102A500016E0438B9A4202D1FFF7BCFF10E0C38916
:102A60009A4202D1FFF770FF0AE0C38B9A4202D16B
:102A7000FFF781FE04E0C38A9A4201D1FFF758FEB6
:102A8000002C1AD08E488078FF2816D08D48007808
:102A9000042812D100200190029003900120694681
:102AA000087101A9864803F043F9082805D00028D9
:102AB00003D0854A8549FBF79EFE04B010BD002176
:102AC000C943C18470478988C18470470A88102A25
